{"abi":[{"type":"constructor","inputs":[],"stateMutability":"nonpayable"},{"type":"function","name":"createDeploymentRequest","inputs":[{"name":"projectId","type":"bytes32","internalType":"bytes32"},{"name":"solverAddress","type":"address","internalType":"address"},{"name":"base64Proposal","type":"string","internalType":"string"},{"name":"serverURL","type":"string","internalType":"string"}],"outputs":[{"name":"requestID","type":"bytes32","internalType":"bytes32"}],"stateMutability":"nonpayable"},{"type":"function","name":"createPrivateDeploymentRequest","inputs":[{"name":"projectId","type":"bytes32","internalType":"bytes32"},{"name":"solverAddress","type":"address","internalType":"address"},{"name":"privateWorkerAddress","type":"address","internalType":"address"},{"name":"base64Proposal","type":"string","internalType":"string"},{"name":"serverURL","type":"string","internalType":"string"}],"outputs":[{"name":"requestID","type":"bytes32","internalType":"bytes32"}],"stateMutability":"nonpayable"},{"type":"function","name":"createPrivateProposalRequest","inputs":[{"name":"projectId","type":"bytes32","internalType":"bytes32"},{"name":"privateSolverAddress","type":"address","internalType":"address"},{"name":"base64RecParam","type":"string","internalType":"string"},{"name":"serverURL","type":"string","internalType":"string"}],"outputs":[{"name":"requestID","type":"bytes32","internalType":"bytes32"}],"stateMutability":"nonpayable"},{"type":"function","name":"createProjectID","inputs":[],"outputs":[{"name":"projectId","type":"bytes32","internalType":"bytes32"}],"stateMutability":"nonpayable"},{"type":"function","name":"createProposalRequest","inputs":[{"name":"projectId","type":"bytes32","internalType":"bytes32"},{"name":"base64RecParam","type":"string","internalType":"string"},{"name":"serverURL","type":"string","internalType":"string"}],"outputs":[{"name":"requestID","type":"bytes32","internalType":"bytes32"}],"stateMutability":"nonpayable"},{"type":"function","name":"factor","inputs":[],"outputs":[{"name":"","type":"uint256","internalType":"uint256"}],"stateMutability":"view"},{"type":"function","name":"getDeploymentStatus","inputs":[{"name":"requestID","type":"bytes32","internalType":"bytes32"}],"outputs":[{"name":"","type":"uint8","internalType":"enum Blueprint.Status"},{"name":"","type":"address","internalType":"address"}],"stateMutability":"view"},{"type":"function","name":"getLatestDeploymentRequestID","inputs":[{"name":"addr","type":"address","internalType":"address"}],"outputs":[{"name":"","type":"bytes32","internalType":"bytes32"}],"stateMutability":"view"},{"type":"function","name":"getLatestProposalRequestID","inputs":[{"name":"addr","type":"address","internalType":"address"}],"outputs":[{"name":"","type":"bytes32","internalType":"bytes32"}],"stateMutability":"view"},{"type":"function","name":"getLatestUserProjectID","inputs":[{"name":"addr","type":"address","internalType":"address"}],"outputs":[{"name":"","type":"bytes32","internalType":"bytes32"}],"stateMutability":"view"},{"type":"function","name":"getReputation","inputs":[{"name":"addr","type":"address","internalType":"address"}],"outputs":[{"name":"","type":"uint256","internalType":"uint256"}],"stateMutability":"view"},{"type":"function","name":"latestDeploymentRequestID","inputs":[{"name":"","type":"address","internalType":"address"}],"outputs":[{"name":"","type":"bytes32","internalType":"bytes32"}],"stateMutability":"view"},{"type":"function","name":"latestProjectID","inputs":[{"name":"","type":"address","internalType":"address"}],"outputs":[{"name":"","type":"bytes32","internalType":"bytes32"}],"stateMutability":"view"},{"type":"function","name":"latestProposalRequestID","inputs":[{"name":"","type":"address","internalType":"address"}],"outputs":[{"name":"","type":"bytes32","internalType":"bytes32"}],"stateMutability":"view"},{"type":"function","name":"requestDeploymentStatus","inputs":[{"name":"","type":"bytes32","internalType":"bytes32"}],"outputs":[{"name":"status","type":"uint8","internalType":"enum Blueprint.Status"},{"name":"deployWorkerAddr","type":"address","internalType":"address"}],"stateMutability":"view"},{"type":"function","name":"solverReputation","inputs":[{"name":"","type":"address","internalType":"address"}],"outputs":[{"name":"","type":"uint256","internalType":"uint256"}],"stateMutability":"view"},{"type":"function","name":"submitDeploymentRequest","inputs":[{"name":"projectId","type":"bytes32","internalType":"bytes32"},{"name":"requestID","type":"bytes32","internalType":"bytes32"}],"outputs":[{"name":"isAccepted","type":"bool","internalType":"bool"}],"stateMutability":"nonpayable"},{"type":"function","name":"submitProofOfDeployment","inputs":[{"name":"projectId","type":"bytes32","internalType":"bytes32"},{"name":"requestID","type":"bytes32","internalType":"bytes32"},{"name":"proofBase64","type":"string","internalType":"string"}],"outputs":[],"stateMutability":"nonpayable"},{"type":"function","name":"totalDeploymentRequest","inputs":[],"outputs":[{"name":"","type":"uint256","internalType":"uint256"}],"stateMutability":"view"},{"type":"function","name":"totalProposalRequest","inputs":[],"outputs":[{"name":"","type":"uint256","internalType":"uint256"}],"stateMutability":"view"},{"type":"function","name":"workerReputation","inputs":[{"name":"","type":"address","internalType":"address"}],"outputs":[{"name":"","type":"uint256","internalType":"uint256"}],"stateMutability":"view"},{"type":"event","name":"AcceptDeployment","inputs":[{"name":"projectID","type":"bytes32","indexed":true,"internalType":"bytes32"},{"name":"requestID","type":"bytes32","indexed":true,"internalType":"bytes32"},{"name":"workerAddress","type":"address","indexed":true,"internalType":"address"}],"anonymous":false},{"type":"event","name":"CreateProjectID","inputs":[{"name":"projectID","type":"bytes32","indexed":true,"internalType":"bytes32"},{"name":"walletAddress","type":"address","indexed":false,"internalType":"address"}],"anonymous":false},{"type":"event","name":"GeneratedProofOfDeployment","inputs":[{"name":"projectID","type":"bytes32","indexed":true,"internalType":"bytes32"},{"name":"requestID","type":"bytes32","indexed":true,"internalType":"bytes32"},{"name":"base64DeploymentProof","type":"string","indexed":false,"internalType":"string"}],"anonymous":false},{"type":"event","name":"RequestDeployment","inputs":[{"name":"projectID","type":"bytes32","indexed":true,"internalType":"bytes32"},{"name":"walletAddress","type":"address","indexed":false,"internalType":"address"},{"name":"solverAddress","type":"address","indexed":false,"internalType":"address"},{"name":"requestID","type":"bytes32","indexed":true,"internalType":"bytes32"},{"name":"base64Proposal","type":"string","indexed":false,"internalType":"string"},{"name":"serverURL","type":"string","indexed":false,"internalType":"string"}],"anonymous":false},{"type":"event","name":"RequestPrivateDeployment","inputs":[{"name":"projectID","type":"bytes32","indexed":true,"internalType":"bytes32"},{"name":"walletAddress","type":"address","indexed":false,"internalType":"address"},{"name":"privateWorkerAddress","type":"address","indexed":false,"internalType":"address"},{"name":"solverAddress","type":"address","indexed":false,"internalType":"address"},{"name":"requestID","type":"bytes32","indexed":true,"internalType":"bytes32"},{"name":"base64Proposal","type":"string","indexed":false,"internalType":"string"},{"name":"serverURL","type":"string","indexed":false,"internalType":"string"}],"anonymous":false},{"type":"event","name":"RequestPrivateProposal","inputs":[{"name":"projectID","type":"bytes32","indexed":true,"internalType":"bytes32"},{"name":"walletAddress","type":"address","indexed":false,"internalType":"address"},{"name":"privateSolverAddress","type":"address","indexed":false,"internalType":"address"},{"name":"requestID","type":"bytes32","indexed":true,"internalType":"bytes32"},{"name":"base64RecParam","type":"string","indexed":false,"internalType":"string"},{"name":"serverURL","type":"string","indexed":false,"internalType":"string"}],"anonymous":false},{"type":"event","name":"RequestProposal","inputs":[{"name":"projectID","type":"bytes32","indexed":true,"internalType":"bytes32"},{"name":"walletAddress","type":"address","indexed":false,"internalType":"address"},{"name":"requestID","type":"bytes32","indexed":true,"internalType":"bytes32"},{"name":"base64RecParam","type":"string","indexed":false,"internalType":"string"},{"name":"serverURL","type":"string","indexed":false,"internalType":"string"}],"anonymous":false}],"bytecode":{"object":"0x6080604052348015600f57600080fd5b50612710600b556000600c819055600d556117018061002f6000396000f3fe608060405234801561001057600080fd5b50600436106101375760003560e01c806384717e90116100b8578063be539d3f1161007c578063be539d3f146102d2578063ce1b4ff5146102f5578063e128fced1461031e578063ed3c95c014610333578063f11d367514610353578063fcc829391461037c57600080fd5b806384717e90146102515780639c89a0e214610264578063a97bedfe1461028d578063b9bb713514610296578063bae7e16c146102bf57600080fd5b806356ed8752116100ff57806356ed8752146101e257806359617ef7146102025780637371498c14610215578063822c737a1461022857806383c49efa1461024857600080fd5b8063078ebeae1461013c57806308a101b81461016f578063094705361461018f5780632ae189d8146101d157806354f703f8146101d9575b600080fd5b61015c61014a366004610ff3565b60026020526000908152604090205481565b6040519081526020015b60405180910390f35b61015c61017d366004610ff3565b60056020526000908152604090205481565b6101c361019d366004611015565b60009081526006602052604090205460ff8116916101009091046001600160a01b031690565b604051610166929190611044565b61015c6103af565b61015c600b5481565b61015c6101f0366004610ff3565b60036020526000908152604090205481565b61015c610210366004611123565b610459565b61015c610223366004611123565b6105cc565b61015c610236366004610ff3565b60016020526000908152604090205481565b61015c600d5481565b61015c61025f3660046111a6565b6107e2565b61015c610272366004610ff3565b6001600160a01b031660009081526004602052604090205490565b61015c600c5481565b61015c6102a4366004610ff3565b6001600160a01b031660009081526002602052604090205490565b61015c6102cd366004611218565b610921565b6102e56102e03660046112ac565b610b7e565b6040519015158152602001610166565b61015c610303366004610ff3565b6001600160a01b031660009081526003602052604090205490565b61033161032c3660046112ce565b610d37565b005b61015c610341366004610ff3565b60046020526000908152604090205481565b61015c610361366004610ff3565b6001600160a01b031660009081526001602052604090205490565b6101c361038a366004611015565b60066020526000908152604090205460ff81169061010090046001600160a01b031682565b604080514260208201526bffffffffffffffffffffffff193360601b169181019190915246605482015260009060740160408051601f1981840301815282825280516020918201206000818152600a835283812080546001600160a01b031916339081179091558082526003845293902081905591835290925082917f988dde20b788b20d2f8188ab37bc9419a99761fc4ec19356dc30cfa49b4601dc910160405180910390a290565b6000848152600a60205260408120546001600160a01b03166104965760405162461bcd60e51b815260040161048d90611308565b60405180910390fd5b60008251116104b75760405162461bcd60e51b815260040161048d9061133f565b60008351116105025760405162461bcd60e51b8152602060048201526017602482015276626173653634526563506172616d20697320656d70747960481b604482015260640161048d565b42338446604051602001610519949392919061138f565b60408051601f19818403018152918152815160209283012060008181553381526001909352908220819055600c80549193509091610556836113eb565b909155505060008181526008602052604080822080546001600160a01b0319166001600160a01b0388161790559054905186907f1eb4ec68b7c7cf7850d18fd32bdd1cb9e2c9b7e1de32211eef093af3cf262aee906105bc903390899089908990611430565b60405180910390a3949350505050565b6000848152600a60205260408120546001600160a01b03166106005760405162461bcd60e51b815260040161048d90611308565b60008251116106215760405162461bcd60e51b815260040161048d9061133f565b600083511161066c5760405162461bcd60e51b815260206004820152601760248201527662617365363450726f706f73616c20697320656d70747960481b604482015260640161048d565b6001600160a01b0384166106c25760405162461bcd60e51b815260206004820152601a60248201527f736f6c76657241646472657373206973206e6f742076616c6964000000000000604482015260640161048d565b423384466040516020016106d9949392919061138f565b60408051601f19818403018152918152815160209283012060008181553381526002909352908220819055600d80549193509091610716836113eb565b9091555050604080518082019091526000808252602082015260018082526000838152600660205260409020825181548493839160ff1916908360058111156107615761076161102e565b02179055506020919091015181546001600160a01b0390911661010002610100600160a81b031990911617905561079785610f08565b50600054867fcdde0392731ff1ddcc3295ee84db8db4a9ad3d8f34056867af8c9f3b2920d44e338888886040516107d19493929190611430565b60405180910390a350949350505050565b6000838152600a60205260408120546001600160a01b03166108165760405162461bcd60e51b815260040161048d90611308565b60008251116108375760405162461bcd60e51b815260040161048d9061133f565b60008351116108825760405162461bcd60e51b8152602060048201526017602482015276626173653634526563506172616d20697320656d70747960481b604482015260640161048d565b42338446604051602001610899949392919061138f565b60408051601f19818403018152918152815160209283012060008181553381526001909352908220819055600c805491935090916108d6836113eb565b9190505550600054847f660f0cd9ab48b3916970cca5763925f3b8f0e0e158fb9f0f4ae5f71e9605d76733868660405161091293929190611479565b60405180910390a39392505050565b6000858152600a60205260408120546001600160a01b03166109555760405162461bcd60e51b815260040161048d90611308565b60008251116109765760405162461bcd60e51b815260040161048d9061133f565b60008351116109c15760405162461bcd60e51b815260206004820152601760248201527662617365363450726f706f73616c20697320656d70747960481b604482015260640161048d565b6001600160a01b038516610a175760405162461bcd60e51b815260206004820152601a60248201527f736f6c76657241646472657373206973206e6f742076616c6964000000000000604482015260640161048d565b42338446604051602001610a2e949392919061138f565b60408051601f19818403018152918152815160209283012060008181553381526002909352908220819055600d80549193509091610a6b836113eb565b9190505550610a7985610f08565b50604080518082018252600281526001600160a01b03861660208083019190915260008481526006909152919091208151815483929190829060ff19166001836005811115610aca57610aca61102e565b02179055506020919091015181546001600160a01b0390911661010002610100600160a81b031990911617905560005460405188907f26e5b75b543be1cdad2907ba50a99eeb5c3a05381eee18d5b6a565b2bbccd1ba90610b349033908a908c908b908b906114b9565b60405180910390a3846001600160a01b031682887f065b3b95166dc6cadb255ba57b9623fa09d0519437b43d13dbd0d7f7a5ee9b7660405160405180910390a45095945050505050565b6000828152600a60205260408120546001600160a01b0316610bb25760405162461bcd60e51b815260040161048d90611308565b60008281526006602052604081205460ff166005811115610bd557610bd561102e565b03610c225760405162461bcd60e51b815260206004820152601860248201527f72657175657374494420646f6573206e6f742065786973740000000000000000604482015260640161048d565b600260008381526006602052604090205460ff166005811115610c4757610c4761102e565b03610cc85760405162461bcd60e51b815260206004820152604560248201527f72657175657374494420616c7265616479207069636b656420627920616e6f7460448201527f68657220776f726b65722c20747279206120646966666572656e742072657175606482015264195cdd125160da1b608482015260a40161048d565b50600081815260066020526040808220805460026101003381026001600160a81b03199093169290921717918290559151600193929091046001600160a01b031691849186917f065b3b95166dc6cadb255ba57b9623fa09d0519437b43d13dbd0d7f7a5ee9b7691a492915050565b6000838152600a60205260409020546001600160a01b0316610d6b5760405162461bcd60e51b815260040161048d90611308565b60008281526006602052604081205460ff166005811115610d8e57610d8e61102e565b03610dd15760405162461bcd60e51b81526020600482015260136024820152721c995c5d595cdd081251081b9bdd08195e1a5d606a1b604482015260640161048d565b60008281526006602052604090205461010090046001600160a01b03163314610e335760405162461bcd60e51b815260206004820152601460248201527377726f6e6720776f726b6572206164647265737360601b604482015260640161048d565b600560008381526006602052604090205460ff166005811115610e5857610e5861102e565b03610e9c5760405162461bcd60e51b815260206004820152601460248201527330b63932b0b23c9039bab136b4ba10383937b7b360611b604482015260640161048d565b6000828152600660209081526040808320805460ff1916600517905560079091529020610ec98282611594565b5081837fddb29833db778500c94a5880f1a8ad549d91ec7c80faee2b3735bda881fa6d9883604051610efb9190611653565b60405180910390a3505050565b6001600160a01b038116600090815260046020526040902054600b54610f2f906006611666565b811015610f4a57600b54610f439082611683565b9050610fb8565b6103e8600c541115610f8557600c54600b54610f67906006611666565b610f719083611696565b610f7b91906116a9565b610f439082611683565b6103e8600b546006610f979190611666565b610fa19083611696565b610fab91906116a9565b610fb59082611683565b90505b6001600160a01b03909116600090815260046020526040902081905590565b80356001600160a01b0381168114610fee57600080fd5b919050565b60006020828403121561100557600080fd5b61100e82610fd7565b9392505050565b60006020828403121561102757600080fd5b5035919050565b634e487b7160e01b600052602160045260246000fd5b604081016006841061106657634e487b7160e01b600052602160045260246000fd5b9281526001600160a01b039190911660209091015290565b634e487b7160e01b600052604160045260246000fd5b600082601f8301126110a557600080fd5b813567ffffffffffffffff8111156110bf576110bf61107e565b604051601f8201601f19908116603f0116810167ffffffffffffffff811182821017156110ee576110ee61107e565b60405281815283820160200185101561110657600080fd5b816020850160208301376000918101602001919091529392505050565b6000806000806080858703121561113957600080fd5b8435935061114960208601610fd7565b9250604085013567ffffffffffffffff81111561116557600080fd5b61117187828801611094565b925050606085013567ffffffffffffffff81111561118e57600080fd5b61119a87828801611094565b91505092959194509250565b6000806000606084860312156111bb57600080fd5b83359250602084013567ffffffffffffffff8111156111d957600080fd5b6111e586828701611094565b925050604084013567ffffffffffffffff81111561120257600080fd5b61120e86828701611094565b9150509250925092565b600080600080600060a0868803121561123057600080fd5b8535945061124060208701610fd7565b935061124e60408701610fd7565b9250606086013567ffffffffffffffff81111561126a57600080fd5b61127688828901611094565b925050608086013567ffffffffffffffff81111561129357600080fd5b61129f88828901611094565b9150509295509295909350565b600080604083850312156112bf57600080fd5b50508035926020909101359150565b6000806000606084860312156112e357600080fd5b8335925060208401359150604084013567ffffffffffffffff81111561120257600080fd5b60208082526018908201527f70726f6a656374496420646f6573206e6f742065786973740000000000000000604082015260600190565b60208082526012908201527173657276657255524c20697320656d70747960701b604082015260600190565b60005b8381101561138657818101518382015260200161136e565b50506000910152565b8481526bffffffffffffffffffffffff198460601b166020820152600083516113bf81603485016020880161136b565b6034920191820192909252605401949350505050565b634e487b7160e01b600052601160045260246000fd5b6000600182016113fd576113fd6113d5565b5060010190565b6000815180845261141c81602086016020860161136b565b601f01601f19169290920160200192915050565b6001600160a01b0385811682528416602082015260806040820181905260009061145c90830185611404565b828103606084015261146e8185611404565b979650505050505050565b6001600160a01b038416815260606020820181905260009061149d90830185611404565b82810360408401526114af8185611404565b9695505050505050565b6001600160a01b03868116825285811660208301528416604082015260a0606082018190526000906114ed90830185611404565b82810360808401526114ff8185611404565b98975050505050505050565b600181811c9082168061151f57607f821691505b60208210810361153f57634e487b7160e01b600052602260045260246000fd5b50919050565b601f82111561158f57806000526020600020601f840160051c8101602085101561156c5750805b601f840160051c820191505b8181101561158c5760008155600101611578565b50505b505050565b815167ffffffffffffffff8111156115ae576115ae61107e565b6115c2816115bc845461150b565b84611545565b6020601f8211600181146115f657600083156115de5750848201515b600019600385901b1c1916600184901b17845561158c565b600084815260208120601f198516915b828110156116265787850151825560209485019460019092019101611606565b50848210156116445786840151600019600387901b60f8161c191681555b50505050600190811b01905550565b60208152600061100e6020830184611404565b808202811582820484141761167d5761167d6113d5565b92915050565b8082018082111561167d5761167d6113d5565b8181038181111561167d5761167d6113d5565b6000826116c657634e487b7160e01b600052601260045260246000fd5b50049056fea264697066735822122085ae1a3e3c9c925985307ec43c06ad0d1b63b3aaee48f298c44cea0957bd9c0964736f6c634300081a0033","linkReferences":{}},"methodIdentifiers":{"createDeploymentRequest(bytes32,address,string,string)":"7371498c","createPrivateDeploymentRequest(bytes32,address,address,string,string)":"bae7e16c","createPrivateProposalRequest(bytes32,address,string,string)":"59617ef7","createProjectID()":"2ae189d8","createProposalRequest(bytes32,string,string)":"84717e90","factor()":"54f703f8","getDeploymentStatus(bytes32)":"09470536","getLatestDeploymentRequestID(address)":"b9bb7135","getLatestProposalRequestID(address)":"f11d3675","getLatestUserProjectID(address)":"ce1b4ff5","getReputation(address)":"9c89a0e2","latestDeploymentRequestID(address)":"078ebeae","latestProjectID(address)":"56ed8752","latestProposalRequestID(address)":"822c737a","requestDeploymentStatus(bytes32)":"fcc82939","solverReputation(address)":"ed3c95c0","submitDeploymentRequest(bytes32,bytes32)":"be539d3f","submitProofOfDeployment(bytes32,bytes32,string)":"e128fced","totalDeploymentRequest()":"83c49efa","totalProposalRequest()":"a97bedfe","workerReputation(address)":"08a101b8"},"id":16}