{"abi":[{"type":"function","name":"CREATE_AGENT_OP","inputs":[],"outputs":[{"name":"","type":"string","internalType":"string"}],"stateMutability":"view"},{"type":"function","name":"CREATE_AGENT_WITH_NFT_TYPEHASH","inputs":[],"outputs":[{"name":"","type":"bytes32","internalType":"bytes32"}],"stateMutability":"view"},{"type":"function","name":"CREATE_AGENT_WITH_TOKEN_TYPEHASH","inputs":[],"outputs":[{"name":"","type":"bytes32","internalType":"bytes32"}],"stateMutability":"view"},{"type":"function","name":"DEPLOYMENT_REQUEST_TYPEHASH","inputs":[],"outputs":[{"name":"","type":"bytes32","internalType":"bytes32"}],"stateMutability":"view"},{"type":"function","name":"PAYMENT_KEY","inputs":[],"outputs":[{"name":"","type":"string","internalType":"string"}],"stateMutability":"view"},{"type":"function","name":"PROPOSAL_REQUEST_TYPEHASH","inputs":[],"outputs":[{"name":"","type":"bytes32","internalType":"bytes32"}],"stateMutability":"view"},{"type":"function","name":"RESET_DEPLOYMENT_REQUEST_TYPEHASH","inputs":[],"outputs":[{"name":"","type":"bytes32","internalType":"bytes32"}],"stateMutability":"view"},{"type":"function","name":"SIGNING_DOMAIN","inputs":[],"outputs":[{"name":"","type":"string","internalType":"string"}],"stateMutability":"view"},{"type":"function","name":"UPDATE_AGENT_OP","inputs":[],"outputs":[{"name":"","type":"string","internalType":"string"}],"stateMutability":"view"},{"type":"function","name":"UPDATE_WORKER_CONFIG_TYPEHASH","inputs":[],"outputs":[{"name":"","type":"bytes32","internalType":"bytes32"}],"stateMutability":"view"},{"type":"function","name":"UPGRADE_INTERFACE_VERSION","inputs":[],"outputs":[{"name":"","type":"string","internalType":"string"}],"stateMutability":"view"},{"type":"function","name":"VERSION","inputs":[],"outputs":[{"name":"","type":"string","internalType":"string"}],"stateMutability":"view"},{"type":"function","name":"addPaymentAddress","inputs":[{"name":"paymentAddress","type":"address","internalType":"address"}],"outputs":[],"stateMutability":"nonpayable"},{"type":"function","name":"checkNFTOwnership","inputs":[{"name":"nftTokenAddress","type":"address","internalType":"address"},{"name":"nftId","type":"uint256","internalType":"uint256"},{"name":"userAddress","type":"address","internalType":"address"}],"outputs":[{"name":"","type":"bool","internalType":"bool"}],"stateMutability":"view"},{"type":"function","name":"createAgentWithNFT","inputs":[{"name":"projectId","type":"bytes32","internalType":"bytes32"},{"name":"base64Proposal","type":"string","internalType":"string"},{"name":"privateWorkerAddress","type":"address","internalType":"address"},{"name":"serverURL","type":"string","internalType":"string"},{"name":"tokenId","type":"uint256","internalType":"uint256"}],"outputs":[{"name":"requestID","type":"bytes32","internalType":"bytes32"}],"stateMutability":"nonpayable"},{"type":"function","name":"createAgentWithSigWithNFT","inputs":[{"name":"projectId","type":"bytes32","internalType":"bytes32"},{"name":"base64Proposal","type":"string","internalType":"string"},{"name":"privateWorkerAddress","type":"address","internalType":"address"},{"name":"serverURL","type":"string","internalType":"string"},{"name":"signature","type":"bytes","internalType":"bytes"},{"name":"tokenId","type":"uint256","internalType":"uint256"}],"outputs":[{"name":"requestID","type":"bytes32","internalType":"bytes32"}],"stateMutability":"nonpayable"},{"type":"function","name":"createAgentWithToken","inputs":[{"name":"projectId","type":"bytes32","internalType":"bytes32"},{"name":"base64Proposal","type":"string","internalType":"string"},{"name":"privateWorkerAddress","type":"address","internalType":"address"},{"name":"serverURL","type":"string","internalType":"string"},{"name":"tokenAddress","type":"address","internalType":"address"}],"outputs":[{"name":"requestID","type":"bytes32","internalType":"bytes32"}],"stateMutability":"payable"},{"type":"function","name":"createAgentWithTokenWithSig","inputs":[{"name":"projectId","type":"bytes32","internalType":"bytes32"},{"name":"base64Proposal","type":"string","internalType":"string"},{"name":"privateWorkerAddress","type":"address","internalType":"address"},{"name":"serverURL","type":"string","internalType":"string"},{"name":"tokenAddress","type":"address","internalType":"address"},{"name":"signature","type":"bytes","internalType":"bytes"}],"outputs":[{"name":"requestID","type":"bytes32","internalType":"bytes32"}],"stateMutability":"payable"},{"type":"function","name":"createProjectID","inputs":[],"outputs":[{"name":"projectId","type":"bytes32","internalType":"bytes32"}],"stateMutability":"nonpayable"},{"type":"function","name":"createProjectIDAndDeploymentRequest","inputs":[{"name":"projectId","type":"bytes32","internalType":"bytes32"},{"name":"base64Proposal","type":"string","internalType":"string"},{"name":"serverURL","type":"string","internalType":"string"}],"outputs":[{"name":"requestID","type":"bytes32","internalType":"bytes32"}],"stateMutability":"nonpayable"},{"type":"function","name":"createProjectIDAndDeploymentRequestWithSig","inputs":[{"name":"projectId","type":"bytes32","internalType":"bytes32"},{"name":"base64Proposal","type":"string","internalType":"string"},{"name":"serverURL","type":"string","internalType":"string"},{"name":"signature","type":"bytes","internalType":"bytes"}],"outputs":[{"name":"requestID","type":"bytes32","internalType":"bytes32"}],"stateMutability":"nonpayable"},{"type":"function","name":"createProjectIDAndPrivateDeploymentRequest","inputs":[{"name":"projectId","type":"bytes32","internalType":"bytes32"},{"name":"base64Proposal","type":"string","internalType":"string"},{"name":"privateWorkerAddress","type":"address","internalType":"address"},{"name":"serverURL","type":"string","internalType":"string"}],"outputs":[{"name":"requestID","type":"bytes32","internalType":"bytes32"}],"stateMutability":"nonpayable"},{"type":"function","name":"creditReward","inputs":[{"name":"userAddress","type":"address","internalType":"address"},{"name":"amount","type":"uint256","internalType":"uint256"}],"outputs":[],"stateMutability":"nonpayable"},{"type":"function","name":"deploymentIdList","inputs":[{"name":"","type":"bytes32","internalType":"bytes32"},{"name":"","type":"uint256","internalType":"uint256"}],"outputs":[{"name":"","type":"bytes32","internalType":"bytes32"}],"stateMutability":"view"},{"type":"function","name":"dummyAddress","inputs":[],"outputs":[{"name":"","type":"address","internalType":"address"}],"stateMutability":"view"},{"type":"function","name":"eip712Domain","inputs":[],"outputs":[{"name":"fields","type":"bytes1","internalType":"bytes1"},{"name":"name","type":"string","internalType":"string"},{"name":"version","type":"string","internalType":"string"},{"name":"chainId","type":"uint256","internalType":"uint256"},{"name":"verifyingContract","type":"address","internalType":"address"},{"name":"salt","type":"bytes32","internalType":"bytes32"},{"name":"extensions","type":"uint256[]","internalType":"uint256[]"}],"stateMutability":"view"},{"type":"function","name":"factor","inputs":[],"outputs":[{"name":"","type":"uint256","internalType":"uint256"}],"stateMutability":"view"},{"type":"function","name":"feeCollectionWalletAddress","inputs":[],"outputs":[{"name":"","type":"address","internalType":"address"}],"stateMutability":"view"},{"type":"function","name":"getAddress","inputs":[],"outputs":[{"name":"","type":"address","internalType":"address"}],"stateMutability":"view"},{"type":"function","name":"getCreateAgentWithNFTDigest","inputs":[{"name":"projectId","type":"bytes32","internalType":"bytes32"},{"name":"base64RecParam","type":"string","internalType":"string"},{"name":"serverURL","type":"string","internalType":"string"},{"name":"privateWorkerAddress","type":"address","internalType":"address"},{"name":"tokenId","type":"uint256","internalType":"uint256"}],"outputs":[{"name":"","type":"bytes32","internalType":"bytes32"}],"stateMutability":"view"},{"type":"function","name":"getCreateAgentWithTokenDigest","inputs":[{"name":"projectId","type":"bytes32","internalType":"bytes32"},{"name":"base64RecParam","type":"string","internalType":"string"},{"name":"serverURL","type":"string","internalType":"string"},{"name":"privateWorkerAddress","type":"address","internalType":"address"},{"name":"tokenAddress","type":"address","internalType":"address"}],"outputs":[{"name":"","type":"bytes32","internalType":"bytes32"}],"stateMutability":"view"},{"type":"function","name":"getDeploymentProof","inputs":[{"name":"requestID","type":"bytes32","internalType":"bytes32"}],"outputs":[{"name":"","type":"string","internalType":"string"}],"stateMutability":"view"},{"type":"function","name":"getDeploymentStatus","inputs":[{"name":"requestID","type":"bytes32","internalType":"bytes32"}],"outputs":[{"name":"","type":"uint8","internalType":"enum BlueprintCore.Status"},{"name":"","type":"address","internalType":"address"}],"stateMutability":"view"},{"type":"function","name":"getEIP712ContractAddress","inputs":[],"outputs":[{"name":"","type":"address","internalType":"address"}],"stateMutability":"view"},{"type":"function","name":"getLatestDeploymentRequestID","inputs":[{"name":"addr","type":"address","internalType":"address"}],"outputs":[{"name":"","type":"bytes32","internalType":"bytes32"}],"stateMutability":"view"},{"type":"function","name":"getLatestUserProjectID","inputs":[{"name":"addr","type":"address","internalType":"address"}],"outputs":[{"name":"","type":"bytes32","internalType":"bytes32"}],"stateMutability":"view"},{"type":"function","name":"getPaymentAddresses","inputs":[],"outputs":[{"name":"","type":"address[]","internalType":"address[]"}],"stateMutability":"view"},{"type":"function","name":"getProjectInfo","inputs":[{"name":"projectId","type":"bytes32","internalType":"bytes32"}],"outputs":[{"name":"","type":"address","internalType":"address"},{"name":"","type":"bytes32","internalType":"bytes32"},{"name":"","type":"bytes32[]","internalType":"bytes32[]"}],"stateMutability":"view"},{"type":"function","name":"getRequestDeploymentDigest","inputs":[{"name":"projectId","type":"bytes32","internalType":"bytes32"},{"name":"base64RecParam","type":"string","internalType":"string"},{"name":"serverURL","type":"string","internalType":"string"}],"outputs":[{"name":"","type":"bytes32","internalType":"bytes32"}],"stateMutability":"view"},{"type":"function","name":"getRequestProposalDigest","inputs":[{"name":"projectId","type":"bytes32","internalType":"bytes32"},{"name":"base64RecParam","type":"string","internalType":"string"},{"name":"serverURL","type":"string","internalType":"string"}],"outputs":[{"name":"","type":"bytes32","internalType":"bytes32"}],"stateMutability":"view"},{"type":"function","name":"getRequestResetDeploymentDigest","inputs":[{"name":"projectId","type":"bytes32","internalType":"bytes32"},{"name":"requestID","type":"bytes32","internalType":"bytes32"},{"name":"workerAddress","type":"address","internalType":"address"},{"name":"updatedBase64Config","type":"string","internalType":"string"},{"name":"nonce","type":"uint256","internalType":"uint256"}],"outputs":[{"name":"","type":"bytes32","internalType":"bytes32"}],"stateMutability":"view"},{"type":"function","name":"getSignerAddress","inputs":[{"name":"hash","type":"bytes32","internalType":"bytes32"},{"name":"signature","type":"bytes","internalType":"bytes"}],"outputs":[{"name":"","type":"address","internalType":"address"}],"stateMutability":"pure"},{"type":"function","name":"getUpdateWorkerConfigDigest","inputs":[{"name":"tokenAddress","type":"address","internalType":"address"},{"name":"projectId","type":"bytes32","internalType":"bytes32"},{"name":"requestID","type":"bytes32","internalType":"bytes32"},{"name":"updatedBase64Config","type":"string","internalType":"string"},{"name":"nonce","type":"uint256","internalType":"uint256"}],"outputs":[{"name":"","type":"bytes32","internalType":"bytes32"}],"stateMutability":"view"},{"type":"function","name":"getUserNonce","inputs":[{"name":"userAddress","type":"address","internalType":"address"}],"outputs":[{"name":"","type":"uint256","internalType":"uint256"}],"stateMutability":"view"},{"type":"function","name":"getWorkerAddresses","inputs":[],"outputs":[{"name":"","type":"address[]","internalType":"address[]"}],"stateMutability":"view"},{"type":"function","name":"getWorkerPublicKey","inputs":[{"name":"workerAddress","type":"address","internalType":"address"}],"outputs":[{"name":"publicKey","type":"bytes","internalType":"bytes"}],"stateMutability":"view"},{"type":"function","name":"initialize","inputs":[],"outputs":[],"stateMutability":"nonpayable"},{"type":"function","name":"isWhitelistUser","inputs":[{"name":"userAddress","type":"address","internalType":"address"}],"outputs":[{"name":"","type":"bool","internalType":"bool"}],"stateMutability":"view"},{"type":"function","name":"latestDeploymentRequestID","inputs":[{"name":"","type":"address","internalType":"address"}],"outputs":[{"name":"","type":"bytes32","internalType":"bytes32"}],"stateMutability":"view"},{"type":"function","name":"latestProjectID","inputs":[{"name":"","type":"address","internalType":"address"}],"outputs":[{"name":"","type":"bytes32","internalType":"bytes32"}],"stateMutability":"view"},{"type":"function","name":"latestProposalRequestID","inputs":[{"name":"","type":"address","internalType":"address"}],"outputs":[{"name":"","type":"bytes32","internalType":"bytes32"}],"stateMutability":"view"},{"type":"function","name":"nftContractAddress","inputs":[],"outputs":[{"name":"","type":"address","internalType":"address"}],"stateMutability":"view"},{"type":"function","name":"nftTokenIdMap","inputs":[{"name":"","type":"uint256","internalType":"uint256"}],"outputs":[{"name":"","type":"uint8","internalType":"enum BlueprintCore.Status"}],"stateMutability":"view"},{"type":"function","name":"owner","inputs":[],"outputs":[{"name":"","type":"address","internalType":"address"}],"stateMutability":"view"},{"type":"function","name":"paymentAddressEnableMp","inputs":[{"name":"","type":"address","internalType":"address"}],"outputs":[{"name":"","type":"bool","internalType":"bool"}],"stateMutability":"view"},{"type":"function","name":"paymentAddressesMp","inputs":[{"name":"","type":"string","internalType":"string"},{"name":"","type":"uint256","internalType":"uint256"}],"outputs":[{"name":"","type":"address","internalType":"address"}],"stateMutability":"view"},{"type":"function","name":"paymentOpCostMp","inputs":[{"name":"","type":"address","internalType":"address"},{"name":"","type":"string","internalType":"string"}],"outputs":[{"name":"","type":"uint256","internalType":"uint256"}],"stateMutability":"view"},{"type":"function","name":"proxiableUUID","inputs":[],"outputs":[{"name":"","type":"bytes32","internalType":"bytes32"}],"stateMutability":"view"},{"type":"function","name":"removePaymentAddress","inputs":[{"name":"paymentAddress","type":"address","internalType":"address"}],"outputs":[],"stateMutability":"nonpayable"},{"type":"function","name":"removeWhitelistAddresses","inputs":[{"name":"removedAddress","type":"address[]","internalType":"address[]"}],"outputs":[],"stateMutability":"nonpayable"},{"type":"function","name":"renounceOwnership","inputs":[],"outputs":[],"stateMutability":"nonpayable"},{"type":"function","name":"requestDeploymentStatus","inputs":[{"name":"","type":"bytes32","internalType":"bytes32"}],"outputs":[{"name":"status","type":"uint8","internalType":"enum BlueprintCore.Status"},{"name":"deployWorkerAddr","type":"address","internalType":"address"}],"stateMutability":"view"},{"type":"function","name":"requestIDToProjectID","inputs":[{"name":"","type":"bytes32","internalType":"bytes32"}],"outputs":[{"name":"","type":"bytes32","internalType":"bytes32"}],"stateMutability":"view"},{"type":"function","name":"resetDeploymentRequest","inputs":[{"name":"projectId","type":"bytes32","internalType":"bytes32"},{"name":"requestID","type":"bytes32","internalType":"bytes32"},{"name":"workerAddress","type":"address","internalType":"address"},{"name":"base64Proposal","type":"string","internalType":"string"},{"name":"serverURL","type":"string","internalType":"string"}],"outputs":[],"stateMutability":"nonpayable"},{"type":"function","name":"resetDeploymentRequestWithSig","inputs":[{"name":"projectId","type":"bytes32","internalType":"bytes32"},{"name":"requestID","type":"bytes32","internalType":"bytes32"},{"name":"workerAddress","type":"address","internalType":"address"},{"name":"base64Proposal","type":"string","internalType":"string"},{"name":"serverURL","type":"string","internalType":"string"},{"name":"signature","type":"bytes","internalType":"bytes"}],"outputs":[],"stateMutability":"nonpayable"},{"type":"function","name":"resetWorkers","inputs":[],"outputs":[],"stateMutability":"nonpayable"},{"type":"function","name":"setCreateAgentTokenCost","inputs":[{"name":"paymentAddress","type":"address","internalType":"address"},{"name":"cost","type":"uint256","internalType":"uint256"}],"outputs":[],"stateMutability":"nonpayable"},{"type":"function","name":"setFeeCollectionWalletAddress","inputs":[{"name":"_feeCollectionWalletAddress","type":"address","internalType":"address"}],"outputs":[],"stateMutability":"nonpayable"},{"type":"function","name":"setNFTContractAddress","inputs":[{"name":"_nftContractAddress","type":"address","internalType":"address"}],"outputs":[],"stateMutability":"nonpayable"},{"type":"function","name":"setUpdateCreateAgentTokenCost","inputs":[{"name":"paymentAddress","type":"address","internalType":"address"},{"name":"cost","type":"uint256","internalType":"uint256"}],"outputs":[],"stateMutability":"nonpayable"},{"type":"function","name":"setWhitelistAddresses","inputs":[{"name":"whitelistAddress","type":"address[]","internalType":"address[]"}],"outputs":[],"stateMutability":"nonpayable"},{"type":"function","name":"setWorkerAdmin","inputs":[{"name":"_workerAdmin","type":"address","internalType":"address"}],"outputs":[],"stateMutability":"nonpayable"},{"type":"function","name":"setWorkerPublicKey","inputs":[{"name":"publicKey","type":"bytes","internalType":"bytes"}],"outputs":[],"stateMutability":"nonpayable"},{"type":"function","name":"solverReputation","inputs":[{"name":"","type":"address","internalType":"address"}],"outputs":[{"name":"","type":"uint256","internalType":"uint256"}],"stateMutability":"view"},{"type":"function","name":"submitDeploymentRequest","inputs":[{"name":"projectId","type":"bytes32","internalType":"bytes32"},{"name":"requestID","type":"bytes32","internalType":"bytes32"}],"outputs":[{"name":"isAccepted","type":"bool","internalType":"bool"}],"stateMutability":"nonpayable"},{"type":"function","name":"submitProofOfDeployment","inputs":[{"name":"projectId","type":"bytes32","internalType":"bytes32"},{"name":"requestID","type":"bytes32","internalType":"bytes32"},{"name":"proofBase64","type":"string","internalType":"string"}],"outputs":[],"stateMutability":"nonpayable"},{"type":"function","name":"totalDeploymentRequest","inputs":[],"outputs":[{"name":"","type":"uint256","internalType":"uint256"}],"stateMutability":"view"},{"type":"function","name":"totalProposalRequest","inputs":[],"outputs":[{"name":"","type":"uint256","internalType":"uint256"}],"stateMutability":"view"},{"type":"function","name":"transferOwnership","inputs":[{"name":"newOwner","type":"address","internalType":"address"}],"outputs":[],"stateMutability":"nonpayable"},{"type":"function","name":"trustWorkerMp","inputs":[{"name":"","type":"address","internalType":"address"}],"outputs":[{"name":"","type":"bool","internalType":"bool"}],"stateMutability":"view"},{"type":"function","name":"updateWorker","inputs":[{"name":"workerAddress","type":"address","internalType":"address"},{"name":"isTrusted","type":"bool","internalType":"bool"}],"outputs":[],"stateMutability":"nonpayable"},{"type":"function","name":"updateWorkerDeploymentConfig","inputs":[{"name":"tokenAddress","type":"address","internalType":"address"},{"name":"projectId","type":"bytes32","internalType":"bytes32"},{"name":"requestID","type":"bytes32","internalType":"bytes32"},{"name":"updatedBase64Config","type":"string","internalType":"string"}],"outputs":[],"stateMutability":"payable"},{"type":"function","name":"updateWorkerDeploymentConfigWithSig","inputs":[{"name":"tokenAddress","type":"address","internalType":"address"},{"name":"projectId","type":"bytes32","internalType":"bytes32"},{"name":"requestID","type":"bytes32","internalType":"bytes32"},{"name":"updatedBase64Config","type":"string","internalType":"string"},{"name":"signature","type":"bytes","internalType":"bytes"}],"outputs":[],"stateMutability":"payable"},{"type":"function","name":"upgradeToAndCall","inputs":[{"name":"newImplementation","type":"address","internalType":"address"},{"name":"data","type":"bytes","internalType":"bytes"}],"outputs":[],"stateMutability":"payable"},{"type":"function","name":"userTopUp","inputs":[{"name":"tokenAddress","type":"address","internalType":"address"},{"name":"amount","type":"uint256","internalType":"uint256"}],"outputs":[],"stateMutability":"payable"},{"type":"function","name":"userTopUpMp","inputs":[{"name":"","type":"address","internalType":"address"},{"name":"","type":"address","internalType":"address"}],"outputs":[{"name":"","type":"uint256","internalType":"uint256"}],"stateMutability":"view"},{"type":"function","name":"userTopUpOther","inputs":[{"name":"userAddress","type":"address","internalType":"address"},{"name":"tokenAddress","type":"address","internalType":"address"},{"name":"amount","type":"uint256","internalType":"uint256"}],"outputs":[],"stateMutability":"payable"},{"type":"function","name":"whitelistUsers","inputs":[{"name":"","type":"address","internalType":"address"}],"outputs":[{"name":"","type":"uint8","internalType":"enum BlueprintCore.Status"}],"stateMutability":"view"},{"type":"function","name":"workerAdmin","inputs":[],"outputs":[{"name":"","type":"address","internalType":"address"}],"stateMutability":"view"},{"type":"function","name":"workerReputation","inputs":[{"name":"","type":"address","internalType":"address"}],"outputs":[{"name":"","type":"uint256","internalType":"uint256"}],"stateMutability":"view"},{"type":"event","name":"AcceptDeployment","inputs":[{"name":"projectID","type":"bytes32","indexed":true,"internalType":"bytes32"},{"name":"requestID","type":"bytes32","indexed":true,"internalType":"bytes32"},{"name":"workerAddress","type":"address","indexed":true,"internalType":"address"}],"anonymous":false},{"type":"event","name":"CreateAgent","inputs":[{"name":"projectID","type":"bytes32","indexed":true,"internalType":"bytes32"},{"name":"requestID","type":"bytes32","indexed":true,"internalType":"bytes32"},{"name":"walletAddress","type":"address","indexed":false,"internalType":"address"},{"name":"nftTokenId","type":"uint256","indexed":false,"internalType":"uint256"},{"name":"amount","type":"uint256","indexed":false,"internalType":"uint256"}],"anonymous":false},{"type":"event","name":"CreateAgentTokenCost","inputs":[{"name":"paymentAddress","type":"address","indexed":false,"internalType":"address"},{"name":"cost","type":"uint256","indexed":false,"internalType":"uint256"}],"anonymous":false},{"type":"event","name":"CreateProjectID","inputs":[{"name":"projectID","type":"bytes32","indexed":true,"internalType":"bytes32"},{"name":"walletAddress","type":"address","indexed":false,"internalType":"address"}],"anonymous":false},{"type":"event","name":"CreditReward","inputs":[{"name":"userAddress","type":"address","indexed":true,"internalType":"address"},{"name":"amount","type":"uint256","indexed":false,"internalType":"uint256"}],"anonymous":false},{"type":"event","name":"EIP712DomainChanged","inputs":[],"anonymous":false},{"type":"event","name":"FeeCollectionWalletAddress","inputs":[{"name":"feeCollectionWalletAddress","type":"address","indexed":false,"internalType":"address"}],"anonymous":false},{"type":"event","name":"GeneratedProofOfDeployment","inputs":[{"name":"projectID","type":"bytes32","indexed":true,"internalType":"bytes32"},{"name":"requestID","type":"bytes32","indexed":true,"internalType":"bytes32"},{"name":"base64DeploymentProof","type":"string","indexed":false,"internalType":"string"}],"anonymous":false},{"type":"event","name":"Initialized","inputs":[{"name":"version","type":"uint64","indexed":false,"internalType":"uint64"}],"anonymous":false},{"type":"event","name":"OwnershipTransferred","inputs":[{"name":"previousOwner","type":"address","indexed":true,"internalType":"address"},{"name":"newOwner","type":"address","indexed":true,"internalType":"address"}],"anonymous":false},{"type":"event","name":"PaymentAddressAdded","inputs":[{"name":"paymentAddress","type":"address","indexed":false,"internalType":"address"}],"anonymous":false},{"type":"event","name":"RemovePaymentAddress","inputs":[{"name":"paymentAddress","type":"address","indexed":false,"internalType":"address"}],"anonymous":false},{"type":"event","name":"RequestDeployment","inputs":[{"name":"projectID","type":"bytes32","indexed":true,"internalType":"bytes32"},{"name":"walletAddress","type":"address","indexed":false,"internalType":"address"},{"name":"solverAddress","type":"address","indexed":false,"internalType":"address"},{"name":"requestID","type":"bytes32","indexed":true,"internalType":"bytes32"},{"name":"base64Proposal","type":"string","indexed":false,"internalType":"string"},{"name":"serverURL","type":"string","indexed":false,"internalType":"string"}],"anonymous":false},{"type":"event","name":"RequestPrivateDeployment","inputs":[{"name":"projectID","type":"bytes32","indexed":true,"internalType":"bytes32"},{"name":"walletAddress","type":"address","indexed":false,"internalType":"address"},{"name":"privateWorkerAddress","type":"address","indexed":false,"internalType":"address"},{"name":"solverAddress","type":"address","indexed":false,"internalType":"address"},{"name":"requestID","type":"bytes32","indexed":true,"internalType":"bytes32"},{"name":"base64Proposal","type":"string","indexed":false,"internalType":"string"},{"name":"serverURL","type":"string","indexed":false,"internalType":"string"}],"anonymous":false},{"type":"event","name":"RequestPrivateProposal","inputs":[{"name":"projectID","type":"bytes32","indexed":true,"internalType":"bytes32"},{"name":"walletAddress","type":"address","indexed":false,"internalType":"address"},{"name":"privateSolverAddress","type":"address","indexed":false,"internalType":"address"},{"name":"requestID","type":"bytes32","indexed":true,"internalType":"bytes32"},{"name":"base64RecParam","type":"string","indexed":false,"internalType":"string"},{"name":"serverURL","type":"string","indexed":false,"internalType":"string"}],"anonymous":false},{"type":"event","name":"RequestProposal","inputs":[{"name":"projectID","type":"bytes32","indexed":true,"internalType":"bytes32"},{"name":"walletAddress","type":"address","indexed":false,"internalType":"address"},{"name":"requestID","type":"bytes32","indexed":true,"internalType":"bytes32"},{"name":"base64RecParam","type":"string","indexed":false,"internalType":"string"},{"name":"serverURL","type":"string","indexed":false,"internalType":"string"}],"anonymous":false},{"type":"event","name":"SetWorkerAdmin","inputs":[{"name":"workerAdmin","type":"address","indexed":false,"internalType":"address"}],"anonymous":false},{"type":"event","name":"UpdateAgentTokenCost","inputs":[{"name":"paymentAddress","type":"address","indexed":false,"internalType":"address"},{"name":"cost","type":"uint256","indexed":false,"internalType":"uint256"}],"anonymous":false},{"type":"event","name":"UpdateDeploymentConfig","inputs":[{"name":"projectID","type":"bytes32","indexed":true,"internalType":"bytes32"},{"name":"requestID","type":"bytes32","indexed":true,"internalType":"bytes32"},{"name":"workerAddress","type":"address","indexed":false,"internalType":"address"},{"name":"base64Config","type":"string","indexed":false,"internalType":"string"}],"anonymous":false},{"type":"event","name":"UpdateWorker","inputs":[{"name":"workerAddress","type":"address","indexed":false,"internalType":"address"},{"name":"isTrusted","type":"bool","indexed":false,"internalType":"bool"}],"anonymous":false},{"type":"event","name":"Upgraded","inputs":[{"name":"implementation","type":"address","indexed":true,"internalType":"address"}],"anonymous":false},{"type":"event","name":"UserTopUp","inputs":[{"name":"walletAddress","type":"address","indexed":true,"internalType":"address"},{"name":"feeCollectionWalletAddress","type":"address","indexed":false,"internalType":"address"},{"name":"tokenAddress","type":"address","indexed":false,"internalType":"address"},{"name":"amount","type":"uint256","indexed":false,"internalType":"uint256"}],"anonymous":false},{"type":"event","name":"UserTopUpOther","inputs":[{"name":"ownerAddress","type":"address","indexed":true,"internalType":"address"},{"name":"toAddress","type":"address","indexed":true,"internalType":"address"},{"name":"feeCollectionWalletAddress","type":"address","indexed":false,"internalType":"address"},{"name":"tokenAddress","type":"address","indexed":false,"internalType":"address"},{"name":"amount","type":"uint256","indexed":false,"internalType":"uint256"}],"anonymous":false},{"type":"error","name":"AddressEmptyCode","inputs":[{"name":"target","type":"address","internalType":"address"}]},{"type":"error","name":"ECDSAInvalidSignature","inputs":[]},{"type":"error","name":"ECDSAInvalidSignatureLength","inputs":[{"name":"length","type":"uint256","internalType":"uint256"}]},{"type":"error","name":"ECDSAInvalidSignatureS","inputs":[{"name":"s","type":"bytes32","internalType":"bytes32"}]},{"type":"error","name":"ERC1967InvalidImplementation","inputs":[{"name":"implementation","type":"address","internalType":"address"}]},{"type":"error","name":"ERC1967NonPayable","inputs":[]},{"type":"error","name":"FailedCall","inputs":[]},{"type":"error","name":"InsufficientBalance","inputs":[{"name":"balance","type":"uint256","internalType":"uint256"},{"name":"needed","type":"uint256","internalType":"uint256"}]},{"type":"error","name":"InvalidInitialization","inputs":[]},{"type":"error","name":"NotInitializing","inputs":[]},{"type":"error","name":"OwnableInvalidOwner","inputs":[{"name":"owner","type":"address","internalType":"address"}]},{"type":"error","name":"OwnableUnauthorizedAccount","inputs":[{"name":"account","type":"address","internalType":"address"}]},{"type":"error","name":"SafeERC20FailedOperation","inputs":[{"name":"token","type":"address","internalType":"address"}]},{"type":"error","name":"UUPSUnauthorizedCallContext","inputs":[]},{"type":"error","name":"UUPSUnsupportedProxiableUUID","inputs":[{"name":"slot","type":"bytes32","internalType":"bytes32"}]}],"bytecode":{"object":"0x60a0806040523460295730608052615bdc908161002e82396080518181816125be01526127440152f35b5f80fdfe6080806040526004361015610012575f80fd5b5f3560e01c9081630442bb85146138535750806305b383121461383957806305d10b8f146137cc578063078ebeae1461102957806308a101b814613794578063094705361461374f578063094e03bc146137345780630e5390c5146136b35780630f7d8e391461364d578063128634e41461361057806313d32741146135e857806313f2fcd11461353257806319ea61c4146134b157806323949cd1146134255780632ae189d8146132ac5780632cfde3781461327257806331f4f12d1461323857806332157c921461313157806332aceb73146130c6578063356c9a831461308c57806338cc483114610d0357806339c12636146130715780633b10856814612de557806343da75c414612dab57806343e84e9f14612c795780634b6680de14612be15780634bcaa62614612a445780634caafee2146129765780634ce354f0146128d45780634f1ef2861461270757806350da8adf14612687578063516add261461261257806352d1902d146125ac57806354f703f81461258f57806356ed875214610c3557806361419044146124dc57806362bd459c146124c3578063644a44fb146124a85780636834e3a8146124705780636ec55dbc14612430578063715018a6146123c957806376c6062f1461239557806379964547146120b35780637b31d6f6146120795780637ce53f49146120105780638031be4614611e0b5780638129fc1c146119af578063821c8ba11461190b578063822c737a146118d35780638333f55f146115f1578063834710451461158d57806383c49efa1461157057806384b0196e146114ca5780638935e54514611460578063896b4be91461135c5780638da5cb5b14611328578063938e8f501461126a578063984e85f5146112425780639acd2a1a14611208578063a97bedfe146111eb578063aae282e1146111c3578063ad3cb1cc1461117c578063af63f49b14611106578063b660f9ff146110b6578063b83921a614611061578063b9bb713514611029578063be539d3f14610e56578063c03044f314610de4578063c13c26eb14610d77578063c347c7e314610d08578063c3a1ae2714610d03578063c4845f5f14610ce9578063cdb4c7f714610c6d578063ce1b4ff514610c35578063d0d31cc514610c0b578063d2a0c27514610bc5578063d800d46b14610afe578063de601e4c14610ae3578063e056683314610a6f578063e128fced14610780578063e3faad9414610765578063e5e24e8214610716578063e63dee48146105be578063ed3c95c014610586578063f2bbea3f1461054c578063f2fde38b14610521578063f52ccc2d146104c5578063fa2b3cf914610470578063fcc82939146104315763ffa1ad74146103fa575f80fd5b3461042d575f36600319011261042d57610429610415613c7d565b604051918291602083526020830190613a09565b0390f35b5f80fd5b3461042d57602036600319011261042d576004355f52600960205261042960405f205460405191829160ff60018060a01b038260081c169116836139bd565b3461042d5760a036600319011261042d576104896138a2565b6064356001600160401b03811161042d576020916104ae6104bd92369060040161396c565b60843591602435600435614756565b604051908152f35b3461042d576104d336613b79565b906104dc614c76565b5f5b8281106104e757005b6001906001600160a01b036105056105008387876143e2565b6143f2565b165f52601560205260405f208260ff19825416179055016104de565b3461042d57602036600319011261042d5761054a61053d61388c565b610545614c76565b6146e5565b005b3461042d575f36600319011261042d5760206040517f5bc68fd156aade2069ca23fbe8b2b86836f7029d3ed7cf6bd299a45ee514650f8152f35b3461042d57602036600319011261042d576001600160a01b036105a761388c565b165f526007602052602060405f2054604051908152f35b3461042d57602036600319011261042d576105d761388c565b6105df614c76565b6001600160a01b0381165f8181526019602052604090205460ff166106c7575f5b61061061060b613bf4565b613b3b565b5481101561067057808261063060019361062b61060b613bf4565b613bcb565b848060a01b0391549060031b1c161461064a575b01610600565b6106598161062b61060b613bf4565b815490848060a01b039060031b1b19169055610644565b7fa18d3ff16bc484e128eabcf244718e89aadc30bd9708fb720f3109b1415503f36020836106a8866106a361060b613bf4565b6141b7565b805f526019825260405f20600160ff19825416179055604051908152a1005b60405162461bcd60e51b815260206004820152602160248201527f5061796d656e7420616464726573732077617320616c726561647920616464656044820152601960fa1b6064820152608490fd5b3461042d5760a036600319011261042d5761072f61388c565b6064356001600160401b03811161042d576020916107546104bd92369060040161396c565b608435916044359060243590614679565b3461042d575f36600319011261042d57610429610415613c1d565b3461042d57606036600319011261042d576024356004356044356001600160401b03811161042d576107b690369060040161396c565b815f52600e60205260405f205415801590610a50575b6107d590614406565b335f52601e6020526107ed60ff60405f205416614173565b825f52600960205260ff60405f2054166006811015610a0057610811901515614452565b825f5260096020523360018060a01b0360405f205460081c1603610a1457825f52600960205260ff60405f2054166006811015610a00576005146109bb5761086161085c8484615625565b6144f8565b825f52600960205260405f20600560ff19825416179055825f52600a60205260405f2081516001600160401b0381116109a7576108a8816108a28454613c45565b8461420e565b6020601f821160011461092157916108fb827fddb29833db778500c94a5880f1a8ad549d91ec7c80faee2b3735bda881fa6d989593610911955f91610916575b508160011b915f199060031b1c19161790565b9055604051918291602083526020830190613a09565b0390a3005b9050840151896108e8565b601f19821690835f52805f20915f5b81811061098f5750926109119492600192827fddb29833db778500c94a5880f1a8ad549d91ec7c80faee2b3735bda881fa6d98989610610977575b5050811b019055610415565b8501515f1960f88460031b161c19169055888061096b565b9192602060018192868a015181550194019201610930565b634e487b7160e01b5f52604160045260245ffd5b60405162461bcd60e51b815260206004820152601760248201527f416c7265616479207375626d69747465642070726f6f660000000000000000006044820152606490fd5b634e487b7160e01b5f52602160045260245ffd5b60405162461bcd60e51b815260206004820152601460248201527357726f6e6720776f726b6572206164647265737360601b6044820152606490fd5b505f828152600d60205260409020546001600160a01b031615156107cc565b3461042d57602036600319011261042d57610a8b6004356145d4565b604051928392606084019160018060a01b0316845260208401526060604084015281518091526020608084019201905f5b818110610aca575050500390f35b8251845285945060209384019390920191600101610abc565b3461042d575f36600319011261042d57610429610415613bf4565b3461042d57602036600319011261042d57610b1761388c565b610b1f614c76565b6001600160a01b03168015610b6f576020817f800db016c595c6b1bb59fbfb195091f579d1abc9828b4660b0836fa635e90df8926001600160601b0360a01b6017541617601755604051908152a1005b60405162461bcd60e51b815260206004820152602860248201527f46656520636f6c6c656374696f6e2057616c6c65742041646472657373206973604482015267081a5b9d985b1a5960c21b6064820152608490fd5b3461042d57604036600319011261042d576024356004355f52600f60205260405f20805482101561042d57602091610bfc91613bcb565b90549060031b1c604051908152f35b3461042d57602036600319011261042d576004355f52601f602052602060405f2054604051908152f35b3461042d57602036600319011261042d576001600160a01b03610c5661388c565b165f526006602052602060405f2054604051908152f35b3461042d57604036600319011261042d576004356001600160401b03811161042d57610c9d90369060040161396c565b604051815160243592602091839181908401835e81016018815203019020805482101561042d57602091610cd091613bcb565b905460405160039290921b1c6001600160a01b03168152f35b3461042d5760206104bd610cfc36613aa2565b9133614eb3565b613a2d565b3461042d5760a036600319011261042d576024356001600160401b03811161042d57610d3890369060040161396c565b6044356001600160401b03811161042d57602091610d5d6104bd92369060040161396c565b610d656138e4565b90610d6e6138b8565b9260043561455b565b3461042d5760a036600319011261042d576024356001600160401b03811161042d57610da790369060040161396c565b610daf6138a2565b90606435906001600160401b03821161042d57602092610dd66104bd93369060040161396c565b906084359260043533614ad5565b3461042d5760206104bd610df736613aa2565b908481519101209084815191012060405191858301937fe5726589ac93743b6d2436bf498a0c2b0f4c8e021b2693576ae35457620d338d855260408401526060830152608082015260808152610e4e60a082613930565b519020615597565b3461042d57604036600319011261042d5760043560243590805f52600e60205260405f20541580159061100a575b610e8d90614406565b335f52601e602052610ea560ff60405f205416614173565b815f52600960205260ff60405f2054166006811015610a0057610ec9901515614452565b815f52600960205260ff60405f2054166006811015610a0057600214610f9157815f52600960205260ff60405f205416916006831015610a0057610f126005602094141561449e565b610f1f61085c8284615625565b5f81815260098085526040808320805460ff1916600217905583835290855290208054610100600160a81b0319163360081b610100600160a81b0316179055805f526009835260018060a01b0360405f205460081c1690604051925f516020615b675f395f51905f525f80a460018152f35b60405162461bcd60e51b815260206004820152604560248201527f72657175657374494420616c7265616479207069636b656420627920616e6f7460448201527f68657220776f726b65722c20747279206120646966666572656e742072657175606482015264195cdd125160da1b608482015260a490fd5b505f818152600d60205260409020546001600160a01b03161515610e84565b3461042d57602036600319011261042d576001600160a01b0361104a61388c565b165f526005602052602060405f2054604051908152f35b3461042d5761106f36613b79565b90611078614c76565b5f5b82811061108357005b6001906001600160a01b0361109c6105008387876143e2565b165f52601560205260405f2060ff1981541690550161107a565b3461042d57604036600319011261042d576110cf61388c565b6110d76138ce565b6001600160a01b039182165f908152601b60209081526040808320949093168252928352819020549051908152f35b3461042d57602036600319011261042d576001600160a01b0361112761388c565b16805f52601560205260ff60405f2054166006811015610a00576001148015611158575b6020906040519015158152f35b505f52601560205260ff60405f2054166006811015610a005760026020911461114b565b3461042d575f36600319011261042d5761042960405161119d604082613930565b60058152640352e302e360dc1b6020820152604051918291602083526020830190613a09565b3461042d575f36600319011261042d576014546040516001600160a01b039091168152602090f35b3461042d575f36600319011261042d576020600254604051908152f35b3461042d575f36600319011261042d5760206040517f7dd9d78712d3918d485330c827089074d149b81c91be857e49976819346f0c448152f35b3461042d575f36600319011261042d57601d546040516001600160a01b039091168152602090f35b60c036600319011261042d576004356024356001600160401b03811161042d5761129890369060040161396c565b6112a06138a2565b6064356001600160401b03811161042d576112bf90369060040161396c565b6112c76138b8565b9160a435936001600160401b03851161042d5760209561130f6113066112f46104bd98369060040161396c565b611301888789888861455b565b61581e565b90929192615858565b6113236001600160a01b0382161515613ed7565b61480e565b3461042d575f36600319011261042d575f516020615ae75f395f51905f52546040516001600160a01b039091168152602090f35b3461042d57604036600319011261042d5761137561388c565b6024359081151580920361042d57601d546001600160a01b031633148015611440575b6113a190613f17565b6001600160a01b03169081156113fb57816040917f988d040d21ebfc430db6cf3c20bc0a6f4ff9d36f2cb7c6dea70424a709746734935f52601e602052825f2060ff1981541660ff831617905582519182526020820152a1005b60405162461bcd60e51b815260206004820152601960248201527f576f726b6572206164647265737320697320696e76616c6964000000000000006044820152606490fd5b505f516020615ae75f395f51905f52546001600160a01b03163314611398565b3461042d5760a036600319011261042d576024356001600160401b03811161042d5761149090369060040161396c565b6044356001600160401b03811161042d576020916114b56104bd92369060040161396c565b6114bd6138e4565b9060843592600435614371565b3461042d575f36600319011261042d5761151a6114e56142a5565b949690929361150c60405198899860ff60f81b16895260e060208a015260e0890190613a09565b908782036040890152613a09565b92606086015260018060a01b0316608085015260a084015282810360c0840152602080835192838152019201905f5b818110611557575050500390f35b8251845285945060209384019390920191600101611549565b3461042d575f36600319011261042d576020600354604051908152f35b3461042d57604036600319011261042d576115a661388c565b6024356001600160401b03811161042d576020916115cb6115e892369060040161396c565b6001600160a01b039091165f908152601a84526040902090613b5a565b54604051908152f35b3461042d5760c036600319011261042d576024356004356116106138a2565b916064356001600160401b03811161042d5761163090369060040161396c565b916084356001600160401b03811161042d5761165090369060040161396c565b9260a4356001600160401b03811161042d576116736116bd91369060040161396c565b5f858152601660205260409020546001600160a01b031696906116b49061169b891515613fe6565b885f52601c60205261130160405f205486858a8a614756565b90939193615858565b6116d16001600160a01b0383161515613ed7565b6001600160a01b0382166116e6888214613ed7565b845f52600e60205260405f2054158015906118b4575b61170590614406565b855f52600960205260ff60405f2054166006811015610a0057611729901515614452565b855f52600960205260ff60405f205416906006821015610a0057611753600561177093141561449e565b5f878152601660205260409020546001600160a01b031614614dd8565b6001600160a01b03811690811580156118ad5760015b61179c6040519161179683613915565b82615619565b6020810190848252885f52600960205260405f209051916006831015610a00576117c96117ec9383614543565b518154610100600160a81b03191660089190911b610100600160a81b0316179055565b1561184757505061182a84955f516020615b475f395f51905f5294955f52600960205260405f20600160ff1982541617905560405193849384614e77565b0390a35b5f52601c60205260405f206118438154614026565b9055005b84926118947f26e5b75b543be1cdad2907ba50a99eeb5c3a05381eee18d5b6a565b2bbccd1ba93988896875f52600960205260405f20600260ff1982541617905560405194859485614e34565b0390a35f516020615b675f395f51905f525f80a461182e565b6002611786565b505f858152600d60205260409020546001600160a01b031615156116fc565b3461042d57602036600319011261042d576001600160a01b036118f461388c565b165f526004602052602060405f2054604051908152f35b3461042d57604036600319011261042d577fb74c378f83cb6eb186d519c74f0def054cc246ca81bccd2c53b5d0d69950132461194561388c565b60243590611951614c76565b6001600160a01b0381165f818152601960205260409020546119759060ff16613e8b565b5f52601a6020528161199160405f2061198c6139df565b613b5a565b55604080516001600160a01b039290921682526020820192909252a1005b3461042d575f36600319011261042d575f516020615b875f395f51905f525460ff8160401c168015611df7575b611de85768ffffffffffffffffff191668010000000000000006175f516020615b875f395f51905f5255611a0e6158b8565b611a166158b8565b611a1f336146e5565b611a295f54613c45565b601f8111611dab575b50600a640362e302e360dc1b015f55611a49613c1d565b611a51613c7d565b611a596158b8565b611a616158b8565b81516001600160401b0381116109a757611a885f516020615ac75f395f51905f5254613c45565b601f8111611d51575b50602092601f8211600114611cd857611ac2929382915f92611ccd575b50508160011b915f199060031b1c19161790565b5f516020615ac75f395f51905f52555b80516001600160401b0381116109a757611af95f516020615b075f395f51905f5254613c45565b601f8111611c68575b50602091601f8211600114611bf057611b30925f9183611be55750508160011b915f199060031b1c19161790565b5f516020615b075f395f51905f52555b5f7fa16a46d94261c7517cc8ff89f61c0ce93598e3c849801011dee649a6a557d100555f7fa16a46d94261c7517cc8ff89f61c0ce93598e3c849801011dee649a6a557d10155611b8e6158b8565b68ff0000000000000000195f516020615b875f395f51905f5254165f516020615b875f395f51905f52557fc7f505b2f371ae2175ee4913f4499e1f2633a7b5936321eed1cdaeb6115181d2602060405160068152a1005b015190508380611aae565b601f198216925f516020615b075f395f51905f525f52805f20915f5b858110611c5057508360019510611c38575b505050811b015f516020615b075f395f51905f5255611b40565b01515f1960f88460031b161c19169055828080611c1e565b91926020600181928685015181550194019201611c0c565b5f516020615b075f395f51905f525f52611cbd907f5f9ce34815f8e11431c7bb75a8e6886a91478f7ffc1dbb0a98dc240fddd76b75601f840160051c81019160208510611cc3575b601f0160051c01906141f8565b82611b02565b9091508190611cb0565b015190508480611aae565b601f198216935f516020615ac75f395f51905f525f52805f20915f5b868110611d395750836001959610611d21575b505050811b015f516020615ac75f395f51905f5255611ad2565b01515f1960f88460031b161c19169055838080611d07565b91926020600181928685015181550194019201611cf4565b5f516020615ac75f395f51905f525f52611da5907f42ad5d3e1f2e6e70edcf6d991b8a3023d3fca8047a131592f9edb9fd9b89d57d601f840160051c81019160208510611cc357601f0160051c01906141f8565b83611a91565b5f8052611de290601f0160051c7f290decd9548b62a8d60345a988386fc84ba6bc95484008f6362f93160ef3e563908101906141f8565b80611a32565b63f92ee8a960e01b5f5260045ffd5b5060066001600160401b03821610156119dc565b3461042d5760a036600319011261042d57600435602435611e2a6138a2565b916064356001600160401b03811161042d57611e4a90369060040161396c565b6084356001600160401b03811161042d57611e6990369060040161396c565b90825f52600e60205260405f205415801590611ff1575b611e8990614406565b835f52600960205260ff60405f2054166006811015610a0057611ead901515614452565b835f52600960205260ff60405f2054166006811015610a00576005611ed391141561449e565b5f84815260166020526040902054611ef5906001600160a01b03163314614dd8565b6001600160a01b0385169485158015611fea5760015b611f1b6040519161179683613915565b6020810190888252875f52600960205260405f209051916006831015610a00576117c9611f489383614543565b15611f875750835f516020615b475f395f51905f52939495505f52600960205260405f20600160ff198254161790556109116040519283923384614e77565b83917f26e5b75b543be1cdad2907ba50a99eeb5c3a05381eee18d5b6a565b2bbccd1ba91611fd48795865f52600960205260405f20600260ff198254161790556040519384933385614e34565b0390a35f516020615b675f395f51905f525f80a4005b6002611f0b565b505f838152600d60205260409020546001600160a01b03161515611e80565b3461042d57608036600319011261042d576024356001600160401b03811161042d5761204090369060040161396c565b6120486138a2565b90606435906001600160401b03821161042d5760209261206f6104bd93369060040161396c565b916004353361525d565b3461042d575f36600319011261042d5760206040517fe5726589ac93743b6d2436bf498a0c2b0f4c8e021b2693576ae35457620d338d8152f35b608036600319011261042d576120c761388c565b602435604435916064356001600160401b03811161042d576120ed90369060040161396c565b825f52600e60205260405f205415801590612376575b61210c90614406565b835f52600960205260ff60405f2054166006811015610a0057612130901515614452565b80511561233157835f52600960205260ff60405f2054166006811015610a00576001146122db575f84815260166020526040902054612179906001600160a01b03163314614dd8565b6001600160a01b0382165f8181526019602052604090205490929060ff161561229e57845f52600960205260ff60405f205416926006841015610a005760057fce8f8849a89ebf447425479c86ccdc17f11697958b4bca671fcdf65bc3012c219414612282575b805f52601a6020526121f760405f2061198c6139df565b549081612236575b505050835f52600960205260018060a01b0360405f205460081c166109116040519283928352604060208401526040830190613a09565b6122635761225b915061224a8134146147c2565b6017546001600160a01b03166157c3565b8480806121ff565b60175461227d926001600160a01b039091169133916156cf565b61225b565b855f52600960205260405f20600260ff198254161790556121e0565b60405162461bcd60e51b8152602060048201526015602482015274496e76616c696420746f6b656e206164647265737360581b6044820152606490fd5b60405162461bcd60e51b815260206004820152602860248201527f726571756573744944206973206e6f74207069636b656420757020627920616e6044820152673c903bb7b935b2b960c11b6064820152608490fd5b60405162461bcd60e51b815260206004820152601c60248201527f75706461746564426173653634436f6e66696720697320656d707479000000006044820152606490fd5b505f838152600d60205260409020546001600160a01b03161515612103565b3461042d57602036600319011261042d576004355f526013602052602060ff60405f2054166123c760405180926139b0565bf35b3461042d575f36600319011261042d576123e1614c76565b5f516020615ae75f395f51905f5280546001600160a01b031981169091555f906001600160a01b03167f8be0079c531659141344cd1fd0a4f28419497f9722a3daafe3b4186f6b6457e08280a3005b3461042d57602036600319011261042d576001600160a01b0361245161388c565b165f526015602052602060ff60405f2054166123c760405180926139b0565b3461042d57602036600319011261042d576001600160a01b0361249161388c565b165f52601c602052602060405f2054604051908152f35b3461042d575f36600319011261042d57610429610415613af2565b3461042d5760206104bd6124d636613aa2565b91614246565b3461042d5760c036600319011261042d576004356024356001600160401b03811161042d5761250f90369060040161396c565b906125186138a2565b906064356001600160401b03811161042d5761253890369060040161396c565b608435926001600160401b03841161042d5760209461255e6104bd95369060040161396c565b9361257661130660a435966113018887898888614371565b61258a6001600160a01b0382161515613ed7565b614ad5565b3461042d575f36600319011261042d576020600154604051908152f35b3461042d575f36600319011261042d577f00000000000000000000000000000000000000000000000000000000000000006001600160a01b031630036126035760206040515f516020615b275f395f51905f528152f35b63703e46dd60e11b5f5260045ffd5b3461042d575f36600319011261042d5761262d61060b613bf4565b6040519081602082549182815201915f5260205f20905f5b818110612668576104298561265c81870382613930565b60405191829182613a60565b82546001600160a01b0316845260209093019260019283019201612645565b606036600319011261042d5761269b61388c565b6126a36138ce565b907fd39b0b6730f6e413ca50cca2084baa10d82375e644b04712421789ae80041a796044356126d3818585614d09565b601754604080516001600160a01b039283168152958216602087015285019190915291909116913391908060608101610911565b604036600319011261042d5761271b61388c565b6024356001600160401b03811161042d5761273a90369060040161396c565b6001600160a01b037f0000000000000000000000000000000000000000000000000000000000000000163081149081156128b2575b506126035761277c614c76565b6040516352d1902d60e01b81526001600160a01b0383169290602081600481875afa5f918161287e575b506127be5783634c9c8ce360e01b5f5260045260245ffd5b805f516020615b275f395f51905f5285920361286c5750813b1561285a575f516020615b275f395f51905f5280546001600160a01b031916821790557fbc7cd75a20ee27fd9adebab32041f755214dbc6bffa90cc0225b39da2e5c2d3b5f80a2815115612842575f8083602061054a95519101845af461283c6158e3565b916159b2565b50503461284b57005b63b398979f60e01b5f5260045ffd5b634c9c8ce360e01b5f5260045260245ffd5b632a87526960e21b5f5260045260245ffd5b9091506020813d6020116128aa575b8161289a60209383613930565b8101031261042d575190856127a6565b3d915061288d565b5f516020615b275f395f51905f52546001600160a01b0316141590508361276f565b3461042d57608036600319011261042d576004356024356001600160401b03811161042d5761290790369060040161396c565b6044356001600160401b03811161042d5761292690369060040161396c565b606435916001600160401b03831161042d5760209361295d6113066129526104bd96369060040161396c565b611301868686614246565b6129716001600160a01b0382161515613ed7565b614eb3565b3461042d57602036600319011261042d576001600160a01b0361299761388c565b165f52601160205260405f20604051905f908054906129b582613c45565b8085529160018116908115612a1d57506001146129dd575b6104298461041581860382613930565b5f90815260208120939250905b808210612a0357509091508101602001610415826129cd565b9192600181602092548385880101520191019092916129ea565b60ff191660208087019190915292151560051b8501909201925061041591508390506129cd565b3461042d57602036600319011261042d576004356001600160401b03811161042d573660238201121561042d5780600401356001600160401b03811161042d57366024828401011161042d57335f52601e602052612aa860ff60405f205416614173565b8015612b9c57335f526011602052612ac360405f2054613c45565b15612b83575b335f52601160205260405f2090612ae4816108a28454613c45565b5f601f8211600114612b1f57819061184393945f92612b115750508160011b915f199060031b1c19161790565b602492500101358480611aae565b601f19821693835f5260205f20915f5b868110612b685750836001959610612b4c575b505050811b019055005b01602401355f19600384901b60f8161c19169055838080612b42565b90926020600181926024878701013581550194019101612b2f565b612b97336106a3612b92613f5b565b613b1c565b612ac9565b60405162461bcd60e51b815260206004820152601a60248201527f5075626c6963206b65792063616e6e6f7420626520656d7074790000000000006044820152606490fd5b3461042d57602036600319011261042d576004355f52600a60205260405f20604051905f90805490612c1282613c45565b8085529160018116908115612a1d5750600114612c39576104298461041581860382613930565b5f90815260208120939250905b808210612c5f57509091508101602001610415826129cd565b919260018160209254838588010152019101909291612c46565b3461042d57604036600319011261042d57612c9261388c565b6024359060018060a01b03601d541633148015612d8b575b612cb390613f17565b6001600160a01b0316908115612d46578015612cf65760207ffc2556f84149547247d4732c86773253cfcdb6e1a176734f036fb2a1a766828c91604051908152a2005b60405162461bcd60e51b815260206004820152602260248201527f416d6f756e742073686f756c642062652067726561746572207468616e207a65604482015261726f60f01b6064820152608490fd5b60405162461bcd60e51b815260206004820152601760248201527f55736572206164647265737320697320696e76616c69640000000000000000006044820152606490fd5b505f516020615ae75f395f51905f52546001600160a01b03163314612caa565b3461042d57606036600319011261042d576020612ddb612dc961388c565b612dd16138a2565b9060243590614048565b6040519015158152f35b60a036600319011261042d57612df961388c565b6044356024356064356001600160401b03811161042d57612e1e90369060040161396c565b608435906001600160401b03821161042d57612e41612e8b92369060040161396c565b5f858152601660205260409020546001600160a01b03169590612e8290612e69881515613fe6565b875f52601c60205261130160405f205485898987614679565b90949194615858565b612e9f6001600160a01b0384161515613ed7565b6001600160a01b038316612eb4878214613ed7565b845f52600e60205260405f205415801590613052575b612ed390614406565b855f52600960205260ff60405f2054166006811015610a0057612ef7901515614452565b82511561233157855f52600960205260ff60405f2054166006811015610a00576001146122db57612f3d90865f52601660205260018060a01b0360405f20541614614dd8565b6001600160a01b0381165f8181526019602052604090205490919060ff161561229e57855f52600960205260ff60405f205416936006851015610a005760057fce8f8849a89ebf447425479c86ccdc17f11697958b4bca671fcdf65bc3012c219514613036575b825f52601a602052612fbb60405f2061198c6139df565b549283612ffb575b50505050835f52600960205260018060a01b0360405f205460081c1661182a6040519283928352604060208401526040830190613a09565b6130195750508061224a6130109234146147c2565b85808080612fc3565b601754613031936001600160a01b03909116926156cf565b613010565b865f52600960205260405f20600260ff19825416179055612fa4565b505f858152600d60205260409020546001600160a01b03161515612eca565b3461042d575f36600319011261042d5761042961265c613f8b565b3461042d575f36600319011261042d5760206040517f91d24a6bbb50acead05809c28075759bcc90320e198f6f880116b2aa6b9463f18152f35b604036600319011261042d576130da61388c565b7fd77471b428858ecbd2b80887a3bfc71662a54ef7fcc856a76b5df84051ff76dc602435613109818433614d09565b601754604080516001600160a01b0392831681529490911660208501528301523391606090a2005b3461042d575f36600319011261042d57601d546001600160a01b031633148015613218575b61315f90613f17565b613167613f8b565b5f5b81518110156131ee576001906001600160a01b036131878285614ca9565b51165f52601160205260405f2061319e8154613c45565b90816131ad575b505001613169565b81601f5f931185146131c35750555b83806131a5565b818352602083206131de91601f0160051c81019086016141f8565b80825281602081209155556131bc565b6131f9612b92613f5b565b80545f82558061320557005b61054a915f5260205f20908101906141f8565b505f516020615ae75f395f51905f52546001600160a01b03163314613156565b3461042d575f36600319011261042d5760206040517f60a8eecec858932ab2ff591a4ad5829a185228029a1c74d3dfb34bf17b4256168152f35b3461042d575f36600319011261042d5760206040517fb2c0b4a611993f012a6c8e188688ec3ed0b9410894ae736354158fc513874c708152f35b3461042d575f36600319011261042d5760405160208101904282523360601b6040820152466054820152605481526132e5607482613930565b519020805f52600e60205260405f20546133e05733156133a85760209060405161330e816138fa565b81815260038382015f8152604083015f815260608401915f8352855f52600e875260405f209451855551600185015551600284015560018060a01b0390511691019060018060a01b03166001600160601b0360a01b825416179055335f52600682528060405f2055807f988dde20b788b20d2f8188ab37bc9419a99761fc4ec19356dc30cfa49b4601dc83604051338152a2604051908152f35b60405162461bcd60e51b815260206004820152601060248201526f24b73b30b634b2103ab9b2b920b2323960811b6044820152606490fd5b60405162461bcd60e51b815260206004820152601860248201527f70726f6a656374496420616c72656164792065786973747300000000000000006044820152606490fd5b3461042d57602036600319011261042d5761343e61388c565b613446614c76565b6001600160a01b0316801561346c576001600160601b0360a01b60145416176014555f80f35b60405162461bcd60e51b815260206004820152601760248201527f4e465420436f6e747261637420697320696e76616c69640000000000000000006044820152606490fd5b3461042d57604036600319011261042d577f694aa63d946094ce1aeccef5c17db0a23a409eddfb68793b3c29fea103d120866134eb61388c565b602435906134f7614c76565b6001600160a01b0381165f8181526019602052604090205461351b9060ff16613e8b565b5f52601a6020528161199160405f2061198c613af2565b3461042d57602036600319011261042d5761354b61388c565b613553614c76565b6001600160a01b031680156135a3576020817f445c5fd747f65908f1d11311ef3be63b67e2664b330f1007e084031391e17730926001600160601b0360a01b601d541617601d55604051908152a1005b60405162461bcd60e51b815260206004820152601760248201527f576f726b65722041646d696e20697320696e76616c69640000000000000000006044820152606490fd5b3461042d575f36600319011261042d576017546040516001600160a01b039091168152602090f35b3461042d57602036600319011261042d576001600160a01b0361363161388c565b165f526019602052602060ff60405f2054166040519015158152f35b3461042d57604036600319011261042d576024356001600160401b03811161042d5761368d611306613685602093369060040161396c565b60043561581e565b6136a16001600160a01b0382161515613ed7565b6040516001600160a01b039091168152f35b3461042d57602036600319011261042d577ef489bd08ff674a36860f917326106701d524e8f0c616fcd04b09fbfd993d5e60206136ee61388c565b6136f6614c76565b6001600160a01b03165f8181526019835260409020546137189060ff16613e8b565b805f526019825260405f2060ff198154169055604051908152a1005b3461042d575f36600319011261042d576104296104156139df565b3461042d57602036600319011261042d576004355f908152600960205260409081902054905190819061042990600881901c6001600160a01b03169060ff16836139bd565b3461042d57602036600319011261042d576001600160a01b036137b561388c565b165f526008602052602060405f2054604051908152f35b60a036600319011261042d576024356001600160401b03811161042d576137f790369060040161396c565b6137ff6138a2565b90606435906001600160401b03821161042d576020926138266104bd93369060040161396c565b9061382f6138b8565b926004353361480e565b3461042d575f36600319011261042d5760206040515f8152f35b3461042d57602036600319011261042d576020906001600160a01b0361387761388c565b165f52601e825260ff60405f20541615158152f35b600435906001600160a01b038216820361042d57565b604435906001600160a01b038216820361042d57565b608435906001600160a01b038216820361042d57565b602435906001600160a01b038216820361042d57565b606435906001600160a01b038216820361042d57565b608081019081106001600160401b038211176109a757604052565b604081019081106001600160401b038211176109a757604052565b90601f801991011681019081106001600160401b038211176109a757604052565b6001600160401b0381116109a757601f01601f191660200190565b81601f8201121561042d5760208135910161398682613951565b926139946040519485613930565b8284528282011161042d57815f92602092838601378301015290565b906006821015610a005752565b9092916020906139d18360408101966139b0565b6001600160a01b0316910152565b604051906139ee604083613930565b600c82526b1d5c19185d1957d859d95b9d60a21b6020830152565b805180835260209291819084018484015e5f828201840152601f01601f1916010190565b3461042d575f36600319011261042d576020613a476142a5565b50506040516001600160a01b0390911681529350505050f35b60206040818301928281528451809452019201905f5b818110613a835750505090565b82516001600160a01b0316845260209384019390920191600101613a76565b606060031982011261042d57600435916024356001600160401b03811161042d5782613ad09160040161396c565b91604435906001600160401b03821161042d57613aef9160040161396c565b90565b60405190613b01604083613930565b600c82526b18dc99585d1957d859d95b9d60a21b6020830152565b60208091604051928184925191829101835e8101601281520301902090565b60208091604051928184925191829101835e8101601881520301902090565b6040518151909260209284929081908501845e82019081520301902090565b90602060031983011261042d576004356001600160401b03811161042d578260238201121561042d578060040135926001600160401b03841161042d5760248460051b8301011161042d576024019190565b8054821015613be0575f5260205f2001905f90565b634e487b7160e01b5f52603260045260245ffd5b60405190613c03604083613930565b600b82526a7061796d656e745f6b657960a81b6020830152565b60405190613c2c604083613930565b600a8252693730ba34b7b717333ab760b11b6020830152565b90600182811c92168015613c73575b6020831014613c5f57565b634e487b7160e01b5f52602260045260245ffd5b91607f1691613c54565b604051905f825f5491613c8f83613c45565b8083529260018116908115613d125750600114613cb5575b613cb392500383613930565b565b505f80805290917f290decd9548b62a8d60345a988386fc84ba6bc95484008f6362f93160ef3e5635b818310613cf6575050906020613cb392820101613ca7565b6020919350806001915483858901015201910190918492613cde565b60209250613cb394915060ff191682840152151560051b820101613ca7565b604051905f825f516020615ac75f395f51905f525491613d5083613c45565b8083529260018116908115613d125750600114613d7357613cb392500383613930565b505f516020615ac75f395f51905f525f90815290917f42ad5d3e1f2e6e70edcf6d991b8a3023d3fca8047a131592f9edb9fd9b89d57d5b818310613dc2575050906020613cb392820101613ca7565b6020919350806001915483858901015201910190918492613daa565b604051905f825f516020615b075f395f51905f525491613dfd83613c45565b8083529260018116908115613d125750600114613e2057613cb392500383613930565b505f516020615b075f395f51905f525f90815290917f5f9ce34815f8e11431c7bb75a8e6886a91478f7ffc1dbb0a98dc240fddd76b755b818310613e6f575050906020613cb392820101613ca7565b6020919350806001915483858901015201910190918492613e57565b15613e9257565b60405162461bcd60e51b815260206004820152601c60248201527f5061796d656e742041646472657373206973206e6f74206164646564000000006044820152606490fd5b15613ede57565b60405162461bcd60e51b8152602060048201526011602482015270496e76616c6964207369676e617475726560781b6044820152606490fd5b15613f1e57565b60405162461bcd60e51b81526020600482015260156024820152742737ba1030b71030b236b4b71037b91037bbb732b960591b6044820152606490fd5b60405190613f6a604083613930565b6012825271776f726b65725f616464726573735f6b657960701b6020830152565b613f96612b92613f5b565b604051808260208294549384815201905f5260205f20925f5b818110613fc4575050613aef92500382613930565b84546001600160a01b0316835260019485019486945060209093019201613faf565b15613fed57565b60405162461bcd60e51b8152602060048201526011602482015270125b9d985b1a59081c995c5d595cdd1251607a1b6044820152606490fd5b5f1981146140345760010190565b634e487b7160e01b5f52601160045260245ffd5b90916001600160a01b0390911690811561412e576001600160a01b03169182156140f2576020906024604051809481936331a9108f60e11b835260048301525afa9081156140e7575f916140a5575b506001600160a01b03161490565b90506020813d6020116140df575b816140c060209383613930565b8101031261042d57516001600160a01b038116810361042d575f614097565b3d91506140b3565b6040513d5f823e3d90fd5b60405162461bcd60e51b8152602060048201526014602482015273496e76616c69642075736572206164647265737360601b6044820152606490fd5b60405162461bcd60e51b815260206004820152601960248201527f496e76616c6964204e465420746f6b656e2061646472657373000000000000006044820152606490fd5b1561417a57565b60405162461bcd60e51b815260206004820152601560248201527415dbdc9ad95c881a5cc81b9bdd081d1c9d5cdd1959605a1b6044820152606490fd5b8054600160401b8110156109a7576141d491600182018155613bcb565b81546001600160a01b0393841660039290921b91821b9390911b1916919091179055565b818110614203575050565b5f81556001016141f8565b9190601f811161421d57505050565b613cb3925f5260205f20906020601f840160051c83019310611cc357601f0160051c01906141f8565b9091613aef926020815191012090602081519101206040519160208301937f60a8eecec858932ab2ff591a4ad5829a185228029a1c74d3dfb34bf17b425616855260408401526060830152608082015260808152610e4e60a082613930565b7fa16a46d94261c7517cc8ff89f61c0ce93598e3c849801011dee649a6a557d100541580614348575b1561430b576142db613d31565b906142e4613dde565b906040516142f3602082613930565b5f81525f368137600f60f81b939291469130915f9190565b60405162461bcd60e51b81526020600482015260156024820152741152540dcc4c8e88155b9a5b9a5d1a585b1a5e9959605a1b6044820152606490fd5b507fa16a46d94261c7517cc8ff89f61c0ce93598e3c849801011dee649a6a557d10154156142ce565b92613aef94916020815191012092602081519101206040519360208501957f91d24a6bbb50acead05809c28075759bcc90320e198f6f880116b2aa6b9463f1875260408601526060850152608084015260018060a01b031660a083015260c082015260c08152610e4e60e082613930565b9190811015613be05760051b0190565b356001600160a01b038116810361042d5790565b1561440d57565b60405162461bcd60e51b815260206004820152601860248201527f70726f6a656374496420646f6573206e6f7420657869737400000000000000006044820152606490fd5b1561445957565b60405162461bcd60e51b815260206004820152601860248201527f72657175657374494420646f6573206e6f7420657869737400000000000000006044820152606490fd5b156144a557565b60405162461bcd60e51b815260206004820152602560248201527f7265717565737449442068617320616c7265616479207375626d697474656420604482015264383937b7b360d91b6064820152608490fd5b156144ff57565b606460405162461bcd60e51b815260206004820152602060248201527f50726f6a656374494420616e6420726571756573744944206d69736d617463686044820152fd5b906006811015610a005760ff80198354169116179055565b92613aef94916020815191012092602081519101206040519360208501957f7dd9d78712d3918d485330c827089074d149b81c91be857e49976819346f0c44875260408601526060850152608084015260018060a01b031660a083015260018060a01b031660c082015260c08152610e4e60e082613930565b90815f52600e6020526145ec60405f20541515614406565b815f52600e602052600260405f2001545f52600f60205260405f2090604051808360208295549384815201905f5260205f20925f5b81811061466057505061463692500383613930565b5f928352600e602052604090922060038101546001909101546001600160a01b0390911692909190565b8454835260019485019487945060209093019201614621565b9291613aef94919260208151910120906040519360208501957f5bc68fd156aade2069ca23fbe8b2b86836f7029d3ed7cf6bd299a45ee514650f875260018060a01b031660408601526060850152608084015260a083015260c082015260c08152610e4e60e082613930565b6001600160a01b03168015614743575f516020615ae75f395f51905f5280546001600160a01b0319811683179091556001600160a01b03167f8be0079c531659141344cd1fd0a4f28419497f9722a3daafe3b4186f6b6457e05f80a3565b631e4fbdf760e01b5f525f60045260245ffd5b9291613aef94919260208151910120906040519360208501957fb2c0b4a611993f012a6c8e188688ec3ed0b9410894ae736354158fc513874c7087526040860152606085015260018060a01b0316608084015260a083015260c082015260c08152610e4e60e082613930565b156147c957565b60405162461bcd60e51b815260206004820152601c60248201527f4e617469766520746f6b656e20616d6f756e74206d69736d61746368000000006044820152606490fd5b939594909291906001600160a01b0381168015908180614ace575b1561499f5750505f80525060136020527f8fa6efc3be94b5b348b21fea823fe8d100408cee9b7f90524494500445d8ff6c5460ff166006811015610a005760021461495a576014546148879085905f906001600160a01b0316614048565b15614915576060955f516020615aa75f395f51905f52926148a992858761525d565b7f8fa6efc3be94b5b348b21fea823fe8d100408cee9b7f90524494500445d8ff6c805460ff191660021790555f81815260166020908152604080832080546001600160a01b0319166001600160a01b0390981697881790558051968752908601829052850152948593a3565b60405162461bcd60e51b815260206004820152601b60248201527f4e465420746f6b656e206e6f74206f776e6564206279207573657200000000006044820152606490fd5b60405162461bcd60e51b815260206004820152601960248201527f4e465420746f6b656e20696420616c72656164792075736564000000000000006044820152606490fd5b805f9995949297939952601960205260ff60405f20541615614a89575f516020615aa75f395f51905f52946060946149f0925f52601a6020526149e760405f2061198c613af2565b5493888661525d565b5f81815260166020526040902080546001600160a01b0319166001600160a01b03851617905597889682614a3e575b5050604080516001600160a01b0390931683525f6020840152820152a3565b15614a6d5750614a4f8134146147c2565b601754614a669082906001600160a01b03166157c3565b5f80614a1f565b614a8490838360018060a01b0360175416926156cf565b614a66565b60405162461bcd60e51b815260206004820152601860248201527f546f6b656e206164647265737320697320696e76616c696400000000000000006044820152606490fd5b505f614829565b959493909290918415614b9957845f52601360205260ff60405f2054166006811015610a005760021461495a57601454614b1b90889087906001600160a01b0316614048565b15614915575f516020615aa75f395f51905f5292606092614b3d92868a61525d565b958487955f52601360205260405f20600260ff19825416179055855f52601660205260405f2060018060a01b0383166001600160601b0360a01b8254161790556040519160018060a01b0316825260208201525f6040820152a3565b955f8093929352601960205260ff60405f20541615614a89575f8052601a6020525f516020615aa75f395f51905f5292606092614c0591614bfc7fb75ecc04ed35f89790e98640e901bda41eceff0cb896cf2765fb69768025375061198c613af2565b5499878561525d565b5f81815260166020526040902080546001600160a01b0319166001600160a01b03841617905596879581614c4f575b6040519260018060a01b0316835260208301526040820152a3565b614c5a8234146147c2565b601754614c719083906001600160a01b03166157c3565b614c34565b5f516020615ae75f395f51905f52546001600160a01b03163303614c9657565b63118cdaa760e01b5f523360045260245ffd5b8051821015613be05760209160051b010190565b15614cc457565b60405162461bcd60e51b815260206004820152601d60248201527f416d6f756e74206d7573742062652067726561746572207468616e20300000006044820152606490fd5b919091614d17821515614cbd565b6001600160a01b0383165f8181526019602052604090205490919060ff1615614d935760018060a01b03165f52601b60205260405f20815f5260205260405f208054908382018092116140345755614d7957613cb3915061224a8134146147c2565b601754613cb3926001600160a01b039091169133916156cf565b60405162461bcd60e51b815260206004820152601c60248201527f5061796d656e742061646472657373206973206e6f742076616c6964000000006044820152606490fd5b15614ddf57565b60405162461bcd60e51b815260206004820152602760248201527f4f6e6c79206465706c6f796d656e74206f776e65722063616e2075706461746560448201526620636f6e66696760c81b6064820152608490fd5b6001600160a01b039182168152911660208201525f604082015260a060608201819052613aef939192614e6991840190613a09565b916080818403910152613a09565b6001600160a01b0390911681525f6020820152608060408201819052613aef939192614ea591840190613a09565b916060818403910152613a09565b9392815f52600e60205260405f20546133e0576001600160a01b0385169283156133a857604051614ee3816138fa565b8381526003602082015f8152604083015f815260608401915f8352875f52600e60205260405f209451855551600185015551600284015560018060a01b0390511691019060018060a01b03166001600160601b0360a01b825416179055835f5260066020528260405f2055827f988dde20b788b20d2f8188ab37bc9419a99761fc4ec19356dc30cfa49b4601dc6020604051878152a2825f52600e60205260405f20541580159061523e575b614f9890614406565b815115615204578051156151bf5760405195602087014281526001600160601b03198260601b16908160408a0152835198614ff860406054838d60208a019e8f8484015e810146838201528b607482015203016020810184520182613930565b51902097855f52600e602052600260405f20015461516e57615069606060549260405193849160208301964288526040840152885180918385015e820146828201528a60748201525f60948201528951908160208c0160b483015e01015f838201520301601f198101835282613930565b519020945f5260056020528460405f205560405161508681613915565b6001815260208101905f8252865f52600960205260405f209051916006831015610a00576117c96150b79383614543565b835f52600e602052600360405f20016001600160601b0360a01b815416905584966150e3600354614026565b600355845f52600e60205280600260405f2001555f52600f60205260405f2092835490600160401b8210156109a7578661514d615137845f516020615b475f395f51905f5298600161516997018155613bcb565b819391549060031b91821b915f19901b19161790565b9055865f52601f6020528560405f205560405193849384614e77565b0390a3565b60405162461bcd60e51b815260206004820152602360248201527f6465706c6f796d656e742072657175657374494420616c72656164792065786960448201526273747360e81b6064820152608490fd5b60405162461bcd60e51b815260206004820152601760248201527f62617365363450726f706f73616c20697320656d7074790000000000000000006044820152606490fd5b60405162461bcd60e51b815260206004820152601260248201527173657276657255524c20697320656d70747960701b6044820152606490fd5b505f838152600d60205260409020546001600160a01b03161515614f8f565b9194939294815f52600e60205260405f20546133e0576001600160a01b0383169283156133a857604051615290816138fa565b8381526003602082015f8152604083015f815260608401915f8352875f52600e60205260405f209451855551600185015551600284015560018060a01b0390511691019060018060a01b03166001600160601b0360a01b825416179055835f5260066020528260405f2055827f988dde20b788b20d2f8188ab37bc9419a99761fc4ec19356dc30cfa49b4601dc6020604051878152a2825f52600e60205260405f205415801590615578575b61534590614406565b845115615204578151156151bf5760405196602088014281526001600160601b03198360601b16908160408b015284519980602087019b808d605484015e8101466054820152886074820152036054016020810182526040016153a89082613930565b51902098855f52600e60205260405f206002015461516e57615419606060209260546040519485928184019742895260408501528a5180918486015e830146838201528b60748201525f60948201528d80519283910160b483015e01015f838201520301601f198101835282613930565b5190205f958652600560205260409095208590556001600160a01b03811690811580156155715760015b6154536040519161179683613915565b6020810190848252885f52600960205260405f209051916006831015610a00576117c96154809383614543565b855f52600e602052600360405f20016001600160601b0360a01b815416905586996154ac600354614026565b600355865f52600e60205280600260405f2001555f52600f60205260405f208054600160401b8110156109a757615137818a9360016154ed94018155613bcb565b9055865f52601f6020528560405f20555f146155255750506151695f516020615b475f395f51905f5293949560405193849384614e77565b849261555b7f26e5b75b543be1cdad2907ba50a99eeb5c3a05381eee18d5b6a565b2bbccd1ba9398889660405194859485614e34565b0390a35f516020615b675f395f51905f525f80a4565b6002615443565b505f838152600d60205260409020546001600160a01b0316151561533c565b6042906155a26159f7565b6155aa615a61565b6040519060208201927f8b73c3c69bb8fe3d512ecc4cf759cc79239f7b179b0ffacaa9a75d522b39400f8452604083015260608201524660808201523060a082015260a081526155fb60c082613930565b519020906040519161190160f01b8352600283015260228201522090565b6006821015610a005752565b5f828152601f6020526040902054811461568757615642816145d4565b939150505f5b835181101561567f578161565c8286614ca9565b511461566a57600101615648565b509091505f52601f60205260405f2055600190565b505050505f90565b5050600190565b1561569557565b60405162461bcd60e51b8152602060048201526012602482015271496e76616c696420746f206164647265737360701b6044820152606490fd5b6001600160a01b03848116939192908216841461577e576157455f936156f8602096151561568e565b615703831515614cbd565b6040516323b872dd60e01b8782019081526001600160a01b03958616602483015297851660448201526064808201949094529283529092169491608482613930565b519082855af1156140e7575f513d6157755750803b155b6157635750565b635274afe760e01b5f5260045260245ffd5b6001141561575c565b60405162461bcd60e51b815260206004820152601f60248201527f43616e6e6f74207472616e7366657220746f2073656c662061646472657373006044820152606490fd5b6001600160a01b03166157d781151561568e565b6157e2821515614cbd565b814710615807575f80809381935af16157f96158e3565b90156158025750565b615994565b504763cf47918160e01b5f5260045260245260445ffd5b815191906041830361584e576158479250602082015190606060408401519301515f1a90615912565b9192909190565b50505f9160029190565b6004811015610a00578061586a575050565b600181036158815763f645eedf60e01b5f5260045ffd5b6002810361589c575063fce698f760e01b5f5260045260245ffd5b6003146158a65750565b6335e2f38360e21b5f5260045260245ffd5b60ff5f516020615b875f395f51905f525460401c16156158d457565b631afcd79f60e31b5f5260045ffd5b3d1561590d573d906158f482613951565b916159026040519384613930565b82523d5f602084013e565b606090565b91907f7fffffffffffffffffffffffffffffff5d576e7357a4501ddfe92f46681b20a08411615989579160209360809260ff5f9560405194855216868401526040830152606082015282805260015afa156140e7575f516001600160a01b0381161561597f57905f905f90565b505f906001905f90565b5050505f9160039190565b8051156159a357805190602001fd5b63d6bda27560e01b5f5260045ffd5b906159bd5750615994565b815115806159ee575b6159ce575090565b639996b31560e01b5f9081526001600160a01b0391909116600452602490fd5b50803b156159c6565b6159ff613d31565b8051908115615a0f576020012090565b50507fa16a46d94261c7517cc8ff89f61c0ce93598e3c849801011dee649a6a557d100548015615a3c5790565b507fc5d2460186f7233c927e7db2dcc703c0e500b653ca82273b7bfad8045d85a47090565b615a69613dde565b8051908115615a79576020012090565b50507fa16a46d94261c7517cc8ff89f61c0ce93598e3c849801011dee649a6a557d101548015615a3c579056feb8794b41e90d812be6b26b66850fef1e55c60c6fb622f8d02df1dc0adec6c38ca16a46d94261c7517cc8ff89f61c0ce93598e3c849801011dee649a6a557d1029016d09d72d40fdae2fd8ceac6b6234c7706214fd39c1cd1e609a0528c199300a16a46d94261c7517cc8ff89f61c0ce93598e3c849801011dee649a6a557d103360894a13ba1a3210667c828492db98dca3e2076cc3735a920a3ca505d382bbccdde0392731ff1ddcc3295ee84db8db4a9ad3d8f34056867af8c9f3b2920d44e065b3b95166dc6cadb255ba57b9623fa09d0519437b43d13dbd0d7f7a5ee9b76f0c57e16840df040f15088dc2f81fe391c3923bec73e23a9662efc9c229c6a00a264697066735822122048286cf941a8f404dbabfd498f84917fb78281aa0c5520bb7df9af01e0b650e964736f6c634300081e0033","linkReferences":{}},"methodIdentifiers":{"CREATE_AGENT_OP()":"644a44fb","CREATE_AGENT_WITH_NFT_TYPEHASH()":"356c9a83","CREATE_AGENT_WITH_TOKEN_TYPEHASH()":"9acd2a1a","DEPLOYMENT_REQUEST_TYPEHASH()":"31f4f12d","PAYMENT_KEY()":"de601e4c","PROPOSAL_REQUEST_TYPEHASH()":"7b31d6f6","RESET_DEPLOYMENT_REQUEST_TYPEHASH()":"2cfde378","SIGNING_DOMAIN()":"e3faad94","UPDATE_AGENT_OP()":"094e03bc","UPDATE_WORKER_CONFIG_TYPEHASH()":"f2bbea3f","UPGRADE_INTERFACE_VERSION()":"ad3cb1cc","VERSION()":"ffa1ad74","addPaymentAddress(address)":"e63dee48","checkNFTOwnership(address,uint256,address)":"43da75c4","createAgentWithNFT(bytes32,string,address,string,uint256)":"c13c26eb","createAgentWithSigWithNFT(bytes32,string,address,string,bytes,uint256)":"61419044","createAgentWithToken(bytes32,string,address,string,address)":"05d10b8f","createAgentWithTokenWithSig(bytes32,string,address,string,address,bytes)":"938e8f50","createProjectID()":"2ae189d8","createProjectIDAndDeploymentRequest(bytes32,string,string)":"c4845f5f","createProjectIDAndDeploymentRequestWithSig(bytes32,string,string,bytes)":"4ce354f0","createProjectIDAndPrivateDeploymentRequest(bytes32,string,address,string)":"7ce53f49","creditReward(address,uint256)":"43e84e9f","deploymentIdList(bytes32,uint256)":"d2a0c275","dummyAddress()":"05b38312","eip712Domain()":"84b0196e","factor()":"54f703f8","feeCollectionWalletAddress()":"13d32741","getAddress()":"38cc4831","getCreateAgentWithNFTDigest(bytes32,string,string,address,uint256)":"8935e545","getCreateAgentWithTokenDigest(bytes32,string,string,address,address)":"c347c7e3","getDeploymentProof(bytes32)":"4b6680de","getDeploymentStatus(bytes32)":"09470536","getEIP712ContractAddress()":"c3a1ae27","getLatestDeploymentRequestID(address)":"b9bb7135","getLatestUserProjectID(address)":"ce1b4ff5","getPaymentAddresses()":"516add26","getProjectInfo(bytes32)":"e0566833","getRequestDeploymentDigest(bytes32,string,string)":"62bd459c","getRequestProposalDigest(bytes32,string,string)":"c03044f3","getRequestResetDeploymentDigest(bytes32,bytes32,address,string,uint256)":"fa2b3cf9","getSignerAddress(bytes32,bytes)":"0f7d8e39","getUpdateWorkerConfigDigest(address,bytes32,bytes32,string,uint256)":"e5e24e82","getUserNonce(address)":"6834e3a8","getWorkerAddresses()":"39c12636","getWorkerPublicKey(address)":"4caafee2","initialize()":"8129fc1c","isWhitelistUser(address)":"af63f49b","latestDeploymentRequestID(address)":"078ebeae","latestProjectID(address)":"56ed8752","latestProposalRequestID(address)":"822c737a","nftContractAddress()":"aae282e1","nftTokenIdMap(uint256)":"76c6062f","owner()":"8da5cb5b","paymentAddressEnableMp(address)":"128634e4","paymentAddressesMp(string,uint256)":"cdb4c7f7","paymentOpCostMp(address,string)":"83471045","proxiableUUID()":"52d1902d","removePaymentAddress(address)":"0e5390c5","removeWhitelistAddresses(address[])":"b83921a6","renounceOwnership()":"715018a6","requestDeploymentStatus(bytes32)":"fcc82939","requestIDToProjectID(bytes32)":"d0d31cc5","resetDeploymentRequest(bytes32,bytes32,address,string,string)":"8031be46","resetDeploymentRequestWithSig(bytes32,bytes32,address,string,string,bytes)":"8333f55f","resetWorkers()":"32157c92","setCreateAgentTokenCost(address,uint256)":"19ea61c4","setFeeCollectionWalletAddress(address)":"d800d46b","setNFTContractAddress(address)":"23949cd1","setUpdateCreateAgentTokenCost(address,uint256)":"821c8ba1","setWhitelistAddresses(address[])":"f52ccc2d","setWorkerAdmin(address)":"13f2fcd1","setWorkerPublicKey(bytes)":"4bcaa626","solverReputation(address)":"ed3c95c0","submitDeploymentRequest(bytes32,bytes32)":"be539d3f","submitProofOfDeployment(bytes32,bytes32,string)":"e128fced","totalDeploymentRequest()":"83c49efa","totalProposalRequest()":"a97bedfe","transferOwnership(address)":"f2fde38b","trustWorkerMp(address)":"0442bb85","updateWorker(address,bool)":"896b4be9","updateWorkerDeploymentConfig(address,bytes32,bytes32,string)":"79964547","updateWorkerDeploymentConfigWithSig(address,bytes32,bytes32,string,bytes)":"3b108568","upgradeToAndCall(address,bytes)":"4f1ef286","userTopUp(address,uint256)":"32aceb73","userTopUpMp(address,address)":"b660f9ff","userTopUpOther(address,address,uint256)":"50da8adf","whitelistUsers(address)":"6ec55dbc","workerAdmin()":"984e85f5","workerReputation(address)":"08a101b8"},"storageLayout":{"storage":[{"astId":47823,"contract":"src/BlueprintV6.sol:BlueprintV6","label":"VERSION","offset":0,"slot":"0","type":"t_string_storage"},{"astId":47825,"contract":"src/BlueprintV6.sol:BlueprintV6","label":"factor","offset":0,"slot":"1","type":"t_uint256"},{"astId":47827,"contract":"src/BlueprintV6.sol:BlueprintV6","label":"totalProposalRequest","offset":0,"slot":"2","type":"t_uint256"},{"astId":47829,"contract":"src/BlueprintV6.sol:BlueprintV6","label":"totalDeploymentRequest","offset":0,"slot":"3","type":"t_uint256"},{"astId":47833,"contract":"src/BlueprintV6.sol:BlueprintV6","label":"latestProposalRequestID","offset":0,"slot":"4","type":"t_mapping(t_address,t_bytes32)"},{"astId":47837,"contract":"src/BlueprintV6.sol:BlueprintV6","label":"latestDeploymentRequestID","offset":0,"slot":"5","type":"t_mapping(t_address,t_bytes32)"},{"astId":47841,"contract":"src/BlueprintV6.sol:BlueprintV6","label":"latestProjectID","offset":0,"slot":"6","type":"t_mapping(t_address,t_bytes32)"},{"astId":47845,"contract":"src/BlueprintV6.sol:BlueprintV6","label":"solverReputation","offset":0,"slot":"7","type":"t_mapping(t_address,t_uint256)"},{"astId":47849,"contract":"src/BlueprintV6.sol:BlueprintV6","label":"workerReputation","offset":0,"slot":"8","type":"t_mapping(t_address,t_uint256)"},{"astId":47854,"contract":"src/BlueprintV6.sol:BlueprintV6","label":"requestDeploymentStatus","offset":0,"slot":"9","type":"t_mapping(t_bytes32,t_struct(DeploymentStatus)47821_storage)"},{"astId":47858,"contract":"src/BlueprintV6.sol:BlueprintV6","label":"deploymentProof","offset":0,"slot":"10","type":"t_mapping(t_bytes32,t_string_storage)"},{"astId":47862,"contract":"src/BlueprintV6.sol:BlueprintV6","label":"requestSolver","offset":0,"slot":"11","type":"t_mapping(t_bytes32,t_address)"},{"astId":47866,"contract":"src/BlueprintV6.sol:BlueprintV6","label":"requestWorker","offset":0,"slot":"12","type":"t_mapping(t_bytes32,t_address)"},{"astId":47870,"contract":"src/BlueprintV6.sol:BlueprintV6","label":"projectIDs","offset":0,"slot":"13","type":"t_mapping(t_bytes32,t_address)"},{"astId":47890,"contract":"src/BlueprintV6.sol:BlueprintV6","label":"projects","offset":0,"slot":"14","type":"t_mapping(t_bytes32,t_struct(Project)47879_storage)"},{"astId":47895,"contract":"src/BlueprintV6.sol:BlueprintV6","label":"deploymentIdList","offset":0,"slot":"15","type":"t_mapping(t_bytes32,t_array(t_bytes32)dyn_storage)"},{"astId":47898,"contract":"src/BlueprintV6.sol:BlueprintV6","label":"workerAddresses","offset":0,"slot":"16","type":"t_array(t_address)dyn_storage"},{"astId":47902,"contract":"src/BlueprintV6.sol:BlueprintV6","label":"workersPublicKey","offset":0,"slot":"17","type":"t_mapping(t_address,t_bytes_storage)"},{"astId":47907,"contract":"src/BlueprintV6.sol:BlueprintV6","label":"workerAddressesMp","offset":0,"slot":"18","type":"t_mapping(t_string_memory_ptr,t_array(t_address)dyn_storage)"},{"astId":47915,"contract":"src/BlueprintV6.sol:BlueprintV6","label":"nftTokenIdMap","offset":0,"slot":"19","type":"t_mapping(t_uint256,t_enum(Status)47815)"},{"astId":47917,"contract":"src/BlueprintV6.sol:BlueprintV6","label":"nftContractAddress","offset":0,"slot":"20","type":"t_address"},{"astId":47922,"contract":"src/BlueprintV6.sol:BlueprintV6","label":"whitelistUsers","offset":0,"slot":"21","type":"t_mapping(t_address,t_enum(Status)47815)"},{"astId":47926,"contract":"src/BlueprintV6.sol:BlueprintV6","label":"deploymentOwners","offset":0,"slot":"22","type":"t_mapping(t_bytes32,t_address)"},{"astId":47937,"contract":"src/BlueprintV6.sol:BlueprintV6","label":"feeCollectionWalletAddress","offset":0,"slot":"23","type":"t_address"},{"astId":47942,"contract":"src/BlueprintV6.sol:BlueprintV6","label":"paymentAddressesMp","offset":0,"slot":"24","type":"t_mapping(t_string_memory_ptr,t_array(t_address)dyn_storage)"},{"astId":47946,"contract":"src/BlueprintV6.sol:BlueprintV6","label":"paymentAddressEnableMp","offset":0,"slot":"25","type":"t_mapping(t_address,t_bool)"},{"astId":47952,"contract":"src/BlueprintV6.sol:BlueprintV6","label":"paymentOpCostMp","offset":0,"slot":"26","type":"t_mapping(t_address,t_mapping(t_string_memory_ptr,t_uint256))"},{"astId":47958,"contract":"src/BlueprintV6.sol:BlueprintV6","label":"userTopUpMp","offset":0,"slot":"27","type":"t_mapping(t_address,t_mapping(t_address,t_uint256))"},{"astId":47962,"contract":"src/BlueprintV6.sol:BlueprintV6","label":"userNonceMp","offset":0,"slot":"28","type":"t_mapping(t_address,t_uint256)"},{"astId":47964,"contract":"src/BlueprintV6.sol:BlueprintV6","label":"workerAdmin","offset":0,"slot":"29","type":"t_address"},{"astId":47968,"contract":"src/BlueprintV6.sol:BlueprintV6","label":"trustWorkerMp","offset":0,"slot":"30","type":"t_mapping(t_address,t_bool)"},{"astId":47972,"contract":"src/BlueprintV6.sol:BlueprintV6","label":"requestIDToProjectID","offset":0,"slot":"31","type":"t_mapping(t_bytes32,t_bytes32)"}],"types":{"t_address":{"encoding":"inplace","label":"address","numberOfBytes":"20"},"t_array(t_address)dyn_storage":{"encoding":"dynamic_array","label":"address[]","numberOfBytes":"32","base":"t_address"},"t_array(t_bytes32)dyn_storage":{"encoding":"dynamic_array","label":"bytes32[]","numberOfBytes":"32","base":"t_bytes32"},"t_bool":{"encoding":"inplace","label":"bool","numberOfBytes":"1"},"t_bytes32":{"encoding":"inplace","label":"bytes32","numberOfBytes":"32"},"t_bytes_storage":{"encoding":"bytes","label":"bytes","numberOfBytes":"32"},"t_enum(Status)47815":{"encoding":"inplace","label":"enum BlueprintCore.Status","numberOfBytes":"1"},"t_mapping(t_address,t_bool)":{"encoding":"mapping","key":"t_address","label":"mapping(address => bool)","numberOfBytes":"32","value":"t_bool"},"t_mapping(t_address,t_bytes32)":{"encoding":"mapping","key":"t_address","label":"mapping(address => bytes32)","numberOfBytes":"32","value":"t_bytes32"},"t_mapping(t_address,t_bytes_storage)":{"encoding":"mapping","key":"t_address","label":"mapping(address => bytes)","numberOfBytes":"32","value":"t_bytes_storage"},"t_mapping(t_address,t_enum(Status)47815)":{"encoding":"mapping","key":"t_address","label":"mapping(address => enum BlueprintCore.Status)","numberOfBytes":"32","value":"t_enum(Status)47815"},"t_mapping(t_address,t_mapping(t_address,t_uint256))":{"encoding":"mapping","key":"t_address","label":"mapping(address => mapping(address => uint256))","numberOfBytes":"32","value":"t_mapping(t_address,t_uint256)"},"t_mapping(t_address,t_mapping(t_string_memory_ptr,t_uint256))":{"encoding":"mapping","key":"t_address","label":"mapping(address => mapping(string => uint256))","numberOfBytes":"32","value":"t_mapping(t_string_memory_ptr,t_uint256)"},"t_mapping(t_address,t_uint256)":{"encoding":"mapping","key":"t_address","label":"mapping(address => uint256)","numberOfBytes":"32","value":"t_uint256"},"t_mapping(t_bytes32,t_address)":{"encoding":"mapping","key":"t_bytes32","label":"mapping(bytes32 => address)","numberOfBytes":"32","value":"t_address"},"t_mapping(t_bytes32,t_array(t_bytes32)dyn_storage)":{"encoding":"mapping","key":"t_bytes32","label":"mapping(bytes32 => bytes32[])","numberOfBytes":"32","value":"t_array(t_bytes32)dyn_storage"},"t_mapping(t_bytes32,t_bytes32)":{"encoding":"mapping","key":"t_bytes32","label":"mapping(bytes32 => bytes32)","numberOfBytes":"32","value":"t_bytes32"},"t_mapping(t_bytes32,t_string_storage)":{"encoding":"mapping","key":"t_bytes32","label":"mapping(bytes32 => string)","numberOfBytes":"32","value":"t_string_storage"},"t_mapping(t_bytes32,t_struct(DeploymentStatus)47821_storage)":{"encoding":"mapping","key":"t_bytes32","label":"mapping(bytes32 => struct BlueprintCore.DeploymentStatus)","numberOfBytes":"32","value":"t_struct(DeploymentStatus)47821_storage"},"t_mapping(t_bytes32,t_struct(Project)47879_storage)":{"encoding":"mapping","key":"t_bytes32","label":"mapping(bytes32 => struct BlueprintCore.Project)","numberOfBytes":"32","value":"t_struct(Project)47879_storage"},"t_mapping(t_string_memory_ptr,t_array(t_address)dyn_storage)":{"encoding":"mapping","key":"t_string_memory_ptr","label":"mapping(string => address[])","numberOfBytes":"32","value":"t_array(t_address)dyn_storage"},"t_mapping(t_string_memory_ptr,t_uint256)":{"encoding":"mapping","key":"t_string_memory_ptr","label":"mapping(string => uint256)","numberOfBytes":"32","value":"t_uint256"},"t_mapping(t_uint256,t_enum(Status)47815)":{"encoding":"mapping","key":"t_uint256","label":"mapping(uint256 => enum BlueprintCore.Status)","numberOfBytes":"32","value":"t_enum(Status)47815"},"t_string_memory_ptr":{"encoding":"bytes","label":"string","numberOfBytes":"32"},"t_string_storage":{"encoding":"bytes","label":"string","numberOfBytes":"32"},"t_struct(DeploymentStatus)47821_storage":{"encoding":"inplace","label":"struct BlueprintCore.DeploymentStatus","numberOfBytes":"32","members":[{"astId":47818,"contract":"src/BlueprintV6.sol:BlueprintV6","label":"status","offset":0,"slot":"0","type":"t_enum(Status)47815"},{"astId":47820,"contract":"src/BlueprintV6.sol:BlueprintV6","label":"deployWorkerAddr","offset":1,"slot":"0","type":"t_address"}]},"t_struct(Project)47879_storage":{"encoding":"inplace","label":"struct BlueprintCore.Project","numberOfBytes":"128","members":[{"astId":47872,"contract":"src/BlueprintV6.sol:BlueprintV6","label":"id","offset":0,"slot":"0","type":"t_bytes32"},{"astId":47874,"contract":"src/BlueprintV6.sol:BlueprintV6","label":"requestProposalID","offset":0,"slot":"1","type":"t_bytes32"},{"astId":47876,"contract":"src/BlueprintV6.sol:BlueprintV6","label":"requestDeploymentID","offset":0,"slot":"2","type":"t_bytes32"},{"astId":47878,"contract":"src/BlueprintV6.sol:BlueprintV6","label":"proposedSolverAddr","offset":0,"slot":"3","type":"t_address"}]},"t_uint256":{"encoding":"inplace","label":"uint256","numberOfBytes":"32"}}},"id":56}