{"abi":[{"type":"function","name":"DEPLOYMENT_REQUEST_TYPEHASH","inputs":[],"outputs":[{"name":"","type":"bytes32","internalType":"bytes32"}],"stateMutability":"view"},{"type":"function","name":"NFT_CONTRACT_ADDRESS","inputs":[],"outputs":[{"name":"","type":"address","internalType":"address"}],"stateMutability":"view"},{"type":"function","name":"PROPOSAL_REQUEST_TYPEHASH","inputs":[],"outputs":[{"name":"","type":"bytes32","internalType":"bytes32"}],"stateMutability":"view"},{"type":"function","name":"SIGNING_DOMAIN","inputs":[],"outputs":[{"name":"","type":"string","internalType":"string"}],"stateMutability":"view"},{"type":"function","name":"UPGRADE_INTERFACE_VERSION","inputs":[],"outputs":[{"name":"","type":"string","internalType":"string"}],"stateMutability":"view"},{"type":"function","name":"VERSION","inputs":[],"outputs":[{"name":"","type":"string","internalType":"string"}],"stateMutability":"view"},{"type":"function","name":"addWhitelistAddress","inputs":[{"name":"whitelistAddress","type":"address","internalType":"address"}],"outputs":[],"stateMutability":"nonpayable"},{"type":"function","name":"checkNFTOwnership","inputs":[{"name":"nftTokenAddress","type":"address","internalType":"address"},{"name":"nftId","type":"uint256","internalType":"uint256"},{"name":"userAddress","type":"address","internalType":"address"}],"outputs":[{"name":"","type":"bool","internalType":"bool"}],"stateMutability":"view"},{"type":"function","name":"createAgentWithNFT","inputs":[{"name":"projectId","type":"bytes32","internalType":"bytes32"},{"name":"base64Proposal","type":"string","internalType":"string"},{"name":"privateWorkerAddress","type":"address","internalType":"address"},{"name":"serverURL","type":"string","internalType":"string"},{"name":"tokenId","type":"uint256","internalType":"uint256"}],"outputs":[{"name":"requestID","type":"bytes32","internalType":"bytes32"}],"stateMutability":"nonpayable"},{"type":"function","name":"createAgentWithSigWithNFT","inputs":[{"name":"projectId","type":"bytes32","internalType":"bytes32"},{"name":"base64Proposal","type":"string","internalType":"string"},{"name":"privateWorkerAddress","type":"address","internalType":"address"},{"name":"serverURL","type":"string","internalType":"string"},{"name":"signature","type":"bytes","internalType":"bytes"},{"name":"tokenId","type":"uint256","internalType":"uint256"}],"outputs":[{"name":"requestID","type":"bytes32","internalType":"bytes32"}],"stateMutability":"nonpayable"},{"type":"function","name":"createAgentWithWhitelistUsers","inputs":[{"name":"projectId","type":"bytes32","internalType":"bytes32"},{"name":"base64Proposal","type":"string","internalType":"string"},{"name":"privateWorkerAddress","type":"address","internalType":"address"},{"name":"serverURL","type":"string","internalType":"string"},{"name":"tokenId","type":"uint256","internalType":"uint256"}],"outputs":[{"name":"requestID","type":"bytes32","internalType":"bytes32"}],"stateMutability":"nonpayable"},{"type":"function","name":"createAgentWithWhitelistUsersWithSig","inputs":[{"name":"projectId","type":"bytes32","internalType":"bytes32"},{"name":"base64Proposal","type":"string","internalType":"string"},{"name":"privateWorkerAddress","type":"address","internalType":"address"},{"name":"serverURL","type":"string","internalType":"string"},{"name":"tokenId","type":"uint256","internalType":"uint256"},{"name":"signature","type":"bytes","internalType":"bytes"}],"outputs":[{"name":"requestID","type":"bytes32","internalType":"bytes32"}],"stateMutability":"nonpayable"},{"type":"function","name":"createDeploymentRequest","inputs":[{"name":"projectId","type":"bytes32","internalType":"bytes32"},{"name":"solverAddress","type":"address","internalType":"address"},{"name":"base64Proposal","type":"string","internalType":"string"},{"name":"serverURL","type":"string","internalType":"string"}],"outputs":[{"name":"requestID","type":"bytes32","internalType":"bytes32"}],"stateMutability":"nonpayable"},{"type":"function","name":"createDeploymentRequestWithSig","inputs":[{"name":"projectId","type":"bytes32","internalType":"bytes32"},{"name":"solverAddress","type":"address","internalType":"address"},{"name":"base64Proposal","type":"string","internalType":"string"},{"name":"serverURL","type":"string","internalType":"string"},{"name":"signature","type":"bytes","internalType":"bytes"}],"outputs":[{"name":"requestID","type":"bytes32","internalType":"bytes32"}],"stateMutability":"nonpayable"},{"type":"function","name":"createMultipleDeploymentRequest","inputs":[{"name":"projectId","type":"bytes32","internalType":"bytes32"},{"name":"solverAddress","type":"address","internalType":"address"},{"name":"workerAddress","type":"address","internalType":"address"},{"name":"base64Proposals","type":"string[]","internalType":"string[]"},{"name":"serverURL","type":"string","internalType":"string"}],"outputs":[{"name":"projectDeploymentID","type":"bytes32","internalType":"bytes32"}],"stateMutability":"nonpayable"},{"type":"function","name":"createPrivateDeploymentRequest","inputs":[{"name":"projectId","type":"bytes32","internalType":"bytes32"},{"name":"solverAddress","type":"address","internalType":"address"},{"name":"privateWorkerAddress","type":"address","internalType":"address"},{"name":"base64Proposal","type":"string","internalType":"string"},{"name":"serverURL","type":"string","internalType":"string"}],"outputs":[{"name":"requestID","type":"bytes32","internalType":"bytes32"}],"stateMutability":"nonpayable"},{"type":"function","name":"createPrivateDeploymentRequestWithSig","inputs":[{"name":"projectId","type":"bytes32","internalType":"bytes32"},{"name":"solverAddress","type":"address","internalType":"address"},{"name":"privateWorkerAddress","type":"address","internalType":"address"},{"name":"base64Proposal","type":"string","internalType":"string"},{"name":"serverURL","type":"string","internalType":"string"},{"name":"signature","type":"bytes","internalType":"bytes"}],"outputs":[{"name":"requestID","type":"bytes32","internalType":"bytes32"}],"stateMutability":"nonpayable"},{"type":"function","name":"createPrivateProposalRequest","inputs":[{"name":"projectId","type":"bytes32","internalType":"bytes32"},{"name":"privateSolverAddress","type":"address","internalType":"address"},{"name":"base64RecParam","type":"string","internalType":"string"},{"name":"serverURL","type":"string","internalType":"string"}],"outputs":[{"name":"requestID","type":"bytes32","internalType":"bytes32"}],"stateMutability":"nonpayable"},{"type":"function","name":"createProjectID","inputs":[],"outputs":[{"name":"projectId","type":"bytes32","internalType":"bytes32"}],"stateMutability":"nonpayable"},{"type":"function","name":"createProjectIDAndDeploymentRequest","inputs":[{"name":"projectId","type":"bytes32","internalType":"bytes32"},{"name":"base64Proposal","type":"string","internalType":"string"},{"name":"serverURL","type":"string","internalType":"string"}],"outputs":[{"name":"requestID","type":"bytes32","internalType":"bytes32"}],"stateMutability":"nonpayable"},{"type":"function","name":"createProjectIDAndDeploymentRequestWithSig","inputs":[{"name":"projectId","type":"bytes32","internalType":"bytes32"},{"name":"base64Proposal","type":"string","internalType":"string"},{"name":"serverURL","type":"string","internalType":"string"},{"name":"signature","type":"bytes","internalType":"bytes"}],"outputs":[{"name":"requestID","type":"bytes32","internalType":"bytes32"}],"stateMutability":"nonpayable"},{"type":"function","name":"createProjectIDAndPrivateDeploymentRequest","inputs":[{"name":"projectId","type":"bytes32","internalType":"bytes32"},{"name":"base64Proposal","type":"string","internalType":"string"},{"name":"privateWorkerAddress","type":"address","internalType":"address"},{"name":"serverURL","type":"string","internalType":"string"}],"outputs":[{"name":"requestID","type":"bytes32","internalType":"bytes32"}],"stateMutability":"nonpayable"},{"type":"function","name":"createProjectIDAndPrivateDeploymentRequestWithSig","inputs":[{"name":"projectId","type":"bytes32","internalType":"bytes32"},{"name":"base64Proposal","type":"string","internalType":"string"},{"name":"privateWorkerAddress","type":"address","internalType":"address"},{"name":"serverURL","type":"string","internalType":"string"},{"name":"signature","type":"bytes","internalType":"bytes"}],"outputs":[{"name":"requestID","type":"bytes32","internalType":"bytes32"}],"stateMutability":"nonpayable"},{"type":"function","name":"createProjectIDAndProposalRequest","inputs":[{"name":"projectId","type":"bytes32","internalType":"bytes32"},{"name":"base64RecParam","type":"string","internalType":"string"},{"name":"serverURL","type":"string","internalType":"string"}],"outputs":[{"name":"requestID","type":"bytes32","internalType":"bytes32"}],"stateMutability":"nonpayable"},{"type":"function","name":"createProjectIDAndProposalRequestWithSig","inputs":[{"name":"projectId","type":"bytes32","internalType":"bytes32"},{"name":"base64RecParam","type":"string","internalType":"string"},{"name":"serverURL","type":"string","internalType":"string"},{"name":"signature","type":"bytes","internalType":"bytes"}],"outputs":[{"name":"requestID","type":"bytes32","internalType":"bytes32"}],"stateMutability":"nonpayable"},{"type":"function","name":"createProjectIdAndPrivateDeploymentWithConfig","inputs":[{"name":"projectId","type":"bytes32","internalType":"bytes32"},{"name":"base64Proposal","type":"string","internalType":"string"},{"name":"privateWorkerAddress","type":"address","internalType":"address"},{"name":"serverURL","type":"string","internalType":"string"}],"outputs":[{"name":"requestID","type":"bytes32","internalType":"bytes32"}],"stateMutability":"nonpayable"},{"type":"function","name":"createProposalRequest","inputs":[{"name":"projectId","type":"bytes32","internalType":"bytes32"},{"name":"base64RecParam","type":"string","internalType":"string"},{"name":"serverURL","type":"string","internalType":"string"}],"outputs":[{"name":"requestID","type":"bytes32","internalType":"bytes32"}],"stateMutability":"nonpayable"},{"type":"function","name":"createProposalRequestWithSig","inputs":[{"name":"projectId","type":"bytes32","internalType":"bytes32"},{"name":"base64RecParam","type":"string","internalType":"string"},{"name":"serverURL","type":"string","internalType":"string"},{"name":"signature","type":"bytes","internalType":"bytes"}],"outputs":[{"name":"requestID","type":"bytes32","internalType":"bytes32"}],"stateMutability":"nonpayable"},{"type":"function","name":"deleteWhitelistAddress","inputs":[{"name":"whitelistAddress","type":"address","internalType":"address"}],"outputs":[],"stateMutability":"nonpayable"},{"type":"function","name":"deploymentIdList","inputs":[{"name":"","type":"bytes32","internalType":"bytes32"},{"name":"","type":"uint256","internalType":"uint256"}],"outputs":[{"name":"","type":"bytes32","internalType":"bytes32"}],"stateMutability":"view"},{"type":"function","name":"dummyAddress","inputs":[],"outputs":[{"name":"","type":"address","internalType":"address"}],"stateMutability":"view"},{"type":"function","name":"eip712Domain","inputs":[],"outputs":[{"name":"fields","type":"bytes1","internalType":"bytes1"},{"name":"name","type":"string","internalType":"string"},{"name":"version","type":"string","internalType":"string"},{"name":"chainId","type":"uint256","internalType":"uint256"},{"name":"verifyingContract","type":"address","internalType":"address"},{"name":"salt","type":"bytes32","internalType":"bytes32"},{"name":"extensions","type":"uint256[]","internalType":"uint256[]"}],"stateMutability":"view"},{"type":"function","name":"factor","inputs":[],"outputs":[{"name":"","type":"uint256","internalType":"uint256"}],"stateMutability":"view"},{"type":"function","name":"getAddress","inputs":[],"outputs":[{"name":"","type":"address","internalType":"address"}],"stateMutability":"view"},{"type":"function","name":"getDeploymentProof","inputs":[{"name":"requestID","type":"bytes32","internalType":"bytes32"}],"outputs":[{"name":"","type":"string","internalType":"string"}],"stateMutability":"view"},{"type":"function","name":"getDeploymentStatus","inputs":[{"name":"requestID","type":"bytes32","internalType":"bytes32"}],"outputs":[{"name":"","type":"uint8","internalType":"enum BlueprintCore.Status"},{"name":"","type":"address","internalType":"address"}],"stateMutability":"view"},{"type":"function","name":"getEIP712ContractAddress","inputs":[],"outputs":[{"name":"","type":"address","internalType":"address"}],"stateMutability":"view"},{"type":"function","name":"getLatestDeploymentRequestID","inputs":[{"name":"addr","type":"address","internalType":"address"}],"outputs":[{"name":"","type":"bytes32","internalType":"bytes32"}],"stateMutability":"view"},{"type":"function","name":"getLatestProposalRequestID","inputs":[{"name":"addr","type":"address","internalType":"address"}],"outputs":[{"name":"","type":"bytes32","internalType":"bytes32"}],"stateMutability":"view"},{"type":"function","name":"getLatestUserProjectID","inputs":[{"name":"addr","type":"address","internalType":"address"}],"outputs":[{"name":"","type":"bytes32","internalType":"bytes32"}],"stateMutability":"view"},{"type":"function","name":"getProjectInfo","inputs":[{"name":"projectId","type":"bytes32","internalType":"bytes32"}],"outputs":[{"name":"","type":"address","internalType":"address"},{"name":"","type":"bytes32","internalType":"bytes32"},{"name":"","type":"bytes32[]","internalType":"bytes32[]"}],"stateMutability":"view"},{"type":"function","name":"getReputation","inputs":[{"name":"addr","type":"address","internalType":"address"}],"outputs":[{"name":"","type":"uint256","internalType":"uint256"}],"stateMutability":"view"},{"type":"function","name":"getRequestDeploymentDigest","inputs":[{"name":"projectId","type":"bytes32","internalType":"bytes32"},{"name":"base64RecParam","type":"string","internalType":"string"},{"name":"serverURL","type":"string","internalType":"string"}],"outputs":[{"name":"","type":"bytes32","internalType":"bytes32"}],"stateMutability":"view"},{"type":"function","name":"getRequestProposalDigest","inputs":[{"name":"projectId","type":"bytes32","internalType":"bytes32"},{"name":"base64RecParam","type":"string","internalType":"string"},{"name":"serverURL","type":"string","internalType":"string"}],"outputs":[{"name":"","type":"bytes32","internalType":"bytes32"}],"stateMutability":"view"},{"type":"function","name":"getSignerAddress","inputs":[{"name":"hash","type":"bytes32","internalType":"bytes32"},{"name":"signature","type":"bytes","internalType":"bytes"}],"outputs":[{"name":"","type":"address","internalType":"address"}],"stateMutability":"pure"},{"type":"function","name":"getWorkerAddresses","inputs":[],"outputs":[{"name":"","type":"address[]","internalType":"address[]"}],"stateMutability":"view"},{"type":"function","name":"getWorkerPublicKey","inputs":[{"name":"workerAddress","type":"address","internalType":"address"}],"outputs":[{"name":"publicKey","type":"bytes","internalType":"bytes"}],"stateMutability":"view"},{"type":"function","name":"initialize","inputs":[],"outputs":[],"stateMutability":"nonpayable"},{"type":"function","name":"isWhitelistUser","inputs":[{"name":"userAddress","type":"address","internalType":"address"}],"outputs":[{"name":"","type":"bool","internalType":"bool"}],"stateMutability":"view"},{"type":"function","name":"latestDeploymentRequestID","inputs":[{"name":"","type":"address","internalType":"address"}],"outputs":[{"name":"","type":"bytes32","internalType":"bytes32"}],"stateMutability":"view"},{"type":"function","name":"latestProjectID","inputs":[{"name":"","type":"address","internalType":"address"}],"outputs":[{"name":"","type":"bytes32","internalType":"bytes32"}],"stateMutability":"view"},{"type":"function","name":"latestProposalRequestID","inputs":[{"name":"","type":"address","internalType":"address"}],"outputs":[{"name":"","type":"bytes32","internalType":"bytes32"}],"stateMutability":"view"},{"type":"function","name":"nftContractAddress","inputs":[],"outputs":[{"name":"","type":"address","internalType":"address"}],"stateMutability":"view"},{"type":"function","name":"nftTokenIdMap","inputs":[{"name":"","type":"uint256","internalType":"uint256"}],"outputs":[{"name":"","type":"uint8","internalType":"enum BlueprintCore.Status"}],"stateMutability":"view"},{"type":"function","name":"owner","inputs":[],"outputs":[{"name":"","type":"address","internalType":"address"}],"stateMutability":"view"},{"type":"function","name":"payWithERC20","inputs":[{"name":"erc20TokenAddress","type":"address","internalType":"address"},{"name":"amount","type":"uint256","internalType":"uint256"},{"name":"toAddress","type":"address","internalType":"address"}],"outputs":[],"stateMutability":"nonpayable"},{"type":"function","name":"proxiableUUID","inputs":[],"outputs":[{"name":"","type":"bytes32","internalType":"bytes32"}],"stateMutability":"view"},{"type":"function","name":"removeWhitelistAddresses","inputs":[{"name":"removedAddress","type":"address[]","internalType":"address[]"}],"outputs":[],"stateMutability":"nonpayable"},{"type":"function","name":"renounceOwnership","inputs":[],"outputs":[],"stateMutability":"nonpayable"},{"type":"function","name":"requestDeploymentStatus","inputs":[{"name":"","type":"bytes32","internalType":"bytes32"}],"outputs":[{"name":"status","type":"uint8","internalType":"enum BlueprintCore.Status"},{"name":"deployWorkerAddr","type":"address","internalType":"address"}],"stateMutability":"view"},{"type":"function","name":"resetAgentCreationStatus","inputs":[{"name":"userAddress","type":"address","internalType":"address"},{"name":"tokenId","type":"uint256","internalType":"uint256"}],"outputs":[],"stateMutability":"nonpayable"},{"type":"function","name":"setNFTContractAddress","inputs":[{"name":"_nftContractAddress","type":"address","internalType":"address"}],"outputs":[],"stateMutability":"nonpayable"},{"type":"function","name":"setWhitelistAddresses","inputs":[{"name":"whitelistAddress","type":"address[]","internalType":"address[]"}],"outputs":[],"stateMutability":"nonpayable"},{"type":"function","name":"setWorkerPublicKey","inputs":[{"name":"publicKey","type":"bytes","internalType":"bytes"}],"outputs":[],"stateMutability":"nonpayable"},{"type":"function","name":"solverReputation","inputs":[{"name":"","type":"address","internalType":"address"}],"outputs":[{"name":"","type":"uint256","internalType":"uint256"}],"stateMutability":"view"},{"type":"function","name":"submitDeploymentRequest","inputs":[{"name":"projectId","type":"bytes32","internalType":"bytes32"},{"name":"requestID","type":"bytes32","internalType":"bytes32"}],"outputs":[{"name":"isAccepted","type":"bool","internalType":"bool"}],"stateMutability":"nonpayable"},{"type":"function","name":"submitProofOfDeployment","inputs":[{"name":"projectId","type":"bytes32","internalType":"bytes32"},{"name":"requestID","type":"bytes32","internalType":"bytes32"},{"name":"proofBase64","type":"string","internalType":"string"}],"outputs":[],"stateMutability":"nonpayable"},{"type":"function","name":"totalDeploymentRequest","inputs":[],"outputs":[{"name":"","type":"uint256","internalType":"uint256"}],"stateMutability":"view"},{"type":"function","name":"totalProposalRequest","inputs":[],"outputs":[{"name":"","type":"uint256","internalType":"uint256"}],"stateMutability":"view"},{"type":"function","name":"transferOwnership","inputs":[{"name":"newOwner","type":"address","internalType":"address"}],"outputs":[],"stateMutability":"nonpayable"},{"type":"function","name":"updateWorkerDeploymentConfig","inputs":[{"name":"projectId","type":"bytes32","internalType":"bytes32"},{"name":"requestID","type":"bytes32","internalType":"bytes32"},{"name":"updatedBase64Config","type":"string","internalType":"string"}],"outputs":[],"stateMutability":"nonpayable"},{"type":"function","name":"updateWorkerDeploymentConfigWithSig","inputs":[{"name":"projectId","type":"bytes32","internalType":"bytes32"},{"name":"requestID","type":"bytes32","internalType":"bytes32"},{"name":"updatedBase64Config","type":"string","internalType":"string"},{"name":"signature","type":"bytes","internalType":"bytes"}],"outputs":[],"stateMutability":"nonpayable"},{"type":"function","name":"upgradeProject","inputs":[{"name":"projectId","type":"bytes32","internalType":"bytes32"}],"outputs":[],"stateMutability":"nonpayable"},{"type":"function","name":"upgradeToAndCall","inputs":[{"name":"newImplementation","type":"address","internalType":"address"},{"name":"data","type":"bytes","internalType":"bytes"}],"outputs":[],"stateMutability":"payable"},{"type":"function","name":"whitelistUsers","inputs":[{"name":"","type":"address","internalType":"address"}],"outputs":[{"name":"","type":"uint8","internalType":"enum BlueprintCore.Status"}],"stateMutability":"view"},{"type":"function","name":"workerReputation","inputs":[{"name":"","type":"address","internalType":"address"}],"outputs":[{"name":"","type":"uint256","internalType":"uint256"}],"stateMutability":"view"},{"type":"event","name":"AcceptDeployment","inputs":[{"name":"projectID","type":"bytes32","indexed":true,"internalType":"bytes32"},{"name":"requestID","type":"bytes32","indexed":true,"internalType":"bytes32"},{"name":"workerAddress","type":"address","indexed":true,"internalType":"address"}],"anonymous":false},{"type":"event","name":"CreateAgent","inputs":[{"name":"projectID","type":"bytes32","indexed":true,"internalType":"bytes32"},{"name":"requestID","type":"bytes32","indexed":true,"internalType":"bytes32"},{"name":"walletAddress","type":"address","indexed":false,"internalType":"address"},{"name":"nftTokenId","type":"uint256","indexed":false,"internalType":"uint256"},{"name":"amount","type":"uint256","indexed":false,"internalType":"uint256"}],"anonymous":false},{"type":"event","name":"CreateProjectID","inputs":[{"name":"projectID","type":"bytes32","indexed":true,"internalType":"bytes32"},{"name":"walletAddress","type":"address","indexed":false,"internalType":"address"}],"anonymous":false},{"type":"event","name":"EIP712DomainChanged","inputs":[],"anonymous":false},{"type":"event","name":"GeneratedProofOfDeployment","inputs":[{"name":"projectID","type":"bytes32","indexed":true,"internalType":"bytes32"},{"name":"requestID","type":"bytes32","indexed":true,"internalType":"bytes32"},{"name":"base64DeploymentProof","type":"string","indexed":false,"internalType":"string"}],"anonymous":false},{"type":"event","name":"Initialized","inputs":[{"name":"version","type":"uint64","indexed":false,"internalType":"uint64"}],"anonymous":false},{"type":"event","name":"OwnershipTransferred","inputs":[{"name":"previousOwner","type":"address","indexed":true,"internalType":"address"},{"name":"newOwner","type":"address","indexed":true,"internalType":"address"}],"anonymous":false},{"type":"event","name":"RequestDeployment","inputs":[{"name":"projectID","type":"bytes32","indexed":true,"internalType":"bytes32"},{"name":"walletAddress","type":"address","indexed":false,"internalType":"address"},{"name":"solverAddress","type":"address","indexed":false,"internalType":"address"},{"name":"requestID","type":"bytes32","indexed":true,"internalType":"bytes32"},{"name":"base64Proposal","type":"string","indexed":false,"internalType":"string"},{"name":"serverURL","type":"string","indexed":false,"internalType":"string"}],"anonymous":false},{"type":"event","name":"RequestPrivateDeployment","inputs":[{"name":"projectID","type":"bytes32","indexed":true,"internalType":"bytes32"},{"name":"walletAddress","type":"address","indexed":false,"internalType":"address"},{"name":"privateWorkerAddress","type":"address","indexed":false,"internalType":"address"},{"name":"solverAddress","type":"address","indexed":false,"internalType":"address"},{"name":"requestID","type":"bytes32","indexed":true,"internalType":"bytes32"},{"name":"base64Proposal","type":"string","indexed":false,"internalType":"string"},{"name":"serverURL","type":"string","indexed":false,"internalType":"string"}],"anonymous":false},{"type":"event","name":"RequestPrivateProposal","inputs":[{"name":"projectID","type":"bytes32","indexed":true,"internalType":"bytes32"},{"name":"walletAddress","type":"address","indexed":false,"internalType":"address"},{"name":"privateSolverAddress","type":"address","indexed":false,"internalType":"address"},{"name":"requestID","type":"bytes32","indexed":true,"internalType":"bytes32"},{"name":"base64RecParam","type":"string","indexed":false,"internalType":"string"},{"name":"serverURL","type":"string","indexed":false,"internalType":"string"}],"anonymous":false},{"type":"event","name":"RequestProposal","inputs":[{"name":"projectID","type":"bytes32","indexed":true,"internalType":"bytes32"},{"name":"walletAddress","type":"address","indexed":false,"internalType":"address"},{"name":"requestID","type":"bytes32","indexed":true,"internalType":"bytes32"},{"name":"base64RecParam","type":"string","indexed":false,"internalType":"string"},{"name":"serverURL","type":"string","indexed":false,"internalType":"string"}],"anonymous":false},{"type":"event","name":"UpdateDeploymentConfig","inputs":[{"name":"projectID","type":"bytes32","indexed":true,"internalType":"bytes32"},{"name":"requestID","type":"bytes32","indexed":true,"internalType":"bytes32"},{"name":"workerAddress","type":"address","indexed":false,"internalType":"address"},{"name":"base64Config","type":"string","indexed":false,"internalType":"string"}],"anonymous":false},{"type":"event","name":"Upgraded","inputs":[{"name":"implementation","type":"address","indexed":true,"internalType":"address"}],"anonymous":false},{"type":"error","name":"AddressEmptyCode","inputs":[{"name":"target","type":"address","internalType":"address"}]},{"type":"error","name":"ECDSAInvalidSignature","inputs":[]},{"type":"error","name":"ECDSAInvalidSignatureLength","inputs":[{"name":"length","type":"uint256","internalType":"uint256"}]},{"type":"error","name":"ECDSAInvalidSignatureS","inputs":[{"name":"s","type":"bytes32","internalType":"bytes32"}]},{"type":"error","name":"ERC1967InvalidImplementation","inputs":[{"name":"implementation","type":"address","internalType":"address"}]},{"type":"error","name":"ERC1967NonPayable","inputs":[]},{"type":"error","name":"FailedCall","inputs":[]},{"type":"error","name":"InvalidInitialization","inputs":[]},{"type":"error","name":"NotInitializing","inputs":[]},{"type":"error","name":"OwnableInvalidOwner","inputs":[{"name":"owner","type":"address","internalType":"address"}]},{"type":"error","name":"OwnableUnauthorizedAccount","inputs":[{"name":"account","type":"address","internalType":"address"}]},{"type":"error","name":"UUPSUnauthorizedCallContext","inputs":[]},{"type":"error","name":"UUPSUnsupportedProxiableUUID","inputs":[{"name":"slot","type":"bytes32","internalType":"bytes32"}]}],"bytecode":{"object":"0x60a0604052306080523480156012575f5ffd5b50608051614fdd6100395f395f8181612c7001528181612c990152612dd80152614fdd5ff3fe608060405260043610610437575f3560e01c8063845fc21a1161022b578063be539d3f11610129578063e0566833116100b3578063f11d367511610078578063f11d367514610e10578063f2fde38b14610e44578063f52ccc2d14610e63578063fcc8293914610e82578063ffa1ad7414610ec0575f5ffd5b8063e056683314610d3b578063e128fced14610d69578063e2ec525c14610d88578063e3faad9414610da7578063ed3c95c014610de5575f5ffd5b8063c3a1ae27116100f9578063c3a1ae2714610c96578063c4845f5f14610caa578063c68a7e3214610cc9578063ce1b4ff514610ce8578063d2a0c27514610d1c575f5ffd5b8063be539d3f14610c1a578063c03044f314610c39578063c13c26eb14610c58578063c39dee4614610c77575f5ffd5b8063a6cda351116101b5578063b83921a61161017a578063b83921a614610b6a578063b83b431514610b89578063b9bb713514610ba8578063bae7e16c14610bdc578063bdc781fb14610bfb575f5ffd5b8063a6cda35114610ac8578063a97bedfe14610ae7578063aae282e114610afc578063ad3cb1cc14610b1b578063af63f49b14610b4b575f5ffd5b8063924b2a2a116101fb578063924b2a2a14610a18578063934e218c14610a3757806394a7ef1514610a565780639a7d9ce214610a755780639c89a0e214610a94575f5ffd5b8063845fc21a1461097757806384717e901461099657806384b0196e146109b55780638da5cb5b146109dc575f5ffd5b80634f1ef286116103385780636ec55dbc116102c25780637b31d6f6116102875780637b31d6f6146108d15780637ce53f49146109045780638129fc1c14610923578063822c737a1461093757806383c49efa14610962575f5ffd5b80636ec55dbc1461080e578063715018a6146108495780637371498c1461085d57806376c6062f1461087c5780637a529f48146108aa575f5ffd5b806356ed87521161030857806356ed87521461076757806359617ef7146107925780635a5edc38146107b157806361419044146107d057806362bd459c146107ef575f5ffd5b80634f1ef2861461070c57806352d1902d1461071f57806354f703f8146107335780635516fe1d14610748575f5ffd5b80632ae189d8116103c457806343da75c41161038957806343da75c4146106545780634b6680de146106835780634bcaa626146106af5780634caafee2146106ce5780634ce354f0146106ed575f5ffd5b80632ae189d8146105b957806331f4f12d146105cd5780633550753c1461060057806338cc48311461061f57806339c1263614610633575f5ffd5b8063094705361161040a57806309470536146104ee5780630f7d8e391461053b578063198583411461055a57806323949cd1146105795780632943f3eb1461059a575f5ffd5b806305b383121461043b578063065343341461046b578063078ebeae1461049857806308a101b8146104c3575b5f5ffd5b348015610446575f5ffd5b5061044e5f81565b6040516001600160a01b0390911681526020015b60405180910390f35b348015610476575f5ffd5b5061048a610485366004613f98565b610ed4565b604051908152602001610462565b3480156104a3575f5ffd5b5061048a6104b236600461401d565b60056020525f908152604090205481565b3480156104ce575f5ffd5b5061048a6104dd36600461401d565b60086020525f908152604090205481565b3480156104f9575f5ffd5b5061052d610508366004614038565b5f9081526009602052604090205460ff8116916101009091046001600160a01b031690565b604051610462929190614083565b348015610546575f5ffd5b5061044e6105553660046140a9565b610fe9565b348015610565575f5ffd5b5061048a6105743660046140ec565b61104a565b348015610584575f5ffd5b5061059861059336600461401d565b611194565b005b3480156105a5575f5ffd5b5061048a6105b436600461419b565b611214565b3480156105c4575f5ffd5b5061048a611247565b3480156105d8575f5ffd5b5061048a7f60a8eecec858932ab2ff591a4ad5829a185228029a1c74d3dfb34bf17b42561681565b34801561060b575f5ffd5b5061059861061a366004614038565b61129b565b34801561062a575f5ffd5b5061044e611319565b34801561063e575f5ffd5b50610647611330565b6040516104629190614230565b34801561065f575f5ffd5b5061067361066e36600461427b565b6113d0565b6040519015158152602001610462565b34801561068e575f5ffd5b506106a261069d366004614038565b611455565b60405161046291906142e8565b3480156106ba575f5ffd5b506105986106c93660046142fa565b6114f4565b3480156106d9575f5ffd5b506106a26106e836600461401d565b61159b565b3480156106f8575f5ffd5b5061048a61070736600461419b565b6115c1565b61059861071a366004614366565b6115ea565b34801561072a575f5ffd5b5061048a611609565b34801561073e575f5ffd5b5061048a60015481565b348015610753575f5ffd5b5061048a61076236600461419b565b611624565b348015610772575f5ffd5b5061048a61078136600461401d565b60066020525f908152604090205481565b34801561079d575f5ffd5b5061048a6107ac36600461439c565b611656565b3480156107bc575f5ffd5b506105986107cb3660046143db565b6116ad565b3480156107db575f5ffd5b5061048a6107ea366004614411565b611707565b3480156107fa575f5ffd5b5061048a6108093660046144c2565b61173e565b348015610819575f5ffd5b5061083c61082836600461401d565b60156020525f908152604090205460ff1681565b604051610462919061452d565b348015610854575f5ffd5b506105986117c5565b348015610868575f5ffd5b5061048a61087736600461439c565b6117d8565b348015610887575f5ffd5b5061083c610896366004614038565b60136020525f908152604090205460ff1681565b3480156108b5575f5ffd5b5061044e737d8be0dd8915e3511ffddabdd631812be824f57881565b3480156108dc575f5ffd5b5061048a7fe5726589ac93743b6d2436bf498a0c2b0f4c8e021b2693576ae35457620d338d81565b34801561090f575f5ffd5b5061048a61091e36600461453b565b6117e7565b34801561092e575f5ffd5b506105986117f5565b348015610942575f5ffd5b5061048a61095136600461401d565b60046020525f908152604090205481565b34801561096d575f5ffd5b5061048a60035481565b348015610982575f5ffd5b506105986109913660046145a1565b6119d2565b3480156109a1575f5ffd5b5061048a6109b03660046144c2565b611a17565b3480156109c0575f5ffd5b506109c9611a2c565b60405161046297969594939291906145cb565b3480156109e7575f5ffd5b507f9016d09d72d40fdae2fd8ceac6b6234c7706214fd39c1cd1e609a0528c199300546001600160a01b031661044e565b348015610a23575f5ffd5b5061048a610a323660046144c2565b611ad5565b348015610a42575f5ffd5b5061048a610a51366004614661565b611aec565b348015610a61575f5ffd5b50610598610a7036600461401d565b611b22565b348015610a80575f5ffd5b5061048a610a8f366004614708565b611b4d565b348015610a9f575f5ffd5b5061048a610aae36600461401d565b6001600160a01b03165f9081526007602052604090205490565b348015610ad3575f5ffd5b5061048a610ae236600461476f565b611b76565b348015610af2575f5ffd5b5061048a60025481565b348015610b07575f5ffd5b5060145461044e906001600160a01b031681565b348015610b26575f5ffd5b506106a2604051806040016040528060058152602001640352e302e360dc1b81525081565b348015610b56575f5ffd5b50610673610b6536600461401d565b611dd0565b348015610b75575f5ffd5b50610598610b84366004614877565b611e3b565b348015610b94575f5ffd5b5061048a610ba336600461453b565b611e9f565b348015610bb3575f5ffd5b5061048a610bc236600461401d565b6001600160a01b03165f9081526005602052604090205490565b348015610be7575f5ffd5b5061048a610bf63660046148d6565b611f37565b348015610c06575f5ffd5b50610598610c1536600461427b565b611f50565b348015610c25575f5ffd5b50610673610c3436600461490c565b6120bf565b348015610c44575f5ffd5b5061048a610c533660046144c2565b6122cb565b348015610c63575f5ffd5b5061048a610c72366004613f98565b612328565b348015610c82575f5ffd5b50610598610c9136600461401d565b612337565b348015610ca1575f5ffd5b5061044e61235f565b348015610cb5575f5ffd5b5061048a610cc43660046144c2565b61236d565b348015610cd4575f5ffd5b50610598610ce336600461492c565b61237b565b348015610cf3575f5ffd5b5061048a610d0236600461401d565b6001600160a01b03165f9081526006602052604090205490565b348015610d27575f5ffd5b5061048a610d3636600461490c565b612387565b348015610d46575f5ffd5b50610d5a610d55366004614038565b6123b2565b60405161046293929190614961565b348015610d74575f5ffd5b50610598610d8336600461492c565b61247a565b348015610d93575f5ffd5b5061048a610da23660046149b0565b612645565b348015610db2575f5ffd5b506106a2604051806040016040528060138152602001726170702e6372657374616c2e6e6574776f726b60681b81525081565b348015610df0575f5ffd5b5061048a610dff36600461401d565b60076020525f908152604090205481565b348015610e1b575f5ffd5b5061048a610e2a36600461401d565b6001600160a01b03165f9081526004602052604090205490565b348015610e4f575f5ffd5b50610598610e5e36600461401d565b61266f565b348015610e6e575f5ffd5b50610598610e7d366004614877565b6126ac565b348015610e8d575f5ffd5b5061052d610e9c366004614038565b60096020525f908152604090205460ff81169061010090046001600160a01b031682565b348015610ecb575f5ffd5b506106a2612729565b5f80335f9081526015602052604090205460ff166005811115610ef957610ef961404f565b03610f465760405162461bcd60e51b8152602060048201526018602482015277155cd95c881a5cc81b9bdd081a5b881dda1a5d195b1a5cdd60421b60448201526064015b60405180910390fd5b6002335f9081526015602052604090205460ff166005811115610f6b57610f6b61404f565b03610fb85760405162461bcd60e51b815260206004820152601a60248201527f5573657220616c72656164792063726561746564206167656e740000000000006044820152606401610f3d565b610fc63387878787876127b4565b335f908152601560205260409020805460ff191660021790559695505050505050565b5f5f610ff58484612927565b90506001600160a01b0381166110415760405162461bcd60e51b8152602060048201526011602482015270496e76616c6964207369676e617475726560781b6044820152606401610f3d565b90505b92915050565b5f5f61105788888761173e565b90505f6110648285610fe9565b90505f6001600160a01b0382165f9081526015602052604090205460ff1660058111156110935761109361404f565b036110db5760405162461bcd60e51b8152602060048201526018602482015277155cd95c881a5cc81b9bdd081a5b881dda1a5d195b1a5cdd60421b6044820152606401610f3d565b60026001600160a01b0382165f9081526015602052604090205460ff1660058111156111095761110961404f565b036111565760405162461bcd60e51b815260206004820152601a60248201527f5573657220616c72656164792063726561746564206167656e740000000000006044820152606401610f3d565b611164818a8a8a8a8a6127b4565b6001600160a01b03919091165f908152601560205260409020805460ff1916600217905598975050505050505050565b61119c61294f565b6001600160a01b0381166111f25760405162461bcd60e51b815260206004820152601760248201527f4e465420436f6e747261637420697320696e76616c69640000000000000000006044820152606401610f3d565b601480546001600160a01b0319166001600160a01b0392909216919091179055565b5f5f6112218686866122cb565b90505f61122e8285610fe9565b905061123c818888886129aa565b979650505050505050565b604080514260208201526bffffffffffffffffffffffff193360601b16918101919091524660548201525f9060740160405160208183030381529060405280519060200120905061129881336129ef565b90565b5f818152600e602052604090205481901515806112cd57505f818152600d60205260409020546001600160a01b031615155b6112e95760405162461bcd60e51b8152600401610f3d90614a4f565b505f908152600e6020526040812060018101829055600281019190915560030180546001600160a01b0319169055565b5f5f611323611a2c565b5090979650505050505050565b6060601260405180604001604052806012815260200171776f726b65725f616464726573735f6b657960701b81525060405161136c9190614a9d565b90815260408051918290036020908101832080548083028501830190935282845291908301828280156113c657602002820191905f5260205f20905b81546001600160a01b031681526001909101906020018083116113a8575b5050505050905090565b6040516331a9108f60e11b8152600481018390525f9084906001600160a01b038481169190831690636352211e90602401602060405180830381865afa15801561141c573d5f5f3e3d5ffd5b505050506040513d601f19601f820116820180604052508101906114409190614aa8565b6001600160a01b0316149150505b9392505050565b5f818152600a6020526040902080546060919061147190614ac3565b80601f016020809104026020016040519081016040528092919081815260200182805461149d90614ac3565b80156114e85780601f106114bf576101008083540402835291602001916114e8565b820191905f5260205f20905b8154815290600101906020018083116114cb57829003601f168201915b50505050509050919050565b335f908152601160205260409020805461150d90614ac3565b90505f0361157d57604080518082018252601280825271776f726b65725f616464726573735f6b657960701b6020830152915161154a9190614a9d565b90815260405190819003602090810190912080546001810182555f9182529190200180546001600160a01b031916331790555b335f908152601160205260409020611596828483614b46565b505050565b6001600160a01b0381165f90815260116020526040902080546060919061147190614ac3565b5f5f6115ce86868661173e565b90505f6115db8285610fe9565b905061123c8188885f89612b3e565b6115f2612c65565b6115fb82612d09565b6116058282612d11565b5050565b5f611612612dcd565b505f516020614f685f395f51905f5290565b5f5f6116318686866122cb565b90505f61163e8285610fe9565b905061164a87826129ef565b61123c818888886129aa565b5f6116643386868686612e16565b905080857f1eb4ec68b7c7cf7850d18fd32bdd1cb9e2c9b7e1de32211eef093af3cf262aee3387878760405161169d9493929190614bff565b60405180910390a3949350505050565b5f6116e48584604051806040016040528060138152602001726170702e6372657374616c2e6e6574776f726b60681b81525061173e565b90505f6116f18284610fe9565b90506116ff81878787613012565b505050505050565b5f5f61171488888761173e565b90505f6117218286610fe9565b9050611731818a8a8a8a896127b4565b9998505050505050505050565b5f5f7f60a8eecec858932ab2ff591a4ad5829a185228029a1c74d3dfb34bf17b425616858580519060200120858051906020012060405160200161179b949392919093845260208401929092526040830152606082015260800190565b6040516020818303038152906040528051906020012090506117bc8161328d565b95945050505050565b6117cd61294f565b6117d65f6132b9565b565b5f6117bc3386865f8787613329565b5f6117bc3386868686612b3e565b60045f61180061349d565b8054909150600160401b900460ff1680611827575080546001600160401b03808416911610155b156118455760405163f92ee8a960e01b815260040160405180910390fd5b805468ffffffffffffffffff19166001600160401b03831617600160401b17815561186f336134c5565b6040805180820190915260058152640342e302e360dc1b60208201525f906118979082614c3c565b50611954604051806040016040528060138152602001726170702e6372657374616c2e6e6574776f726b60681b8152505f80546118d390614ac3565b80601f01602080910402602001604051908101604052809291908181526020018280546118ff90614ac3565b801561194a5780601f106119215761010080835404028352916020019161194a565b820191905f5260205f20905b81548152906001019060200180831161192d57829003601f168201915b50505050506134d6565b61195c6134e8565b601480546001600160a01b031916737d8be0dd8915e3511ffddabdd631812be824f578179055805468ff0000000000000000191681556040516001600160401b03831681527fc7f505b2f371ae2175ee4913f4499e1f2633a7b5936321eed1cdaeb6115181d29060200160405180910390a15050565b6119da61294f565b6001600160a01b03919091165f908152601560209081526040808320805460ff199081166001179091559383526013909152902080549091169055565b5f611a24338585856129aa565b949350505050565b5f60608082808083815f516020614f485f395f51905f528054909150158015611a5757506001810154155b611a9b5760405162461bcd60e51b81526020600482015260156024820152741152540dcc4c8e88155b9a5b9a5d1a585b1a5e9959605a1b6044820152606401610f3d565b611aa36134f0565b611aab6135b0565b604080515f80825260208201909252600f60f81b9c939b5091995046985030975095509350915050565b5f611ae084336129ef565b611a24338585856129aa565b5f5f611af987868661173e565b90505f611b068285610fe9565b9050611b168189895f8a8a613329565b98975050505050505050565b611b2a61294f565b6001600160a01b03165f908152601560205260409020805460ff19166001179055565b5f5f611b5a87878661173e565b90505f611b678285610fe9565b9050611b168189898989612b3e565b5f6001600160a01b038516611bcd5760405162461bcd60e51b815260206004820152601a60248201527f736f6c76657241646472657373206973206e6f742076616c69640000000000006044820152606401610f3d565b82515f03611c1d5760405162461bcd60e51b815260206004820152601e60248201527f62617365363450726f706f73616c7320617272617920697320656d70747900006044820152606401610f3d565b5f5b8351811015611d9b575f5f611c52338a8a8a8a8881518110611c4357611c43614cf6565b60200260200101518a896135ee565b90925090508315611c82575f848152600f6020908152604082208054600181018255908352912001829055611ca6565b5f818152600f60209081526040822080546001810182559083529120018290559250825b6001600160a01b038716611d115781897fcdde0392731ff1ddcc3295ee84db8db4a9ad3d8f34056867af8c9f3b2920d44e338b8a8881518110611ceb57611ceb614cf6565b60200260200101518a604051611d049493929190614bff565b60405180910390a3611d91565b81897f26e5b75b543be1cdad2907ba50a99eeb5c3a05381eee18d5b6a565b2bbccd1ba338a8c8b8981518110611d4957611d49614cf6565b60200260200101518b604051611d63959493929190614d0a565b60405180910390a3866001600160a01b0316828a5f516020614f885f395f51905f5260405160405180910390a45b5050600101611c1f565b50825160035f828254611dae9190614d63565b90915550505f958652600e602052604090952060020185905550929392505050565b5f60016001600160a01b0383165f9081526015602052604090205460ff166005811115611dff57611dff61404f565b1480611044575060026001600160a01b0383165f9081526015602052604090205460ff166005811115611e3457611e3461404f565b1492915050565b611e4361294f565b5f5b818110156115965760155f848484818110611e6257611e62614cf6565b9050602002016020810190611e77919061401d565b6001600160a01b0316815260208101919091526040015f20805460ff19169055600101611e45565b5f611eac858585856117e7565b5f818152600960209081526040918290205482516101009091046001600160a01b03168152908101829052601f918101919091527f456e6372797074656420636f6e66696720666f72206465706c6f796d656e74006060820152909150819086907fce8f8849a89ebf447425479c86ccdc17f11697958b4bca671fcdf65bc3012c219060800161169d565b5f611f46338787878787613329565b9695505050505050565b6040516370a0823160e01b8152336004820152839083906001600160a01b038316906370a0823190602401602060405180830381865afa158015611f96573d5f5f3e3d5ffd5b505050506040513d601f19601f82011682018060405250810190611fba9190614d76565b1015611fff5760405162461bcd60e51b8152602060048201526014602482015273496e73756666696369656e742062616c616e636560601b6044820152606401610f3d565b6040516323b872dd60e01b81523360048201526001600160a01b038381166024830152604482018590528216906323b872dd906064016020604051808303815f875af1158015612051573d5f5f3e3d5ffd5b505050506040513d601f19601f820116820180604052508101906120759190614d8d565b6120b95760405162461bcd60e51b8152602060048201526015602482015274115490cc8c081d1c985b9cd9995c8819985a5b1959605a1b6044820152606401610f3d565b50505050565b5f828152600e602052604081205483901515806120f157505f818152600d60205260409020546001600160a01b031615155b61210d5760405162461bcd60e51b8152600401610f3d90614a4f565b5f8381526009602052604081205460ff16600581111561212f5761212f61404f565b0361214c5760405162461bcd60e51b8152600401610f3d90614dac565b60025f8481526009602052604090205460ff1660058111156121705761217061404f565b036121f15760405162461bcd60e51b815260206004820152604560248201527f72657175657374494420616c7265616479207069636b656420627920616e6f7460448201527f68657220776f726b65722c20747279206120646966666572656e742072657175606482015264195cdd125160da1b608482015260a401610f3d565b60055f8481526009602052604090205460ff1660058111156122155761221561404f565b036122705760405162461bcd60e51b815260206004820152602560248201527f7265717565737449442068617320616c7265616479207375626d697474656420604482015264383937b7b360d91b6064820152608401610f3d565b5f83815260096020526040808220805460026101003381026001600160a81b03199093169290921717918290559151600195509190046001600160a01b031691859187915f516020614f885f395f51905f5291a45092915050565b5f5f7fe5726589ac93743b6d2436bf498a0c2b0f4c8e021b2693576ae35457620d338d858580519060200120858051906020012060405160200161179b949392919093845260208401929092526040830152606082015260800190565b5f611f463387878787876127b4565b61233f61294f565b6001600160a01b03165f908152601560205260409020805460ff19169055565b5f612368611319565b905090565b5f611a243385855f86612b3e565b61159633848484613012565b600f602052815f5260405f2081815481106123a0575f80fd5b905f5260205f20015f91509150505481565b5f818152600e60205260408120548190606090849083036123e55760405162461bcd60e51b8152600401610f3d90614a4f565b5f858152600e60209081526040808320600201548352600f82528083208054825181850281018501909352808352919290919083018282801561244557602002820191905f5260205f20905b815481526020019060010190808311612431575b5050505f9889525050600e602052604090962060038101546001909101546001600160a01b0390911697909695509350505050565b5f838152600e602052604090205483901515806124ac57505f818152600d60205260409020546001600160a01b031615155b6124c85760405162461bcd60e51b8152600401610f3d90614a4f565b5f8381526009602052604081205460ff1660058111156124ea576124ea61404f565b036125075760405162461bcd60e51b8152600401610f3d90614dac565b5f8381526009602052604090205461010090046001600160a01b031633146125685760405162461bcd60e51b815260206004820152601460248201527357726f6e6720776f726b6572206164647265737360601b6044820152606401610f3d565b60055f8481526009602052604090205460ff16600581111561258c5761258c61404f565b036125d95760405162461bcd60e51b815260206004820152601760248201527f416c7265616479207375626d69747465642070726f6f660000000000000000006044820152606401610f3d565b5f838152600960209081526040808320805460ff19166005179055600a90915290206126058382614c3c565b5082847fddb29833db778500c94a5880f1a8ad549d91ec7c80faee2b3735bda881fa6d988460405161263791906142e8565b60405180910390a350505050565b5f5f61265288868661173e565b90505f61265f8285610fe9565b9050611731818a8a8a8a8a613329565b61267761294f565b6001600160a01b0381166126a057604051631e4fbdf760e01b81525f6004820152602401610f3d565b6126a9816132b9565b50565b6126b461294f565b5f5b8181101561159657600160155f8585858181106126d5576126d5614cf6565b90506020020160208101906126ea919061401d565b6001600160a01b0316815260208101919091526040015f20805460ff1916600183600581111561271c5761271c61404f565b02179055506001016126b6565b5f805461273590614ac3565b80601f016020809104026020016040519081016040528092919081815260200182805461276190614ac3565b80156127ac5780601f10612783576101008083540402835291602001916127ac565b820191905f5260205f20905b81548152906001019060200180831161278f57829003601f168201915b505050505081565b5f60025f8381526013602052604090205460ff1660058111156127d9576127d961404f565b036128265760405162461bcd60e51b815260206004820152601960248201527f4e465420746f6b656e20696420616c72656164792075736564000000000000006044820152606401610f3d565b60145461283d906001600160a01b031683896113d0565b6128895760405162461bcd60e51b815260206004820152601b60248201527f4e465420746f6b656e206e6f74206f776e6564206279207573657200000000006044820152606401610f3d565b6128968787878787612b3e565b5f838152601360209081526040808320805460ff191660021790558383526016825280832080546001600160a01b038d166001600160a01b031990911681179091558151908152918201869052810191909152909150819087907fb8794b41e90d812be6b26b66850fef1e55c60c6fb622f8d02df1dc0adec6c38c9060600160405180910390a39695505050505050565b5f5f5f5f61293586866138a9565b92509250925061294582826138f2565b5090949350505050565b336129817f9016d09d72d40fdae2fd8ceac6b6234c7706214fd39c1cd1e609a0528c199300546001600160a01b031690565b6001600160a01b0316146117d65760405163118cdaa760e01b8152336004820152602401610f3d565b5f6129b885855f8686612e16565b905080847f660f0cd9ab48b3916970cca5763925f3b8f0e0e158fb9f0f4ae5f71e9605d76787868660405161169d93929190614de3565b5f828152600e6020526040902054829015612a4c5760405162461bcd60e51b815260206004820152601860248201527f70726f6a656374496420616c72656164792065786973747300000000000000006044820152606401610f3d565b6001600160a01b038216612a955760405162461bcd60e51b815260206004820152601060248201526f24b73b30b634b2103ab9b2b920b2323960811b6044820152606401610f3d565b604080516080810182528481525f602080830182815283850183815260608501848152898552600e845286852086518155925160018401559051600283015551600390910180546001600160a01b0319166001600160a01b03928316179055861680835260068252918490208790559251908152909185917f988dde20b788b20d2f8188ab37bc9419a99761fc4ec19356dc30cfa49b4601dc910160405180910390a250505050565b5f612b4985876129ef565b5f612b5987875f8789885f6135ee565b600380549294509092505f612b6d83614e18565b90915550505f868152600e60209081526040808320600201849055838352600f8252822080546001810182559083529120018290556001600160a01b038416612bf45781867fcdde0392731ff1ddcc3295ee84db8db4a9ad3d8f34056867af8c9f3b2920d44e895f8988604051612be79493929190614bff565b60405180910390a3612c5b565b81867f26e5b75b543be1cdad2907ba50a99eeb5c3a05381eee18d5b6a565b2bbccd1ba89875f8a89604051612c2d959493929190614d0a565b60405180910390a3836001600160a01b031682875f516020614f885f395f51905f5260405160405180910390a45b5095945050505050565b306001600160a01b037f0000000000000000000000000000000000000000000000000000000000000000161480612ceb57507f00000000000000000000000000000000000000000000000000000000000000006001600160a01b0316612cdf5f516020614f685f395f51905f52546001600160a01b031690565b6001600160a01b031614155b156117d65760405163703e46dd60e11b815260040160405180910390fd5b6126a961294f565b816001600160a01b03166352d1902d6040518163ffffffff1660e01b8152600401602060405180830381865afa925050508015612d6b575060408051601f3d908101601f19168201909252612d6891810190614d76565b60015b612d9357604051634c9c8ce360e01b81526001600160a01b0383166004820152602401610f3d565b5f516020614f685f395f51905f528114612dc357604051632a87526960e21b815260048101829052602401610f3d565b61159683836139aa565b306001600160a01b037f000000000000000000000000000000000000000000000000000000000000000016146117d65760405163703e46dd60e11b815260040160405180910390fd5b5f848152600e60205260408120548590151580612e4857505f818152600d60205260409020546001600160a01b031615155b612e645760405162461bcd60e51b8152600401610f3d90614a4f565b5f835111612ea95760405162461bcd60e51b815260206004820152601260248201527173657276657255524c20697320656d70747960701b6044820152606401610f3d565b5f845111612ef95760405162461bcd60e51b815260206004820152601760248201527f626173653634526563506172616d20697320656d7074790000000000000000006044820152606401610f3d565b42878546604051602001612f109493929190614e30565b60408051601f1981840301815291815281516020928301205f898152600e90935291206001015490925015612f915760405162461bcd60e51b815260206004820152602160248201527f70726f706f73616c2072657175657374494420616c72656164792065786973746044820152607360f81b6064820152608401610f3d565b6001600160a01b0387165f908152600460209081526040808320859055888352600e90915281206001018390556002805491612fcc83614e18565b90915550506001600160a01b03851615612c5b575f828152600b6020526040902080546001600160a01b0387166001600160a01b03199091161790555095945050505050565b5f838152600e6020526040902054839015158061304457505f818152600d60205260409020546001600160a01b031615155b6130605760405162461bcd60e51b8152600401610f3d90614a4f565b5f8381526009602052604081205460ff1660058111156130825761308261404f565b0361309f5760405162461bcd60e51b8152600401610f3d90614dac565b5f8251116130ef5760405162461bcd60e51b815260206004820152601c60248201527f75706461746564426173653634436f6e66696720697320656d707479000000006044820152606401610f3d565b60015f8481526009602052604090205460ff1660058111156131135761311361404f565b036131715760405162461bcd60e51b815260206004820152602860248201527f726571756573744944206973206e6f74207069636b656420757020627920616e6044820152673c903bb7b935b2b960c11b6064820152608401610f3d565b5f838152601660205260409020546001600160a01b038681169116146131e95760405162461bcd60e51b815260206004820152602760248201527f4f6e6c79206465706c6f796d656e74206f776e65722063616e2075706461746560448201526620636f6e66696760c81b6064820152608401610f3d565b60055f8481526009602052604090205460ff16600581111561320d5761320d61404f565b0361322b575f838152600960205260409020805460ff191660021790555b5f8381526009602052604090819020549051849186917fce8f8849a89ebf447425479c86ccdc17f11697958b4bca671fcdf65bc3012c219161327e916101009091046001600160a01b0316908790614e63565b60405180910390a35050505050565b5f6110446132996139ff565b8360405161190160f01b8152600281019290925260228201526042902090565b7f9016d09d72d40fdae2fd8ceac6b6234c7706214fd39c1cd1e609a0528c19930080546001600160a01b031981166001600160a01b03848116918217845560405192169182907f8be0079c531659141344cd1fd0a4f28419497f9722a3daafe3b4186f6b6457e0905f90a3505050565b5f6001600160a01b0385166133805760405162461bcd60e51b815260206004820152601a60248201527f736f6c76657241646472657373206973206e6f742076616c69640000000000006044820152606401610f3d565b5f6133908888888888885f6135ee565b600380549294509092505f6133a483614e18565b90915550505f878152600e60209081526040808320600201849055838352600f8252822080546001810182559083529120018290556001600160a01b03851661342b5781877fcdde0392731ff1ddcc3295ee84db8db4a9ad3d8f34056867af8c9f3b2920d44e8a89888860405161341e9493929190614bff565b60405180910390a3613492565b81877f26e5b75b543be1cdad2907ba50a99eeb5c3a05381eee18d5b6a565b2bbccd1ba8a888a8989604051613464959493929190614d0a565b60405180910390a3846001600160a01b031682885f516020614f885f395f51905f5260405160405180910390a45b509695505050505050565b5f807ff0c57e16840df040f15088dc2f81fe391c3923bec73e23a9662efc9c229c6a00611044565b6134cd613a08565b6126a981613a2d565b6134de613a08565b6116058282613a35565b6117d6613a08565b7fa16a46d94261c7517cc8ff89f61c0ce93598e3c849801011dee649a6a557d10280546060915f516020614f485f395f51905f529161352e90614ac3565b80601f016020809104026020016040519081016040528092919081815260200182805461355a90614ac3565b80156135a55780601f1061357c576101008083540402835291602001916135a5565b820191905f5260205f20905b81548152906001019060200180831161358857829003601f168201915b505050505091505090565b7fa16a46d94261c7517cc8ff89f61c0ce93598e3c849801011dee649a6a557d10380546060915f516020614f485f395f51905f529161352e90614ac3565b5f868152600e60205260408120548190889015158061362257505f818152600d60205260409020546001600160a01b031615155b61363e5760405162461bcd60e51b8152600401610f3d90614a4f565b5f8551116136835760405162461bcd60e51b815260206004820152601260248201527173657276657255524c20697320656d70747960701b6044820152606401610f3d565b5f8651116136d35760405162461bcd60e51b815260206004820152601760248201527f62617365363450726f706f73616c20697320656d7074790000000000000000006044820152606401610f3d565b428a87468c6040516020016136ec959493929190614e86565b60408051601f1981840301815291815281516020928301205f8c8152600e9093529120600201549092501561376f5760405162461bcd60e51b815260206004820152602360248201527f6465706c6f796d656e742072657175657374494420616c72656164792065786960448201526273747360e81b6064820152608401610f3d565b428a87468c8860405160200161378a96959493929190614ebe565b60408051601f1981840301815291815281516020928301206001600160a01b038d165f9081526005909352912081905592506137c588613a94565b505f60405180604001604052805f6001600160a01b03168a6001600160a01b0316146137f25760026137f5565b60015b60058111156138065761380661404f565b81526001600160a01b038a166020918201525f868152600990915260409020815181549293508392829060ff191660018360058111156138485761384861404f565b02179055506020918201518154610100600160a81b0319166101006001600160a01b0392831602179091555f9b8c52600e9091526040909a2060030180546001600160a01b03191699909a1698909817909855909890975095505050505050565b5f5f5f83516041036138e0576020840151604085015160608601515f1a6138d288828585613b61565b9550955095505050506138eb565b505081515f91506002905b9250925092565b5f8260038111156139055761390561404f565b0361390e575050565b60018260038111156139225761392261404f565b036139405760405163f645eedf60e01b815260040160405180910390fd5b60028260038111156139545761395461404f565b036139755760405163fce698f760e01b815260048101829052602401610f3d565b60038260038111156139895761398961404f565b03611605576040516335e2f38360e21b815260048101829052602401610f3d565b6139b382613c29565b6040516001600160a01b038316907fbc7cd75a20ee27fd9adebab32041f755214dbc6bffa90cc0225b39da2e5c2d3b905f90a28051156139f7576115968282613c8c565b611605613cf5565b5f612368613d14565b613a10613d87565b6117d657604051631afcd79f60e31b815260040160405180910390fd5b612677613a08565b613a3d613a08565b5f516020614f485f395f51905f527fa16a46d94261c7517cc8ff89f61c0ce93598e3c849801011dee649a6a557d102613a768482614c3c565b5060038101613a858382614c3c565b505f8082556001909101555050565b6001600160a01b0381165f90815260076020526040902054600154613aba906006614efe565b811015613ad557600154613ace9082614d63565b9050613b43565b6103e86002541115613b1057600254600154613af2906006614efe565b613afc9083614f15565b613b069190614f28565b613ace9082614d63565b6103e86001546006613b229190614efe565b613b2c9083614f15565b613b369190614f28565b613b409082614d63565b90505b6001600160a01b039091165f90815260076020526040902081905590565b5f80807f7fffffffffffffffffffffffffffffff5d576e7357a4501ddfe92f46681b20a0841115613b9a57505f91506003905082613c1f565b604080515f808252602082018084528a905260ff891692820192909252606081018790526080810186905260019060a0016020604051602081039080840390855afa158015613beb573d5f5f3e3d5ffd5b5050604051601f1901519150506001600160a01b038116613c1657505f925060019150829050613c1f565b92505f91508190505b9450945094915050565b806001600160a01b03163b5f03613c5e57604051634c9c8ce360e01b81526001600160a01b0382166004820152602401610f3d565b5f516020614f685f395f51905f5280546001600160a01b0319166001600160a01b0392909216919091179055565b60605f5f846001600160a01b031684604051613ca89190614a9d565b5f60405180830381855af49150503d805f8114613ce0576040519150601f19603f3d011682016040523d82523d5f602084013e613ce5565b606091505b50915091506117bc858383613da0565b34156117d65760405163b398979f60e01b815260040160405180910390fd5b5f7f8b73c3c69bb8fe3d512ecc4cf759cc79239f7b179b0ffacaa9a75d522b39400f613d3e613dfc565b613d46613e64565b60408051602081019490945283019190915260608201524660808201523060a082015260c00160405160208183030381529060405280519060200120905090565b5f613d9061349d565b54600160401b900460ff16919050565b606082613db557613db082613ea6565b61144e565b8151158015613dcc57506001600160a01b0384163b155b15613df557604051639996b31560e01b81526001600160a01b0385166004820152602401610f3d565b508061144e565b5f5f516020614f485f395f51905f5281613e146134f0565b805190915015613e2c57805160209091012092915050565b81548015613e3b579392505050565b7fc5d2460186f7233c927e7db2dcc703c0e500b653ca82273b7bfad8045d85a470935050505090565b5f5f516020614f485f395f51905f5281613e7c6135b0565b805190915015613e9457805160209091012092915050565b60018201548015613e3b579392505050565b805115613eb65780518082602001fd5b60405163d6bda27560e01b815260040160405180910390fd5b634e487b7160e01b5f52604160045260245ffd5b604051601f8201601f191681016001600160401b0381118282101715613f0b57613f0b613ecf565b604052919050565b5f82601f830112613f22575f5ffd5b8135602083015f5f6001600160401b03841115613f4157613f41613ecf565b50601f8301601f1916602001613f5681613ee3565b915050828152858383011115613f6a575f5ffd5b828260208301375f92810160200192909252509392505050565b6001600160a01b03811681146126a9575f5ffd5b5f5f5f5f5f60a08688031215613fac575f5ffd5b8535945060208601356001600160401b03811115613fc8575f5ffd5b613fd488828901613f13565b9450506040860135613fe581613f84565b925060608601356001600160401b03811115613fff575f5ffd5b61400b88828901613f13565b95989497509295608001359392505050565b5f6020828403121561402d575f5ffd5b813561104181613f84565b5f60208284031215614048575f5ffd5b5035919050565b634e487b7160e01b5f52602160045260245ffd5b6006811061407f57634e487b7160e01b5f52602160045260245ffd5b9052565b604081016140918285614063565b6001600160a01b039290921660209190910152919050565b5f5f604083850312156140ba575f5ffd5b8235915060208301356001600160401b038111156140d6575f5ffd5b6140e285828601613f13565b9150509250929050565b5f5f5f5f5f5f60c08789031215614101575f5ffd5b8635955060208701356001600160401b0381111561411d575f5ffd5b61412989828a01613f13565b955050604087013561413a81613f84565b935060608701356001600160401b03811115614154575f5ffd5b61416089828a01613f13565b9350506080870135915060a08701356001600160401b03811115614182575f5ffd5b61418e89828a01613f13565b9150509295509295509295565b5f5f5f5f608085870312156141ae575f5ffd5b8435935060208501356001600160401b038111156141ca575f5ffd5b6141d687828801613f13565b93505060408501356001600160401b038111156141f1575f5ffd5b6141fd87828801613f13565b92505060608501356001600160401b03811115614218575f5ffd5b61422487828801613f13565b91505092959194509250565b602080825282518282018190525f918401906040840190835b818110156142705783516001600160a01b0316835260209384019390920191600101614249565b509095945050505050565b5f5f5f6060848603121561428d575f5ffd5b833561429881613f84565b92506020840135915060408401356142af81613f84565b809150509250925092565b5f81518084528060208401602086015e5f602082860101526020601f19601f83011685010191505092915050565b602081525f61144e60208301846142ba565b5f5f6020838503121561430b575f5ffd5b82356001600160401b03811115614320575f5ffd5b8301601f81018513614330575f5ffd5b80356001600160401b03811115614345575f5ffd5b856020828401011115614356575f5ffd5b6020919091019590945092505050565b5f5f60408385031215614377575f5ffd5b823561438281613f84565b915060208301356001600160401b038111156140d6575f5ffd5b5f5f5f5f608085870312156143af575f5ffd5b8435935060208501356143c181613f84565b925060408501356001600160401b038111156141f1575f5ffd5b5f5f5f5f608085870312156143ee575f5ffd5b843593506020850135925060408501356001600160401b038111156141f1575f5ffd5b5f5f5f5f5f5f60c08789031215614426575f5ffd5b8635955060208701356001600160401b03811115614442575f5ffd5b61444e89828a01613f13565b955050604087013561445f81613f84565b935060608701356001600160401b03811115614479575f5ffd5b61448589828a01613f13565b93505060808701356001600160401b038111156144a0575f5ffd5b6144ac89828a01613f13565b9699959850939692959460a09093013593505050565b5f5f5f606084860312156144d4575f5ffd5b8335925060208401356001600160401b038111156144f0575f5ffd5b6144fc86828701613f13565b92505060408401356001600160401b03811115614517575f5ffd5b61452386828701613f13565b9150509250925092565b602081016110448284614063565b5f5f5f5f6080858703121561454e575f5ffd5b8435935060208501356001600160401b0381111561456a575f5ffd5b61457687828801613f13565b935050604085013561458781613f84565b915060608501356001600160401b03811115614218575f5ffd5b5f5f604083850312156145b2575f5ffd5b82356145bd81613f84565b946020939093013593505050565b60ff60f81b8816815260e060208201525f6145e960e08301896142ba565b82810360408401526145fb81896142ba565b606084018890526001600160a01b038716608085015260a0840186905283810360c0850152845180825260208087019350909101905f5b81811015614650578351835260209384019390920191600101614632565b50909b9a5050505050505050505050565b5f5f5f5f5f60a08688031215614675575f5ffd5b85359450602086013561468781613f84565b935060408601356001600160401b038111156146a1575f5ffd5b6146ad88828901613f13565b93505060608601356001600160401b038111156146c8575f5ffd5b6146d488828901613f13565b92505060808601356001600160401b038111156146ef575f5ffd5b6146fb88828901613f13565b9150509295509295909350565b5f5f5f5f5f60a0868803121561471c575f5ffd5b8535945060208601356001600160401b03811115614738575f5ffd5b61474488828901613f13565b945050604086013561475581613f84565b925060608601356001600160401b038111156146c8575f5ffd5b5f5f5f5f5f60a08688031215614783575f5ffd5b85359450602086013561479581613f84565b935060408601356147a581613f84565b925060608601356001600160401b038111156147bf575f5ffd5b8601601f810188136147cf575f5ffd5b80356001600160401b038111156147e8576147e8613ecf565b8060051b6147f860208201613ee3565b9182526020818401810192908101908b841115614813575f5ffd5b6020850192505b838310156148585782356001600160401b03811115614837575f5ffd5b6148468d602083890101613f13565b8352506020928301929091019061481a565b9550505050608087013590506001600160401b038111156146ef575f5ffd5b5f5f60208385031215614888575f5ffd5b82356001600160401b0381111561489d575f5ffd5b8301601f810185136148ad575f5ffd5b80356001600160401b038111156148c2575f5ffd5b8560208260051b8401011115614356575f5ffd5b5f5f5f5f5f60a086880312156148ea575f5ffd5b8535945060208601356148fc81613f84565b9350604086013561475581613f84565b5f5f6040838503121561491d575f5ffd5b50508035926020909101359150565b5f5f5f6060848603121561493e575f5ffd5b833592506020840135915060408401356001600160401b03811115614517575f5ffd5b6001600160a01b0384168152602080820184905260606040830181905283519083018190525f918401906080840190835b81811015611323578351835260209384019390920191600101614992565b5f5f5f5f5f5f60c087890312156149c5575f5ffd5b8635955060208701356149d781613f84565b945060408701356149e781613f84565b935060608701356001600160401b03811115614a01575f5ffd5b614a0d89828a01613f13565b93505060808701356001600160401b03811115614a28575f5ffd5b614a3489828a01613f13565b92505060a08701356001600160401b03811115614182575f5ffd5b60208082526018908201527f70726f6a656374496420646f6573206e6f742065786973740000000000000000604082015260600190565b5f81518060208401855e5f93019283525090919050565b5f61144e8284614a86565b5f60208284031215614ab8575f5ffd5b815161104181613f84565b600181811c90821680614ad757607f821691505b602082108103614af557634e487b7160e01b5f52602260045260245ffd5b50919050565b601f82111561159657805f5260205f20601f840160051c81016020851015614b205750805b601f840160051c820191505b81811015614b3f575f8155600101614b2c565b5050505050565b6001600160401b03831115614b5d57614b5d613ecf565b614b7183614b6b8354614ac3565b83614afb565b5f601f841160018114614ba2575f8515614b8b5750838201355b5f19600387901b1c1916600186901b178355614b3f565b5f83815260208120601f198716915b82811015614bd15786850135825560209485019460019092019101614bb1565b5086821015614bed575f1960f88860031b161c19848701351681555b505060018560011b0183555050505050565b6001600160a01b038581168252841660208201526080604082018190525f90614c2a908301856142ba565b828103606084015261123c81856142ba565b81516001600160401b03811115614c5557614c55613ecf565b614c6981614c638454614ac3565b84614afb565b6020601f821160018114614c9b575f8315614c845750848201515b5f19600385901b1c1916600184901b178455614b3f565b5f84815260208120601f198516915b82811015614cca5787850151825560209485019460019092019101614caa565b5084821015614ce757868401515f19600387901b60f8161c191681555b50505050600190811b01905550565b634e487b7160e01b5f52603260045260245ffd5b6001600160a01b03868116825285811660208301528416604082015260a0606082018190525f90614d3d908301856142ba565b8281036080840152611b1681856142ba565b634e487b7160e01b5f52601160045260245ffd5b8082018082111561104457611044614d4f565b5f60208284031215614d86575f5ffd5b5051919050565b5f60208284031215614d9d575f5ffd5b81518015158114611041575f5ffd5b60208082526018908201527f72657175657374494420646f6573206e6f742065786973740000000000000000604082015260600190565b6001600160a01b03841681526060602082018190525f90614e06908301856142ba565b8281036040840152611f4681856142ba565b5f60018201614e2957614e29614d4f565b5060010190565b8481526001600160601b03198460601b1660208201525f614e546034830185614a86565b92835250506020019392505050565b6001600160a01b03831681526040602082018190525f90611a24908301846142ba565b8581526001600160601b03198560601b1660208201525f614eaa6034830186614a86565b938452505060208201526040019392505050565b8681526001600160601b03198660601b1660208201525f614ee26034830187614a86565b9485525050602083019190915260408201526060019392505050565b808202811582820484141761104457611044614d4f565b8181038181111561104457611044614d4f565b5f82614f4257634e487b7160e01b5f52601260045260245ffd5b50049056fea16a46d94261c7517cc8ff89f61c0ce93598e3c849801011dee649a6a557d100360894a13ba1a3210667c828492db98dca3e2076cc3735a920a3ca505d382bbc065b3b95166dc6cadb255ba57b9623fa09d0519437b43d13dbd0d7f7a5ee9b76a26469706673582212203bc0b0702465194aa407b0c09686dd791bba9638d297625d688917e200b946ac64736f6c634300081c0033","linkReferences":{}},"methodIdentifiers":{"DEPLOYMENT_REQUEST_TYPEHASH()":"31f4f12d","NFT_CONTRACT_ADDRESS()":"7a529f48","PROPOSAL_REQUEST_TYPEHASH()":"7b31d6f6","SIGNING_DOMAIN()":"e3faad94","UPGRADE_INTERFACE_VERSION()":"ad3cb1cc","VERSION()":"ffa1ad74","addWhitelistAddress(address)":"94a7ef15","checkNFTOwnership(address,uint256,address)":"43da75c4","createAgentWithNFT(bytes32,string,address,string,uint256)":"c13c26eb","createAgentWithSigWithNFT(bytes32,string,address,string,bytes,uint256)":"61419044","createAgentWithWhitelistUsers(bytes32,string,address,string,uint256)":"06534334","createAgentWithWhitelistUsersWithSig(bytes32,string,address,string,uint256,bytes)":"19858341","createDeploymentRequest(bytes32,address,string,string)":"7371498c","createDeploymentRequestWithSig(bytes32,address,string,string,bytes)":"934e218c","createMultipleDeploymentRequest(bytes32,address,address,string[],string)":"a6cda351","createPrivateDeploymentRequest(bytes32,address,address,string,string)":"bae7e16c","createPrivateDeploymentRequestWithSig(bytes32,address,address,string,string,bytes)":"e2ec525c","createPrivateProposalRequest(bytes32,address,string,string)":"59617ef7","createProjectID()":"2ae189d8","createProjectIDAndDeploymentRequest(bytes32,string,string)":"c4845f5f","createProjectIDAndDeploymentRequestWithSig(bytes32,string,string,bytes)":"4ce354f0","createProjectIDAndPrivateDeploymentRequest(bytes32,string,address,string)":"7ce53f49","createProjectIDAndPrivateDeploymentRequestWithSig(bytes32,string,address,string,bytes)":"9a7d9ce2","createProjectIDAndProposalRequest(bytes32,string,string)":"924b2a2a","createProjectIDAndProposalRequestWithSig(bytes32,string,string,bytes)":"5516fe1d","createProjectIdAndPrivateDeploymentWithConfig(bytes32,string,address,string)":"b83b4315","createProposalRequest(bytes32,string,string)":"84717e90","createProposalRequestWithSig(bytes32,string,string,bytes)":"2943f3eb","deleteWhitelistAddress(address)":"c39dee46","deploymentIdList(bytes32,uint256)":"d2a0c275","dummyAddress()":"05b38312","eip712Domain()":"84b0196e","factor()":"54f703f8","getAddress()":"38cc4831","getDeploymentProof(bytes32)":"4b6680de","getDeploymentStatus(bytes32)":"09470536","getEIP712ContractAddress()":"c3a1ae27","getLatestDeploymentRequestID(address)":"b9bb7135","getLatestProposalRequestID(address)":"f11d3675","getLatestUserProjectID(address)":"ce1b4ff5","getProjectInfo(bytes32)":"e0566833","getReputation(address)":"9c89a0e2","getRequestDeploymentDigest(bytes32,string,string)":"62bd459c","getRequestProposalDigest(bytes32,string,string)":"c03044f3","getSignerAddress(bytes32,bytes)":"0f7d8e39","getWorkerAddresses()":"39c12636","getWorkerPublicKey(address)":"4caafee2","initialize()":"8129fc1c","isWhitelistUser(address)":"af63f49b","latestDeploymentRequestID(address)":"078ebeae","latestProjectID(address)":"56ed8752","latestProposalRequestID(address)":"822c737a","nftContractAddress()":"aae282e1","nftTokenIdMap(uint256)":"76c6062f","owner()":"8da5cb5b","payWithERC20(address,uint256,address)":"bdc781fb","proxiableUUID()":"52d1902d","removeWhitelistAddresses(address[])":"b83921a6","renounceOwnership()":"715018a6","requestDeploymentStatus(bytes32)":"fcc82939","resetAgentCreationStatus(address,uint256)":"845fc21a","setNFTContractAddress(address)":"23949cd1","setWhitelistAddresses(address[])":"f52ccc2d","setWorkerPublicKey(bytes)":"4bcaa626","solverReputation(address)":"ed3c95c0","submitDeploymentRequest(bytes32,bytes32)":"be539d3f","submitProofOfDeployment(bytes32,bytes32,string)":"e128fced","totalDeploymentRequest()":"83c49efa","totalProposalRequest()":"a97bedfe","transferOwnership(address)":"f2fde38b","updateWorkerDeploymentConfig(bytes32,bytes32,string)":"c68a7e32","updateWorkerDeploymentConfigWithSig(bytes32,bytes32,string,bytes)":"5a5edc38","upgradeProject(bytes32)":"3550753c","upgradeToAndCall(address,bytes)":"4f1ef286","whitelistUsers(address)":"6ec55dbc","workerReputation(address)":"08a101b8"},"storageLayout":{"storage":[{"astId":52458,"contract":"src/BlueprintV4.sol:BlueprintV4","label":"VERSION","offset":0,"slot":"0","type":"t_string_storage"},{"astId":52460,"contract":"src/BlueprintV4.sol:BlueprintV4","label":"factor","offset":0,"slot":"1","type":"t_uint256"},{"astId":52462,"contract":"src/BlueprintV4.sol:BlueprintV4","label":"totalProposalRequest","offset":0,"slot":"2","type":"t_uint256"},{"astId":52464,"contract":"src/BlueprintV4.sol:BlueprintV4","label":"totalDeploymentRequest","offset":0,"slot":"3","type":"t_uint256"},{"astId":52468,"contract":"src/BlueprintV4.sol:BlueprintV4","label":"latestProposalRequestID","offset":0,"slot":"4","type":"t_mapping(t_address,t_bytes32)"},{"astId":52472,"contract":"src/BlueprintV4.sol:BlueprintV4","label":"latestDeploymentRequestID","offset":0,"slot":"5","type":"t_mapping(t_address,t_bytes32)"},{"astId":52476,"contract":"src/BlueprintV4.sol:BlueprintV4","label":"latestProjectID","offset":0,"slot":"6","type":"t_mapping(t_address,t_bytes32)"},{"astId":52480,"contract":"src/BlueprintV4.sol:BlueprintV4","label":"solverReputation","offset":0,"slot":"7","type":"t_mapping(t_address,t_uint256)"},{"astId":52484,"contract":"src/BlueprintV4.sol:BlueprintV4","label":"workerReputation","offset":0,"slot":"8","type":"t_mapping(t_address,t_uint256)"},{"astId":52489,"contract":"src/BlueprintV4.sol:BlueprintV4","label":"requestDeploymentStatus","offset":0,"slot":"9","type":"t_mapping(t_bytes32,t_struct(DeploymentStatus)52456_storage)"},{"astId":52493,"contract":"src/BlueprintV4.sol:BlueprintV4","label":"deploymentProof","offset":0,"slot":"10","type":"t_mapping(t_bytes32,t_string_storage)"},{"astId":52497,"contract":"src/BlueprintV4.sol:BlueprintV4","label":"requestSolver","offset":0,"slot":"11","type":"t_mapping(t_bytes32,t_address)"},{"astId":52501,"contract":"src/BlueprintV4.sol:BlueprintV4","label":"requestWorker","offset":0,"slot":"12","type":"t_mapping(t_bytes32,t_address)"},{"astId":52505,"contract":"src/BlueprintV4.sol:BlueprintV4","label":"projectIDs","offset":0,"slot":"13","type":"t_mapping(t_bytes32,t_address)"},{"astId":52525,"contract":"src/BlueprintV4.sol:BlueprintV4","label":"projects","offset":0,"slot":"14","type":"t_mapping(t_bytes32,t_struct(Project)52514_storage)"},{"astId":52530,"contract":"src/BlueprintV4.sol:BlueprintV4","label":"deploymentIdList","offset":0,"slot":"15","type":"t_mapping(t_bytes32,t_array(t_bytes32)dyn_storage)"},{"astId":52533,"contract":"src/BlueprintV4.sol:BlueprintV4","label":"workerAddresses","offset":0,"slot":"16","type":"t_array(t_address)dyn_storage"},{"astId":52537,"contract":"src/BlueprintV4.sol:BlueprintV4","label":"workersPublicKey","offset":0,"slot":"17","type":"t_mapping(t_address,t_bytes_storage)"},{"astId":52542,"contract":"src/BlueprintV4.sol:BlueprintV4","label":"workerAddressesMp","offset":0,"slot":"18","type":"t_mapping(t_string_memory_ptr,t_array(t_address)dyn_storage)"},{"astId":52550,"contract":"src/BlueprintV4.sol:BlueprintV4","label":"nftTokenIdMap","offset":0,"slot":"19","type":"t_mapping(t_uint256,t_enum(Status)52450)"},{"astId":52552,"contract":"src/BlueprintV4.sol:BlueprintV4","label":"nftContractAddress","offset":0,"slot":"20","type":"t_address"},{"astId":52557,"contract":"src/BlueprintV4.sol:BlueprintV4","label":"whitelistUsers","offset":0,"slot":"21","type":"t_mapping(t_address,t_enum(Status)52450)"},{"astId":52561,"contract":"src/BlueprintV4.sol:BlueprintV4","label":"deploymentOwners","offset":0,"slot":"22","type":"t_mapping(t_bytes32,t_address)"}],"types":{"t_address":{"encoding":"inplace","label":"address","numberOfBytes":"20"},"t_array(t_address)dyn_storage":{"encoding":"dynamic_array","label":"address[]","numberOfBytes":"32","base":"t_address"},"t_array(t_bytes32)dyn_storage":{"encoding":"dynamic_array","label":"bytes32[]","numberOfBytes":"32","base":"t_bytes32"},"t_bytes32":{"encoding":"inplace","label":"bytes32","numberOfBytes":"32"},"t_bytes_storage":{"encoding":"bytes","label":"bytes","numberOfBytes":"32"},"t_enum(Status)52450":{"encoding":"inplace","label":"enum BlueprintCore.Status","numberOfBytes":"1"},"t_mapping(t_address,t_bytes32)":{"encoding":"mapping","key":"t_address","label":"mapping(address => bytes32)","numberOfBytes":"32","value":"t_bytes32"},"t_mapping(t_address,t_bytes_storage)":{"encoding":"mapping","key":"t_address","label":"mapping(address => bytes)","numberOfBytes":"32","value":"t_bytes_storage"},"t_mapping(t_address,t_enum(Status)52450)":{"encoding":"mapping","key":"t_address","label":"mapping(address => enum BlueprintCore.Status)","numberOfBytes":"32","value":"t_enum(Status)52450"},"t_mapping(t_address,t_uint256)":{"encoding":"mapping","key":"t_address","label":"mapping(address => uint256)","numberOfBytes":"32","value":"t_uint256"},"t_mapping(t_bytes32,t_address)":{"encoding":"mapping","key":"t_bytes32","label":"mapping(bytes32 => address)","numberOfBytes":"32","value":"t_address"},"t_mapping(t_bytes32,t_array(t_bytes32)dyn_storage)":{"encoding":"mapping","key":"t_bytes32","label":"mapping(bytes32 => bytes32[])","numberOfBytes":"32","value":"t_array(t_bytes32)dyn_storage"},"t_mapping(t_bytes32,t_string_storage)":{"encoding":"mapping","key":"t_bytes32","label":"mapping(bytes32 => string)","numberOfBytes":"32","value":"t_string_storage"},"t_mapping(t_bytes32,t_struct(DeploymentStatus)52456_storage)":{"encoding":"mapping","key":"t_bytes32","label":"mapping(bytes32 => struct BlueprintCore.DeploymentStatus)","numberOfBytes":"32","value":"t_struct(DeploymentStatus)52456_storage"},"t_mapping(t_bytes32,t_struct(Project)52514_storage)":{"encoding":"mapping","key":"t_bytes32","label":"mapping(bytes32 => struct BlueprintCore.Project)","numberOfBytes":"32","value":"t_struct(Project)52514_storage"},"t_mapping(t_string_memory_ptr,t_array(t_address)dyn_storage)":{"encoding":"mapping","key":"t_string_memory_ptr","label":"mapping(string => address[])","numberOfBytes":"32","value":"t_array(t_address)dyn_storage"},"t_mapping(t_uint256,t_enum(Status)52450)":{"encoding":"mapping","key":"t_uint256","label":"mapping(uint256 => enum BlueprintCore.Status)","numberOfBytes":"32","value":"t_enum(Status)52450"},"t_string_memory_ptr":{"encoding":"bytes","label":"string","numberOfBytes":"32"},"t_string_storage":{"encoding":"bytes","label":"string","numberOfBytes":"32"},"t_struct(DeploymentStatus)52456_storage":{"encoding":"inplace","label":"struct BlueprintCore.DeploymentStatus","numberOfBytes":"32","members":[{"astId":52453,"contract":"src/BlueprintV4.sol:BlueprintV4","label":"status","offset":0,"slot":"0","type":"t_enum(Status)52450"},{"astId":52455,"contract":"src/BlueprintV4.sol:BlueprintV4","label":"deployWorkerAddr","offset":1,"slot":"0","type":"t_address"}]},"t_struct(Project)52514_storage":{"encoding":"inplace","label":"struct BlueprintCore.Project","numberOfBytes":"128","members":[{"astId":52507,"contract":"src/BlueprintV4.sol:BlueprintV4","label":"id","offset":0,"slot":"0","type":"t_bytes32"},{"astId":52509,"contract":"src/BlueprintV4.sol:BlueprintV4","label":"requestProposalID","offset":0,"slot":"1","type":"t_bytes32"},{"astId":52511,"contract":"src/BlueprintV4.sol:BlueprintV4","label":"requestDeploymentID","offset":0,"slot":"2","type":"t_bytes32"},{"astId":52513,"contract":"src/BlueprintV4.sol:BlueprintV4","label":"proposedSolverAddr","offset":0,"slot":"3","type":"t_address"}]},"t_uint256":{"encoding":"inplace","label":"uint256","numberOfBytes":"32"}}},"id":74}