{"abi":[{"type":"function","name":"VERSION","inputs":[],"outputs":[{"name":"","type":"string","internalType":"string"}],"stateMutability":"view"},{"type":"function","name":"createDeploymentRequest","inputs":[{"name":"projectId","type":"bytes32","internalType":"bytes32"},{"name":"solverAddress","type":"address","internalType":"address"},{"name":"base64Proposal","type":"string","internalType":"string"},{"name":"serverURL","type":"string","internalType":"string"}],"outputs":[{"name":"requestID","type":"bytes32","internalType":"bytes32"}],"stateMutability":"nonpayable"},{"type":"function","name":"createPrivateDeploymentRequest","inputs":[{"name":"projectId","type":"bytes32","internalType":"bytes32"},{"name":"solverAddress","type":"address","internalType":"address"},{"name":"privateWorkerAddress","type":"address","internalType":"address"},{"name":"base64Proposal","type":"string","internalType":"string"},{"name":"serverURL","type":"string","internalType":"string"}],"outputs":[{"name":"requestID","type":"bytes32","internalType":"bytes32"}],"stateMutability":"nonpayable"},{"type":"function","name":"createPrivateProposalRequest","inputs":[{"name":"projectId","type":"bytes32","internalType":"bytes32"},{"name":"privateSolverAddress","type":"address","internalType":"address"},{"name":"base64RecParam","type":"string","internalType":"string"},{"name":"serverURL","type":"string","internalType":"string"}],"outputs":[{"name":"requestID","type":"bytes32","internalType":"bytes32"}],"stateMutability":"nonpayable"},{"type":"function","name":"createProjectID","inputs":[],"outputs":[{"name":"projectId","type":"bytes32","internalType":"bytes32"}],"stateMutability":"nonpayable"},{"type":"function","name":"createProposalRequest","inputs":[{"name":"projectId","type":"bytes32","internalType":"bytes32"},{"name":"base64RecParam","type":"string","internalType":"string"},{"name":"serverURL","type":"string","internalType":"string"}],"outputs":[{"name":"requestID","type":"bytes32","internalType":"bytes32"}],"stateMutability":"nonpayable"},{"type":"function","name":"factor","inputs":[],"outputs":[{"name":"","type":"uint256","internalType":"uint256"}],"stateMutability":"view"},{"type":"function","name":"getDeploymentStatus","inputs":[{"name":"requestID","type":"bytes32","internalType":"bytes32"}],"outputs":[{"name":"","type":"uint8","internalType":"enum Blueprint.Status"},{"name":"","type":"address","internalType":"address"}],"stateMutability":"view"},{"type":"function","name":"getLatestDeploymentRequestID","inputs":[{"name":"addr","type":"address","internalType":"address"}],"outputs":[{"name":"","type":"bytes32","internalType":"bytes32"}],"stateMutability":"view"},{"type":"function","name":"getLatestProposalRequestID","inputs":[{"name":"addr","type":"address","internalType":"address"}],"outputs":[{"name":"","type":"bytes32","internalType":"bytes32"}],"stateMutability":"view"},{"type":"function","name":"getLatestUserProjectID","inputs":[{"name":"addr","type":"address","internalType":"address"}],"outputs":[{"name":"","type":"bytes32","internalType":"bytes32"}],"stateMutability":"view"},{"type":"function","name":"getReputation","inputs":[{"name":"addr","type":"address","internalType":"address"}],"outputs":[{"name":"","type":"uint256","internalType":"uint256"}],"stateMutability":"view"},{"type":"function","name":"latestDeploymentRequestID","inputs":[{"name":"","type":"address","internalType":"address"}],"outputs":[{"name":"","type":"bytes32","internalType":"bytes32"}],"stateMutability":"view"},{"type":"function","name":"latestProjectID","inputs":[{"name":"","type":"address","internalType":"address"}],"outputs":[{"name":"","type":"bytes32","internalType":"bytes32"}],"stateMutability":"view"},{"type":"function","name":"latestProposalRequestID","inputs":[{"name":"","type":"address","internalType":"address"}],"outputs":[{"name":"","type":"bytes32","internalType":"bytes32"}],"stateMutability":"view"},{"type":"function","name":"requestDeploymentStatus","inputs":[{"name":"","type":"bytes32","internalType":"bytes32"}],"outputs":[{"name":"status","type":"uint8","internalType":"enum Blueprint.Status"},{"name":"deployWorkerAddr","type":"address","internalType":"address"}],"stateMutability":"view"},{"type":"function","name":"solverReputation","inputs":[{"name":"","type":"address","internalType":"address"}],"outputs":[{"name":"","type":"uint256","internalType":"uint256"}],"stateMutability":"view"},{"type":"function","name":"submitDeploymentRequest","inputs":[{"name":"projectId","type":"bytes32","internalType":"bytes32"},{"name":"requestID","type":"bytes32","internalType":"bytes32"}],"outputs":[{"name":"isAccepted","type":"bool","internalType":"bool"}],"stateMutability":"nonpayable"},{"type":"function","name":"submitProofOfDeployment","inputs":[{"name":"projectId","type":"bytes32","internalType":"bytes32"},{"name":"requestID","type":"bytes32","internalType":"bytes32"},{"name":"proofBase64","type":"string","internalType":"string"}],"outputs":[],"stateMutability":"nonpayable"},{"type":"function","name":"totalDeploymentRequest","inputs":[],"outputs":[{"name":"","type":"uint256","internalType":"uint256"}],"stateMutability":"view"},{"type":"function","name":"totalProposalRequest","inputs":[],"outputs":[{"name":"","type":"uint256","internalType":"uint256"}],"stateMutability":"view"},{"type":"function","name":"workerReputation","inputs":[{"name":"","type":"address","internalType":"address"}],"outputs":[{"name":"","type":"uint256","internalType":"uint256"}],"stateMutability":"view"},{"type":"event","name":"AcceptDeployment","inputs":[{"name":"projectID","type":"bytes32","indexed":true,"internalType":"bytes32"},{"name":"requestID","type":"bytes32","indexed":true,"internalType":"bytes32"},{"name":"workerAddress","type":"address","indexed":true,"internalType":"address"}],"anonymous":false},{"type":"event","name":"CreateProjectID","inputs":[{"name":"projectID","type":"bytes32","indexed":true,"internalType":"bytes32"},{"name":"walletAddress","type":"address","indexed":false,"internalType":"address"}],"anonymous":false},{"type":"event","name":"GeneratedProofOfDeployment","inputs":[{"name":"projectID","type":"bytes32","indexed":true,"internalType":"bytes32"},{"name":"requestID","type":"bytes32","indexed":true,"internalType":"bytes32"},{"name":"base64DeploymentProof","type":"string","indexed":false,"internalType":"string"}],"anonymous":false},{"type":"event","name":"RequestDeployment","inputs":[{"name":"projectID","type":"bytes32","indexed":true,"internalType":"bytes32"},{"name":"walletAddress","type":"address","indexed":false,"internalType":"address"},{"name":"solverAddress","type":"address","indexed":false,"internalType":"address"},{"name":"requestID","type":"bytes32","indexed":true,"internalType":"bytes32"},{"name":"base64Proposal","type":"string","indexed":false,"internalType":"string"},{"name":"serverURL","type":"string","indexed":false,"internalType":"string"}],"anonymous":false},{"type":"event","name":"RequestPrivateDeployment","inputs":[{"name":"projectID","type":"bytes32","indexed":true,"internalType":"bytes32"},{"name":"walletAddress","type":"address","indexed":false,"internalType":"address"},{"name":"privateWorkerAddress","type":"address","indexed":false,"internalType":"address"},{"name":"solverAddress","type":"address","indexed":false,"internalType":"address"},{"name":"requestID","type":"bytes32","indexed":true,"internalType":"bytes32"},{"name":"base64Proposal","type":"string","indexed":false,"internalType":"string"},{"name":"serverURL","type":"string","indexed":false,"internalType":"string"}],"anonymous":false},{"type":"event","name":"RequestPrivateProposal","inputs":[{"name":"projectID","type":"bytes32","indexed":true,"internalType":"bytes32"},{"name":"walletAddress","type":"address","indexed":false,"internalType":"address"},{"name":"privateSolverAddress","type":"address","indexed":false,"internalType":"address"},{"name":"requestID","type":"bytes32","indexed":true,"internalType":"bytes32"},{"name":"base64RecParam","type":"string","indexed":false,"internalType":"string"},{"name":"serverURL","type":"string","indexed":false,"internalType":"string"}],"anonymous":false},{"type":"event","name":"RequestProposal","inputs":[{"name":"projectID","type":"bytes32","indexed":true,"internalType":"bytes32"},{"name":"walletAddress","type":"address","indexed":false,"internalType":"address"},{"name":"requestID","type":"bytes32","indexed":true,"internalType":"bytes32"},{"name":"base64RecParam","type":"string","indexed":false,"internalType":"string"},{"name":"serverURL","type":"string","indexed":false,"internalType":"string"}],"anonymous":false}],"bytecode":{"object":"0x60c060405260056080908152640302e302e360dc1b60a05260009061002490826100e6565b506127106001556000600255600060035534801561004157600080fd5b506101a4565b634e487b7160e01b600052604160045260246000fd5b600181811c9082168061007157607f821691505b60208210810361009157634e487b7160e01b600052602260045260246000fd5b50919050565b601f8211156100e157806000526020600020601f840160051c810160208510156100be5750805b601f840160051c820191505b818110156100de57600081556001016100ca565b50505b505050565b81516001600160401b038111156100ff576100ff610047565b6101138161010d845461005d565b84610097565b6020601f821160018114610147576000831561012f5750848201515b600019600385901b1c1916600184901b1784556100de565b600084815260208120601f198516915b828110156101775787850151825560209485019460019092019101610157565b50848210156101955786840151600019600387901b60f8161c191681555b50505050600190811b01905550565b6117ba806101b36000396000f3fe608060405234801561001057600080fd5b50600436106101425760003560e01c80639c89a0e2116100b8578063ce1b4ff51161007c578063ce1b4ff514610300578063e128fced14610329578063ed3c95c01461033e578063f11d36751461035e578063fcc8293914610387578063ffa1ad74146103ba57600080fd5b80639c89a0e21461026f578063a97bedfe14610298578063b9bb7135146102a1578063bae7e16c146102ca578063be539d3f146102dd57600080fd5b806356ed87521161010a57806356ed8752146101ed57806359617ef71461020d5780637371498c14610220578063822c737a1461023357806383c49efa1461025357806384717e901461025c57600080fd5b8063078ebeae1461014757806308a101b81461017a578063094705361461019a5780632ae189d8146101dc57806354f703f8146101e4575b600080fd5b6101676101553660046110ac565b60056020526000908152604090205481565b6040519081526020015b60405180910390f35b6101676101883660046110ac565b60086020526000908152604090205481565b6101ce6101a83660046110ce565b60009081526009602052604090205460ff8116916101009091046001600160a01b031690565b6040516101719291906110fd565b6101676103cf565b61016760015481565b6101676101fb3660046110ac565b60066020526000908152604090205481565b61016761021b3660046111dc565b610479565b61016761022e3660046111dc565b6105f0565b6101676102413660046110ac565b60046020526000908152604090205481565b61016760035481565b61016761026a36600461125f565b610808565b61016761027d3660046110ac565b6001600160a01b031660009081526007602052604090205490565b61016760025481565b6101676102af3660046110ac565b6001600160a01b031660009081526005602052604090205490565b6101676102d83660046112d1565b610949565b6102f06102eb366004611365565b610ba9565b6040519015158152602001610171565b61016761030e3660046110ac565b6001600160a01b031660009081526006602052604090205490565b61033c610337366004611387565b610d62565b005b61016761034c3660046110ac565b60076020526000908152604090205481565b61016761036c3660046110ac565b6001600160a01b031660009081526004602052604090205490565b6101ce6103953660046110ce565b60096020526000908152604090205460ff81169061010090046001600160a01b031682565b6103c2610f33565b6040516101719190611411565b604080514260208201526bffffffffffffffffffffffff193360601b169181019190915246605482015260009060740160408051601f1981840301815282825280516020918201206000818152600d835283812080546001600160a01b031916339081179091558082526006845293902081905591835290925082917f988dde20b788b20d2f8188ab37bc9419a99761fc4ec19356dc30cfa49b4601dc910160405180910390a290565b6000848152600d60205260408120546001600160a01b03166104b65760405162461bcd60e51b81526004016104ad90611424565b60405180910390fd5b60008251116104d75760405162461bcd60e51b81526004016104ad9061145b565b60008351116105225760405162461bcd60e51b8152602060048201526017602482015276626173653634526563506172616d20697320656d70747960481b60448201526064016104ad565b60004233854660405160200161053b9493929190611487565b60408051601f1981840301815291815281516020928301203360009081526004909352908220819055600280549194508493509091610579836114e3565b90915550506000828152600b60205260409081902080546001600160a01b0319166001600160a01b03881617905551819087907f1eb4ec68b7c7cf7850d18fd32bdd1cb9e2c9b7e1de32211eef093af3cf262aee906105df9033908a908a908a906114fc565b60405180910390a350949350505050565b6000848152600d60205260408120546001600160a01b03166106245760405162461bcd60e51b81526004016104ad90611424565b60008251116106455760405162461bcd60e51b81526004016104ad9061145b565b60008351116106905760405162461bcd60e51b815260206004820152601760248201527662617365363450726f706f73616c20697320656d70747960481b60448201526064016104ad565b6001600160a01b0384166106e65760405162461bcd60e51b815260206004820152601a60248201527f736f6c76657241646472657373206973206e6f742076616c696400000000000060448201526064016104ad565b6000423385466040516020016106ff9493929190611487565b60408051601f198184030181529181528151602092830120336000908152600590935290822081905560038054919450849350909161073d836114e3565b9091555050604080518082019091526000808252602082015260018082526000848152600960205260409020825181548493839160ff191690836005811115610788576107886110e7565b02179055506020919091015181546001600160a01b0390911661010002610100600160a81b03199091161790556107be86610fc1565b5081877fcdde0392731ff1ddcc3295ee84db8db4a9ad3d8f34056867af8c9f3b2920d44e338989896040516107f694939291906114fc565b60405180910390a35050949350505050565b6000838152600d60205260408120546001600160a01b031661083c5760405162461bcd60e51b81526004016104ad90611424565b600082511161085d5760405162461bcd60e51b81526004016104ad9061145b565b60008351116108a85760405162461bcd60e51b8152602060048201526017602482015276626173653634526563506172616d20697320656d70747960481b60448201526064016104ad565b6000423385466040516020016108c19493929190611487565b60408051601f19818403018152918152815160209283012033600090815260049093529082208190556002805491945084935090916108ff836114e3565b919050555080857f660f0cd9ab48b3916970cca5763925f3b8f0e0e158fb9f0f4ae5f71e9605d76733878760405161093993929190611545565b60405180910390a3509392505050565b6000858152600d60205260408120546001600160a01b031661097d5760405162461bcd60e51b81526004016104ad90611424565b600082511161099e5760405162461bcd60e51b81526004016104ad9061145b565b60008351116109e95760405162461bcd60e51b815260206004820152601760248201527662617365363450726f706f73616c20697320656d70747960481b60448201526064016104ad565b6001600160a01b038516610a3f5760405162461bcd60e51b815260206004820152601a60248201527f736f6c76657241646472657373206973206e6f742076616c696400000000000060448201526064016104ad565b600042338546604051602001610a589493929190611487565b60408051601f1981840301815291815281516020928301203360009081526005909352908220819055600380549194508493509091610a96836114e3565b9190505550610aa486610fc1565b50604080518082018252600281526001600160a01b03871660208083019190915260008581526009909152919091208151815483929190829060ff19166001836005811115610af557610af56110e7565b02179055506020919091015181546001600160a01b0390911661010002610100600160a81b0319909116179055604051829089907f26e5b75b543be1cdad2907ba50a99eeb5c3a05381eee18d5b6a565b2bbccd1ba90610b5e9033908b908d908c908c90611585565b60405180910390a3856001600160a01b031683897f065b3b95166dc6cadb255ba57b9623fa09d0519437b43d13dbd0d7f7a5ee9b7660405160405180910390a4505095945050505050565b6000828152600d60205260408120546001600160a01b0316610bdd5760405162461bcd60e51b81526004016104ad90611424565b60008281526009602052604081205460ff166005811115610c0057610c006110e7565b03610c4d5760405162461bcd60e51b815260206004820152601860248201527f72657175657374494420646f6573206e6f74206578697374000000000000000060448201526064016104ad565b600260008381526009602052604090205460ff166005811115610c7257610c726110e7565b03610cf35760405162461bcd60e51b815260206004820152604560248201527f72657175657374494420616c7265616479207069636b656420627920616e6f7460448201527f68657220776f726b65722c20747279206120646966666572656e742072657175606482015264195cdd125160da1b608482015260a4016104ad565b50600081815260096020526040808220805460026101003381026001600160a81b03199093169290921717918290559151600193929091046001600160a01b031691849186917f065b3b95166dc6cadb255ba57b9623fa09d0519437b43d13dbd0d7f7a5ee9b7691a492915050565b6000838152600d60205260409020546001600160a01b0316610d965760405162461bcd60e51b81526004016104ad90611424565b60008281526009602052604081205460ff166005811115610db957610db96110e7565b03610dfc5760405162461bcd60e51b81526020600482015260136024820152721c995c5d595cdd081251081b9bdd08195e1a5d606a1b60448201526064016104ad565b60008281526009602052604090205461010090046001600160a01b03163314610e5e5760405162461bcd60e51b815260206004820152601460248201527377726f6e6720776f726b6572206164647265737360601b60448201526064016104ad565b600560008381526009602052604090205460ff166005811115610e8357610e836110e7565b03610ec75760405162461bcd60e51b815260206004820152601460248201527330b63932b0b23c9039bab136b4ba10383937b7b360611b60448201526064016104ad565b6000828152600960209081526040808320805460ff19166005179055600a9091529020610ef48282611660565b5081837fddb29833db778500c94a5880f1a8ad549d91ec7c80faee2b3735bda881fa6d9883604051610f269190611411565b60405180910390a3505050565b60008054610f40906115d7565b80601f0160208091040260200160405190810160405280929190818152602001828054610f6c906115d7565b8015610fb95780601f10610f8e57610100808354040283529160200191610fb9565b820191906000526020600020905b815481529060010190602001808311610f9c57829003601f168201915b505050505081565b6001600160a01b038116600090815260076020526040902054600154610fe890600661171f565b81101561100357600154610ffc908261173c565b9050611071565b6103e8600254111561103e5760025460015461102090600661171f565b61102a908361174f565b6110349190611762565b610ffc908261173c565b6103e86001546006611050919061171f565b61105a908361174f565b6110649190611762565b61106e908261173c565b90505b6001600160a01b03909116600090815260076020526040902081905590565b80356001600160a01b03811681146110a757600080fd5b919050565b6000602082840312156110be57600080fd5b6110c782611090565b9392505050565b6000602082840312156110e057600080fd5b5035919050565b634e487b7160e01b600052602160045260246000fd5b604081016006841061111f57634e487b7160e01b600052602160045260246000fd5b9281526001600160a01b039190911660209091015290565b634e487b7160e01b600052604160045260246000fd5b600082601f83011261115e57600080fd5b813567ffffffffffffffff81111561117857611178611137565b604051601f8201601f19908116603f0116810167ffffffffffffffff811182821017156111a7576111a7611137565b6040528181528382016020018510156111bf57600080fd5b816020850160208301376000918101602001919091529392505050565b600080600080608085870312156111f257600080fd5b8435935061120260208601611090565b9250604085013567ffffffffffffffff81111561121e57600080fd5b61122a8782880161114d565b925050606085013567ffffffffffffffff81111561124757600080fd5b6112538782880161114d565b91505092959194509250565b60008060006060848603121561127457600080fd5b83359250602084013567ffffffffffffffff81111561129257600080fd5b61129e8682870161114d565b925050604084013567ffffffffffffffff8111156112bb57600080fd5b6112c78682870161114d565b9150509250925092565b600080600080600060a086880312156112e957600080fd5b853594506112f960208701611090565b935061130760408701611090565b9250606086013567ffffffffffffffff81111561132357600080fd5b61132f8882890161114d565b925050608086013567ffffffffffffffff81111561134c57600080fd5b6113588882890161114d565b9150509295509295909350565b6000806040838503121561137857600080fd5b50508035926020909101359150565b60008060006060848603121561139c57600080fd5b8335925060208401359150604084013567ffffffffffffffff8111156112bb57600080fd5b60005b838110156113dc5781810151838201526020016113c4565b50506000910152565b600081518084526113fd8160208601602086016113c1565b601f01601f19169290920160200192915050565b6020815260006110c760208301846113e5565b60208082526018908201527f70726f6a656374496420646f6573206e6f742065786973740000000000000000604082015260600190565b60208082526012908201527173657276657255524c20697320656d70747960701b604082015260600190565b8481526bffffffffffffffffffffffff198460601b166020820152600083516114b78160348501602088016113c1565b6034920191820192909252605401949350505050565b634e487b7160e01b600052601160045260246000fd5b6000600182016114f5576114f56114cd565b5060010190565b6001600160a01b03858116825284166020820152608060408201819052600090611528908301856113e5565b828103606084015261153a81856113e5565b979650505050505050565b6001600160a01b0384168152606060208201819052600090611569908301856113e5565b828103604084015261157b81856113e5565b9695505050505050565b6001600160a01b03868116825285811660208301528416604082015260a0606082018190526000906115b9908301856113e5565b82810360808401526115cb81856113e5565b98975050505050505050565b600181811c908216806115eb57607f821691505b60208210810361160b57634e487b7160e01b600052602260045260246000fd5b50919050565b601f82111561165b57806000526020600020601f840160051c810160208510156116385750805b601f840160051c820191505b818110156116585760008155600101611644565b50505b505050565b815167ffffffffffffffff81111561167a5761167a611137565b61168e8161168884546115d7565b84611611565b6020601f8211600181146116c257600083156116aa5750848201515b600019600385901b1c1916600184901b178455611658565b600084815260208120601f198516915b828110156116f257878501518255602094850194600190920191016116d2565b50848210156117105786840151600019600387901b60f8161c191681555b50505050600190811b01905550565b8082028115828204841417611736576117366114cd565b92915050565b80820180821115611736576117366114cd565b81810381811115611736576117366114cd565b60008261177f57634e487b7160e01b600052601260045260246000fd5b50049056fea26469706673582212200174517785a8b367f5fa8512bff124eddc11e4227d7e364c36d4d0b1c410ddd164736f6c634300081a0033","linkReferences":{}},"methodIdentifiers":{"VERSION()":"ffa1ad74","createDeploymentRequest(bytes32,address,string,string)":"7371498c","createPrivateDeploymentRequest(bytes32,address,address,string,string)":"bae7e16c","createPrivateProposalRequest(bytes32,address,string,string)":"59617ef7","createProjectID()":"2ae189d8","createProposalRequest(bytes32,string,string)":"84717e90","factor()":"54f703f8","getDeploymentStatus(bytes32)":"09470536","getLatestDeploymentRequestID(address)":"b9bb7135","getLatestProposalRequestID(address)":"f11d3675","getLatestUserProjectID(address)":"ce1b4ff5","getReputation(address)":"9c89a0e2","latestDeploymentRequestID(address)":"078ebeae","latestProjectID(address)":"56ed8752","latestProposalRequestID(address)":"822c737a","requestDeploymentStatus(bytes32)":"fcc82939","solverReputation(address)":"ed3c95c0","submitDeploymentRequest(bytes32,bytes32)":"be539d3f","submitProofOfDeployment(bytes32,bytes32,string)":"e128fced","totalDeploymentRequest()":"83c49efa","totalProposalRequest()":"a97bedfe","workerReputation(address)":"08a101b8"},"id":16}