{"abi":[{"type":"function","name":"DEPLOYMENT_REQUEST_TYPEHASH","inputs":[],"outputs":[{"name":"","type":"bytes32","internalType":"bytes32"}],"stateMutability":"view"},{"type":"function","name":"PROPOSAL_REQUEST_TYPEHASH","inputs":[],"outputs":[{"name":"","type":"bytes32","internalType":"bytes32"}],"stateMutability":"view"},{"type":"function","name":"SIGNING_DOMAIN","inputs":[],"outputs":[{"name":"","type":"string","internalType":"string"}],"stateMutability":"view"},{"type":"function","name":"UPGRADE_INTERFACE_VERSION","inputs":[],"outputs":[{"name":"","type":"string","internalType":"string"}],"stateMutability":"view"},{"type":"function","name":"VERSION","inputs":[],"outputs":[{"name":"","type":"string","internalType":"string"}],"stateMutability":"view"},{"type":"function","name":"createDeploymentRequest","inputs":[{"name":"projectId","type":"bytes32","internalType":"bytes32"},{"name":"solverAddress","type":"address","internalType":"address"},{"name":"base64Proposal","type":"string","internalType":"string"},{"name":"serverURL","type":"string","internalType":"string"}],"outputs":[{"name":"requestID","type":"bytes32","internalType":"bytes32"}],"stateMutability":"nonpayable"},{"type":"function","name":"createDeploymentRequestWithSig","inputs":[{"name":"projectId","type":"bytes32","internalType":"bytes32"},{"name":"solverAddress","type":"address","internalType":"address"},{"name":"base64Proposal","type":"string","internalType":"string"},{"name":"serverURL","type":"string","internalType":"string"},{"name":"signature","type":"bytes","internalType":"bytes"}],"outputs":[{"name":"requestID","type":"bytes32","internalType":"bytes32"}],"stateMutability":"nonpayable"},{"type":"function","name":"createMultipleDeploymentRequest","inputs":[{"name":"projectId","type":"bytes32","internalType":"bytes32"},{"name":"solverAddress","type":"address","internalType":"address"},{"name":"workerAddress","type":"address","internalType":"address"},{"name":"base64Proposals","type":"string[]","internalType":"string[]"},{"name":"serverURL","type":"string","internalType":"string"}],"outputs":[{"name":"projectDeploymentID","type":"bytes32","internalType":"bytes32"}],"stateMutability":"nonpayable"},{"type":"function","name":"createPrivateDeploymentRequest","inputs":[{"name":"projectId","type":"bytes32","internalType":"bytes32"},{"name":"solverAddress","type":"address","internalType":"address"},{"name":"privateWorkerAddress","type":"address","internalType":"address"},{"name":"base64Proposal","type":"string","internalType":"string"},{"name":"serverURL","type":"string","internalType":"string"}],"outputs":[{"name":"requestID","type":"bytes32","internalType":"bytes32"}],"stateMutability":"nonpayable"},{"type":"function","name":"createPrivateDeploymentRequestWithSig","inputs":[{"name":"projectId","type":"bytes32","internalType":"bytes32"},{"name":"solverAddress","type":"address","internalType":"address"},{"name":"privateWorkerAddress","type":"address","internalType":"address"},{"name":"base64Proposal","type":"string","internalType":"string"},{"name":"serverURL","type":"string","internalType":"string"},{"name":"signature","type":"bytes","internalType":"bytes"}],"outputs":[{"name":"requestID","type":"bytes32","internalType":"bytes32"}],"stateMutability":"nonpayable"},{"type":"function","name":"createPrivateProposalRequest","inputs":[{"name":"projectId","type":"bytes32","internalType":"bytes32"},{"name":"privateSolverAddress","type":"address","internalType":"address"},{"name":"base64RecParam","type":"string","internalType":"string"},{"name":"serverURL","type":"string","internalType":"string"}],"outputs":[{"name":"requestID","type":"bytes32","internalType":"bytes32"}],"stateMutability":"nonpayable"},{"type":"function","name":"createProjectID","inputs":[],"outputs":[{"name":"projectId","type":"bytes32","internalType":"bytes32"}],"stateMutability":"nonpayable"},{"type":"function","name":"createProjectIDAndDeploymentRequest","inputs":[{"name":"projectId","type":"bytes32","internalType":"bytes32"},{"name":"base64Proposal","type":"string","internalType":"string"},{"name":"serverURL","type":"string","internalType":"string"}],"outputs":[{"name":"requestID","type":"bytes32","internalType":"bytes32"}],"stateMutability":"nonpayable"},{"type":"function","name":"createProjectIDAndDeploymentRequestWithSig","inputs":[{"name":"projectId","type":"bytes32","internalType":"bytes32"},{"name":"base64Proposal","type":"string","internalType":"string"},{"name":"serverURL","type":"string","internalType":"string"},{"name":"signature","type":"bytes","internalType":"bytes"}],"outputs":[{"name":"requestID","type":"bytes32","internalType":"bytes32"}],"stateMutability":"nonpayable"},{"type":"function","name":"createProjectIDAndPrivateDeploymentRequest","inputs":[{"name":"projectId","type":"bytes32","internalType":"bytes32"},{"name":"base64Proposal","type":"string","internalType":"string"},{"name":"privateWorkerAddress","type":"address","internalType":"address"},{"name":"serverURL","type":"string","internalType":"string"}],"outputs":[{"name":"requestID","type":"bytes32","internalType":"bytes32"}],"stateMutability":"nonpayable"},{"type":"function","name":"createProjectIDAndPrivateDeploymentRequestWithSig","inputs":[{"name":"projectId","type":"bytes32","internalType":"bytes32"},{"name":"base64Proposal","type":"string","internalType":"string"},{"name":"privateWorkerAddress","type":"address","internalType":"address"},{"name":"serverURL","type":"string","internalType":"string"},{"name":"signature","type":"bytes","internalType":"bytes"}],"outputs":[{"name":"requestID","type":"bytes32","internalType":"bytes32"}],"stateMutability":"nonpayable"},{"type":"function","name":"createProjectIDAndProposalRequest","inputs":[{"name":"projectId","type":"bytes32","internalType":"bytes32"},{"name":"base64RecParam","type":"string","internalType":"string"},{"name":"serverURL","type":"string","internalType":"string"}],"outputs":[{"name":"requestID","type":"bytes32","internalType":"bytes32"}],"stateMutability":"nonpayable"},{"type":"function","name":"createProjectIDAndProposalRequestWithSig","inputs":[{"name":"projectId","type":"bytes32","internalType":"bytes32"},{"name":"base64RecParam","type":"string","internalType":"string"},{"name":"serverURL","type":"string","internalType":"string"},{"name":"signature","type":"bytes","internalType":"bytes"}],"outputs":[{"name":"requestID","type":"bytes32","internalType":"bytes32"}],"stateMutability":"nonpayable"},{"type":"function","name":"createProjectIdAndPrivateDeploymentWithConfig","inputs":[{"name":"projectId","type":"bytes32","internalType":"bytes32"},{"name":"base64Proposal","type":"string","internalType":"string"},{"name":"privateWorkerAddress","type":"address","internalType":"address"},{"name":"serverURL","type":"string","internalType":"string"}],"outputs":[{"name":"requestID","type":"bytes32","internalType":"bytes32"}],"stateMutability":"nonpayable"},{"type":"function","name":"createProposalRequest","inputs":[{"name":"projectId","type":"bytes32","internalType":"bytes32"},{"name":"base64RecParam","type":"string","internalType":"string"},{"name":"serverURL","type":"string","internalType":"string"}],"outputs":[{"name":"requestID","type":"bytes32","internalType":"bytes32"}],"stateMutability":"nonpayable"},{"type":"function","name":"createProposalRequestWithSig","inputs":[{"name":"projectId","type":"bytes32","internalType":"bytes32"},{"name":"base64RecParam","type":"string","internalType":"string"},{"name":"serverURL","type":"string","internalType":"string"},{"name":"signature","type":"bytes","internalType":"bytes"}],"outputs":[{"name":"requestID","type":"bytes32","internalType":"bytes32"}],"stateMutability":"nonpayable"},{"type":"function","name":"deploymentIdList","inputs":[{"name":"","type":"bytes32","internalType":"bytes32"},{"name":"","type":"uint256","internalType":"uint256"}],"outputs":[{"name":"","type":"bytes32","internalType":"bytes32"}],"stateMutability":"view"},{"type":"function","name":"dummyAddress","inputs":[],"outputs":[{"name":"","type":"address","internalType":"address"}],"stateMutability":"view"},{"type":"function","name":"eip712Domain","inputs":[],"outputs":[{"name":"fields","type":"bytes1","internalType":"bytes1"},{"name":"name","type":"string","internalType":"string"},{"name":"version","type":"string","internalType":"string"},{"name":"chainId","type":"uint256","internalType":"uint256"},{"name":"verifyingContract","type":"address","internalType":"address"},{"name":"salt","type":"bytes32","internalType":"bytes32"},{"name":"extensions","type":"uint256[]","internalType":"uint256[]"}],"stateMutability":"view"},{"type":"function","name":"factor","inputs":[],"outputs":[{"name":"","type":"uint256","internalType":"uint256"}],"stateMutability":"view"},{"type":"function","name":"getAddress","inputs":[],"outputs":[{"name":"","type":"address","internalType":"address"}],"stateMutability":"view"},{"type":"function","name":"getDeploymentProof","inputs":[{"name":"requestID","type":"bytes32","internalType":"bytes32"}],"outputs":[{"name":"","type":"string","internalType":"string"}],"stateMutability":"view"},{"type":"function","name":"getDeploymentStatus","inputs":[{"name":"requestID","type":"bytes32","internalType":"bytes32"}],"outputs":[{"name":"","type":"uint8","internalType":"enum Blueprint.Status"},{"name":"","type":"address","internalType":"address"}],"stateMutability":"view"},{"type":"function","name":"getEIP712ContractAddress","inputs":[],"outputs":[{"name":"","type":"address","internalType":"address"}],"stateMutability":"view"},{"type":"function","name":"getLatestDeploymentRequestID","inputs":[{"name":"addr","type":"address","internalType":"address"}],"outputs":[{"name":"","type":"bytes32","internalType":"bytes32"}],"stateMutability":"view"},{"type":"function","name":"getLatestProposalRequestID","inputs":[{"name":"addr","type":"address","internalType":"address"}],"outputs":[{"name":"","type":"bytes32","internalType":"bytes32"}],"stateMutability":"view"},{"type":"function","name":"getLatestUserProjectID","inputs":[{"name":"addr","type":"address","internalType":"address"}],"outputs":[{"name":"","type":"bytes32","internalType":"bytes32"}],"stateMutability":"view"},{"type":"function","name":"getProjectInfo","inputs":[{"name":"projectId","type":"bytes32","internalType":"bytes32"}],"outputs":[{"name":"","type":"address","internalType":"address"},{"name":"","type":"bytes32","internalType":"bytes32"},{"name":"","type":"bytes32[]","internalType":"bytes32[]"}],"stateMutability":"view"},{"type":"function","name":"getReputation","inputs":[{"name":"addr","type":"address","internalType":"address"}],"outputs":[{"name":"","type":"uint256","internalType":"uint256"}],"stateMutability":"view"},{"type":"function","name":"getRequestDeploymentDigest","inputs":[{"name":"projectId","type":"bytes32","internalType":"bytes32"},{"name":"base64RecParam","type":"string","internalType":"string"},{"name":"serverURL","type":"string","internalType":"string"}],"outputs":[{"name":"","type":"bytes32","internalType":"bytes32"}],"stateMutability":"view"},{"type":"function","name":"getRequestProposalDigest","inputs":[{"name":"projectId","type":"bytes32","internalType":"bytes32"},{"name":"base64RecParam","type":"string","internalType":"string"},{"name":"serverURL","type":"string","internalType":"string"}],"outputs":[{"name":"","type":"bytes32","internalType":"bytes32"}],"stateMutability":"view"},{"type":"function","name":"getSignerAddress","inputs":[{"name":"hash","type":"bytes32","internalType":"bytes32"},{"name":"signature","type":"bytes","internalType":"bytes"}],"outputs":[{"name":"","type":"address","internalType":"address"}],"stateMutability":"pure"},{"type":"function","name":"getWorkerAddresses","inputs":[],"outputs":[{"name":"","type":"address[]","internalType":"address[]"}],"stateMutability":"view"},{"type":"function","name":"getWorkerPublicKey","inputs":[{"name":"workerAddress","type":"address","internalType":"address"}],"outputs":[{"name":"publicKey","type":"bytes","internalType":"bytes"}],"stateMutability":"view"},{"type":"function","name":"initialize","inputs":[],"outputs":[],"stateMutability":"nonpayable"},{"type":"function","name":"latestDeploymentRequestID","inputs":[{"name":"","type":"address","internalType":"address"}],"outputs":[{"name":"","type":"bytes32","internalType":"bytes32"}],"stateMutability":"view"},{"type":"function","name":"latestProjectID","inputs":[{"name":"","type":"address","internalType":"address"}],"outputs":[{"name":"","type":"bytes32","internalType":"bytes32"}],"stateMutability":"view"},{"type":"function","name":"latestProposalRequestID","inputs":[{"name":"","type":"address","internalType":"address"}],"outputs":[{"name":"","type":"bytes32","internalType":"bytes32"}],"stateMutability":"view"},{"type":"function","name":"owner","inputs":[],"outputs":[{"name":"","type":"address","internalType":"address"}],"stateMutability":"view"},{"type":"function","name":"proxiableUUID","inputs":[],"outputs":[{"name":"","type":"bytes32","internalType":"bytes32"}],"stateMutability":"view"},{"type":"function","name":"renounceOwnership","inputs":[],"outputs":[],"stateMutability":"nonpayable"},{"type":"function","name":"requestDeploymentStatus","inputs":[{"name":"","type":"bytes32","internalType":"bytes32"}],"outputs":[{"name":"status","type":"uint8","internalType":"enum Blueprint.Status"},{"name":"deployWorkerAddr","type":"address","internalType":"address"}],"stateMutability":"view"},{"type":"function","name":"setWorkerPublicKey","inputs":[{"name":"publicKey","type":"bytes","internalType":"bytes"}],"outputs":[],"stateMutability":"nonpayable"},{"type":"function","name":"solverReputation","inputs":[{"name":"","type":"address","internalType":"address"}],"outputs":[{"name":"","type":"uint256","internalType":"uint256"}],"stateMutability":"view"},{"type":"function","name":"submitDeploymentRequest","inputs":[{"name":"projectId","type":"bytes32","internalType":"bytes32"},{"name":"requestID","type":"bytes32","internalType":"bytes32"}],"outputs":[{"name":"isAccepted","type":"bool","internalType":"bool"}],"stateMutability":"nonpayable"},{"type":"function","name":"submitProofOfDeployment","inputs":[{"name":"projectId","type":"bytes32","internalType":"bytes32"},{"name":"requestID","type":"bytes32","internalType":"bytes32"},{"name":"proofBase64","type":"string","internalType":"string"}],"outputs":[],"stateMutability":"nonpayable"},{"type":"function","name":"totalDeploymentRequest","inputs":[],"outputs":[{"name":"","type":"uint256","internalType":"uint256"}],"stateMutability":"view"},{"type":"function","name":"totalProposalRequest","inputs":[],"outputs":[{"name":"","type":"uint256","internalType":"uint256"}],"stateMutability":"view"},{"type":"function","name":"transferOwnership","inputs":[{"name":"newOwner","type":"address","internalType":"address"}],"outputs":[],"stateMutability":"nonpayable"},{"type":"function","name":"updateWorkerDeploymentConfig","inputs":[{"name":"projectId","type":"bytes32","internalType":"bytes32"},{"name":"requestID","type":"bytes32","internalType":"bytes32"},{"name":"updatedBase64Config","type":"string","internalType":"string"}],"outputs":[],"stateMutability":"nonpayable"},{"type":"function","name":"upgradeProject","inputs":[{"name":"projectId","type":"bytes32","internalType":"bytes32"}],"outputs":[],"stateMutability":"nonpayable"},{"type":"function","name":"upgradeToAndCall","inputs":[{"name":"newImplementation","type":"address","internalType":"address"},{"name":"data","type":"bytes","internalType":"bytes"}],"outputs":[],"stateMutability":"payable"},{"type":"function","name":"workerReputation","inputs":[{"name":"","type":"address","internalType":"address"}],"outputs":[{"name":"","type":"uint256","internalType":"uint256"}],"stateMutability":"view"},{"type":"event","name":"AcceptDeployment","inputs":[{"name":"projectID","type":"bytes32","indexed":true,"internalType":"bytes32"},{"name":"requestID","type":"bytes32","indexed":true,"internalType":"bytes32"},{"name":"workerAddress","type":"address","indexed":true,"internalType":"address"}],"anonymous":false},{"type":"event","name":"CreateProjectID","inputs":[{"name":"projectID","type":"bytes32","indexed":true,"internalType":"bytes32"},{"name":"walletAddress","type":"address","indexed":false,"internalType":"address"}],"anonymous":false},{"type":"event","name":"EIP712DomainChanged","inputs":[],"anonymous":false},{"type":"event","name":"GeneratedProofOfDeployment","inputs":[{"name":"projectID","type":"bytes32","indexed":true,"internalType":"bytes32"},{"name":"requestID","type":"bytes32","indexed":true,"internalType":"bytes32"},{"name":"base64DeploymentProof","type":"string","indexed":false,"internalType":"string"}],"anonymous":false},{"type":"event","name":"Initialized","inputs":[{"name":"version","type":"uint64","indexed":false,"internalType":"uint64"}],"anonymous":false},{"type":"event","name":"OwnershipTransferred","inputs":[{"name":"previousOwner","type":"address","indexed":true,"internalType":"address"},{"name":"newOwner","type":"address","indexed":true,"internalType":"address"}],"anonymous":false},{"type":"event","name":"RequestDeployment","inputs":[{"name":"projectID","type":"bytes32","indexed":true,"internalType":"bytes32"},{"name":"walletAddress","type":"address","indexed":false,"internalType":"address"},{"name":"solverAddress","type":"address","indexed":false,"internalType":"address"},{"name":"requestID","type":"bytes32","indexed":true,"internalType":"bytes32"},{"name":"base64Proposal","type":"string","indexed":false,"internalType":"string"},{"name":"serverURL","type":"string","indexed":false,"internalType":"string"}],"anonymous":false},{"type":"event","name":"RequestPrivateDeployment","inputs":[{"name":"projectID","type":"bytes32","indexed":true,"internalType":"bytes32"},{"name":"walletAddress","type":"address","indexed":false,"internalType":"address"},{"name":"privateWorkerAddress","type":"address","indexed":false,"internalType":"address"},{"name":"solverAddress","type":"address","indexed":false,"internalType":"address"},{"name":"requestID","type":"bytes32","indexed":true,"internalType":"bytes32"},{"name":"base64Proposal","type":"string","indexed":false,"internalType":"string"},{"name":"serverURL","type":"string","indexed":false,"internalType":"string"}],"anonymous":false},{"type":"event","name":"RequestPrivateProposal","inputs":[{"name":"projectID","type":"bytes32","indexed":true,"internalType":"bytes32"},{"name":"walletAddress","type":"address","indexed":false,"internalType":"address"},{"name":"privateSolverAddress","type":"address","indexed":false,"internalType":"address"},{"name":"requestID","type":"bytes32","indexed":true,"internalType":"bytes32"},{"name":"base64RecParam","type":"string","indexed":false,"internalType":"string"},{"name":"serverURL","type":"string","indexed":false,"internalType":"string"}],"anonymous":false},{"type":"event","name":"RequestProposal","inputs":[{"name":"projectID","type":"bytes32","indexed":true,"internalType":"bytes32"},{"name":"walletAddress","type":"address","indexed":false,"internalType":"address"},{"name":"requestID","type":"bytes32","indexed":true,"internalType":"bytes32"},{"name":"base64RecParam","type":"string","indexed":false,"internalType":"string"},{"name":"serverURL","type":"string","indexed":false,"internalType":"string"}],"anonymous":false},{"type":"event","name":"UpdateDeploymentConfig","inputs":[{"name":"projectID","type":"bytes32","indexed":true,"internalType":"bytes32"},{"name":"requestID","type":"bytes32","indexed":true,"internalType":"bytes32"},{"name":"workerAddress","type":"address","indexed":false,"internalType":"address"},{"name":"base64Config","type":"string","indexed":false,"internalType":"string"}],"anonymous":false},{"type":"event","name":"Upgraded","inputs":[{"name":"implementation","type":"address","indexed":true,"internalType":"address"}],"anonymous":false},{"type":"error","name":"AddressEmptyCode","inputs":[{"name":"target","type":"address","internalType":"address"}]},{"type":"error","name":"ECDSAInvalidSignature","inputs":[]},{"type":"error","name":"ECDSAInvalidSignatureLength","inputs":[{"name":"length","type":"uint256","internalType":"uint256"}]},{"type":"error","name":"ECDSAInvalidSignatureS","inputs":[{"name":"s","type":"bytes32","internalType":"bytes32"}]},{"type":"error","name":"ERC1967InvalidImplementation","inputs":[{"name":"implementation","type":"address","internalType":"address"}]},{"type":"error","name":"ERC1967NonPayable","inputs":[]},{"type":"error","name":"FailedCall","inputs":[]},{"type":"error","name":"InvalidInitialization","inputs":[]},{"type":"error","name":"NotInitializing","inputs":[]},{"type":"error","name":"OwnableInvalidOwner","inputs":[{"name":"owner","type":"address","internalType":"address"}]},{"type":"error","name":"OwnableUnauthorizedAccount","inputs":[{"name":"account","type":"address","internalType":"address"}]},{"type":"error","name":"UUPSUnauthorizedCallContext","inputs":[]},{"type":"error","name":"UUPSUnsupportedProxiableUUID","inputs":[{"name":"slot","type":"bytes32","internalType":"bytes32"}]}],"bytecode":{"object":"0x60a0604052306080523480156012575f5ffd5b50608051613fb96100395f395f818161219d015281816121c601526123050152613fb95ff3fe608060405260043610610371575f3560e01c806384717e90116101c8578063c03044f3116100fd578063e128fced1161009d578063f11d36751161006d578063f11d367514610b08578063f2fde38b14610b3c578063fcc8293914610b5b578063ffa1ad7414610b99575f5ffd5b8063e128fced14610a61578063e2ec525c14610a80578063e3faad9414610a9f578063ed3c95c014610add575f5ffd5b8063c68a7e32116100d8578063c68a7e32146109c1578063ce1b4ff5146109e0578063d2a0c27514610a14578063e056683314610a33575f5ffd5b8063c03044f31461096f578063c3a1ae271461098e578063c4845f5f146109a2575f5ffd5b8063a6cda35111610168578063b83b431511610143578063b83b4315146108ce578063b9bb7135146108ed578063bae7e16c14610921578063be539d3f14610940575f5ffd5b8063a6cda3511461086a578063a97bedfe14610889578063ad3cb1cc1461089e575f5ffd5b8063924b2a2a116101a3578063924b2a2a146107d9578063934e218c146107f85780639a7d9ce2146108175780639c89a0e214610836575f5ffd5b806384717e901461075757806384b0196e146107765780638da5cb5b1461079d575f5ffd5b80634ce354f0116102a957806362bd459c116102495780637ce53f49116102195780637ce53f49146106e45780638129fc1c14610703578063822c737a1461071757806383c49efa14610742575f5ffd5b806362bd459c1461065f578063715018a61461067e5780637371498c146106925780637b31d6f6146106b1575f5ffd5b806354f703f81161028457806354f703f8146105e15780635516fe1d146105f657806356ed87521461061557806359617ef714610640575f5ffd5b80634ce354f01461059b5780634f1ef286146105ba57806352d1902d146105cd575f5ffd5b806331f4f12d1161031457806339c12636116102ef57806339c12636146105105780634b6680de146105315780634bcaa6261461055d5780634caafee21461057c575f5ffd5b806331f4f12d146104a85780633550753c146104db57806338cc4831146104fc575f5ffd5b8063094705361161034f57806309470536146104095780630f7d8e39146104565780632943f3eb146104755780632ae189d814610494575f5ffd5b806305b3831214610375578063078ebeae146103a557806308a101b8146103de575b5f5ffd5b348015610380575f5ffd5b506103885f81565b6040516001600160a01b0390911681526020015b60405180910390f35b3480156103b0575f5ffd5b506103d06103bf3660046131f7565b60056020525f908152604090205481565b60405190815260200161039c565b3480156103e9575f5ffd5b506103d06103f83660046131f7565b60086020525f908152604090205481565b348015610414575f5ffd5b50610448610423366004613210565b5f9081526009602052604090205460ff8116916101009091046001600160a01b031690565b60405161039c92919061323b565b348015610461575f5ffd5b50610388610470366004613328565b610bad565b348015610480575f5ffd5b506103d061048f36600461336b565b610c13565b34801561049f575f5ffd5b506103d0610c46565b3480156104b3575f5ffd5b506103d07f60a8eecec858932ab2ff591a4ad5829a185228029a1c74d3dfb34bf17b42561681565b3480156104e6575f5ffd5b506104fa6104f5366004613210565b610c9a565b005b348015610507575f5ffd5b50610388610d18565b34801561051b575f5ffd5b50610524610d2f565b60405161039c9190613400565b34801561053c575f5ffd5b5061055061054b366004613210565b610d8f565b60405161039c9190613479565b348015610568575f5ffd5b506104fa61057736600461348b565b610e2e565b348015610587575f5ffd5b506105506105963660046131f7565b610eaf565b3480156105a6575f5ffd5b506103d06105b536600461336b565b610ed5565b6104fa6105c83660046134f7565b610efe565b3480156105d8575f5ffd5b506103d0610f1d565b3480156105ec575f5ffd5b506103d060015481565b348015610601575f5ffd5b506103d061061036600461336b565b610f38565b348015610620575f5ffd5b506103d061062f3660046131f7565b60066020525f908152604090205481565b34801561064b575f5ffd5b506103d061065a36600461352b565b610f6a565b34801561066a575f5ffd5b506103d0610679366004613568565b610fc1565b348015610689575f5ffd5b506104fa61104a565b34801561069d575f5ffd5b506103d06106ac36600461352b565b61105d565b3480156106bc575f5ffd5b506103d07fe5726589ac93743b6d2436bf498a0c2b0f4c8e021b2693576ae35457620d338d81565b3480156106ef575f5ffd5b506103d06106fe3660046135d3565b611075565b34801561070e575f5ffd5b506104fa611083565b348015610722575f5ffd5b506103d06107313660046131f7565b60046020525f908152604090205481565b34801561074d575f5ffd5b506103d060035481565b348015610762575f5ffd5b506103d0610771366004613568565b61123a565b348015610781575f5ffd5b5061078a61124f565b60405161039c9796959493929190613637565b3480156107a8575f5ffd5b507f9016d09d72d40fdae2fd8ceac6b6234c7706214fd39c1cd1e609a0528c199300546001600160a01b0316610388565b3480156107e4575f5ffd5b506103d06107f3366004613568565b6112f8565b348015610803575f5ffd5b506103d06108123660046136cd565b61130f565b348015610822575f5ffd5b506103d0610831366004613772565b611345565b348015610841575f5ffd5b506103d06108503660046131f7565b6001600160a01b03165f9081526007602052604090205490565b348015610875575f5ffd5b506103d06108843660046137d7565b61136e565b348015610894575f5ffd5b506103d060025481565b3480156108a9575f5ffd5b50610550604051806040016040528060058152602001640352e302e360dc1b81525081565b3480156108d9575f5ffd5b506103d06108e83660046135d3565b6115c8565b3480156108f8575f5ffd5b506103d06109073660046131f7565b6001600160a01b03165f9081526005602052604090205490565b34801561092c575f5ffd5b506103d061093b3660046138db565b611660565b34801561094b575f5ffd5b5061095f61095a36600461390d565b611679565b604051901515815260200161039c565b34801561097a575f5ffd5b506103d0610989366004613568565b611885565b348015610999575f5ffd5b506103886118e2565b3480156109ad575f5ffd5b506103d06109bc366004613568565b6118f0565b3480156109cc575f5ffd5b506104fa6109db36600461392d565b6118fe565b3480156109eb575f5ffd5b506103d06109fa3660046131f7565b6001600160a01b03165f9081526006602052604090205490565b348015610a1f575f5ffd5b506103d0610a2e36600461390d565b611b00565b348015610a3e575f5ffd5b50610a52610a4d366004613210565b611b2b565b60405161039c93929190613962565b348015610a6c575f5ffd5b506104fa610a7b36600461392d565b611bf3565b348015610a8b575f5ffd5b506103d0610a9a3660046139b1565b611db0565b348015610aaa575f5ffd5b50610550604051806040016040528060138152602001726170702e6372657374616c2e6e6574776f726b60681b81525081565b348015610ae8575f5ffd5b506103d0610af73660046131f7565b60076020525f908152604090205481565b348015610b13575f5ffd5b506103d0610b223660046131f7565b6001600160a01b03165f9081526004602052604090205490565b348015610b47575f5ffd5b506104fa610b563660046131f7565b611de7565b348015610b66575f5ffd5b50610448610b75366004613210565b60096020525f908152604090205460ff81169061010090046001600160a01b031682565b348015610ba4575f5ffd5b50610550611e24565b5f5f610bb98484611eaf565b90506001600160a01b038116610c0a5760405162461bcd60e51b8152602060048201526011602482015270496e76616c6964207369676e617475726560781b60448201526064015b60405180910390fd5b90505b92915050565b5f5f610c20868686611885565b90505f610c2d8285610bad565b9050610c3b81888888611ed7565b979650505050505050565b604080514260208201526bffffffffffffffffffffffff193360601b16918101919091524660548201525f90607401604051602081830303815290604052805190602001209050610c978133611f1c565b90565b5f818152600e60205260409020548190151580610ccc57505f818152600d60205260409020546001600160a01b031615155b610ce85760405162461bcd60e51b8152600401610c0190613a65565b505f908152600e6020526040812060018101829055600281019190915560030180546001600160a01b0319169055565b5f5f610d2261124f565b5090979650505050505050565b60606010805480602002602001604051908101604052809291908181526020018280548015610d8557602002820191905f5260205f20905b81546001600160a01b03168152600190910190602001808311610d67575b5050505050905090565b5f818152600a60205260409020805460609190610dab90613a9c565b80601f0160208091040260200160405190810160405280929190818152602001828054610dd790613a9c565b8015610e225780601f10610df957610100808354040283529160200191610e22565b820191905f5260205f20905b815481529060010190602001808311610e0557829003601f168201915b50505050509050919050565b335f9081526011602052604090208054610e4790613a9c565b90505f03610e9157601080546001810182555f919091527f1b6847dc741a1b0cd08d278845f9d819d87b734759afb55fe2de5cb82a9ae6720180546001600160a01b031916331790555b335f908152601160205260409020610eaa828483613b1f565b505050565b6001600160a01b0381165f908152601160205260409020805460609190610dab90613a9c565b5f5f610ee2868686610fc1565b90505f610eef8285610bad565b9050610c3b8188885f8961206b565b610f06612192565b610f0f82612236565b610f19828261223e565b5050565b5f610f266122fa565b505f516020613f445f395f51905f5290565b5f5f610f45868686611885565b90505f610f528285610bad565b9050610f5e8782611f1c565b610c3b81888888611ed7565b5f610f783386868686612343565b905080857f1eb4ec68b7c7cf7850d18fd32bdd1cb9e2c9b7e1de32211eef093af3cf262aee33878787604051610fb19493929190613bd8565b60405180910390a3949350505050565b5f5f7f60a8eecec858932ab2ff591a4ad5829a185228029a1c74d3dfb34bf17b425616858580519060200120858051906020012060405160200161101e949392919093845260208401929092526040830152606082015260800190565b60405160208183030381529060405280519060200120905061103f8161253f565b9150505b9392505050565b61105261256b565b61105b5f6125c6565b565b5f61106c3386865f8787612636565b95945050505050565b5f61106c338686868661206b565b60035f61108e6127aa565b8054909150600160401b900460ff16806110b5575080546001600160401b03808416911610155b156110d35760405163f92ee8a960e01b815260040160405180910390fd5b805468ffffffffffffffffff19166001600160401b03831617600160401b1781556110fd336127d2565b6040805180820190915260058152640332e302e360dc1b60208201525f906111259082613c15565b506111e2604051806040016040528060138152602001726170702e6372657374616c2e6e6574776f726b60681b8152505f805461116190613a9c565b80601f016020809104026020016040519081016040528092919081815260200182805461118d90613a9c565b80156111d85780601f106111af576101008083540402835291602001916111d8565b820191905f5260205f20905b8154815290600101906020018083116111bb57829003601f168201915b50505050506127e3565b6111ea6127f5565b805468ff0000000000000000191681556040516001600160401b03831681527fc7f505b2f371ae2175ee4913f4499e1f2633a7b5936321eed1cdaeb6115181d29060200160405180910390a15050565b5f61124733858585611ed7565b949350505050565b5f60608082808083815f516020613f245f395f51905f52805490915015801561127a57506001810154155b6112be5760405162461bcd60e51b81526020600482015260156024820152741152540dcc4c8e88155b9a5b9a5d1a585b1a5e9959605a1b6044820152606401610c01565b6112c66127fd565b6112ce6128bd565b604080515f80825260208201909252600f60f81b9c939b5091995046985030975095509350915050565b5f6113038433611f1c565b61124733858585611ed7565b5f5f61131c878686610fc1565b90505f6113298285610bad565b90506113398189895f8a8a612636565b98975050505050505050565b5f5f611352878786610fc1565b90505f61135f8285610bad565b9050611339818989898961206b565b5f6001600160a01b0385166113c55760405162461bcd60e51b815260206004820152601a60248201527f736f6c76657241646472657373206973206e6f742076616c69640000000000006044820152606401610c01565b82515f036114155760405162461bcd60e51b815260206004820152601e60248201527f62617365363450726f706f73616c7320617272617920697320656d70747900006044820152606401610c01565b5f5b8351811015611593575f5f61144a338a8a8a8a888151811061143b5761143b613ccf565b60200260200101518a896128fb565b9092509050831561147a575f848152600f602090815260408220805460018101825590835291200182905561149e565b5f818152600f60209081526040822080546001810182559083529120018290559250825b6001600160a01b0387166115095781897fcdde0392731ff1ddcc3295ee84db8db4a9ad3d8f34056867af8c9f3b2920d44e338b8a88815181106114e3576114e3613ccf565b60200260200101518a6040516114fc9493929190613bd8565b60405180910390a3611589565b81897f26e5b75b543be1cdad2907ba50a99eeb5c3a05381eee18d5b6a565b2bbccd1ba338a8c8b898151811061154157611541613ccf565b60200260200101518b60405161155b959493929190613ce3565b60405180910390a3866001600160a01b0316828a5f516020613f645f395f51905f5260405160405180910390a45b5050600101611417565b50825160035f8282546115a69190613d3c565b90915550505f958652600e602052604090952060020185905550929392505050565b5f6115d585858585611075565b5f818152600960209081526040918290205482516101009091046001600160a01b03168152908101829052601f918101919091527f456e6372797074656420636f6e66696720666f72206465706c6f796d656e74006060820152909150819086907fce8f8849a89ebf447425479c86ccdc17f11697958b4bca671fcdf65bc3012c2190608001610fb1565b5f61166f338787878787612636565b9695505050505050565b5f828152600e602052604081205483901515806116ab57505f818152600d60205260409020546001600160a01b031615155b6116c75760405162461bcd60e51b8152600401610c0190613a65565b5f8381526009602052604081205460ff1660058111156116e9576116e9613227565b036117065760405162461bcd60e51b8152600401610c0190613d4f565b60025f8481526009602052604090205460ff16600581111561172a5761172a613227565b036117ab5760405162461bcd60e51b815260206004820152604560248201527f72657175657374494420616c7265616479207069636b656420627920616e6f7460448201527f68657220776f726b65722c20747279206120646966666572656e742072657175606482015264195cdd125160da1b608482015260a401610c01565b60055f8481526009602052604090205460ff1660058111156117cf576117cf613227565b0361182a5760405162461bcd60e51b815260206004820152602560248201527f7265717565737449442068617320616c7265616479207375626d697474656420604482015264383937b7b360d91b6064820152608401610c01565b5f83815260096020526040808220805460026101003381026001600160a81b03199093169290921717918290559151600195509190046001600160a01b031691859187915f516020613f645f395f51905f5291a45092915050565b5f5f7fe5726589ac93743b6d2436bf498a0c2b0f4c8e021b2693576ae35457620d338d858580519060200120858051906020012060405160200161101e949392919093845260208401929092526040830152606082015260800190565b5f6118eb610d18565b905090565b5f6112473385855f8661206b565b5f838152600e6020526040902054839015158061193057505f818152600d60205260409020546001600160a01b031615155b61194c5760405162461bcd60e51b8152600401610c0190613a65565b5f8381526009602052604081205460ff16600581111561196e5761196e613227565b0361198b5760405162461bcd60e51b8152600401610c0190613d4f565b5f8251116119db5760405162461bcd60e51b815260206004820152601c60248201527f75706461746564426173653634436f6e66696720697320656d707479000000006044820152606401610c01565b60015f8481526009602052604090205460ff1660058111156119ff576119ff613227565b03611a5d5760405162461bcd60e51b815260206004820152602860248201527f726571756573744944206973206e6f74207069636b656420757020627920616e6044820152673c903bb7b935b2b960c11b6064820152608401610c01565b60055f8481526009602052604090205460ff166005811115611a8157611a81613227565b03611a9f575f838152600960205260409020805460ff191660021790555b5f8381526009602052604090819020549051849186917fce8f8849a89ebf447425479c86ccdc17f11697958b4bca671fcdf65bc3012c2191611af2916101009091046001600160a01b0316908790613d86565b60405180910390a350505050565b600f602052815f5260405f208181548110611b19575f80fd5b905f5260205f20015f91509150505481565b5f818152600e6020526040812054819060609084908303611b5e5760405162461bcd60e51b8152600401610c0190613a65565b5f858152600e60209081526040808320600201548352600f825280832080548251818502810185019093528083529192909190830182828015611bbe57602002820191905f5260205f20905b815481526020019060010190808311611baa575b5050505f9889525050600e602052604090962060038101546001909101546001600160a01b0390911697909695509350505050565b5f838152600e60205260409020548390151580611c2557505f818152600d60205260409020546001600160a01b031615155b611c415760405162461bcd60e51b8152600401610c0190613a65565b5f8381526009602052604081205460ff166005811115611c6357611c63613227565b03611c805760405162461bcd60e51b8152600401610c0190613d4f565b5f8381526009602052604090205461010090046001600160a01b03163314611ce15760405162461bcd60e51b815260206004820152601460248201527357726f6e6720776f726b6572206164647265737360601b6044820152606401610c01565b60055f8481526009602052604090205460ff166005811115611d0557611d05613227565b03611d525760405162461bcd60e51b815260206004820152601760248201527f416c7265616479207375626d69747465642070726f6f660000000000000000006044820152606401610c01565b5f838152600960209081526040808320805460ff19166005179055600a9091529020611d7e8382613c15565b5082847fddb29833db778500c94a5880f1a8ad549d91ec7c80faee2b3735bda881fa6d9884604051611af29190613479565b5f5f611dbd888686610fc1565b90505f611dca8285610bad565b9050611dda818a8a8a8a8a612636565b9998505050505050505050565b611def61256b565b6001600160a01b038116611e1857604051631e4fbdf760e01b81525f6004820152602401610c01565b611e21816125c6565b50565b5f8054611e3090613a9c565b80601f0160208091040260200160405190810160405280929190818152602001828054611e5c90613a9c565b8015611ea75780601f10611e7e57610100808354040283529160200191611ea7565b820191905f5260205f20905b815481529060010190602001808311611e8a57829003601f168201915b505050505081565b5f5f5f5f611ebd8686612bb6565b925092509250611ecd8282612bff565b5090949350505050565b5f611ee585855f8686612343565b905080847f660f0cd9ab48b3916970cca5763925f3b8f0e0e158fb9f0f4ae5f71e9605d767878686604051610fb193929190613da9565b5f828152600e6020526040902054829015611f795760405162461bcd60e51b815260206004820152601860248201527f70726f6a656374496420616c72656164792065786973747300000000000000006044820152606401610c01565b6001600160a01b038216611fc25760405162461bcd60e51b815260206004820152601060248201526f24b73b30b634b2103ab9b2b920b2323960811b6044820152606401610c01565b604080516080810182528481525f602080830182815283850183815260608501848152898552600e845286852086518155925160018401559051600283015551600390910180546001600160a01b0319166001600160a01b03928316179055861680835260068252918490208790559251908152909185917f988dde20b788b20d2f8188ab37bc9419a99761fc4ec19356dc30cfa49b4601dc910160405180910390a250505050565b5f6120768587611f1c565b5f61208687875f8789885f6128fb565b600380549294509092505f61209a83613dde565b90915550505f868152600e60209081526040808320600201849055838352600f8252822080546001810182559083529120018290556001600160a01b0384166121215781867fcdde0392731ff1ddcc3295ee84db8db4a9ad3d8f34056867af8c9f3b2920d44e895f89886040516121149493929190613bd8565b60405180910390a3612188565b81867f26e5b75b543be1cdad2907ba50a99eeb5c3a05381eee18d5b6a565b2bbccd1ba89875f8a8960405161215a959493929190613ce3565b60405180910390a3836001600160a01b031682875f516020613f645f395f51905f5260405160405180910390a45b5095945050505050565b306001600160a01b037f000000000000000000000000000000000000000000000000000000000000000016148061221857507f00000000000000000000000000000000000000000000000000000000000000006001600160a01b031661220c5f516020613f445f395f51905f52546001600160a01b031690565b6001600160a01b031614155b1561105b5760405163703e46dd60e11b815260040160405180910390fd5b611e2161256b565b816001600160a01b03166352d1902d6040518163ffffffff1660e01b8152600401602060405180830381865afa925050508015612298575060408051601f3d908101601f1916820190925261229591810190613df6565b60015b6122c057604051634c9c8ce360e01b81526001600160a01b0383166004820152602401610c01565b5f516020613f445f395f51905f5281146122f057604051632a87526960e21b815260048101829052602401610c01565b610eaa8383612cb7565b306001600160a01b037f0000000000000000000000000000000000000000000000000000000000000000161461105b5760405163703e46dd60e11b815260040160405180910390fd5b5f848152600e6020526040812054859015158061237557505f818152600d60205260409020546001600160a01b031615155b6123915760405162461bcd60e51b8152600401610c0190613a65565b5f8351116123d65760405162461bcd60e51b815260206004820152601260248201527173657276657255524c20697320656d70747960701b6044820152606401610c01565b5f8451116124265760405162461bcd60e51b815260206004820152601760248201527f626173653634526563506172616d20697320656d7074790000000000000000006044820152606401610c01565b4287854660405160200161243d9493929190613e24565b60408051601f1981840301815291815281516020928301205f898152600e909352912060010154909250156124be5760405162461bcd60e51b815260206004820152602160248201527f70726f706f73616c2072657175657374494420616c72656164792065786973746044820152607360f81b6064820152608401610c01565b6001600160a01b0387165f908152600460209081526040808320859055888352600e909152812060010183905560028054916124f983613dde565b90915550506001600160a01b03851615612188575f828152600b6020526040902080546001600160a01b0387166001600160a01b03199091161790555095945050505050565b5f610c0d61254b612d0c565b8360405161190160f01b8152600281019290925260228201526042902090565b3361259d7f9016d09d72d40fdae2fd8ceac6b6234c7706214fd39c1cd1e609a0528c199300546001600160a01b031690565b6001600160a01b03161461105b5760405163118cdaa760e01b8152336004820152602401610c01565b7f9016d09d72d40fdae2fd8ceac6b6234c7706214fd39c1cd1e609a0528c19930080546001600160a01b031981166001600160a01b03848116918217845560405192169182907f8be0079c531659141344cd1fd0a4f28419497f9722a3daafe3b4186f6b6457e0905f90a3505050565b5f6001600160a01b03851661268d5760405162461bcd60e51b815260206004820152601a60248201527f736f6c76657241646472657373206973206e6f742076616c69640000000000006044820152606401610c01565b5f61269d8888888888885f6128fb565b600380549294509092505f6126b183613dde565b90915550505f878152600e60209081526040808320600201849055838352600f8252822080546001810182559083529120018290556001600160a01b0385166127385781877fcdde0392731ff1ddcc3295ee84db8db4a9ad3d8f34056867af8c9f3b2920d44e8a89888860405161272b9493929190613bd8565b60405180910390a361279f565b81877f26e5b75b543be1cdad2907ba50a99eeb5c3a05381eee18d5b6a565b2bbccd1ba8a888a8989604051612771959493929190613ce3565b60405180910390a3846001600160a01b031682885f516020613f645f395f51905f5260405160405180910390a45b509695505050505050565b5f807ff0c57e16840df040f15088dc2f81fe391c3923bec73e23a9662efc9c229c6a00610c0d565b6127da612d15565b611e2181612d3a565b6127eb612d15565b610f198282612d42565b61105b612d15565b7fa16a46d94261c7517cc8ff89f61c0ce93598e3c849801011dee649a6a557d10280546060915f516020613f245f395f51905f529161283b90613a9c565b80601f016020809104026020016040519081016040528092919081815260200182805461286790613a9c565b80156128b25780601f10612889576101008083540402835291602001916128b2565b820191905f5260205f20905b81548152906001019060200180831161289557829003601f168201915b505050505091505090565b7fa16a46d94261c7517cc8ff89f61c0ce93598e3c849801011dee649a6a557d10380546060915f516020613f245f395f51905f529161283b90613a9c565b5f868152600e60205260408120548190889015158061292f57505f818152600d60205260409020546001600160a01b031615155b61294b5760405162461bcd60e51b8152600401610c0190613a65565b5f8551116129905760405162461bcd60e51b815260206004820152601260248201527173657276657255524c20697320656d70747960701b6044820152606401610c01565b5f8651116129e05760405162461bcd60e51b815260206004820152601760248201527f62617365363450726f706f73616c20697320656d7074790000000000000000006044820152606401610c01565b428a87468c6040516020016129f9959493929190613e57565b60408051601f1981840301815291815281516020928301205f8c8152600e90935291206002015490925015612a7c5760405162461bcd60e51b815260206004820152602360248201527f6465706c6f796d656e742072657175657374494420616c72656164792065786960448201526273747360e81b6064820152608401610c01565b428a87468c88604051602001612a9796959493929190613e8f565b60408051601f1981840301815291815281516020928301206001600160a01b038d165f908152600590935291208190559250612ad288612da1565b505f60405180604001604052805f6001600160a01b03168a6001600160a01b031614612aff576002612b02565b60015b6005811115612b1357612b13613227565b81526001600160a01b038a166020918201525f868152600990915260409020815181549293508392829060ff19166001836005811115612b5557612b55613227565b02179055506020918201518154610100600160a81b0319166101006001600160a01b0392831602179091555f9b8c52600e9091526040909a2060030180546001600160a01b03191699909a1698909817909855909890975095505050505050565b5f5f5f8351604103612bed576020840151604085015160608601515f1a612bdf88828585612e6e565b955095509550505050612bf8565b505081515f91506002905b9250925092565b5f826003811115612c1257612c12613227565b03612c1b575050565b6001826003811115612c2f57612c2f613227565b03612c4d5760405163f645eedf60e01b815260040160405180910390fd5b6002826003811115612c6157612c61613227565b03612c825760405163fce698f760e01b815260048101829052602401610c01565b6003826003811115612c9657612c96613227565b03610f19576040516335e2f38360e21b815260048101829052602401610c01565b612cc082612f36565b6040516001600160a01b038316907fbc7cd75a20ee27fd9adebab32041f755214dbc6bffa90cc0225b39da2e5c2d3b905f90a2805115612d0457610eaa8282612f99565b610f19613002565b5f6118eb613021565b612d1d613094565b61105b57604051631afcd79f60e31b815260040160405180910390fd5b611def612d15565b612d4a612d15565b5f516020613f245f395f51905f527fa16a46d94261c7517cc8ff89f61c0ce93598e3c849801011dee649a6a557d102612d838482613c15565b5060038101612d928382613c15565b505f8082556001909101555050565b6001600160a01b0381165f90815260076020526040902054600154612dc7906006613ecf565b811015612de257600154612ddb9082613d3c565b9050612e50565b6103e86002541115612e1d57600254600154612dff906006613ecf565b612e099083613ee6565b612e139190613ef9565b612ddb9082613d3c565b6103e86001546006612e2f9190613ecf565b612e399083613ee6565b612e439190613ef9565b612e4d9082613d3c565b90505b6001600160a01b039091165f90815260076020526040902081905590565b5f80807f7fffffffffffffffffffffffffffffff5d576e7357a4501ddfe92f46681b20a0841115612ea757505f91506003905082612f2c565b604080515f808252602082018084528a905260ff891692820192909252606081018790526080810186905260019060a0016020604051602081039080840390855afa158015612ef8573d5f5f3e3d5ffd5b5050604051601f1901519150506001600160a01b038116612f2357505f925060019150829050612f2c565b92505f91508190505b9450945094915050565b806001600160a01b03163b5f03612f6b57604051634c9c8ce360e01b81526001600160a01b0382166004820152602401610c01565b5f516020613f445f395f51905f5280546001600160a01b0319166001600160a01b0392909216919091179055565b60605f5f846001600160a01b031684604051612fb59190613f18565b5f60405180830381855af49150503d805f8114612fed576040519150601f19603f3d011682016040523d82523d5f602084013e612ff2565b606091505b509150915061106c8583836130ad565b341561105b5760405163b398979f60e01b815260040160405180910390fd5b5f7f8b73c3c69bb8fe3d512ecc4cf759cc79239f7b179b0ffacaa9a75d522b39400f61304b613109565b613053613171565b60408051602081019490945283019190915260608201524660808201523060a082015260c00160405160208183030381529060405280519060200120905090565b5f61309d6127aa565b54600160401b900460ff16919050565b6060826130c2576130bd826131b3565b611043565b81511580156130d957506001600160a01b0384163b155b1561310257604051639996b31560e01b81526001600160a01b0385166004820152602401610c01565b5080611043565b5f5f516020613f245f395f51905f52816131216127fd565b80519091501561313957805160209091012092915050565b81548015613148579392505050565b7fc5d2460186f7233c927e7db2dcc703c0e500b653ca82273b7bfad8045d85a470935050505090565b5f5f516020613f245f395f51905f52816131896128bd565b8051909150156131a157805160209091012092915050565b60018201548015613148579392505050565b8051156131c35780518082602001fd5b60405163d6bda27560e01b815260040160405180910390fd5b80356001600160a01b03811681146131f2575f5ffd5b919050565b5f60208284031215613207575f5ffd5b611043826131dc565b5f60208284031215613220575f5ffd5b5035919050565b634e487b7160e01b5f52602160045260245ffd5b604081016006841061325b57634e487b7160e01b5f52602160045260245ffd5b9281526001600160a01b039190911660209091015290565b634e487b7160e01b5f52604160045260245ffd5b604051601f8201601f191681016001600160401b03811182821017156132af576132af613273565b604052919050565b5f82601f8301126132c6575f5ffd5b8135602083015f5f6001600160401b038411156132e5576132e5613273565b50601f8301601f19166020016132fa81613287565b91505082815285838301111561330e575f5ffd5b828260208301375f92810160200192909252509392505050565b5f5f60408385031215613339575f5ffd5b8235915060208301356001600160401b03811115613355575f5ffd5b613361858286016132b7565b9150509250929050565b5f5f5f5f6080858703121561337e575f5ffd5b8435935060208501356001600160401b0381111561339a575f5ffd5b6133a6878288016132b7565b93505060408501356001600160401b038111156133c1575f5ffd5b6133cd878288016132b7565b92505060608501356001600160401b038111156133e8575f5ffd5b6133f4878288016132b7565b91505092959194509250565b602080825282518282018190525f918401906040840190835b818110156134405783516001600160a01b0316835260209384019390920191600101613419565b509095945050505050565b5f81518084528060208401602086015e5f602082860101526020601f19601f83011685010191505092915050565b602081525f611043602083018461344b565b5f5f6020838503121561349c575f5ffd5b82356001600160401b038111156134b1575f5ffd5b8301601f810185136134c1575f5ffd5b80356001600160401b038111156134d6575f5ffd5b8560208284010111156134e7575f5ffd5b6020919091019590945092505050565b5f5f60408385031215613508575f5ffd5b613511836131dc565b915060208301356001600160401b03811115613355575f5ffd5b5f5f5f5f6080858703121561353e575f5ffd5b8435935061354e602086016131dc565b925060408501356001600160401b038111156133c1575f5ffd5b5f5f5f6060848603121561357a575f5ffd5b8335925060208401356001600160401b03811115613596575f5ffd5b6135a2868287016132b7565b92505060408401356001600160401b038111156135bd575f5ffd5b6135c9868287016132b7565b9150509250925092565b5f5f5f5f608085870312156135e6575f5ffd5b8435935060208501356001600160401b03811115613602575f5ffd5b61360e878288016132b7565b93505061361d604086016131dc565b915060608501356001600160401b038111156133e8575f5ffd5b60ff60f81b8816815260e060208201525f61365560e083018961344b565b8281036040840152613667818961344b565b606084018890526001600160a01b038716608085015260a0840186905283810360c0850152845180825260208087019350909101905f5b818110156136bc57835183526020938401939092019160010161369e565b50909b9a5050505050505050505050565b5f5f5f5f5f60a086880312156136e1575f5ffd5b853594506136f1602087016131dc565b935060408601356001600160401b0381111561370b575f5ffd5b613717888289016132b7565b93505060608601356001600160401b03811115613732575f5ffd5b61373e888289016132b7565b92505060808601356001600160401b03811115613759575f5ffd5b613765888289016132b7565b9150509295509295909350565b5f5f5f5f5f60a08688031215613786575f5ffd5b8535945060208601356001600160401b038111156137a2575f5ffd5b6137ae888289016132b7565b9450506137bd604087016131dc565b925060608601356001600160401b03811115613732575f5ffd5b5f5f5f5f5f60a086880312156137eb575f5ffd5b853594506137fb602087016131dc565b9350613809604087016131dc565b925060608601356001600160401b03811115613823575f5ffd5b8601601f81018813613833575f5ffd5b80356001600160401b0381111561384c5761384c613273565b8060051b61385c60208201613287565b9182526020818401810192908101908b841115613877575f5ffd5b6020850192505b838310156138bc5782356001600160401b0381111561389b575f5ffd5b6138aa8d6020838901016132b7565b8352506020928301929091019061387e565b9550505050608087013590506001600160401b03811115613759575f5ffd5b5f5f5f5f5f60a086880312156138ef575f5ffd5b853594506138ff602087016131dc565b93506137bd604087016131dc565b5f5f6040838503121561391e575f5ffd5b50508035926020909101359150565b5f5f5f6060848603121561393f575f5ffd5b833592506020840135915060408401356001600160401b038111156135bd575f5ffd5b6001600160a01b0384168152602080820184905260606040830181905283519083018190525f918401906080840190835b81811015610d22578351835260209384019390920191600101613993565b5f5f5f5f5f5f60c087890312156139c6575f5ffd5b863595506139d6602088016131dc565b94506139e4604088016131dc565b935060608701356001600160401b038111156139fe575f5ffd5b613a0a89828a016132b7565b93505060808701356001600160401b03811115613a25575f5ffd5b613a3189828a016132b7565b92505060a08701356001600160401b03811115613a4c575f5ffd5b613a5889828a016132b7565b9150509295509295509295565b60208082526018908201527f70726f6a656374496420646f6573206e6f742065786973740000000000000000604082015260600190565b600181811c90821680613ab057607f821691505b602082108103613ace57634e487b7160e01b5f52602260045260245ffd5b50919050565b601f821115610eaa57805f5260205f20601f840160051c81016020851015613af95750805b601f840160051c820191505b81811015613b18575f8155600101613b05565b5050505050565b6001600160401b03831115613b3657613b36613273565b613b4a83613b448354613a9c565b83613ad4565b5f601f841160018114613b7b575f8515613b645750838201355b5f19600387901b1c1916600186901b178355613b18565b5f83815260208120601f198716915b82811015613baa5786850135825560209485019460019092019101613b8a565b5086821015613bc6575f1960f88860031b161c19848701351681555b505060018560011b0183555050505050565b6001600160a01b038581168252841660208201526080604082018190525f90613c039083018561344b565b8281036060840152610c3b818561344b565b81516001600160401b03811115613c2e57613c2e613273565b613c4281613c3c8454613a9c565b84613ad4565b6020601f821160018114613c74575f8315613c5d5750848201515b5f19600385901b1c1916600184901b178455613b18565b5f84815260208120601f198516915b82811015613ca35787850151825560209485019460019092019101613c83565b5084821015613cc057868401515f19600387901b60f8161c191681555b50505050600190811b01905550565b634e487b7160e01b5f52603260045260245ffd5b6001600160a01b03868116825285811660208301528416604082015260a0606082018190525f90613d169083018561344b565b8281036080840152611339818561344b565b634e487b7160e01b5f52601160045260245ffd5b80820180821115610c0d57610c0d613d28565b60208082526018908201527f72657175657374494420646f6573206e6f742065786973740000000000000000604082015260600190565b6001600160a01b03831681526040602082018190525f906112479083018461344b565b6001600160a01b03841681526060602082018190525f90613dcc9083018561344b565b828103604084015261166f818561344b565b5f60018201613def57613def613d28565b5060010190565b5f60208284031215613e06575f5ffd5b5051919050565b5f81518060208401855e5f93019283525090919050565b8481526001600160601b03198460601b1660208201525f613e486034830185613e0d565b92835250506020019392505050565b8581526001600160601b03198560601b1660208201525f613e7b6034830186613e0d565b938452505060208201526040019392505050565b8681526001600160601b03198660601b1660208201525f613eb36034830187613e0d565b9485525050602083019190915260408201526060019392505050565b8082028115828204841417610c0d57610c0d613d28565b81810381811115610c0d57610c0d613d28565b5f82613f1357634e487b7160e01b5f52601260045260245ffd5b500490565b5f6110438284613e0d56fea16a46d94261c7517cc8ff89f61c0ce93598e3c849801011dee649a6a557d100360894a13ba1a3210667c828492db98dca3e2076cc3735a920a3ca505d382bbc065b3b95166dc6cadb255ba57b9623fa09d0519437b43d13dbd0d7f7a5ee9b76a2646970667358221220b8ee31cec772b3d29e1dd968583be4f921ddf292a1d204d7692dcf2cfd66351764736f6c634300081c0033","linkReferences":{}},"methodIdentifiers":{"DEPLOYMENT_REQUEST_TYPEHASH()":"31f4f12d","PROPOSAL_REQUEST_TYPEHASH()":"7b31d6f6","SIGNING_DOMAIN()":"e3faad94","UPGRADE_INTERFACE_VERSION()":"ad3cb1cc","VERSION()":"ffa1ad74","createDeploymentRequest(bytes32,address,string,string)":"7371498c","createDeploymentRequestWithSig(bytes32,address,string,string,bytes)":"934e218c","createMultipleDeploymentRequest(bytes32,address,address,string[],string)":"a6cda351","createPrivateDeploymentRequest(bytes32,address,address,string,string)":"bae7e16c","createPrivateDeploymentRequestWithSig(bytes32,address,address,string,string,bytes)":"e2ec525c","createPrivateProposalRequest(bytes32,address,string,string)":"59617ef7","createProjectID()":"2ae189d8","createProjectIDAndDeploymentRequest(bytes32,string,string)":"c4845f5f","createProjectIDAndDeploymentRequestWithSig(bytes32,string,string,bytes)":"4ce354f0","createProjectIDAndPrivateDeploymentRequest(bytes32,string,address,string)":"7ce53f49","createProjectIDAndPrivateDeploymentRequestWithSig(bytes32,string,address,string,bytes)":"9a7d9ce2","createProjectIDAndProposalRequest(bytes32,string,string)":"924b2a2a","createProjectIDAndProposalRequestWithSig(bytes32,string,string,bytes)":"5516fe1d","createProjectIdAndPrivateDeploymentWithConfig(bytes32,string,address,string)":"b83b4315","createProposalRequest(bytes32,string,string)":"84717e90","createProposalRequestWithSig(bytes32,string,string,bytes)":"2943f3eb","deploymentIdList(bytes32,uint256)":"d2a0c275","dummyAddress()":"05b38312","eip712Domain()":"84b0196e","factor()":"54f703f8","getAddress()":"38cc4831","getDeploymentProof(bytes32)":"4b6680de","getDeploymentStatus(bytes32)":"09470536","getEIP712ContractAddress()":"c3a1ae27","getLatestDeploymentRequestID(address)":"b9bb7135","getLatestProposalRequestID(address)":"f11d3675","getLatestUserProjectID(address)":"ce1b4ff5","getProjectInfo(bytes32)":"e0566833","getReputation(address)":"9c89a0e2","getRequestDeploymentDigest(bytes32,string,string)":"62bd459c","getRequestProposalDigest(bytes32,string,string)":"c03044f3","getSignerAddress(bytes32,bytes)":"0f7d8e39","getWorkerAddresses()":"39c12636","getWorkerPublicKey(address)":"4caafee2","initialize()":"8129fc1c","latestDeploymentRequestID(address)":"078ebeae","latestProjectID(address)":"56ed8752","latestProposalRequestID(address)":"822c737a","owner()":"8da5cb5b","proxiableUUID()":"52d1902d","renounceOwnership()":"715018a6","requestDeploymentStatus(bytes32)":"fcc82939","setWorkerPublicKey(bytes)":"4bcaa626","solverReputation(address)":"ed3c95c0","submitDeploymentRequest(bytes32,bytes32)":"be539d3f","submitProofOfDeployment(bytes32,bytes32,string)":"e128fced","totalDeploymentRequest()":"83c49efa","totalProposalRequest()":"a97bedfe","transferOwnership(address)":"f2fde38b","updateWorkerDeploymentConfig(bytes32,bytes32,string)":"c68a7e32","upgradeProject(bytes32)":"3550753c","upgradeToAndCall(address,bytes)":"4f1ef286","workerReputation(address)":"08a101b8"},"storageLayout":{"storage":[{"astId":51810,"contract":"src/BlueprintV3.sol:BlueprintV3","label":"VERSION","offset":0,"slot":"0","type":"t_string_storage"},{"astId":51812,"contract":"src/BlueprintV3.sol:BlueprintV3","label":"factor","offset":0,"slot":"1","type":"t_uint256"},{"astId":51814,"contract":"src/BlueprintV3.sol:BlueprintV3","label":"totalProposalRequest","offset":0,"slot":"2","type":"t_uint256"},{"astId":51816,"contract":"src/BlueprintV3.sol:BlueprintV3","label":"totalDeploymentRequest","offset":0,"slot":"3","type":"t_uint256"},{"astId":51820,"contract":"src/BlueprintV3.sol:BlueprintV3","label":"latestProposalRequestID","offset":0,"slot":"4","type":"t_mapping(t_address,t_bytes32)"},{"astId":51824,"contract":"src/BlueprintV3.sol:BlueprintV3","label":"latestDeploymentRequestID","offset":0,"slot":"5","type":"t_mapping(t_address,t_bytes32)"},{"astId":51828,"contract":"src/BlueprintV3.sol:BlueprintV3","label":"latestProjectID","offset":0,"slot":"6","type":"t_mapping(t_address,t_bytes32)"},{"astId":51832,"contract":"src/BlueprintV3.sol:BlueprintV3","label":"solverReputation","offset":0,"slot":"7","type":"t_mapping(t_address,t_uint256)"},{"astId":51836,"contract":"src/BlueprintV3.sol:BlueprintV3","label":"workerReputation","offset":0,"slot":"8","type":"t_mapping(t_address,t_uint256)"},{"astId":51841,"contract":"src/BlueprintV3.sol:BlueprintV3","label":"requestDeploymentStatus","offset":0,"slot":"9","type":"t_mapping(t_bytes32,t_struct(DeploymentStatus)51808_storage)"},{"astId":51845,"contract":"src/BlueprintV3.sol:BlueprintV3","label":"deploymentProof","offset":0,"slot":"10","type":"t_mapping(t_bytes32,t_string_storage)"},{"astId":51849,"contract":"src/BlueprintV3.sol:BlueprintV3","label":"requestSolver","offset":0,"slot":"11","type":"t_mapping(t_bytes32,t_address)"},{"astId":51853,"contract":"src/BlueprintV3.sol:BlueprintV3","label":"requestWorker","offset":0,"slot":"12","type":"t_mapping(t_bytes32,t_address)"},{"astId":51857,"contract":"src/BlueprintV3.sol:BlueprintV3","label":"projectIDs","offset":0,"slot":"13","type":"t_mapping(t_bytes32,t_address)"},{"astId":51877,"contract":"src/BlueprintV3.sol:BlueprintV3","label":"projects","offset":0,"slot":"14","type":"t_mapping(t_bytes32,t_struct(Project)51866_storage)"},{"astId":51882,"contract":"src/BlueprintV3.sol:BlueprintV3","label":"deploymentIdList","offset":0,"slot":"15","type":"t_mapping(t_bytes32,t_array(t_bytes32)dyn_storage)"},{"astId":51885,"contract":"src/BlueprintV3.sol:BlueprintV3","label":"workerAddresses","offset":0,"slot":"16","type":"t_array(t_address)dyn_storage"},{"astId":51889,"contract":"src/BlueprintV3.sol:BlueprintV3","label":"workersPublicKey","offset":0,"slot":"17","type":"t_mapping(t_address,t_bytes_storage)"}],"types":{"t_address":{"encoding":"inplace","label":"address","numberOfBytes":"20"},"t_array(t_address)dyn_storage":{"encoding":"dynamic_array","label":"address[]","numberOfBytes":"32","base":"t_address"},"t_array(t_bytes32)dyn_storage":{"encoding":"dynamic_array","label":"bytes32[]","numberOfBytes":"32","base":"t_bytes32"},"t_bytes32":{"encoding":"inplace","label":"bytes32","numberOfBytes":"32"},"t_bytes_storage":{"encoding":"bytes","label":"bytes","numberOfBytes":"32"},"t_enum(Status)51802":{"encoding":"inplace","label":"enum Blueprint.Status","numberOfBytes":"1"},"t_mapping(t_address,t_bytes32)":{"encoding":"mapping","key":"t_address","label":"mapping(address => bytes32)","numberOfBytes":"32","value":"t_bytes32"},"t_mapping(t_address,t_bytes_storage)":{"encoding":"mapping","key":"t_address","label":"mapping(address => bytes)","numberOfBytes":"32","value":"t_bytes_storage"},"t_mapping(t_address,t_uint256)":{"encoding":"mapping","key":"t_address","label":"mapping(address => uint256)","numberOfBytes":"32","value":"t_uint256"},"t_mapping(t_bytes32,t_address)":{"encoding":"mapping","key":"t_bytes32","label":"mapping(bytes32 => address)","numberOfBytes":"32","value":"t_address"},"t_mapping(t_bytes32,t_array(t_bytes32)dyn_storage)":{"encoding":"mapping","key":"t_bytes32","label":"mapping(bytes32 => bytes32[])","numberOfBytes":"32","value":"t_array(t_bytes32)dyn_storage"},"t_mapping(t_bytes32,t_string_storage)":{"encoding":"mapping","key":"t_bytes32","label":"mapping(bytes32 => string)","numberOfBytes":"32","value":"t_string_storage"},"t_mapping(t_bytes32,t_struct(DeploymentStatus)51808_storage)":{"encoding":"mapping","key":"t_bytes32","label":"mapping(bytes32 => struct Blueprint.DeploymentStatus)","numberOfBytes":"32","value":"t_struct(DeploymentStatus)51808_storage"},"t_mapping(t_bytes32,t_struct(Project)51866_storage)":{"encoding":"mapping","key":"t_bytes32","label":"mapping(bytes32 => struct Blueprint.Project)","numberOfBytes":"32","value":"t_struct(Project)51866_storage"},"t_string_storage":{"encoding":"bytes","label":"string","numberOfBytes":"32"},"t_struct(DeploymentStatus)51808_storage":{"encoding":"inplace","label":"struct Blueprint.DeploymentStatus","numberOfBytes":"32","members":[{"astId":51805,"contract":"src/BlueprintV3.sol:BlueprintV3","label":"status","offset":0,"slot":"0","type":"t_enum(Status)51802"},{"astId":51807,"contract":"src/BlueprintV3.sol:BlueprintV3","label":"deployWorkerAddr","offset":1,"slot":"0","type":"t_address"}]},"t_struct(Project)51866_storage":{"encoding":"inplace","label":"struct Blueprint.Project","numberOfBytes":"128","members":[{"astId":51859,"contract":"src/BlueprintV3.sol:BlueprintV3","label":"id","offset":0,"slot":"0","type":"t_bytes32"},{"astId":51861,"contract":"src/BlueprintV3.sol:BlueprintV3","label":"requestProposalID","offset":0,"slot":"1","type":"t_bytes32"},{"astId":51863,"contract":"src/BlueprintV3.sol:BlueprintV3","label":"requestDeploymentID","offset":0,"slot":"2","type":"t_bytes32"},{"astId":51865,"contract":"src/BlueprintV3.sol:BlueprintV3","label":"proposedSolverAddr","offset":0,"slot":"3","type":"t_address"}]},"t_uint256":{"encoding":"inplace","label":"uint256","numberOfBytes":"32"}}},"id":65}