{"abi":[{"type":"function","name":"CREATE_AGENT_OP","inputs":[],"outputs":[{"name":"","type":"string","internalType":"string"}],"stateMutability":"view"},{"type":"function","name":"CREATE_AGENT_WITH_NFT_TYPEHASH","inputs":[],"outputs":[{"name":"","type":"bytes32","internalType":"bytes32"}],"stateMutability":"view"},{"type":"function","name":"CREATE_AGENT_WITH_TOKEN_TYPEHASH","inputs":[],"outputs":[{"name":"","type":"bytes32","internalType":"bytes32"}],"stateMutability":"view"},{"type":"function","name":"DEPLOYMENT_REQUEST_TYPEHASH","inputs":[],"outputs":[{"name":"","type":"bytes32","internalType":"bytes32"}],"stateMutability":"view"},{"type":"function","name":"PAYMENT_KEY","inputs":[],"outputs":[{"name":"","type":"string","internalType":"string"}],"stateMutability":"view"},{"type":"function","name":"PROPOSAL_REQUEST_TYPEHASH","inputs":[],"outputs":[{"name":"","type":"bytes32","internalType":"bytes32"}],"stateMutability":"view"},{"type":"function","name":"RESET_DEPLOYMENT_REQUEST_TYPEHASH","inputs":[],"outputs":[{"name":"","type":"bytes32","internalType":"bytes32"}],"stateMutability":"view"},{"type":"function","name":"SIGNING_DOMAIN","inputs":[],"outputs":[{"name":"","type":"string","internalType":"string"}],"stateMutability":"view"},{"type":"function","name":"UPDATE_AGENT_OP","inputs":[],"outputs":[{"name":"","type":"string","internalType":"string"}],"stateMutability":"view"},{"type":"function","name":"UPDATE_WORKER_CONFIG_TYPEHASH","inputs":[],"outputs":[{"name":"","type":"bytes32","internalType":"bytes32"}],"stateMutability":"view"},{"type":"function","name":"UPGRADE_INTERFACE_VERSION","inputs":[],"outputs":[{"name":"","type":"string","internalType":"string"}],"stateMutability":"view"},{"type":"function","name":"VERSION","inputs":[],"outputs":[{"name":"","type":"string","internalType":"string"}],"stateMutability":"view"},{"type":"function","name":"addPaymentAddress","inputs":[{"name":"paymentAddress","type":"address","internalType":"address"}],"outputs":[],"stateMutability":"nonpayable"},{"type":"function","name":"checkNFTOwnership","inputs":[{"name":"nftTokenAddress","type":"address","internalType":"address"},{"name":"nftId","type":"uint256","internalType":"uint256"},{"name":"userAddress","type":"address","internalType":"address"}],"outputs":[{"name":"","type":"bool","internalType":"bool"}],"stateMutability":"view"},{"type":"function","name":"createAgentWithNFT","inputs":[{"name":"projectId","type":"bytes32","internalType":"bytes32"},{"name":"base64Proposal","type":"string","internalType":"string"},{"name":"privateWorkerAddress","type":"address","internalType":"address"},{"name":"serverURL","type":"string","internalType":"string"},{"name":"tokenId","type":"uint256","internalType":"uint256"}],"outputs":[{"name":"requestID","type":"bytes32","internalType":"bytes32"}],"stateMutability":"nonpayable"},{"type":"function","name":"createAgentWithSigWithNFT","inputs":[{"name":"projectId","type":"bytes32","internalType":"bytes32"},{"name":"base64Proposal","type":"string","internalType":"string"},{"name":"privateWorkerAddress","type":"address","internalType":"address"},{"name":"serverURL","type":"string","internalType":"string"},{"name":"signature","type":"bytes","internalType":"bytes"},{"name":"tokenId","type":"uint256","internalType":"uint256"}],"outputs":[{"name":"requestID","type":"bytes32","internalType":"bytes32"}],"stateMutability":"nonpayable"},{"type":"function","name":"createAgentWithToken","inputs":[{"name":"projectId","type":"bytes32","internalType":"bytes32"},{"name":"base64Proposal","type":"string","internalType":"string"},{"name":"privateWorkerAddress","type":"address","internalType":"address"},{"name":"serverURL","type":"string","internalType":"string"},{"name":"tokenAddress","type":"address","internalType":"address"}],"outputs":[{"name":"requestID","type":"bytes32","internalType":"bytes32"}],"stateMutability":"payable"},{"type":"function","name":"createAgentWithTokenWithSig","inputs":[{"name":"projectId","type":"bytes32","internalType":"bytes32"},{"name":"base64Proposal","type":"string","internalType":"string"},{"name":"privateWorkerAddress","type":"address","internalType":"address"},{"name":"serverURL","type":"string","internalType":"string"},{"name":"tokenAddress","type":"address","internalType":"address"},{"name":"signature","type":"bytes","internalType":"bytes"}],"outputs":[{"name":"requestID","type":"bytes32","internalType":"bytes32"}],"stateMutability":"payable"},{"type":"function","name":"createProjectID","inputs":[],"outputs":[{"name":"projectId","type":"bytes32","internalType":"bytes32"}],"stateMutability":"nonpayable"},{"type":"function","name":"createProjectIDAndDeploymentRequest","inputs":[{"name":"projectId","type":"bytes32","internalType":"bytes32"},{"name":"base64Proposal","type":"string","internalType":"string"},{"name":"serverURL","type":"string","internalType":"string"}],"outputs":[{"name":"requestID","type":"bytes32","internalType":"bytes32"}],"stateMutability":"nonpayable"},{"type":"function","name":"createProjectIDAndDeploymentRequestWithSig","inputs":[{"name":"projectId","type":"bytes32","internalType":"bytes32"},{"name":"base64Proposal","type":"string","internalType":"string"},{"name":"serverURL","type":"string","internalType":"string"},{"name":"signature","type":"bytes","internalType":"bytes"}],"outputs":[{"name":"requestID","type":"bytes32","internalType":"bytes32"}],"stateMutability":"nonpayable"},{"type":"function","name":"createProjectIDAndPrivateDeploymentRequest","inputs":[{"name":"projectId","type":"bytes32","internalType":"bytes32"},{"name":"base64Proposal","type":"string","internalType":"string"},{"name":"privateWorkerAddress","type":"address","internalType":"address"},{"name":"serverURL","type":"string","internalType":"string"}],"outputs":[{"name":"requestID","type":"bytes32","internalType":"bytes32"}],"stateMutability":"nonpayable"},{"type":"function","name":"creditReward","inputs":[{"name":"userAddress","type":"address","internalType":"address"},{"name":"amount","type":"uint256","internalType":"uint256"}],"outputs":[],"stateMutability":"nonpayable"},{"type":"function","name":"deploymentIdList","inputs":[{"name":"","type":"bytes32","internalType":"bytes32"},{"name":"","type":"uint256","internalType":"uint256"}],"outputs":[{"name":"","type":"bytes32","internalType":"bytes32"}],"stateMutability":"view"},{"type":"function","name":"dummyAddress","inputs":[],"outputs":[{"name":"","type":"address","internalType":"address"}],"stateMutability":"view"},{"type":"function","name":"eip712Domain","inputs":[],"outputs":[{"name":"fields","type":"bytes1","internalType":"bytes1"},{"name":"name","type":"string","internalType":"string"},{"name":"version","type":"string","internalType":"string"},{"name":"chainId","type":"uint256","internalType":"uint256"},{"name":"verifyingContract","type":"address","internalType":"address"},{"name":"salt","type":"bytes32","internalType":"bytes32"},{"name":"extensions","type":"uint256[]","internalType":"uint256[]"}],"stateMutability":"view"},{"type":"function","name":"factor","inputs":[],"outputs":[{"name":"","type":"uint256","internalType":"uint256"}],"stateMutability":"view"},{"type":"function","name":"feeCollectionWalletAddress","inputs":[],"outputs":[{"name":"","type":"address","internalType":"address"}],"stateMutability":"view"},{"type":"function","name":"getAddress","inputs":[],"outputs":[{"name":"","type":"address","internalType":"address"}],"stateMutability":"view"},{"type":"function","name":"getCreateAgentWithNFTDigest","inputs":[{"name":"projectId","type":"bytes32","internalType":"bytes32"},{"name":"base64RecParam","type":"string","internalType":"string"},{"name":"serverURL","type":"string","internalType":"string"},{"name":"privateWorkerAddress","type":"address","internalType":"address"},{"name":"tokenId","type":"uint256","internalType":"uint256"}],"outputs":[{"name":"","type":"bytes32","internalType":"bytes32"}],"stateMutability":"view"},{"type":"function","name":"getCreateAgentWithTokenDigest","inputs":[{"name":"projectId","type":"bytes32","internalType":"bytes32"},{"name":"base64RecParam","type":"string","internalType":"string"},{"name":"serverURL","type":"string","internalType":"string"},{"name":"privateWorkerAddress","type":"address","internalType":"address"},{"name":"tokenAddress","type":"address","internalType":"address"}],"outputs":[{"name":"","type":"bytes32","internalType":"bytes32"}],"stateMutability":"view"},{"type":"function","name":"getDeploymentProof","inputs":[{"name":"requestID","type":"bytes32","internalType":"bytes32"}],"outputs":[{"name":"","type":"string","internalType":"string"}],"stateMutability":"view"},{"type":"function","name":"getDeploymentStatus","inputs":[{"name":"requestID","type":"bytes32","internalType":"bytes32"}],"outputs":[{"name":"","type":"uint8","internalType":"enum BlueprintCore.Status"},{"name":"","type":"address","internalType":"address"}],"stateMutability":"view"},{"type":"function","name":"getEIP712ContractAddress","inputs":[],"outputs":[{"name":"","type":"address","internalType":"address"}],"stateMutability":"view"},{"type":"function","name":"getLatestDeploymentRequestID","inputs":[{"name":"addr","type":"address","internalType":"address"}],"outputs":[{"name":"","type":"bytes32","internalType":"bytes32"}],"stateMutability":"view"},{"type":"function","name":"getLatestProposalRequestID","inputs":[{"name":"addr","type":"address","internalType":"address"}],"outputs":[{"name":"","type":"bytes32","internalType":"bytes32"}],"stateMutability":"view"},{"type":"function","name":"getLatestUserProjectID","inputs":[{"name":"addr","type":"address","internalType":"address"}],"outputs":[{"name":"","type":"bytes32","internalType":"bytes32"}],"stateMutability":"view"},{"type":"function","name":"getPaymentAddresses","inputs":[],"outputs":[{"name":"","type":"address[]","internalType":"address[]"}],"stateMutability":"view"},{"type":"function","name":"getProjectInfo","inputs":[{"name":"projectId","type":"bytes32","internalType":"bytes32"}],"outputs":[{"name":"","type":"address","internalType":"address"},{"name":"","type":"bytes32","internalType":"bytes32"},{"name":"","type":"bytes32[]","internalType":"bytes32[]"}],"stateMutability":"view"},{"type":"function","name":"getRequestDeploymentDigest","inputs":[{"name":"projectId","type":"bytes32","internalType":"bytes32"},{"name":"base64RecParam","type":"string","internalType":"string"},{"name":"serverURL","type":"string","internalType":"string"}],"outputs":[{"name":"","type":"bytes32","internalType":"bytes32"}],"stateMutability":"view"},{"type":"function","name":"getRequestProposalDigest","inputs":[{"name":"projectId","type":"bytes32","internalType":"bytes32"},{"name":"base64RecParam","type":"string","internalType":"string"},{"name":"serverURL","type":"string","internalType":"string"}],"outputs":[{"name":"","type":"bytes32","internalType":"bytes32"}],"stateMutability":"view"},{"type":"function","name":"getRequestResetDeploymentDigest","inputs":[{"name":"projectId","type":"bytes32","internalType":"bytes32"},{"name":"requestID","type":"bytes32","internalType":"bytes32"},{"name":"workerAddress","type":"address","internalType":"address"},{"name":"updatedBase64Config","type":"string","internalType":"string"},{"name":"nonce","type":"uint256","internalType":"uint256"}],"outputs":[{"name":"","type":"bytes32","internalType":"bytes32"}],"stateMutability":"view"},{"type":"function","name":"getSignerAddress","inputs":[{"name":"hash","type":"bytes32","internalType":"bytes32"},{"name":"signature","type":"bytes","internalType":"bytes"}],"outputs":[{"name":"","type":"address","internalType":"address"}],"stateMutability":"pure"},{"type":"function","name":"getUpdateWorkerConfigDigest","inputs":[{"name":"tokenAddress","type":"address","internalType":"address"},{"name":"projectId","type":"bytes32","internalType":"bytes32"},{"name":"requestID","type":"bytes32","internalType":"bytes32"},{"name":"updatedBase64Config","type":"string","internalType":"string"},{"name":"nonce","type":"uint256","internalType":"uint256"}],"outputs":[{"name":"","type":"bytes32","internalType":"bytes32"}],"stateMutability":"view"},{"type":"function","name":"getUserNonce","inputs":[{"name":"userAddress","type":"address","internalType":"address"}],"outputs":[{"name":"","type":"uint256","internalType":"uint256"}],"stateMutability":"view"},{"type":"function","name":"getWorkerAddresses","inputs":[],"outputs":[{"name":"","type":"address[]","internalType":"address[]"}],"stateMutability":"view"},{"type":"function","name":"getWorkerPublicKey","inputs":[{"name":"workerAddress","type":"address","internalType":"address"}],"outputs":[{"name":"publicKey","type":"bytes","internalType":"bytes"}],"stateMutability":"view"},{"type":"function","name":"initialize","inputs":[],"outputs":[],"stateMutability":"nonpayable"},{"type":"function","name":"isWhitelistUser","inputs":[{"name":"userAddress","type":"address","internalType":"address"}],"outputs":[{"name":"","type":"bool","internalType":"bool"}],"stateMutability":"view"},{"type":"function","name":"latestDeploymentRequestID","inputs":[{"name":"","type":"address","internalType":"address"}],"outputs":[{"name":"","type":"bytes32","internalType":"bytes32"}],"stateMutability":"view"},{"type":"function","name":"latestProjectID","inputs":[{"name":"","type":"address","internalType":"address"}],"outputs":[{"name":"","type":"bytes32","internalType":"bytes32"}],"stateMutability":"view"},{"type":"function","name":"latestProposalRequestID","inputs":[{"name":"","type":"address","internalType":"address"}],"outputs":[{"name":"","type":"bytes32","internalType":"bytes32"}],"stateMutability":"view"},{"type":"function","name":"nftContractAddress","inputs":[],"outputs":[{"name":"","type":"address","internalType":"address"}],"stateMutability":"view"},{"type":"function","name":"nftTokenIdMap","inputs":[{"name":"","type":"uint256","internalType":"uint256"}],"outputs":[{"name":"","type":"uint8","internalType":"enum BlueprintCore.Status"}],"stateMutability":"view"},{"type":"function","name":"owner","inputs":[],"outputs":[{"name":"","type":"address","internalType":"address"}],"stateMutability":"view"},{"type":"function","name":"paymentAddressEnableMp","inputs":[{"name":"","type":"address","internalType":"address"}],"outputs":[{"name":"","type":"bool","internalType":"bool"}],"stateMutability":"view"},{"type":"function","name":"paymentAddressesMp","inputs":[{"name":"","type":"string","internalType":"string"},{"name":"","type":"uint256","internalType":"uint256"}],"outputs":[{"name":"","type":"address","internalType":"address"}],"stateMutability":"view"},{"type":"function","name":"paymentOpCostMp","inputs":[{"name":"","type":"address","internalType":"address"},{"name":"","type":"string","internalType":"string"}],"outputs":[{"name":"","type":"uint256","internalType":"uint256"}],"stateMutability":"view"},{"type":"function","name":"proxiableUUID","inputs":[],"outputs":[{"name":"","type":"bytes32","internalType":"bytes32"}],"stateMutability":"view"},{"type":"function","name":"removePaymentAddress","inputs":[{"name":"paymentAddress","type":"address","internalType":"address"}],"outputs":[],"stateMutability":"nonpayable"},{"type":"function","name":"removeWhitelistAddresses","inputs":[{"name":"removedAddress","type":"address[]","internalType":"address[]"}],"outputs":[],"stateMutability":"nonpayable"},{"type":"function","name":"renounceOwnership","inputs":[],"outputs":[],"stateMutability":"nonpayable"},{"type":"function","name":"requestDeploymentStatus","inputs":[{"name":"","type":"bytes32","internalType":"bytes32"}],"outputs":[{"name":"status","type":"uint8","internalType":"enum BlueprintCore.Status"},{"name":"deployWorkerAddr","type":"address","internalType":"address"}],"stateMutability":"view"},{"type":"function","name":"requestIDToProjectID","inputs":[{"name":"","type":"bytes32","internalType":"bytes32"}],"outputs":[{"name":"","type":"bytes32","internalType":"bytes32"}],"stateMutability":"view"},{"type":"function","name":"resetDeploymentRequest","inputs":[{"name":"projectId","type":"bytes32","internalType":"bytes32"},{"name":"requestID","type":"bytes32","internalType":"bytes32"},{"name":"workerAddress","type":"address","internalType":"address"},{"name":"base64Proposal","type":"string","internalType":"string"},{"name":"serverURL","type":"string","internalType":"string"}],"outputs":[],"stateMutability":"nonpayable"},{"type":"function","name":"resetDeploymentRequestWithSig","inputs":[{"name":"projectId","type":"bytes32","internalType":"bytes32"},{"name":"requestID","type":"bytes32","internalType":"bytes32"},{"name":"workerAddress","type":"address","internalType":"address"},{"name":"base64Proposal","type":"string","internalType":"string"},{"name":"serverURL","type":"string","internalType":"string"},{"name":"signature","type":"bytes","internalType":"bytes"}],"outputs":[],"stateMutability":"nonpayable"},{"type":"function","name":"resetWorkers","inputs":[],"outputs":[],"stateMutability":"nonpayable"},{"type":"function","name":"setCreateAgentTokenCost","inputs":[{"name":"paymentAddress","type":"address","internalType":"address"},{"name":"cost","type":"uint256","internalType":"uint256"}],"outputs":[],"stateMutability":"nonpayable"},{"type":"function","name":"setFeeCollectionWalletAddress","inputs":[{"name":"_feeCollectionWalletAddress","type":"address","internalType":"address"}],"outputs":[],"stateMutability":"nonpayable"},{"type":"function","name":"setNFTContractAddress","inputs":[{"name":"_nftContractAddress","type":"address","internalType":"address"}],"outputs":[],"stateMutability":"nonpayable"},{"type":"function","name":"setUpdateCreateAgentTokenCost","inputs":[{"name":"paymentAddress","type":"address","internalType":"address"},{"name":"cost","type":"uint256","internalType":"uint256"}],"outputs":[],"stateMutability":"nonpayable"},{"type":"function","name":"setWhitelistAddresses","inputs":[{"name":"whitelistAddress","type":"address[]","internalType":"address[]"}],"outputs":[],"stateMutability":"nonpayable"},{"type":"function","name":"setWorkerAdmin","inputs":[{"name":"_workerAdmin","type":"address","internalType":"address"}],"outputs":[],"stateMutability":"nonpayable"},{"type":"function","name":"setWorkerPublicKey","inputs":[{"name":"publicKey","type":"bytes","internalType":"bytes"}],"outputs":[],"stateMutability":"nonpayable"},{"type":"function","name":"solverReputation","inputs":[{"name":"","type":"address","internalType":"address"}],"outputs":[{"name":"","type":"uint256","internalType":"uint256"}],"stateMutability":"view"},{"type":"function","name":"submitDeploymentRequest","inputs":[{"name":"projectId","type":"bytes32","internalType":"bytes32"},{"name":"requestID","type":"bytes32","internalType":"bytes32"}],"outputs":[{"name":"isAccepted","type":"bool","internalType":"bool"}],"stateMutability":"nonpayable"},{"type":"function","name":"submitProofOfDeployment","inputs":[{"name":"projectId","type":"bytes32","internalType":"bytes32"},{"name":"requestID","type":"bytes32","internalType":"bytes32"},{"name":"proofBase64","type":"string","internalType":"string"}],"outputs":[],"stateMutability":"nonpayable"},{"type":"function","name":"totalDeploymentRequest","inputs":[],"outputs":[{"name":"","type":"uint256","internalType":"uint256"}],"stateMutability":"view"},{"type":"function","name":"totalProposalRequest","inputs":[],"outputs":[{"name":"","type":"uint256","internalType":"uint256"}],"stateMutability":"view"},{"type":"function","name":"transferOwnership","inputs":[{"name":"newOwner","type":"address","internalType":"address"}],"outputs":[],"stateMutability":"nonpayable"},{"type":"function","name":"trustWorkerMp","inputs":[{"name":"","type":"address","internalType":"address"}],"outputs":[{"name":"","type":"bool","internalType":"bool"}],"stateMutability":"view"},{"type":"function","name":"updateWorker","inputs":[{"name":"workerAddress","type":"address","internalType":"address"},{"name":"isTrusted","type":"bool","internalType":"bool"}],"outputs":[],"stateMutability":"nonpayable"},{"type":"function","name":"updateWorkerDeploymentConfig","inputs":[{"name":"tokenAddress","type":"address","internalType":"address"},{"name":"projectId","type":"bytes32","internalType":"bytes32"},{"name":"requestID","type":"bytes32","internalType":"bytes32"},{"name":"updatedBase64Config","type":"string","internalType":"string"}],"outputs":[],"stateMutability":"payable"},{"type":"function","name":"updateWorkerDeploymentConfigWithSig","inputs":[{"name":"tokenAddress","type":"address","internalType":"address"},{"name":"projectId","type":"bytes32","internalType":"bytes32"},{"name":"requestID","type":"bytes32","internalType":"bytes32"},{"name":"updatedBase64Config","type":"string","internalType":"string"},{"name":"signature","type":"bytes","internalType":"bytes"}],"outputs":[],"stateMutability":"payable"},{"type":"function","name":"upgradeToAndCall","inputs":[{"name":"newImplementation","type":"address","internalType":"address"},{"name":"data","type":"bytes","internalType":"bytes"}],"outputs":[],"stateMutability":"payable"},{"type":"function","name":"userTopUp","inputs":[{"name":"tokenAddress","type":"address","internalType":"address"},{"name":"amount","type":"uint256","internalType":"uint256"}],"outputs":[],"stateMutability":"payable"},{"type":"function","name":"userTopUpMp","inputs":[{"name":"","type":"address","internalType":"address"},{"name":"","type":"address","internalType":"address"}],"outputs":[{"name":"","type":"uint256","internalType":"uint256"}],"stateMutability":"view"},{"type":"function","name":"userTopUpOther","inputs":[{"name":"userAddress","type":"address","internalType":"address"},{"name":"tokenAddress","type":"address","internalType":"address"},{"name":"amount","type":"uint256","internalType":"uint256"}],"outputs":[],"stateMutability":"payable"},{"type":"function","name":"whitelistUsers","inputs":[{"name":"","type":"address","internalType":"address"}],"outputs":[{"name":"","type":"uint8","internalType":"enum BlueprintCore.Status"}],"stateMutability":"view"},{"type":"function","name":"workerAdmin","inputs":[],"outputs":[{"name":"","type":"address","internalType":"address"}],"stateMutability":"view"},{"type":"function","name":"workerReputation","inputs":[{"name":"","type":"address","internalType":"address"}],"outputs":[{"name":"","type":"uint256","internalType":"uint256"}],"stateMutability":"view"},{"type":"event","name":"AcceptDeployment","inputs":[{"name":"projectID","type":"bytes32","indexed":true,"internalType":"bytes32"},{"name":"requestID","type":"bytes32","indexed":true,"internalType":"bytes32"},{"name":"workerAddress","type":"address","indexed":true,"internalType":"address"}],"anonymous":false},{"type":"event","name":"CreateAgent","inputs":[{"name":"projectID","type":"bytes32","indexed":true,"internalType":"bytes32"},{"name":"requestID","type":"bytes32","indexed":true,"internalType":"bytes32"},{"name":"walletAddress","type":"address","indexed":false,"internalType":"address"},{"name":"nftTokenId","type":"uint256","indexed":false,"internalType":"uint256"},{"name":"amount","type":"uint256","indexed":false,"internalType":"uint256"}],"anonymous":false},{"type":"event","name":"CreateAgentTokenCost","inputs":[{"name":"paymentAddress","type":"address","indexed":false,"internalType":"address"},{"name":"cost","type":"uint256","indexed":false,"internalType":"uint256"}],"anonymous":false},{"type":"event","name":"CreateProjectID","inputs":[{"name":"projectID","type":"bytes32","indexed":true,"internalType":"bytes32"},{"name":"walletAddress","type":"address","indexed":false,"internalType":"address"}],"anonymous":false},{"type":"event","name":"CreditReward","inputs":[{"name":"userAddress","type":"address","indexed":true,"internalType":"address"},{"name":"amount","type":"uint256","indexed":false,"internalType":"uint256"}],"anonymous":false},{"type":"event","name":"EIP712DomainChanged","inputs":[],"anonymous":false},{"type":"event","name":"FeeCollectionWalletAddress","inputs":[{"name":"feeCollectionWalletAddress","type":"address","indexed":false,"internalType":"address"}],"anonymous":false},{"type":"event","name":"GeneratedProofOfDeployment","inputs":[{"name":"projectID","type":"bytes32","indexed":true,"internalType":"bytes32"},{"name":"requestID","type":"bytes32","indexed":true,"internalType":"bytes32"},{"name":"base64DeploymentProof","type":"string","indexed":false,"internalType":"string"}],"anonymous":false},{"type":"event","name":"Initialized","inputs":[{"name":"version","type":"uint64","indexed":false,"internalType":"uint64"}],"anonymous":false},{"type":"event","name":"OwnershipTransferred","inputs":[{"name":"previousOwner","type":"address","indexed":true,"internalType":"address"},{"name":"newOwner","type":"address","indexed":true,"internalType":"address"}],"anonymous":false},{"type":"event","name":"PaymentAddressAdded","inputs":[{"name":"paymentAddress","type":"address","indexed":false,"internalType":"address"}],"anonymous":false},{"type":"event","name":"RemovePaymentAddress","inputs":[{"name":"paymentAddress","type":"address","indexed":false,"internalType":"address"}],"anonymous":false},{"type":"event","name":"RequestDeployment","inputs":[{"name":"projectID","type":"bytes32","indexed":true,"internalType":"bytes32"},{"name":"walletAddress","type":"address","indexed":false,"internalType":"address"},{"name":"solverAddress","type":"address","indexed":false,"internalType":"address"},{"name":"requestID","type":"bytes32","indexed":true,"internalType":"bytes32"},{"name":"base64Proposal","type":"string","indexed":false,"internalType":"string"},{"name":"serverURL","type":"string","indexed":false,"internalType":"string"}],"anonymous":false},{"type":"event","name":"RequestPrivateDeployment","inputs":[{"name":"projectID","type":"bytes32","indexed":true,"internalType":"bytes32"},{"name":"walletAddress","type":"address","indexed":false,"internalType":"address"},{"name":"privateWorkerAddress","type":"address","indexed":false,"internalType":"address"},{"name":"solverAddress","type":"address","indexed":false,"internalType":"address"},{"name":"requestID","type":"bytes32","indexed":true,"internalType":"bytes32"},{"name":"base64Proposal","type":"string","indexed":false,"internalType":"string"},{"name":"serverURL","type":"string","indexed":false,"internalType":"string"}],"anonymous":false},{"type":"event","name":"RequestPrivateProposal","inputs":[{"name":"projectID","type":"bytes32","indexed":true,"internalType":"bytes32"},{"name":"walletAddress","type":"address","indexed":false,"internalType":"address"},{"name":"privateSolverAddress","type":"address","indexed":false,"internalType":"address"},{"name":"requestID","type":"bytes32","indexed":true,"internalType":"bytes32"},{"name":"base64RecParam","type":"string","indexed":false,"internalType":"string"},{"name":"serverURL","type":"string","indexed":false,"internalType":"string"}],"anonymous":false},{"type":"event","name":"RequestProposal","inputs":[{"name":"projectID","type":"bytes32","indexed":true,"internalType":"bytes32"},{"name":"walletAddress","type":"address","indexed":false,"internalType":"address"},{"name":"requestID","type":"bytes32","indexed":true,"internalType":"bytes32"},{"name":"base64RecParam","type":"string","indexed":false,"internalType":"string"},{"name":"serverURL","type":"string","indexed":false,"internalType":"string"}],"anonymous":false},{"type":"event","name":"SetWorkerAdmin","inputs":[{"name":"workerAdmin","type":"address","indexed":false,"internalType":"address"}],"anonymous":false},{"type":"event","name":"UpdateAgentTokenCost","inputs":[{"name":"paymentAddress","type":"address","indexed":false,"internalType":"address"},{"name":"cost","type":"uint256","indexed":false,"internalType":"uint256"}],"anonymous":false},{"type":"event","name":"UpdateDeploymentConfig","inputs":[{"name":"projectID","type":"bytes32","indexed":true,"internalType":"bytes32"},{"name":"requestID","type":"bytes32","indexed":true,"internalType":"bytes32"},{"name":"workerAddress","type":"address","indexed":false,"internalType":"address"},{"name":"base64Config","type":"string","indexed":false,"internalType":"string"}],"anonymous":false},{"type":"event","name":"UpdateWorker","inputs":[{"name":"workerAddress","type":"address","indexed":false,"internalType":"address"},{"name":"isTrusted","type":"bool","indexed":false,"internalType":"bool"}],"anonymous":false},{"type":"event","name":"Upgraded","inputs":[{"name":"implementation","type":"address","indexed":true,"internalType":"address"}],"anonymous":false},{"type":"event","name":"UserTopUp","inputs":[{"name":"walletAddress","type":"address","indexed":true,"internalType":"address"},{"name":"feeCollectionWalletAddress","type":"address","indexed":false,"internalType":"address"},{"name":"tokenAddress","type":"address","indexed":false,"internalType":"address"},{"name":"amount","type":"uint256","indexed":false,"internalType":"uint256"}],"anonymous":false},{"type":"event","name":"UserTopUpOther","inputs":[{"name":"ownerAddress","type":"address","indexed":true,"internalType":"address"},{"name":"toAddress","type":"address","indexed":true,"internalType":"address"},{"name":"feeCollectionWalletAddress","type":"address","indexed":false,"internalType":"address"},{"name":"tokenAddress","type":"address","indexed":false,"internalType":"address"},{"name":"amount","type":"uint256","indexed":false,"internalType":"uint256"}],"anonymous":false},{"type":"error","name":"AddressEmptyCode","inputs":[{"name":"target","type":"address","internalType":"address"}]},{"type":"error","name":"ECDSAInvalidSignature","inputs":[]},{"type":"error","name":"ECDSAInvalidSignatureLength","inputs":[{"name":"length","type":"uint256","internalType":"uint256"}]},{"type":"error","name":"ECDSAInvalidSignatureS","inputs":[{"name":"s","type":"bytes32","internalType":"bytes32"}]},{"type":"error","name":"ERC1967InvalidImplementation","inputs":[{"name":"implementation","type":"address","internalType":"address"}]},{"type":"error","name":"ERC1967NonPayable","inputs":[]},{"type":"error","name":"FailedCall","inputs":[]},{"type":"error","name":"InvalidInitialization","inputs":[]},{"type":"error","name":"NotInitializing","inputs":[]},{"type":"error","name":"OwnableInvalidOwner","inputs":[{"name":"owner","type":"address","internalType":"address"}]},{"type":"error","name":"OwnableUnauthorizedAccount","inputs":[{"name":"account","type":"address","internalType":"address"}]},{"type":"error","name":"SafeERC20FailedOperation","inputs":[{"name":"token","type":"address","internalType":"address"}]},{"type":"error","name":"UUPSUnauthorizedCallContext","inputs":[]},{"type":"error","name":"UUPSUnsupportedProxiableUUID","inputs":[{"name":"slot","type":"bytes32","internalType":"bytes32"}]}],"bytecode":{"object":"0x60a0806040523460295730608052615c05908161002e82396080518181816125c9015261274f0152f35b5f80fdfe6080806040526004361015610012575f80fd5b5f3560e01c9081630442bb851461385e5750806305b383121461384457806305d10b8f146137d7578063078ebeae1461106c57806308a101b81461379f578063094705361461375a578063094e03bc1461373f5780630e5390c5146136be5780630f7d8e3914613658578063128634e41461361b57806313d32741146135f357806313f2fcd11461353d57806319ea61c4146134bc57806323949cd1146134305780632ae189d8146132b75780632cfde3781461327d57806331f4f12d1461324357806332157c921461313c57806332aceb73146130d1578063356c9a831461309757806338cc483114610d4657806339c126361461307c5780633b10856814612df057806343da75c414612db657806343e84e9f14612c845780634b6680de14612bec5780634bcaa62614612a4f5780634caafee2146129815780634ce354f0146128df5780634f1ef2861461271257806350da8adf14612692578063516add261461261d57806352d1902d146125b757806354f703f81461259a57806356ed875214610c7857806361419044146124e757806362bd459c146124ce578063644a44fb146124b35780636834e3a81461247b5780636ec55dbc1461243b578063715018a6146123d457806376c6062f146123a057806379964547146120be5780637b31d6f6146120845780637ce53f491461201b5780638031be4614611e165780638129fc1c146119ba578063821c8ba114611916578063822c737a146105915780638333f55f1461163457806383471045146115d057806383c49efa146115b357806384b0196e1461150d5780638935e545146114a3578063896b4be91461139f5780638da5cb5b1461136b578063938e8f50146112ad578063984e85f5146112855780639acd2a1a1461124b578063a97bedfe1461122e578063aae282e114611206578063ad3cb1cc146111bf578063af63f49b14611149578063b660f9ff146110f9578063b83921a6146110a4578063b9bb71351461106c578063be539d3f14610e99578063c03044f314610e27578063c13c26eb14610dba578063c347c7e314610d4b578063c3a1ae2714610d46578063c4845f5f14610d2c578063cdb4c7f714610cb0578063ce1b4ff514610c78578063d0d31cc514610c4e578063d2a0c27514610c08578063d800d46b14610b41578063de601e4c14610b26578063e056683314610ab2578063e128fced146107c3578063e3faad94146107a8578063e5e24e8214610759578063e63dee4814610601578063ed3c95c0146105c9578063f11d367514610591578063f2bbea3f14610557578063f2fde38b1461052c578063f52ccc2d146104d0578063fa2b3cf91461047b578063fcc829391461043c5763ffa1ad7414610405575f80fd5b34610438575f36600319011261043857610434610420613c88565b604051918291602083526020830190613a14565b0390f35b5f80fd5b34610438576020366003190112610438576004355f52600960205261043460405f205460405191829160ff60018060a01b038260081c169116836139c8565b346104385760a0366003190112610438576104946138ad565b6064356001600160401b038111610438576020916104b96104c8923690600401613977565b60843591602435600435614761565b604051908152f35b34610438576104de36613b84565b906104e7614c81565b5f5b8281106104f257005b6001906001600160a01b0361051061050b8387876143ed565b6143fd565b165f52601560205260405f208260ff19825416179055016104e9565b3461043857602036600319011261043857610555610548613897565b610550614c81565b6146f0565b005b34610438575f3660031901126104385760206040517f5bc68fd156aade2069ca23fbe8b2b86836f7029d3ed7cf6bd299a45ee514650f8152f35b34610438576020366003190112610438576001600160a01b036105b2613897565b165f526004602052602060405f2054604051908152f35b34610438576020366003190112610438576001600160a01b036105ea613897565b165f526007602052602060405f2054604051908152f35b346104385760203660031901126104385761061a613897565b610622614c81565b6001600160a01b0381165f8181526019602052604090205460ff1661070a575f5b61065361064e613bff565b613b46565b548110156106b357808261067360019361066e61064e613bff565b613bd6565b848060a01b0391549060031b1c161461068d575b01610643565b61069c8161066e61064e613bff565b815490848060a01b039060031b1b19169055610687565b7fa18d3ff16bc484e128eabcf244718e89aadc30bd9708fb720f3109b1415503f36020836106eb866106e661064e613bff565b6141c2565b805f526019825260405f20600160ff19825416179055604051908152a1005b60405162461bcd60e51b815260206004820152602160248201527f5061796d656e7420616464726573732077617320616c726561647920616464656044820152601960fa1b6064820152608490fd5b346104385760a036600319011261043857610772613897565b6064356001600160401b038111610438576020916107976104c8923690600401613977565b608435916044359060243590614684565b34610438575f36600319011261043857610434610420613c28565b34610438576060366003190112610438576024356004356044356001600160401b038111610438576107f9903690600401613977565b815f52600e60205260405f205415801590610a93575b61081890614411565b335f52601e60205261083060ff60405f20541661417e565b825f52600960205260ff60405f2054166006811015610a435761085490151561445d565b825f5260096020523360018060a01b0360405f205460081c1603610a5757825f52600960205260ff60405f2054166006811015610a43576005146109fe576108a461089f8484615630565b614503565b825f52600960205260405f20600560ff19825416179055825f52600a60205260405f2081516001600160401b0381116109ea576108eb816108e58454613c50565b84614219565b6020601f8211600114610964579161093e827fddb29833db778500c94a5880f1a8ad549d91ec7c80faee2b3735bda881fa6d989593610954955f91610959575b508160011b915f199060031b1c19161790565b9055604051918291602083526020830190613a14565b0390a3005b90508401518961092b565b601f19821690835f52805f20915f5b8181106109d25750926109549492600192827fddb29833db778500c94a5880f1a8ad549d91ec7c80faee2b3735bda881fa6d989896106109ba575b5050811b019055610420565b8501515f1960f88460031b161c1916905588806109ae565b9192602060018192868a015181550194019201610973565b634e487b7160e01b5f52604160045260245ffd5b60405162461bcd60e51b815260206004820152601760248201527f416c7265616479207375626d69747465642070726f6f660000000000000000006044820152606490fd5b634e487b7160e01b5f52602160045260245ffd5b60405162461bcd60e51b815260206004820152601460248201527357726f6e6720776f726b6572206164647265737360601b6044820152606490fd5b505f828152600d60205260409020546001600160a01b0316151561080f565b3461043857602036600319011261043857610ace6004356145df565b604051928392606084019160018060a01b0316845260208401526060604084015281518091526020608084019201905f5b818110610b0d575050500390f35b8251845285945060209384019390920191600101610aff565b34610438575f36600319011261043857610434610420613bff565b3461043857602036600319011261043857610b5a613897565b610b62614c81565b6001600160a01b03168015610bb2576020817f800db016c595c6b1bb59fbfb195091f579d1abc9828b4660b0836fa635e90df8926001600160601b0360a01b6017541617601755604051908152a1005b60405162461bcd60e51b815260206004820152602860248201527f46656520636f6c6c656374696f6e2057616c6c65742041646472657373206973604482015267081a5b9d985b1a5960c21b6064820152608490fd5b34610438576040366003190112610438576024356004355f52600f60205260405f20805482101561043857602091610c3f91613bd6565b90549060031b1c604051908152f35b34610438576020366003190112610438576004355f52601f602052602060405f2054604051908152f35b34610438576020366003190112610438576001600160a01b03610c99613897565b165f526006602052602060405f2054604051908152f35b34610438576040366003190112610438576004356001600160401b03811161043857610ce0903690600401613977565b604051815160243592602091839181908401835e81016018815203019020805482101561043857602091610d1391613bd6565b905460405160039290921b1c6001600160a01b03168152f35b346104385760206104c8610d3f36613aad565b9133614ebe565b613a38565b346104385760a0366003190112610438576024356001600160401b03811161043857610d7b903690600401613977565b6044356001600160401b03811161043857602091610da06104c8923690600401613977565b610da86138ef565b90610db16138c3565b92600435614566565b346104385760a0366003190112610438576024356001600160401b03811161043857610dea903690600401613977565b610df26138ad565b90606435906001600160401b03821161043857602092610e196104c8933690600401613977565b906084359260043533614ae0565b346104385760206104c8610e3a36613aad565b908481519101209084815191012060405191858301937fe5726589ac93743b6d2436bf498a0c2b0f4c8e021b2693576ae35457620d338d855260408401526060830152608082015260808152610e9160a08261393b565b5190206155a2565b346104385760403660031901126104385760043560243590805f52600e60205260405f20541580159061104d575b610ed090614411565b335f52601e602052610ee860ff60405f20541661417e565b815f52600960205260ff60405f2054166006811015610a4357610f0c90151561445d565b815f52600960205260ff60405f2054166006811015610a4357600214610fd457815f52600960205260ff60405f205416916006831015610a4357610f55600560209414156144a9565b610f6261089f8284615630565b5f81815260098085526040808320805460ff1916600217905583835290855290208054610100600160a81b0319163360081b610100600160a81b0316179055805f526009835260018060a01b0360405f205460081c1690604051925f516020615b905f395f51905f525f80a460018152f35b60405162461bcd60e51b815260206004820152604560248201527f72657175657374494420616c7265616479207069636b656420627920616e6f7460448201527f68657220776f726b65722c20747279206120646966666572656e742072657175606482015264195cdd125160da1b608482015260a490fd5b505f818152600d60205260409020546001600160a01b03161515610ec7565b34610438576020366003190112610438576001600160a01b0361108d613897565b165f526005602052602060405f2054604051908152f35b34610438576110b236613b84565b906110bb614c81565b5f5b8281106110c657005b6001906001600160a01b036110df61050b8387876143ed565b165f52601560205260405f2060ff198154169055016110bd565b3461043857604036600319011261043857611112613897565b61111a6138d9565b6001600160a01b039182165f908152601b60209081526040808320949093168252928352819020549051908152f35b34610438576020366003190112610438576001600160a01b0361116a613897565b16805f52601560205260ff60405f2054166006811015610a4357600114801561119b575b6020906040519015158152f35b505f52601560205260ff60405f2054166006811015610a435760026020911461118e565b34610438575f366003190112610438576104346040516111e060408261393b565b60058152640352e302e360dc1b6020820152604051918291602083526020830190613a14565b34610438575f366003190112610438576014546040516001600160a01b039091168152602090f35b34610438575f366003190112610438576020600254604051908152f35b34610438575f3660031901126104385760206040517f7dd9d78712d3918d485330c827089074d149b81c91be857e49976819346f0c448152f35b34610438575f36600319011261043857601d546040516001600160a01b039091168152602090f35b60c0366003190112610438576004356024356001600160401b038111610438576112db903690600401613977565b6112e36138ad565b6064356001600160401b03811161043857611302903690600401613977565b61130a6138c3565b9160a435936001600160401b038511610438576020956113526113496113376104c8983690600401613977565b6113448887898888614566565b61587b565b909291926158b5565b6113666001600160a01b0382161515613ee2565b614819565b34610438575f366003190112610438575f516020615b105f395f51905f52546040516001600160a01b039091168152602090f35b34610438576040366003190112610438576113b8613897565b6024359081151580920361043857601d546001600160a01b031633148015611483575b6113e490613f22565b6001600160a01b031690811561143e57816040917f988d040d21ebfc430db6cf3c20bc0a6f4ff9d36f2cb7c6dea70424a709746734935f52601e602052825f2060ff1981541660ff831617905582519182526020820152a1005b60405162461bcd60e51b815260206004820152601960248201527f576f726b6572206164647265737320697320696e76616c6964000000000000006044820152606490fd5b505f516020615b105f395f51905f52546001600160a01b031633146113db565b346104385760a0366003190112610438576024356001600160401b038111610438576114d3903690600401613977565b6044356001600160401b038111610438576020916114f86104c8923690600401613977565b6115006138ef565b906084359260043561437c565b34610438575f3660031901126104385761155d6115286142b0565b949690929361154f60405198899860ff60f81b16895260e060208a015260e0890190613a14565b908782036040890152613a14565b92606086015260018060a01b0316608085015260a084015282810360c0840152602080835192838152019201905f5b81811061159a575050500390f35b825184528594506020938401939092019160010161158c565b34610438575f366003190112610438576020600354604051908152f35b34610438576040366003190112610438576115e9613897565b6024356001600160401b0381116104385760209161160e61162b923690600401613977565b6001600160a01b039091165f908152601a84526040902090613b65565b54604051908152f35b346104385760c0366003190112610438576024356004356116536138ad565b916064356001600160401b03811161043857611673903690600401613977565b916084356001600160401b03811161043857611693903690600401613977565b9260a4356001600160401b038111610438576116b6611700913690600401613977565b5f858152601660205260409020546001600160a01b031696906116f7906116de891515613ff1565b885f52601c60205261134460405f205486858a8a614761565b909391936158b5565b6117146001600160a01b0383161515613ee2565b6001600160a01b038216611729888214613ee2565b845f52600e60205260405f2054158015906118f7575b61174890614411565b855f52600960205260ff60405f2054166006811015610a435761176c90151561445d565b855f52600960205260ff60405f205416906006821015610a435761179660056117b39314156144a9565b5f878152601660205260409020546001600160a01b031614614de3565b6001600160a01b03811690811580156118f05760015b6117df604051916117d983613920565b82615624565b6020810190848252885f52600960205260405f209051916006831015610a435761180c61182f938361454e565b518154610100600160a81b03191660089190911b610100600160a81b0316179055565b1561188a57505061186d84955f516020615b705f395f51905f5294955f52600960205260405f20600160ff1982541617905560405193849384614e82565b0390a35b5f52601c60205260405f206118868154614031565b9055005b84926118d77f26e5b75b543be1cdad2907ba50a99eeb5c3a05381eee18d5b6a565b2bbccd1ba93988896875f52600960205260405f20600260ff1982541617905560405194859485614e3f565b0390a35f516020615b905f395f51905f525f80a4611871565b60026117c9565b505f858152600d60205260409020546001600160a01b0316151561173f565b34610438576040366003190112610438577fb74c378f83cb6eb186d519c74f0def054cc246ca81bccd2c53b5d0d699501324611950613897565b6024359061195c614c81565b6001600160a01b0381165f818152601960205260409020546119809060ff16613e96565b5f52601a6020528161199c60405f206119976139ea565b613b65565b55604080516001600160a01b039290921682526020820192909252a1005b34610438575f366003190112610438575f516020615bb05f395f51905f525460ff8160401c168015611e02575b611df35768ffffffffffffffffff191668010000000000000006175f516020615bb05f395f51905f5255611a19615915565b611a21615915565b611a2a336146f0565b611a345f54613c50565b601f8111611db6575b50600a640362e302e360dc1b015f55611a54613c28565b611a5c613c88565b611a64615915565b611a6c615915565b81516001600160401b0381116109ea57611a935f516020615af05f395f51905f5254613c50565b601f8111611d5c575b50602092601f8211600114611ce357611acd929382915f92611cd8575b50508160011b915f199060031b1c19161790565b5f516020615af05f395f51905f52555b80516001600160401b0381116109ea57611b045f516020615b305f395f51905f5254613c50565b601f8111611c73575b50602091601f8211600114611bfb57611b3b925f9183611bf05750508160011b915f199060031b1c19161790565b5f516020615b305f395f51905f52555b5f7fa16a46d94261c7517cc8ff89f61c0ce93598e3c849801011dee649a6a557d100555f7fa16a46d94261c7517cc8ff89f61c0ce93598e3c849801011dee649a6a557d10155611b99615915565b68ff0000000000000000195f516020615bb05f395f51905f5254165f516020615bb05f395f51905f52557fc7f505b2f371ae2175ee4913f4499e1f2633a7b5936321eed1cdaeb6115181d2602060405160068152a1005b015190508380611ab9565b601f198216925f516020615b305f395f51905f525f52805f20915f5b858110611c5b57508360019510611c43575b505050811b015f516020615b305f395f51905f5255611b4b565b01515f1960f88460031b161c19169055828080611c29565b91926020600181928685015181550194019201611c17565b5f516020615b305f395f51905f525f52611cc8907f5f9ce34815f8e11431c7bb75a8e6886a91478f7ffc1dbb0a98dc240fddd76b75601f840160051c81019160208510611cce575b601f0160051c0190614203565b82611b0d565b9091508190611cbb565b015190508480611ab9565b601f198216935f516020615af05f395f51905f525f52805f20915f5b868110611d445750836001959610611d2c575b505050811b015f516020615af05f395f51905f5255611add565b01515f1960f88460031b161c19169055838080611d12565b91926020600181928685015181550194019201611cff565b5f516020615af05f395f51905f525f52611db0907f42ad5d3e1f2e6e70edcf6d991b8a3023d3fca8047a131592f9edb9fd9b89d57d601f840160051c81019160208510611cce57601f0160051c0190614203565b83611a9c565b5f8052611ded90601f0160051c7f290decd9548b62a8d60345a988386fc84ba6bc95484008f6362f93160ef3e56390810190614203565b80611a3d565b63f92ee8a960e01b5f5260045ffd5b5060066001600160401b03821610156119e7565b346104385760a036600319011261043857600435602435611e356138ad565b916064356001600160401b03811161043857611e55903690600401613977565b6084356001600160401b03811161043857611e74903690600401613977565b90825f52600e60205260405f205415801590611ffc575b611e9490614411565b835f52600960205260ff60405f2054166006811015610a4357611eb890151561445d565b835f52600960205260ff60405f2054166006811015610a43576005611ede9114156144a9565b5f84815260166020526040902054611f00906001600160a01b03163314614de3565b6001600160a01b0385169485158015611ff55760015b611f26604051916117d983613920565b6020810190888252875f52600960205260405f209051916006831015610a435761180c611f53938361454e565b15611f925750835f516020615b705f395f51905f52939495505f52600960205260405f20600160ff198254161790556109546040519283923384614e82565b83917f26e5b75b543be1cdad2907ba50a99eeb5c3a05381eee18d5b6a565b2bbccd1ba91611fdf8795865f52600960205260405f20600260ff198254161790556040519384933385614e3f565b0390a35f516020615b905f395f51905f525f80a4005b6002611f16565b505f838152600d60205260409020546001600160a01b03161515611e8b565b34610438576080366003190112610438576024356001600160401b0381116104385761204b903690600401613977565b6120536138ad565b90606435906001600160401b0382116104385760209261207a6104c8933690600401613977565b9160043533615268565b34610438575f3660031901126104385760206040517fe5726589ac93743b6d2436bf498a0c2b0f4c8e021b2693576ae35457620d338d8152f35b6080366003190112610438576120d2613897565b602435604435916064356001600160401b038111610438576120f8903690600401613977565b825f52600e60205260405f205415801590612381575b61211790614411565b835f52600960205260ff60405f2054166006811015610a435761213b90151561445d565b80511561233c57835f52600960205260ff60405f2054166006811015610a43576001146122e6575f84815260166020526040902054612184906001600160a01b03163314614de3565b6001600160a01b0382165f8181526019602052604090205490929060ff16156122a957845f52600960205260ff60405f205416926006841015610a435760057fce8f8849a89ebf447425479c86ccdc17f11697958b4bca671fcdf65bc3012c21941461228d575b805f52601a60205261220260405f206119976139ea565b549081612241575b505050835f52600960205260018060a01b0360405f205460081c166109546040519283928352604060208401526040830190613a14565b61226e5761226691506122558134146147cd565b6017546001600160a01b03166157fd565b84808061220a565b601754612288926001600160a01b039091169133916156da565b612266565b855f52600960205260405f20600260ff198254161790556121eb565b60405162461bcd60e51b8152602060048201526015602482015274496e76616c696420746f6b656e206164647265737360581b6044820152606490fd5b60405162461bcd60e51b815260206004820152602860248201527f726571756573744944206973206e6f74207069636b656420757020627920616e6044820152673c903bb7b935b2b960c11b6064820152608490fd5b60405162461bcd60e51b815260206004820152601c60248201527f75706461746564426173653634436f6e66696720697320656d707479000000006044820152606490fd5b505f838152600d60205260409020546001600160a01b0316151561210e565b34610438576020366003190112610438576004355f526013602052602060ff60405f2054166123d260405180926139bb565bf35b34610438575f366003190112610438576123ec614c81565b5f516020615b105f395f51905f5280546001600160a01b031981169091555f906001600160a01b03167f8be0079c531659141344cd1fd0a4f28419497f9722a3daafe3b4186f6b6457e08280a3005b34610438576020366003190112610438576001600160a01b0361245c613897565b165f526015602052602060ff60405f2054166123d260405180926139bb565b34610438576020366003190112610438576001600160a01b0361249c613897565b165f52601c602052602060405f2054604051908152f35b34610438575f36600319011261043857610434610420613afd565b346104385760206104c86124e136613aad565b91614251565b346104385760c0366003190112610438576004356024356001600160401b0381116104385761251a903690600401613977565b906125236138ad565b906064356001600160401b03811161043857612543903690600401613977565b608435926001600160401b038411610438576020946125696104c8953690600401613977565b9361258161134960a43596611344888789888861437c565b6125956001600160a01b0382161515613ee2565b614ae0565b34610438575f366003190112610438576020600154604051908152f35b34610438575f366003190112610438577f00000000000000000000000000000000000000000000000000000000000000006001600160a01b0316300361260e5760206040515f516020615b505f395f51905f528152f35b63703e46dd60e11b5f5260045ffd5b34610438575f3660031901126104385761263861064e613bff565b6040519081602082549182815201915f5260205f20905f5b81811061267357610434856126678187038261393b565b60405191829182613a6b565b82546001600160a01b0316845260209093019260019283019201612650565b6060366003190112610438576126a6613897565b6126ae6138d9565b907fd39b0b6730f6e413ca50cca2084baa10d82375e644b04712421789ae80041a796044356126de818585614d14565b601754604080516001600160a01b039283168152958216602087015285019190915291909116913391908060608101610954565b604036600319011261043857612726613897565b6024356001600160401b03811161043857612745903690600401613977565b6001600160a01b037f0000000000000000000000000000000000000000000000000000000000000000163081149081156128bd575b5061260e57612787614c81565b6040516352d1902d60e01b81526001600160a01b0383169290602081600481875afa5f9181612889575b506127c95783634c9c8ce360e01b5f5260045260245ffd5b805f516020615b505f395f51905f528592036128775750813b15612865575f516020615b505f395f51905f5280546001600160a01b031916821790557fbc7cd75a20ee27fd9adebab32041f755214dbc6bffa90cc0225b39da2e5c2d3b5f80a281511561284d575f8083602061055595519101845af46128476157ce565b916159c2565b50503461285657005b63b398979f60e01b5f5260045ffd5b634c9c8ce360e01b5f5260045260245ffd5b632a87526960e21b5f5260045260245ffd5b9091506020813d6020116128b5575b816128a56020938361393b565b81010312610438575190856127b1565b3d9150612898565b5f516020615b505f395f51905f52546001600160a01b0316141590508361277a565b34610438576080366003190112610438576004356024356001600160401b03811161043857612912903690600401613977565b6044356001600160401b03811161043857612931903690600401613977565b606435916001600160401b0383116104385760209361296861134961295d6104c8963690600401613977565b611344868686614251565b61297c6001600160a01b0382161515613ee2565b614ebe565b34610438576020366003190112610438576001600160a01b036129a2613897565b165f52601160205260405f20604051905f908054906129c082613c50565b8085529160018116908115612a2857506001146129e8575b610434846104208186038261393b565b5f90815260208120939250905b808210612a0e57509091508101602001610420826129d8565b9192600181602092548385880101520191019092916129f5565b60ff191660208087019190915292151560051b8501909201925061042091508390506129d8565b34610438576020366003190112610438576004356001600160401b03811161043857366023820112156104385780600401356001600160401b03811161043857366024828401011161043857335f52601e602052612ab360ff60405f20541661417e565b8015612ba757335f526011602052612ace60405f2054613c50565b15612b8e575b335f52601160205260405f2090612aef816108e58454613c50565b5f601f8211600114612b2a57819061188693945f92612b1c5750508160011b915f199060031b1c19161790565b602492500101358480611ab9565b601f19821693835f5260205f20915f5b868110612b735750836001959610612b57575b505050811b019055005b01602401355f19600384901b60f8161c19169055838080612b4d565b90926020600181926024878701013581550194019101612b3a565b612ba2336106e6612b9d613f66565b613b27565b612ad4565b60405162461bcd60e51b815260206004820152601a60248201527f5075626c6963206b65792063616e6e6f7420626520656d7074790000000000006044820152606490fd5b34610438576020366003190112610438576004355f52600a60205260405f20604051905f90805490612c1d82613c50565b8085529160018116908115612a285750600114612c4457610434846104208186038261393b565b5f90815260208120939250905b808210612c6a57509091508101602001610420826129d8565b919260018160209254838588010152019101909291612c51565b3461043857604036600319011261043857612c9d613897565b6024359060018060a01b03601d541633148015612d96575b612cbe90613f22565b6001600160a01b0316908115612d51578015612d015760207ffc2556f84149547247d4732c86773253cfcdb6e1a176734f036fb2a1a766828c91604051908152a2005b60405162461bcd60e51b815260206004820152602260248201527f416d6f756e742073686f756c642062652067726561746572207468616e207a65604482015261726f60f01b6064820152608490fd5b60405162461bcd60e51b815260206004820152601760248201527f55736572206164647265737320697320696e76616c69640000000000000000006044820152606490fd5b505f516020615b105f395f51905f52546001600160a01b03163314612cb5565b34610438576060366003190112610438576020612de6612dd4613897565b612ddc6138ad565b9060243590614053565b6040519015158152f35b60a036600319011261043857612e04613897565b6044356024356064356001600160401b03811161043857612e29903690600401613977565b608435906001600160401b03821161043857612e4c612e96923690600401613977565b5f858152601660205260409020546001600160a01b03169590612e8d90612e74881515613ff1565b875f52601c60205261134460405f205485898987614684565b909491946158b5565b612eaa6001600160a01b0384161515613ee2565b6001600160a01b038316612ebf878214613ee2565b845f52600e60205260405f20541580159061305d575b612ede90614411565b855f52600960205260ff60405f2054166006811015610a4357612f0290151561445d565b82511561233c57855f52600960205260ff60405f2054166006811015610a43576001146122e657612f4890865f52601660205260018060a01b0360405f20541614614de3565b6001600160a01b0381165f8181526019602052604090205490919060ff16156122a957855f52600960205260ff60405f205416936006851015610a435760057fce8f8849a89ebf447425479c86ccdc17f11697958b4bca671fcdf65bc3012c219514613041575b825f52601a602052612fc660405f206119976139ea565b549283613006575b50505050835f52600960205260018060a01b0360405f205460081c1661186d6040519283928352604060208401526040830190613a14565b6130245750508061225561301b9234146147cd565b85808080612fce565b60175461303c936001600160a01b03909116926156da565b61301b565b865f52600960205260405f20600260ff19825416179055612faf565b505f858152600d60205260409020546001600160a01b03161515612ed5565b34610438575f36600319011261043857610434612667613f96565b34610438575f3660031901126104385760206040517f91d24a6bbb50acead05809c28075759bcc90320e198f6f880116b2aa6b9463f18152f35b6040366003190112610438576130e5613897565b7fd77471b428858ecbd2b80887a3bfc71662a54ef7fcc856a76b5df84051ff76dc602435613114818433614d14565b601754604080516001600160a01b0392831681529490911660208501528301523391606090a2005b34610438575f36600319011261043857601d546001600160a01b031633148015613223575b61316a90613f22565b613172613f96565b5f5b81518110156131f9576001906001600160a01b036131928285614cb4565b51165f52601160205260405f206131a98154613c50565b90816131b8575b505001613174565b81601f5f931185146131ce5750555b83806131b0565b818352602083206131e991601f0160051c8101908601614203565b80825281602081209155556131c7565b613204612b9d613f66565b80545f82558061321057005b610555915f5260205f2090810190614203565b505f516020615b105f395f51905f52546001600160a01b03163314613161565b34610438575f3660031901126104385760206040517f60a8eecec858932ab2ff591a4ad5829a185228029a1c74d3dfb34bf17b4256168152f35b34610438575f3660031901126104385760206040517fb2c0b4a611993f012a6c8e188688ec3ed0b9410894ae736354158fc513874c708152f35b34610438575f3660031901126104385760405160208101904282523360601b6040820152466054820152605481526132f060748261393b565b519020805f52600e60205260405f20546133eb5733156133b35760209060405161331981613905565b81815260038382015f8152604083015f815260608401915f8352855f52600e875260405f209451855551600185015551600284015560018060a01b0390511691019060018060a01b03166001600160601b0360a01b825416179055335f52600682528060405f2055807f988dde20b788b20d2f8188ab37bc9419a99761fc4ec19356dc30cfa49b4601dc83604051338152a2604051908152f35b60405162461bcd60e51b815260206004820152601060248201526f24b73b30b634b2103ab9b2b920b2323960811b6044820152606490fd5b60405162461bcd60e51b815260206004820152601860248201527f70726f6a656374496420616c72656164792065786973747300000000000000006044820152606490fd5b3461043857602036600319011261043857613449613897565b613451614c81565b6001600160a01b03168015613477576001600160601b0360a01b60145416176014555f80f35b60405162461bcd60e51b815260206004820152601760248201527f4e465420436f6e747261637420697320696e76616c69640000000000000000006044820152606490fd5b34610438576040366003190112610438577f694aa63d946094ce1aeccef5c17db0a23a409eddfb68793b3c29fea103d120866134f6613897565b60243590613502614c81565b6001600160a01b0381165f818152601960205260409020546135269060ff16613e96565b5f52601a6020528161199c60405f20611997613afd565b3461043857602036600319011261043857613556613897565b61355e614c81565b6001600160a01b031680156135ae576020817f445c5fd747f65908f1d11311ef3be63b67e2664b330f1007e084031391e17730926001600160601b0360a01b601d541617601d55604051908152a1005b60405162461bcd60e51b815260206004820152601760248201527f576f726b65722041646d696e20697320696e76616c69640000000000000000006044820152606490fd5b34610438575f366003190112610438576017546040516001600160a01b039091168152602090f35b34610438576020366003190112610438576001600160a01b0361363c613897565b165f526019602052602060ff60405f2054166040519015158152f35b34610438576040366003190112610438576024356001600160401b038111610438576136986113496136906020933690600401613977565b60043561587b565b6136ac6001600160a01b0382161515613ee2565b6040516001600160a01b039091168152f35b34610438576020366003190112610438577ef489bd08ff674a36860f917326106701d524e8f0c616fcd04b09fbfd993d5e60206136f9613897565b613701614c81565b6001600160a01b03165f8181526019835260409020546137239060ff16613e96565b805f526019825260405f2060ff198154169055604051908152a1005b34610438575f366003190112610438576104346104206139ea565b34610438576020366003190112610438576004355f908152600960205260409081902054905190819061043490600881901c6001600160a01b03169060ff16836139c8565b34610438576020366003190112610438576001600160a01b036137c0613897565b165f526008602052602060405f2054604051908152f35b60a0366003190112610438576024356001600160401b03811161043857613802903690600401613977565b61380a6138ad565b90606435906001600160401b038211610438576020926138316104c8933690600401613977565b9061383a6138c3565b9260043533614819565b34610438575f3660031901126104385760206040515f8152f35b34610438576020366003190112610438576020906001600160a01b03613882613897565b165f52601e825260ff60405f20541615158152f35b600435906001600160a01b038216820361043857565b604435906001600160a01b038216820361043857565b608435906001600160a01b038216820361043857565b602435906001600160a01b038216820361043857565b606435906001600160a01b038216820361043857565b608081019081106001600160401b038211176109ea57604052565b604081019081106001600160401b038211176109ea57604052565b90601f801991011681019081106001600160401b038211176109ea57604052565b6001600160401b0381116109ea57601f01601f191660200190565b81601f82011215610438576020813591016139918261395c565b9261399f604051948561393b565b8284528282011161043857815f92602092838601378301015290565b906006821015610a435752565b9092916020906139dc8360408101966139bb565b6001600160a01b0316910152565b604051906139f960408361393b565b600c82526b1d5c19185d1957d859d95b9d60a21b6020830152565b805180835260209291819084018484015e5f828201840152601f01601f1916010190565b34610438575f366003190112610438576020613a526142b0565b50506040516001600160a01b0390911681529350505050f35b60206040818301928281528451809452019201905f5b818110613a8e5750505090565b82516001600160a01b0316845260209384019390920191600101613a81565b606060031982011261043857600435916024356001600160401b0381116104385782613adb91600401613977565b91604435906001600160401b03821161043857613afa91600401613977565b90565b60405190613b0c60408361393b565b600c82526b18dc99585d1957d859d95b9d60a21b6020830152565b60208091604051928184925191829101835e8101601281520301902090565b60208091604051928184925191829101835e8101601881520301902090565b6040518151909260209284929081908501845e82019081520301902090565b906020600319830112610438576004356001600160401b0381116104385782602382011215610438578060040135926001600160401b0384116104385760248460051b83010111610438576024019190565b8054821015613beb575f5260205f2001905f90565b634e487b7160e01b5f52603260045260245ffd5b60405190613c0e60408361393b565b600b82526a7061796d656e745f6b657960a81b6020830152565b60405190613c3760408361393b565b600a8252693730ba34b7b717333ab760b11b6020830152565b90600182811c92168015613c7e575b6020831014613c6a57565b634e487b7160e01b5f52602260045260245ffd5b91607f1691613c5f565b604051905f825f5491613c9a83613c50565b8083529260018116908115613d1d5750600114613cc0575b613cbe9250038361393b565b565b505f80805290917f290decd9548b62a8d60345a988386fc84ba6bc95484008f6362f93160ef3e5635b818310613d01575050906020613cbe92820101613cb2565b6020919350806001915483858901015201910190918492613ce9565b60209250613cbe94915060ff191682840152151560051b820101613cb2565b604051905f825f516020615af05f395f51905f525491613d5b83613c50565b8083529260018116908115613d1d5750600114613d7e57613cbe9250038361393b565b505f516020615af05f395f51905f525f90815290917f42ad5d3e1f2e6e70edcf6d991b8a3023d3fca8047a131592f9edb9fd9b89d57d5b818310613dcd575050906020613cbe92820101613cb2565b6020919350806001915483858901015201910190918492613db5565b604051905f825f516020615b305f395f51905f525491613e0883613c50565b8083529260018116908115613d1d5750600114613e2b57613cbe9250038361393b565b505f516020615b305f395f51905f525f90815290917f5f9ce34815f8e11431c7bb75a8e6886a91478f7ffc1dbb0a98dc240fddd76b755b818310613e7a575050906020613cbe92820101613cb2565b6020919350806001915483858901015201910190918492613e62565b15613e9d57565b60405162461bcd60e51b815260206004820152601c60248201527f5061796d656e742041646472657373206973206e6f74206164646564000000006044820152606490fd5b15613ee957565b60405162461bcd60e51b8152602060048201526011602482015270496e76616c6964207369676e617475726560781b6044820152606490fd5b15613f2957565b60405162461bcd60e51b81526020600482015260156024820152742737ba1030b71030b236b4b71037b91037bbb732b960591b6044820152606490fd5b60405190613f7560408361393b565b6012825271776f726b65725f616464726573735f6b657960701b6020830152565b613fa1612b9d613f66565b604051808260208294549384815201905f5260205f20925f5b818110613fcf575050613afa9250038261393b565b84546001600160a01b0316835260019485019486945060209093019201613fba565b15613ff857565b60405162461bcd60e51b8152602060048201526011602482015270125b9d985b1a59081c995c5d595cdd1251607a1b6044820152606490fd5b5f19811461403f5760010190565b634e487b7160e01b5f52601160045260245ffd5b90916001600160a01b03909116908115614139576001600160a01b03169182156140fd576020906024604051809481936331a9108f60e11b835260048301525afa9081156140f2575f916140b0575b506001600160a01b03161490565b90506020813d6020116140ea575b816140cb6020938361393b565b8101031261043857516001600160a01b0381168103610438575f6140a2565b3d91506140be565b6040513d5f823e3d90fd5b60405162461bcd60e51b8152602060048201526014602482015273496e76616c69642075736572206164647265737360601b6044820152606490fd5b60405162461bcd60e51b815260206004820152601960248201527f496e76616c6964204e465420746f6b656e2061646472657373000000000000006044820152606490fd5b1561418557565b60405162461bcd60e51b815260206004820152601560248201527415dbdc9ad95c881a5cc81b9bdd081d1c9d5cdd1959605a1b6044820152606490fd5b8054600160401b8110156109ea576141df91600182018155613bd6565b81546001600160a01b0393841660039290921b91821b9390911b1916919091179055565b81811061420e575050565b5f8155600101614203565b9190601f811161422857505050565b613cbe925f5260205f20906020601f840160051c83019310611cce57601f0160051c0190614203565b9091613afa926020815191012090602081519101206040519160208301937f60a8eecec858932ab2ff591a4ad5829a185228029a1c74d3dfb34bf17b425616855260408401526060830152608082015260808152610e9160a08261393b565b7fa16a46d94261c7517cc8ff89f61c0ce93598e3c849801011dee649a6a557d100541580614353575b15614316576142e6613d3c565b906142ef613de9565b906040516142fe60208261393b565b5f81525f368137600f60f81b939291469130915f9190565b60405162461bcd60e51b81526020600482015260156024820152741152540dcc4c8e88155b9a5b9a5d1a585b1a5e9959605a1b6044820152606490fd5b507fa16a46d94261c7517cc8ff89f61c0ce93598e3c849801011dee649a6a557d10154156142d9565b92613afa94916020815191012092602081519101206040519360208501957f91d24a6bbb50acead05809c28075759bcc90320e198f6f880116b2aa6b9463f1875260408601526060850152608084015260018060a01b031660a083015260c082015260c08152610e9160e08261393b565b9190811015613beb5760051b0190565b356001600160a01b03811681036104385790565b1561441857565b60405162461bcd60e51b815260206004820152601860248201527f70726f6a656374496420646f6573206e6f7420657869737400000000000000006044820152606490fd5b1561446457565b60405162461bcd60e51b815260206004820152601860248201527f72657175657374494420646f6573206e6f7420657869737400000000000000006044820152606490fd5b156144b057565b60405162461bcd60e51b815260206004820152602560248201527f7265717565737449442068617320616c7265616479207375626d697474656420604482015264383937b7b360d91b6064820152608490fd5b1561450a57565b606460405162461bcd60e51b815260206004820152602060248201527f50726f6a656374494420616e6420726571756573744944206d69736d617463686044820152fd5b906006811015610a435760ff80198354169116179055565b92613afa94916020815191012092602081519101206040519360208501957f7dd9d78712d3918d485330c827089074d149b81c91be857e49976819346f0c44875260408601526060850152608084015260018060a01b031660a083015260018060a01b031660c082015260c08152610e9160e08261393b565b90815f52600e6020526145f760405f20541515614411565b815f52600e602052600260405f2001545f52600f60205260405f2090604051808360208295549384815201905f5260205f20925f5b81811061466b5750506146419250038361393b565b5f928352600e602052604090922060038101546001909101546001600160a01b0390911692909190565b845483526001948501948794506020909301920161462c565b9291613afa94919260208151910120906040519360208501957f5bc68fd156aade2069ca23fbe8b2b86836f7029d3ed7cf6bd299a45ee514650f875260018060a01b031660408601526060850152608084015260a083015260c082015260c08152610e9160e08261393b565b6001600160a01b0316801561474e575f516020615b105f395f51905f5280546001600160a01b0319811683179091556001600160a01b03167f8be0079c531659141344cd1fd0a4f28419497f9722a3daafe3b4186f6b6457e05f80a3565b631e4fbdf760e01b5f525f60045260245ffd5b9291613afa94919260208151910120906040519360208501957fb2c0b4a611993f012a6c8e188688ec3ed0b9410894ae736354158fc513874c7087526040860152606085015260018060a01b0316608084015260a083015260c082015260c08152610e9160e08261393b565b156147d457565b60405162461bcd60e51b815260206004820152601c60248201527f4e617469766520746f6b656e20616d6f756e74206d69736d61746368000000006044820152606490fd5b939594909291906001600160a01b0381168015908180614ad9575b156149aa5750505f80525060136020527f8fa6efc3be94b5b348b21fea823fe8d100408cee9b7f90524494500445d8ff6c5460ff166006811015610a4357600214614965576014546148929085905f906001600160a01b0316614053565b15614920576060955f516020615ad05f395f51905f52926148b4928587615268565b7f8fa6efc3be94b5b348b21fea823fe8d100408cee9b7f90524494500445d8ff6c805460ff191660021790555f81815260166020908152604080832080546001600160a01b0319166001600160a01b0390981697881790558051968752908601829052850152948593a3565b60405162461bcd60e51b815260206004820152601b60248201527f4e465420746f6b656e206e6f74206f776e6564206279207573657200000000006044820152606490fd5b60405162461bcd60e51b815260206004820152601960248201527f4e465420746f6b656e20696420616c72656164792075736564000000000000006044820152606490fd5b805f9995949297939952601960205260ff60405f20541615614a94575f516020615ad05f395f51905f52946060946149fb925f52601a6020526149f260405f20611997613afd565b54938886615268565b5f81815260166020526040902080546001600160a01b0319166001600160a01b03851617905597889682614a49575b5050604080516001600160a01b0390931683525f6020840152820152a3565b15614a785750614a5a8134146147cd565b601754614a719082906001600160a01b03166157fd565b5f80614a2a565b614a8f90838360018060a01b0360175416926156da565b614a71565b60405162461bcd60e51b815260206004820152601860248201527f546f6b656e206164647265737320697320696e76616c696400000000000000006044820152606490fd5b505f614834565b959493909290918415614ba457845f52601360205260ff60405f2054166006811015610a435760021461496557601454614b2690889087906001600160a01b0316614053565b15614920575f516020615ad05f395f51905f5292606092614b4892868a615268565b958487955f52601360205260405f20600260ff19825416179055855f52601660205260405f2060018060a01b0383166001600160601b0360a01b8254161790556040519160018060a01b0316825260208201525f6040820152a3565b955f8093929352601960205260ff60405f20541615614a94575f8052601a6020525f516020615ad05f395f51905f5292606092614c1091614c077fb75ecc04ed35f89790e98640e901bda41eceff0cb896cf2765fb697680253750611997613afd565b54998785615268565b5f81815260166020526040902080546001600160a01b0319166001600160a01b03841617905596879581614c5a575b6040519260018060a01b0316835260208301526040820152a3565b614c658234146147cd565b601754614c7c9083906001600160a01b03166157fd565b614c3f565b5f516020615b105f395f51905f52546001600160a01b03163303614ca157565b63118cdaa760e01b5f523360045260245ffd5b8051821015613beb5760209160051b010190565b15614ccf57565b60405162461bcd60e51b815260206004820152601d60248201527f416d6f756e74206d7573742062652067726561746572207468616e20300000006044820152606490fd5b919091614d22821515614cc8565b6001600160a01b0383165f8181526019602052604090205490919060ff1615614d9e5760018060a01b03165f52601b60205260405f20815f5260205260405f2080549083820180921161403f5755614d8457613cbe91506122558134146147cd565b601754613cbe926001600160a01b039091169133916156da565b60405162461bcd60e51b815260206004820152601c60248201527f5061796d656e742061646472657373206973206e6f742076616c6964000000006044820152606490fd5b15614dea57565b60405162461bcd60e51b815260206004820152602760248201527f4f6e6c79206465706c6f796d656e74206f776e65722063616e2075706461746560448201526620636f6e66696760c81b6064820152608490fd5b6001600160a01b039182168152911660208201525f604082015260a060608201819052613afa939192614e7491840190613a14565b916080818403910152613a14565b6001600160a01b0390911681525f6020820152608060408201819052613afa939192614eb091840190613a14565b916060818403910152613a14565b9392815f52600e60205260405f20546133eb576001600160a01b0385169283156133b357604051614eee81613905565b8381526003602082015f8152604083015f815260608401915f8352875f52600e60205260405f209451855551600185015551600284015560018060a01b0390511691019060018060a01b03166001600160601b0360a01b825416179055835f5260066020528260405f2055827f988dde20b788b20d2f8188ab37bc9419a99761fc4ec19356dc30cfa49b4601dc6020604051878152a2825f52600e60205260405f205415801590615249575b614fa390614411565b81511561520f578051156151ca5760405195602087014281526001600160601b03198260601b16908160408a015283519861500360406054838d60208a019e8f8484015e810146838201528b60748201520301602081018452018261393b565b51902097855f52600e602052600260405f20015461517957615074606060549260405193849160208301964288526040840152885180918385015e820146828201528a60748201525f60948201528951908160208c0160b483015e01015f838201520301601f19810183528261393b565b519020945f5260056020528460405f205560405161509181613920565b6001815260208101905f8252865f52600960205260405f209051916006831015610a435761180c6150c2938361454e565b835f52600e602052600360405f20016001600160601b0360a01b815416905584966150ee600354614031565b600355845f52600e60205280600260405f2001555f52600f60205260405f2092835490600160401b8210156109ea5786615158615142845f516020615b705f395f51905f5298600161517497018155613bd6565b819391549060031b91821b915f19901b19161790565b9055865f52601f6020528560405f205560405193849384614e82565b0390a3565b60405162461bcd60e51b815260206004820152602360248201527f6465706c6f796d656e742072657175657374494420616c72656164792065786960448201526273747360e81b6064820152608490fd5b60405162461bcd60e51b815260206004820152601760248201527f62617365363450726f706f73616c20697320656d7074790000000000000000006044820152606490fd5b60405162461bcd60e51b815260206004820152601260248201527173657276657255524c20697320656d70747960701b6044820152606490fd5b505f838152600d60205260409020546001600160a01b03161515614f9a565b9194939294815f52600e60205260405f20546133eb576001600160a01b0383169283156133b35760405161529b81613905565b8381526003602082015f8152604083015f815260608401915f8352875f52600e60205260405f209451855551600185015551600284015560018060a01b0390511691019060018060a01b03166001600160601b0360a01b825416179055835f5260066020528260405f2055827f988dde20b788b20d2f8188ab37bc9419a99761fc4ec19356dc30cfa49b4601dc6020604051878152a2825f52600e60205260405f205415801590615583575b61535090614411565b84511561520f578151156151ca5760405196602088014281526001600160601b03198360601b16908160408b015284519980602087019b808d605484015e8101466054820152886074820152036054016020810182526040016153b3908261393b565b51902098855f52600e60205260405f206002015461517957615424606060209260546040519485928184019742895260408501528a5180918486015e830146838201528b60748201525f60948201528d80519283910160b483015e01015f838201520301601f19810183528261393b565b5190205f958652600560205260409095208590556001600160a01b038116908115801561557c5760015b61545e604051916117d983613920565b6020810190848252885f52600960205260405f209051916006831015610a435761180c61548b938361454e565b855f52600e602052600360405f20016001600160601b0360a01b815416905586996154b7600354614031565b600355865f52600e60205280600260405f2001555f52600f60205260405f208054600160401b8110156109ea57615142818a9360016154f894018155613bd6565b9055865f52601f6020528560405f20555f146155305750506151745f516020615b705f395f51905f5293949560405193849384614e82565b84926155667f26e5b75b543be1cdad2907ba50a99eeb5c3a05381eee18d5b6a565b2bbccd1ba9398889660405194859485614e3f565b0390a35f516020615b905f395f51905f525f80a4565b600261544e565b505f838152600d60205260409020546001600160a01b03161515615347565b6042906155ad615a20565b6155b5615a8a565b6040519060208201927f8b73c3c69bb8fe3d512ecc4cf759cc79239f7b179b0ffacaa9a75d522b39400f8452604083015260608201524660808201523060a082015260a0815261560660c08261393b565b519020906040519161190160f01b8352600283015260228201522090565b6006821015610a435752565b5f828152601f602052604090205481146156925761564d816145df565b939150505f5b835181101561568a57816156678286614cb4565b511461567557600101615653565b509091505f52601f60205260405f2055600190565b505050505f90565b5050600190565b156156a057565b60405162461bcd60e51b8152602060048201526012602482015271496e76616c696420746f206164647265737360701b6044820152606490fd5b6001600160a01b038481169391929082168414615789576157505f936157036020961515615699565b61570e831515614cc8565b6040516323b872dd60e01b8782019081526001600160a01b0395861660248301529785166044820152606480820194909452928352909216949160848261393b565b519082855af1156140f2575f513d6157805750803b155b61576e5750565b635274afe760e01b5f5260045260245ffd5b60011415615767565b60405162461bcd60e51b815260206004820152601f60248201527f43616e6e6f74207472616e7366657220746f2073656c662061646472657373006044820152606490fd5b3d156157f8573d906157df8261395c565b916157ed604051938461393b565b82523d5f602084013e565b606090565b5f918291829182916001600160a01b0316615819811515615699565b615824821515614cc8565b5af161582e6157ce565b501561583657565b60405162461bcd60e51b815260206004820152601c60248201527f4e617469766520746f6b656e207472616e73666572206661696c6564000000006044820152606490fd5b81519190604183036158ab576158a49250602082015190606060408401519301515f1a90615940565b9192909190565b50505f9160029190565b6004811015610a4357806158c7575050565b600181036158de5763f645eedf60e01b5f5260045ffd5b600281036158f9575063fce698f760e01b5f5260045260245ffd5b6003146159035750565b6335e2f38360e21b5f5260045260245ffd5b60ff5f516020615bb05f395f51905f525460401c161561593157565b631afcd79f60e31b5f5260045ffd5b91907f7fffffffffffffffffffffffffffffff5d576e7357a4501ddfe92f46681b20a084116159b7579160209360809260ff5f9560405194855216868401526040830152606082015282805260015afa156140f2575f516001600160a01b038116156159ad57905f905f90565b505f906001905f90565b5050505f9160039190565b906159e657508051156159d757805190602001fd5b63d6bda27560e01b5f5260045ffd5b81511580615a17575b6159f7575090565b639996b31560e01b5f9081526001600160a01b0391909116600452602490fd5b50803b156159ef565b615a28613d3c565b8051908115615a38576020012090565b50507fa16a46d94261c7517cc8ff89f61c0ce93598e3c849801011dee649a6a557d100548015615a655790565b507fc5d2460186f7233c927e7db2dcc703c0e500b653ca82273b7bfad8045d85a47090565b615a92613de9565b8051908115615aa2576020012090565b50507fa16a46d94261c7517cc8ff89f61c0ce93598e3c849801011dee649a6a557d101548015615a65579056feb8794b41e90d812be6b26b66850fef1e55c60c6fb622f8d02df1dc0adec6c38ca16a46d94261c7517cc8ff89f61c0ce93598e3c849801011dee649a6a557d1029016d09d72d40fdae2fd8ceac6b6234c7706214fd39c1cd1e609a0528c199300a16a46d94261c7517cc8ff89f61c0ce93598e3c849801011dee649a6a557d103360894a13ba1a3210667c828492db98dca3e2076cc3735a920a3ca505d382bbccdde0392731ff1ddcc3295ee84db8db4a9ad3d8f34056867af8c9f3b2920d44e065b3b95166dc6cadb255ba57b9623fa09d0519437b43d13dbd0d7f7a5ee9b76f0c57e16840df040f15088dc2f81fe391c3923bec73e23a9662efc9c229c6a00a2646970667358221220087ccff821a5dc9d19ea6a6e6ed308b8384f603b19cf52e54dae8bf06268470864736f6c634300081e0033","linkReferences":{}},"methodIdentifiers":{"CREATE_AGENT_OP()":"644a44fb","CREATE_AGENT_WITH_NFT_TYPEHASH()":"356c9a83","CREATE_AGENT_WITH_TOKEN_TYPEHASH()":"9acd2a1a","DEPLOYMENT_REQUEST_TYPEHASH()":"31f4f12d","PAYMENT_KEY()":"de601e4c","PROPOSAL_REQUEST_TYPEHASH()":"7b31d6f6","RESET_DEPLOYMENT_REQUEST_TYPEHASH()":"2cfde378","SIGNING_DOMAIN()":"e3faad94","UPDATE_AGENT_OP()":"094e03bc","UPDATE_WORKER_CONFIG_TYPEHASH()":"f2bbea3f","UPGRADE_INTERFACE_VERSION()":"ad3cb1cc","VERSION()":"ffa1ad74","addPaymentAddress(address)":"e63dee48","checkNFTOwnership(address,uint256,address)":"43da75c4","createAgentWithNFT(bytes32,string,address,string,uint256)":"c13c26eb","createAgentWithSigWithNFT(bytes32,string,address,string,bytes,uint256)":"61419044","createAgentWithToken(bytes32,string,address,string,address)":"05d10b8f","createAgentWithTokenWithSig(bytes32,string,address,string,address,bytes)":"938e8f50","createProjectID()":"2ae189d8","createProjectIDAndDeploymentRequest(bytes32,string,string)":"c4845f5f","createProjectIDAndDeploymentRequestWithSig(bytes32,string,string,bytes)":"4ce354f0","createProjectIDAndPrivateDeploymentRequest(bytes32,string,address,string)":"7ce53f49","creditReward(address,uint256)":"43e84e9f","deploymentIdList(bytes32,uint256)":"d2a0c275","dummyAddress()":"05b38312","eip712Domain()":"84b0196e","factor()":"54f703f8","feeCollectionWalletAddress()":"13d32741","getAddress()":"38cc4831","getCreateAgentWithNFTDigest(bytes32,string,string,address,uint256)":"8935e545","getCreateAgentWithTokenDigest(bytes32,string,string,address,address)":"c347c7e3","getDeploymentProof(bytes32)":"4b6680de","getDeploymentStatus(bytes32)":"09470536","getEIP712ContractAddress()":"c3a1ae27","getLatestDeploymentRequestID(address)":"b9bb7135","getLatestProposalRequestID(address)":"f11d3675","getLatestUserProjectID(address)":"ce1b4ff5","getPaymentAddresses()":"516add26","getProjectInfo(bytes32)":"e0566833","getRequestDeploymentDigest(bytes32,string,string)":"62bd459c","getRequestProposalDigest(bytes32,string,string)":"c03044f3","getRequestResetDeploymentDigest(bytes32,bytes32,address,string,uint256)":"fa2b3cf9","getSignerAddress(bytes32,bytes)":"0f7d8e39","getUpdateWorkerConfigDigest(address,bytes32,bytes32,string,uint256)":"e5e24e82","getUserNonce(address)":"6834e3a8","getWorkerAddresses()":"39c12636","getWorkerPublicKey(address)":"4caafee2","initialize()":"8129fc1c","isWhitelistUser(address)":"af63f49b","latestDeploymentRequestID(address)":"078ebeae","latestProjectID(address)":"56ed8752","latestProposalRequestID(address)":"822c737a","nftContractAddress()":"aae282e1","nftTokenIdMap(uint256)":"76c6062f","owner()":"8da5cb5b","paymentAddressEnableMp(address)":"128634e4","paymentAddressesMp(string,uint256)":"cdb4c7f7","paymentOpCostMp(address,string)":"83471045","proxiableUUID()":"52d1902d","removePaymentAddress(address)":"0e5390c5","removeWhitelistAddresses(address[])":"b83921a6","renounceOwnership()":"715018a6","requestDeploymentStatus(bytes32)":"fcc82939","requestIDToProjectID(bytes32)":"d0d31cc5","resetDeploymentRequest(bytes32,bytes32,address,string,string)":"8031be46","resetDeploymentRequestWithSig(bytes32,bytes32,address,string,string,bytes)":"8333f55f","resetWorkers()":"32157c92","setCreateAgentTokenCost(address,uint256)":"19ea61c4","setFeeCollectionWalletAddress(address)":"d800d46b","setNFTContractAddress(address)":"23949cd1","setUpdateCreateAgentTokenCost(address,uint256)":"821c8ba1","setWhitelistAddresses(address[])":"f52ccc2d","setWorkerAdmin(address)":"13f2fcd1","setWorkerPublicKey(bytes)":"4bcaa626","solverReputation(address)":"ed3c95c0","submitDeploymentRequest(bytes32,bytes32)":"be539d3f","submitProofOfDeployment(bytes32,bytes32,string)":"e128fced","totalDeploymentRequest()":"83c49efa","totalProposalRequest()":"a97bedfe","transferOwnership(address)":"f2fde38b","trustWorkerMp(address)":"0442bb85","updateWorker(address,bool)":"896b4be9","updateWorkerDeploymentConfig(address,bytes32,bytes32,string)":"79964547","updateWorkerDeploymentConfigWithSig(address,bytes32,bytes32,string,bytes)":"3b108568","upgradeToAndCall(address,bytes)":"4f1ef286","userTopUp(address,uint256)":"32aceb73","userTopUpMp(address,address)":"b660f9ff","userTopUpOther(address,address,uint256)":"50da8adf","whitelistUsers(address)":"6ec55dbc","workerAdmin()":"984e85f5","workerReputation(address)":"08a101b8"},"storageLayout":{"storage":[{"astId":47823,"contract":"src/BlueprintV6.sol:BlueprintV6","label":"VERSION","offset":0,"slot":"0","type":"t_string_storage"},{"astId":47825,"contract":"src/BlueprintV6.sol:BlueprintV6","label":"factor","offset":0,"slot":"1","type":"t_uint256"},{"astId":47827,"contract":"src/BlueprintV6.sol:BlueprintV6","label":"totalProposalRequest","offset":0,"slot":"2","type":"t_uint256"},{"astId":47829,"contract":"src/BlueprintV6.sol:BlueprintV6","label":"totalDeploymentRequest","offset":0,"slot":"3","type":"t_uint256"},{"astId":47833,"contract":"src/BlueprintV6.sol:BlueprintV6","label":"latestProposalRequestID","offset":0,"slot":"4","type":"t_mapping(t_address,t_bytes32)"},{"astId":47837,"contract":"src/BlueprintV6.sol:BlueprintV6","label":"latestDeploymentRequestID","offset":0,"slot":"5","type":"t_mapping(t_address,t_bytes32)"},{"astId":47841,"contract":"src/BlueprintV6.sol:BlueprintV6","label":"latestProjectID","offset":0,"slot":"6","type":"t_mapping(t_address,t_bytes32)"},{"astId":47845,"contract":"src/BlueprintV6.sol:BlueprintV6","label":"solverReputation","offset":0,"slot":"7","type":"t_mapping(t_address,t_uint256)"},{"astId":47849,"contract":"src/BlueprintV6.sol:BlueprintV6","label":"workerReputation","offset":0,"slot":"8","type":"t_mapping(t_address,t_uint256)"},{"astId":47854,"contract":"src/BlueprintV6.sol:BlueprintV6","label":"requestDeploymentStatus","offset":0,"slot":"9","type":"t_mapping(t_bytes32,t_struct(DeploymentStatus)47821_storage)"},{"astId":47858,"contract":"src/BlueprintV6.sol:BlueprintV6","label":"deploymentProof","offset":0,"slot":"10","type":"t_mapping(t_bytes32,t_string_storage)"},{"astId":47862,"contract":"src/BlueprintV6.sol:BlueprintV6","label":"requestSolver","offset":0,"slot":"11","type":"t_mapping(t_bytes32,t_address)"},{"astId":47866,"contract":"src/BlueprintV6.sol:BlueprintV6","label":"requestWorker","offset":0,"slot":"12","type":"t_mapping(t_bytes32,t_address)"},{"astId":47870,"contract":"src/BlueprintV6.sol:BlueprintV6","label":"projectIDs","offset":0,"slot":"13","type":"t_mapping(t_bytes32,t_address)"},{"astId":47890,"contract":"src/BlueprintV6.sol:BlueprintV6","label":"projects","offset":0,"slot":"14","type":"t_mapping(t_bytes32,t_struct(Project)47879_storage)"},{"astId":47895,"contract":"src/BlueprintV6.sol:BlueprintV6","label":"deploymentIdList","offset":0,"slot":"15","type":"t_mapping(t_bytes32,t_array(t_bytes32)dyn_storage)"},{"astId":47898,"contract":"src/BlueprintV6.sol:BlueprintV6","label":"workerAddresses","offset":0,"slot":"16","type":"t_array(t_address)dyn_storage"},{"astId":47902,"contract":"src/BlueprintV6.sol:BlueprintV6","label":"workersPublicKey","offset":0,"slot":"17","type":"t_mapping(t_address,t_bytes_storage)"},{"astId":47907,"contract":"src/BlueprintV6.sol:BlueprintV6","label":"workerAddressesMp","offset":0,"slot":"18","type":"t_mapping(t_string_memory_ptr,t_array(t_address)dyn_storage)"},{"astId":47915,"contract":"src/BlueprintV6.sol:BlueprintV6","label":"nftTokenIdMap","offset":0,"slot":"19","type":"t_mapping(t_uint256,t_enum(Status)47815)"},{"astId":47917,"contract":"src/BlueprintV6.sol:BlueprintV6","label":"nftContractAddress","offset":0,"slot":"20","type":"t_address"},{"astId":47922,"contract":"src/BlueprintV6.sol:BlueprintV6","label":"whitelistUsers","offset":0,"slot":"21","type":"t_mapping(t_address,t_enum(Status)47815)"},{"astId":47926,"contract":"src/BlueprintV6.sol:BlueprintV6","label":"deploymentOwners","offset":0,"slot":"22","type":"t_mapping(t_bytes32,t_address)"},{"astId":47937,"contract":"src/BlueprintV6.sol:BlueprintV6","label":"feeCollectionWalletAddress","offset":0,"slot":"23","type":"t_address"},{"astId":47942,"contract":"src/BlueprintV6.sol:BlueprintV6","label":"paymentAddressesMp","offset":0,"slot":"24","type":"t_mapping(t_string_memory_ptr,t_array(t_address)dyn_storage)"},{"astId":47946,"contract":"src/BlueprintV6.sol:BlueprintV6","label":"paymentAddressEnableMp","offset":0,"slot":"25","type":"t_mapping(t_address,t_bool)"},{"astId":47952,"contract":"src/BlueprintV6.sol:BlueprintV6","label":"paymentOpCostMp","offset":0,"slot":"26","type":"t_mapping(t_address,t_mapping(t_string_memory_ptr,t_uint256))"},{"astId":47958,"contract":"src/BlueprintV6.sol:BlueprintV6","label":"userTopUpMp","offset":0,"slot":"27","type":"t_mapping(t_address,t_mapping(t_address,t_uint256))"},{"astId":47962,"contract":"src/BlueprintV6.sol:BlueprintV6","label":"userNonceMp","offset":0,"slot":"28","type":"t_mapping(t_address,t_uint256)"},{"astId":47964,"contract":"src/BlueprintV6.sol:BlueprintV6","label":"workerAdmin","offset":0,"slot":"29","type":"t_address"},{"astId":47968,"contract":"src/BlueprintV6.sol:BlueprintV6","label":"trustWorkerMp","offset":0,"slot":"30","type":"t_mapping(t_address,t_bool)"},{"astId":47972,"contract":"src/BlueprintV6.sol:BlueprintV6","label":"requestIDToProjectID","offset":0,"slot":"31","type":"t_mapping(t_bytes32,t_bytes32)"}],"types":{"t_address":{"encoding":"inplace","label":"address","numberOfBytes":"20"},"t_array(t_address)dyn_storage":{"encoding":"dynamic_array","label":"address[]","numberOfBytes":"32","base":"t_address"},"t_array(t_bytes32)dyn_storage":{"encoding":"dynamic_array","label":"bytes32[]","numberOfBytes":"32","base":"t_bytes32"},"t_bool":{"encoding":"inplace","label":"bool","numberOfBytes":"1"},"t_bytes32":{"encoding":"inplace","label":"bytes32","numberOfBytes":"32"},"t_bytes_storage":{"encoding":"bytes","label":"bytes","numberOfBytes":"32"},"t_enum(Status)47815":{"encoding":"inplace","label":"enum BlueprintCore.Status","numberOfBytes":"1"},"t_mapping(t_address,t_bool)":{"encoding":"mapping","key":"t_address","label":"mapping(address => bool)","numberOfBytes":"32","value":"t_bool"},"t_mapping(t_address,t_bytes32)":{"encoding":"mapping","key":"t_address","label":"mapping(address => bytes32)","numberOfBytes":"32","value":"t_bytes32"},"t_mapping(t_address,t_bytes_storage)":{"encoding":"mapping","key":"t_address","label":"mapping(address => bytes)","numberOfBytes":"32","value":"t_bytes_storage"},"t_mapping(t_address,t_enum(Status)47815)":{"encoding":"mapping","key":"t_address","label":"mapping(address => enum BlueprintCore.Status)","numberOfBytes":"32","value":"t_enum(Status)47815"},"t_mapping(t_address,t_mapping(t_address,t_uint256))":{"encoding":"mapping","key":"t_address","label":"mapping(address => mapping(address => uint256))","numberOfBytes":"32","value":"t_mapping(t_address,t_uint256)"},"t_mapping(t_address,t_mapping(t_string_memory_ptr,t_uint256))":{"encoding":"mapping","key":"t_address","label":"mapping(address => mapping(string => uint256))","numberOfBytes":"32","value":"t_mapping(t_string_memory_ptr,t_uint256)"},"t_mapping(t_address,t_uint256)":{"encoding":"mapping","key":"t_address","label":"mapping(address => uint256)","numberOfBytes":"32","value":"t_uint256"},"t_mapping(t_bytes32,t_address)":{"encoding":"mapping","key":"t_bytes32","label":"mapping(bytes32 => address)","numberOfBytes":"32","value":"t_address"},"t_mapping(t_bytes32,t_array(t_bytes32)dyn_storage)":{"encoding":"mapping","key":"t_bytes32","label":"mapping(bytes32 => bytes32[])","numberOfBytes":"32","value":"t_array(t_bytes32)dyn_storage"},"t_mapping(t_bytes32,t_bytes32)":{"encoding":"mapping","key":"t_bytes32","label":"mapping(bytes32 => bytes32)","numberOfBytes":"32","value":"t_bytes32"},"t_mapping(t_bytes32,t_string_storage)":{"encoding":"mapping","key":"t_bytes32","label":"mapping(bytes32 => string)","numberOfBytes":"32","value":"t_string_storage"},"t_mapping(t_bytes32,t_struct(DeploymentStatus)47821_storage)":{"encoding":"mapping","key":"t_bytes32","label":"mapping(bytes32 => struct BlueprintCore.DeploymentStatus)","numberOfBytes":"32","value":"t_struct(DeploymentStatus)47821_storage"},"t_mapping(t_bytes32,t_struct(Project)47879_storage)":{"encoding":"mapping","key":"t_bytes32","label":"mapping(bytes32 => struct BlueprintCore.Project)","numberOfBytes":"32","value":"t_struct(Project)47879_storage"},"t_mapping(t_string_memory_ptr,t_array(t_address)dyn_storage)":{"encoding":"mapping","key":"t_string_memory_ptr","label":"mapping(string => address[])","numberOfBytes":"32","value":"t_array(t_address)dyn_storage"},"t_mapping(t_string_memory_ptr,t_uint256)":{"encoding":"mapping","key":"t_string_memory_ptr","label":"mapping(string => uint256)","numberOfBytes":"32","value":"t_uint256"},"t_mapping(t_uint256,t_enum(Status)47815)":{"encoding":"mapping","key":"t_uint256","label":"mapping(uint256 => enum BlueprintCore.Status)","numberOfBytes":"32","value":"t_enum(Status)47815"},"t_string_memory_ptr":{"encoding":"bytes","label":"string","numberOfBytes":"32"},"t_string_storage":{"encoding":"bytes","label":"string","numberOfBytes":"32"},"t_struct(DeploymentStatus)47821_storage":{"encoding":"inplace","label":"struct BlueprintCore.DeploymentStatus","numberOfBytes":"32","members":[{"astId":47818,"contract":"src/BlueprintV6.sol:BlueprintV6","label":"status","offset":0,"slot":"0","type":"t_enum(Status)47815"},{"astId":47820,"contract":"src/BlueprintV6.sol:BlueprintV6","label":"deployWorkerAddr","offset":1,"slot":"0","type":"t_address"}]},"t_struct(Project)47879_storage":{"encoding":"inplace","label":"struct BlueprintCore.Project","numberOfBytes":"128","members":[{"astId":47872,"contract":"src/BlueprintV6.sol:BlueprintV6","label":"id","offset":0,"slot":"0","type":"t_bytes32"},{"astId":47874,"contract":"src/BlueprintV6.sol:BlueprintV6","label":"requestProposalID","offset":0,"slot":"1","type":"t_bytes32"},{"astId":47876,"contract":"src/BlueprintV6.sol:BlueprintV6","label":"requestDeploymentID","offset":0,"slot":"2","type":"t_bytes32"},{"astId":47878,"contract":"src/BlueprintV6.sol:BlueprintV6","label":"proposedSolverAddr","offset":0,"slot":"3","type":"t_address"}]},"t_uint256":{"encoding":"inplace","label":"uint256","numberOfBytes":"32"}}},"id":56}