{"abi":[{"type":"function","name":"CrestalTokenAddress","inputs":[],"outputs":[{"name":"","type":"address","internalType":"address"}],"stateMutability":"view"},{"type":"function","name":"DEPLOYMENT_REQUEST_TYPEHASH","inputs":[],"outputs":[{"name":"","type":"bytes32","internalType":"bytes32"}],"stateMutability":"view"},{"type":"function","name":"NFTContractAddress","inputs":[],"outputs":[{"name":"","type":"address","internalType":"address"}],"stateMutability":"view"},{"type":"function","name":"NFT_Contract_Address","inputs":[],"outputs":[{"name":"","type":"address","internalType":"address"}],"stateMutability":"view"},{"type":"function","name":"PROPOSAL_REQUEST_TYPEHASH","inputs":[],"outputs":[{"name":"","type":"bytes32","internalType":"bytes32"}],"stateMutability":"view"},{"type":"function","name":"SIGNING_DOMAIN","inputs":[],"outputs":[{"name":"","type":"string","internalType":"string"}],"stateMutability":"view"},{"type":"function","name":"UPGRADE_INTERFACE_VERSION","inputs":[],"outputs":[{"name":"","type":"string","internalType":"string"}],"stateMutability":"view"},{"type":"function","name":"VERSION","inputs":[],"outputs":[{"name":"","type":"string","internalType":"string"}],"stateMutability":"view"},{"type":"function","name":"WhitelistUsers","inputs":[{"name":"","type":"address","internalType":"address"}],"outputs":[{"name":"","type":"uint8","internalType":"enum Blueprint.Status"}],"stateMutability":"view"},{"type":"function","name":"checkNFTOwnership","inputs":[{"name":"nftTokenAddress","type":"address","internalType":"address"},{"name":"nftId","type":"uint256","internalType":"uint256"},{"name":"userAddress","type":"address","internalType":"address"}],"outputs":[{"name":"","type":"bool","internalType":"bool"}],"stateMutability":"view"},{"type":"function","name":"createAgentWithNFT","inputs":[{"name":"projectId","type":"bytes32","internalType":"bytes32"},{"name":"base64Proposal","type":"string","internalType":"string"},{"name":"privateWorkerAddress","type":"address","internalType":"address"},{"name":"serverURL","type":"string","internalType":"string"},{"name":"tokenId","type":"uint256","internalType":"uint256"}],"outputs":[{"name":"requestID","type":"bytes32","internalType":"bytes32"}],"stateMutability":"nonpayable"},{"type":"function","name":"createAgentWithSigWithNFT","inputs":[{"name":"projectId","type":"bytes32","internalType":"bytes32"},{"name":"base64Proposal","type":"string","internalType":"string"},{"name":"privateWorkerAddress","type":"address","internalType":"address"},{"name":"serverURL","type":"string","internalType":"string"},{"name":"signature","type":"bytes","internalType":"bytes"},{"name":"tokenId","type":"uint256","internalType":"uint256"}],"outputs":[{"name":"requestID","type":"bytes32","internalType":"bytes32"}],"stateMutability":"nonpayable"},{"type":"function","name":"createAgentWithWhitelistUsers","inputs":[{"name":"projectId","type":"bytes32","internalType":"bytes32"},{"name":"base64Proposal","type":"string","internalType":"string"},{"name":"privateWorkerAddress","type":"address","internalType":"address"},{"name":"serverURL","type":"string","internalType":"string"},{"name":"tokenId","type":"uint256","internalType":"uint256"}],"outputs":[{"name":"requestID","type":"bytes32","internalType":"bytes32"}],"stateMutability":"nonpayable"},{"type":"function","name":"createAgentWithWhitelistUsersWithSig","inputs":[{"name":"projectId","type":"bytes32","internalType":"bytes32"},{"name":"base64Proposal","type":"string","internalType":"string"},{"name":"privateWorkerAddress","type":"address","internalType":"address"},{"name":"serverURL","type":"string","internalType":"string"},{"name":"tokenId","type":"uint256","internalType":"uint256"},{"name":"signature","type":"bytes","internalType":"bytes"}],"outputs":[{"name":"requestID","type":"bytes32","internalType":"bytes32"}],"stateMutability":"nonpayable"},{"type":"function","name":"createDeploymentRequest","inputs":[{"name":"projectId","type":"bytes32","internalType":"bytes32"},{"name":"solverAddress","type":"address","internalType":"address"},{"name":"base64Proposal","type":"string","internalType":"string"},{"name":"serverURL","type":"string","internalType":"string"}],"outputs":[{"name":"requestID","type":"bytes32","internalType":"bytes32"}],"stateMutability":"nonpayable"},{"type":"function","name":"createDeploymentRequestWithSig","inputs":[{"name":"projectId","type":"bytes32","internalType":"bytes32"},{"name":"solverAddress","type":"address","internalType":"address"},{"name":"base64Proposal","type":"string","internalType":"string"},{"name":"serverURL","type":"string","internalType":"string"},{"name":"signature","type":"bytes","internalType":"bytes"}],"outputs":[{"name":"requestID","type":"bytes32","internalType":"bytes32"}],"stateMutability":"nonpayable"},{"type":"function","name":"createMultipleDeploymentRequest","inputs":[{"name":"projectId","type":"bytes32","internalType":"bytes32"},{"name":"solverAddress","type":"address","internalType":"address"},{"name":"workerAddress","type":"address","internalType":"address"},{"name":"base64Proposals","type":"string[]","internalType":"string[]"},{"name":"serverURL","type":"string","internalType":"string"}],"outputs":[{"name":"projectDeploymentID","type":"bytes32","internalType":"bytes32"}],"stateMutability":"nonpayable"},{"type":"function","name":"createPrivateDeploymentRequest","inputs":[{"name":"projectId","type":"bytes32","internalType":"bytes32"},{"name":"solverAddress","type":"address","internalType":"address"},{"name":"privateWorkerAddress","type":"address","internalType":"address"},{"name":"base64Proposal","type":"string","internalType":"string"},{"name":"serverURL","type":"string","internalType":"string"}],"outputs":[{"name":"requestID","type":"bytes32","internalType":"bytes32"}],"stateMutability":"nonpayable"},{"type":"function","name":"createPrivateDeploymentRequestWithSig","inputs":[{"name":"projectId","type":"bytes32","internalType":"bytes32"},{"name":"solverAddress","type":"address","internalType":"address"},{"name":"privateWorkerAddress","type":"address","internalType":"address"},{"name":"base64Proposal","type":"string","internalType":"string"},{"name":"serverURL","type":"string","internalType":"string"},{"name":"signature","type":"bytes","internalType":"bytes"}],"outputs":[{"name":"requestID","type":"bytes32","internalType":"bytes32"}],"stateMutability":"nonpayable"},{"type":"function","name":"createPrivateProposalRequest","inputs":[{"name":"projectId","type":"bytes32","internalType":"bytes32"},{"name":"privateSolverAddress","type":"address","internalType":"address"},{"name":"base64RecParam","type":"string","internalType":"string"},{"name":"serverURL","type":"string","internalType":"string"}],"outputs":[{"name":"requestID","type":"bytes32","internalType":"bytes32"}],"stateMutability":"nonpayable"},{"type":"function","name":"createProjectID","inputs":[],"outputs":[{"name":"projectId","type":"bytes32","internalType":"bytes32"}],"stateMutability":"nonpayable"},{"type":"function","name":"createProjectIDAndDeploymentRequest","inputs":[{"name":"projectId","type":"bytes32","internalType":"bytes32"},{"name":"base64Proposal","type":"string","internalType":"string"},{"name":"serverURL","type":"string","internalType":"string"}],"outputs":[{"name":"requestID","type":"bytes32","internalType":"bytes32"}],"stateMutability":"nonpayable"},{"type":"function","name":"createProjectIDAndDeploymentRequestWithSig","inputs":[{"name":"projectId","type":"bytes32","internalType":"bytes32"},{"name":"base64Proposal","type":"string","internalType":"string"},{"name":"serverURL","type":"string","internalType":"string"},{"name":"signature","type":"bytes","internalType":"bytes"}],"outputs":[{"name":"requestID","type":"bytes32","internalType":"bytes32"}],"stateMutability":"nonpayable"},{"type":"function","name":"createProjectIDAndPrivateDeploymentRequest","inputs":[{"name":"projectId","type":"bytes32","internalType":"bytes32"},{"name":"base64Proposal","type":"string","internalType":"string"},{"name":"privateWorkerAddress","type":"address","internalType":"address"},{"name":"serverURL","type":"string","internalType":"string"}],"outputs":[{"name":"requestID","type":"bytes32","internalType":"bytes32"}],"stateMutability":"nonpayable"},{"type":"function","name":"createProjectIDAndPrivateDeploymentRequestWithSig","inputs":[{"name":"projectId","type":"bytes32","internalType":"bytes32"},{"name":"base64Proposal","type":"string","internalType":"string"},{"name":"privateWorkerAddress","type":"address","internalType":"address"},{"name":"serverURL","type":"string","internalType":"string"},{"name":"signature","type":"bytes","internalType":"bytes"}],"outputs":[{"name":"requestID","type":"bytes32","internalType":"bytes32"}],"stateMutability":"nonpayable"},{"type":"function","name":"createProjectIDAndProposalRequest","inputs":[{"name":"projectId","type":"bytes32","internalType":"bytes32"},{"name":"base64RecParam","type":"string","internalType":"string"},{"name":"serverURL","type":"string","internalType":"string"}],"outputs":[{"name":"requestID","type":"bytes32","internalType":"bytes32"}],"stateMutability":"nonpayable"},{"type":"function","name":"createProjectIDAndProposalRequestWithSig","inputs":[{"name":"projectId","type":"bytes32","internalType":"bytes32"},{"name":"base64RecParam","type":"string","internalType":"string"},{"name":"serverURL","type":"string","internalType":"string"},{"name":"signature","type":"bytes","internalType":"bytes"}],"outputs":[{"name":"requestID","type":"bytes32","internalType":"bytes32"}],"stateMutability":"nonpayable"},{"type":"function","name":"createProjectIdAndPrivateDeploymentWithConfig","inputs":[{"name":"projectId","type":"bytes32","internalType":"bytes32"},{"name":"base64Proposal","type":"string","internalType":"string"},{"name":"privateWorkerAddress","type":"address","internalType":"address"},{"name":"serverURL","type":"string","internalType":"string"}],"outputs":[{"name":"requestID","type":"bytes32","internalType":"bytes32"}],"stateMutability":"nonpayable"},{"type":"function","name":"createProposalRequest","inputs":[{"name":"projectId","type":"bytes32","internalType":"bytes32"},{"name":"base64RecParam","type":"string","internalType":"string"},{"name":"serverURL","type":"string","internalType":"string"}],"outputs":[{"name":"requestID","type":"bytes32","internalType":"bytes32"}],"stateMutability":"nonpayable"},{"type":"function","name":"createProposalRequestWithSig","inputs":[{"name":"projectId","type":"bytes32","internalType":"bytes32"},{"name":"base64RecParam","type":"string","internalType":"string"},{"name":"serverURL","type":"string","internalType":"string"},{"name":"signature","type":"bytes","internalType":"bytes"}],"outputs":[{"name":"requestID","type":"bytes32","internalType":"bytes32"}],"stateMutability":"nonpayable"},{"type":"function","name":"deploymentIdList","inputs":[{"name":"","type":"bytes32","internalType":"bytes32"},{"name":"","type":"uint256","internalType":"uint256"}],"outputs":[{"name":"","type":"bytes32","internalType":"bytes32"}],"stateMutability":"view"},{"type":"function","name":"dummyAddress","inputs":[],"outputs":[{"name":"","type":"address","internalType":"address"}],"stateMutability":"view"},{"type":"function","name":"eip712Domain","inputs":[],"outputs":[{"name":"fields","type":"bytes1","internalType":"bytes1"},{"name":"name","type":"string","internalType":"string"},{"name":"version","type":"string","internalType":"string"},{"name":"chainId","type":"uint256","internalType":"uint256"},{"name":"verifyingContract","type":"address","internalType":"address"},{"name":"salt","type":"bytes32","internalType":"bytes32"},{"name":"extensions","type":"uint256[]","internalType":"uint256[]"}],"stateMutability":"view"},{"type":"function","name":"factor","inputs":[],"outputs":[{"name":"","type":"uint256","internalType":"uint256"}],"stateMutability":"view"},{"type":"function","name":"getAddress","inputs":[],"outputs":[{"name":"","type":"address","internalType":"address"}],"stateMutability":"view"},{"type":"function","name":"getDeploymentProof","inputs":[{"name":"requestID","type":"bytes32","internalType":"bytes32"}],"outputs":[{"name":"","type":"string","internalType":"string"}],"stateMutability":"view"},{"type":"function","name":"getDeploymentStatus","inputs":[{"name":"requestID","type":"bytes32","internalType":"bytes32"}],"outputs":[{"name":"","type":"uint8","internalType":"enum Blueprint.Status"},{"name":"","type":"address","internalType":"address"}],"stateMutability":"view"},{"type":"function","name":"getEIP712ContractAddress","inputs":[],"outputs":[{"name":"","type":"address","internalType":"address"}],"stateMutability":"view"},{"type":"function","name":"getLatestDeploymentRequestID","inputs":[{"name":"addr","type":"address","internalType":"address"}],"outputs":[{"name":"","type":"bytes32","internalType":"bytes32"}],"stateMutability":"view"},{"type":"function","name":"getLatestProposalRequestID","inputs":[{"name":"addr","type":"address","internalType":"address"}],"outputs":[{"name":"","type":"bytes32","internalType":"bytes32"}],"stateMutability":"view"},{"type":"function","name":"getLatestUserProjectID","inputs":[{"name":"addr","type":"address","internalType":"address"}],"outputs":[{"name":"","type":"bytes32","internalType":"bytes32"}],"stateMutability":"view"},{"type":"function","name":"getProjectInfo","inputs":[{"name":"projectId","type":"bytes32","internalType":"bytes32"}],"outputs":[{"name":"","type":"address","internalType":"address"},{"name":"","type":"bytes32","internalType":"bytes32"},{"name":"","type":"bytes32[]","internalType":"bytes32[]"}],"stateMutability":"view"},{"type":"function","name":"getReputation","inputs":[{"name":"addr","type":"address","internalType":"address"}],"outputs":[{"name":"","type":"uint256","internalType":"uint256"}],"stateMutability":"view"},{"type":"function","name":"getRequestDeploymentDigest","inputs":[{"name":"projectId","type":"bytes32","internalType":"bytes32"},{"name":"base64RecParam","type":"string","internalType":"string"},{"name":"serverURL","type":"string","internalType":"string"}],"outputs":[{"name":"","type":"bytes32","internalType":"bytes32"}],"stateMutability":"view"},{"type":"function","name":"getRequestProposalDigest","inputs":[{"name":"projectId","type":"bytes32","internalType":"bytes32"},{"name":"base64RecParam","type":"string","internalType":"string"},{"name":"serverURL","type":"string","internalType":"string"}],"outputs":[{"name":"","type":"bytes32","internalType":"bytes32"}],"stateMutability":"view"},{"type":"function","name":"getSignerAddress","inputs":[{"name":"hash","type":"bytes32","internalType":"bytes32"},{"name":"signature","type":"bytes","internalType":"bytes"}],"outputs":[{"name":"","type":"address","internalType":"address"}],"stateMutability":"pure"},{"type":"function","name":"getWorkerAddresses","inputs":[],"outputs":[{"name":"","type":"address[]","internalType":"address[]"}],"stateMutability":"view"},{"type":"function","name":"getWorkerPublicKey","inputs":[{"name":"workerAddress","type":"address","internalType":"address"}],"outputs":[{"name":"publicKey","type":"bytes","internalType":"bytes"}],"stateMutability":"view"},{"type":"function","name":"initialize","inputs":[],"outputs":[],"stateMutability":"nonpayable"},{"type":"function","name":"isWhitelistUser","inputs":[{"name":"userAddress","type":"address","internalType":"address"}],"outputs":[{"name":"","type":"bool","internalType":"bool"}],"stateMutability":"view"},{"type":"function","name":"latestDeploymentRequestID","inputs":[{"name":"","type":"address","internalType":"address"}],"outputs":[{"name":"","type":"bytes32","internalType":"bytes32"}],"stateMutability":"view"},{"type":"function","name":"latestProjectID","inputs":[{"name":"","type":"address","internalType":"address"}],"outputs":[{"name":"","type":"bytes32","internalType":"bytes32"}],"stateMutability":"view"},{"type":"function","name":"latestProposalRequestID","inputs":[{"name":"","type":"address","internalType":"address"}],"outputs":[{"name":"","type":"bytes32","internalType":"bytes32"}],"stateMutability":"view"},{"type":"function","name":"nftTokenIdMap","inputs":[{"name":"","type":"uint256","internalType":"uint256"}],"outputs":[{"name":"","type":"uint8","internalType":"enum Blueprint.Status"}],"stateMutability":"view"},{"type":"function","name":"owner","inputs":[],"outputs":[{"name":"","type":"address","internalType":"address"}],"stateMutability":"view"},{"type":"function","name":"payWithERC20","inputs":[{"name":"erc20TokenAddress","type":"address","internalType":"address"},{"name":"amount","type":"uint256","internalType":"uint256"},{"name":"userAddress","type":"address","internalType":"address"},{"name":"toAddress","type":"address","internalType":"address"}],"outputs":[],"stateMutability":"nonpayable"},{"type":"function","name":"proxiableUUID","inputs":[],"outputs":[{"name":"","type":"bytes32","internalType":"bytes32"}],"stateMutability":"view"},{"type":"function","name":"renounceOwnership","inputs":[],"outputs":[],"stateMutability":"nonpayable"},{"type":"function","name":"requestDeploymentStatus","inputs":[{"name":"","type":"bytes32","internalType":"bytes32"}],"outputs":[{"name":"status","type":"uint8","internalType":"enum Blueprint.Status"},{"name":"deployWorkerAddr","type":"address","internalType":"address"}],"stateMutability":"view"},{"type":"function","name":"resetAgentCreationStatus","inputs":[{"name":"userAddress","type":"address","internalType":"address"},{"name":"tokenId","type":"uint256","internalType":"uint256"}],"outputs":[],"stateMutability":"nonpayable"},{"type":"function","name":"setCrestalTokenAddress","inputs":[{"name":"_crestalTokenAddress","type":"address","internalType":"address"}],"outputs":[],"stateMutability":"nonpayable"},{"type":"function","name":"setNFTContractAddress","inputs":[{"name":"_nftContractAddress","type":"address","internalType":"address"}],"outputs":[],"stateMutability":"nonpayable"},{"type":"function","name":"setWhitelistAddress","inputs":[{"name":"_whitelistAddress","type":"address[]","internalType":"address[]"}],"outputs":[],"stateMutability":"nonpayable"},{"type":"function","name":"setWorkerPublicKey","inputs":[{"name":"publicKey","type":"bytes","internalType":"bytes"}],"outputs":[],"stateMutability":"nonpayable"},{"type":"function","name":"solverReputation","inputs":[{"name":"","type":"address","internalType":"address"}],"outputs":[{"name":"","type":"uint256","internalType":"uint256"}],"stateMutability":"view"},{"type":"function","name":"submitDeploymentRequest","inputs":[{"name":"projectId","type":"bytes32","internalType":"bytes32"},{"name":"requestID","type":"bytes32","internalType":"bytes32"}],"outputs":[{"name":"isAccepted","type":"bool","internalType":"bool"}],"stateMutability":"nonpayable"},{"type":"function","name":"submitProofOfDeployment","inputs":[{"name":"projectId","type":"bytes32","internalType":"bytes32"},{"name":"requestID","type":"bytes32","internalType":"bytes32"},{"name":"proofBase64","type":"string","internalType":"string"}],"outputs":[],"stateMutability":"nonpayable"},{"type":"function","name":"totalDeploymentRequest","inputs":[],"outputs":[{"name":"","type":"uint256","internalType":"uint256"}],"stateMutability":"view"},{"type":"function","name":"totalProposalRequest","inputs":[],"outputs":[{"name":"","type":"uint256","internalType":"uint256"}],"stateMutability":"view"},{"type":"function","name":"transferOwnership","inputs":[{"name":"newOwner","type":"address","internalType":"address"}],"outputs":[],"stateMutability":"nonpayable"},{"type":"function","name":"updateWorkerDeploymentConfig","inputs":[{"name":"projectId","type":"bytes32","internalType":"bytes32"},{"name":"requestID","type":"bytes32","internalType":"bytes32"},{"name":"updatedBase64Config","type":"string","internalType":"string"}],"outputs":[],"stateMutability":"nonpayable"},{"type":"function","name":"updateWorkerDeploymentConfigWithSig","inputs":[{"name":"projectId","type":"bytes32","internalType":"bytes32"},{"name":"requestID","type":"bytes32","internalType":"bytes32"},{"name":"updatedBase64Config","type":"string","internalType":"string"},{"name":"signature","type":"bytes","internalType":"bytes"}],"outputs":[],"stateMutability":"nonpayable"},{"type":"function","name":"upgradeProject","inputs":[{"name":"projectId","type":"bytes32","internalType":"bytes32"}],"outputs":[],"stateMutability":"nonpayable"},{"type":"function","name":"upgradeToAndCall","inputs":[{"name":"newImplementation","type":"address","internalType":"address"},{"name":"data","type":"bytes","internalType":"bytes"}],"outputs":[],"stateMutability":"payable"},{"type":"function","name":"workerReputation","inputs":[{"name":"","type":"address","internalType":"address"}],"outputs":[{"name":"","type":"uint256","internalType":"uint256"}],"stateMutability":"view"},{"type":"event","name":"AcceptDeployment","inputs":[{"name":"projectID","type":"bytes32","indexed":true,"internalType":"bytes32"},{"name":"requestID","type":"bytes32","indexed":true,"internalType":"bytes32"},{"name":"workerAddress","type":"address","indexed":true,"internalType":"address"}],"anonymous":false},{"type":"event","name":"CreateAgent","inputs":[{"name":"projectID","type":"bytes32","indexed":true,"internalType":"bytes32"},{"name":"requestID","type":"bytes32","indexed":true,"internalType":"bytes32"},{"name":"walletAddress","type":"address","indexed":false,"internalType":"address"},{"name":"nftTokenId","type":"uint256","indexed":false,"internalType":"uint256"},{"name":"amount","type":"uint256","indexed":false,"internalType":"uint256"}],"anonymous":false},{"type":"event","name":"CreateProjectID","inputs":[{"name":"projectID","type":"bytes32","indexed":true,"internalType":"bytes32"},{"name":"walletAddress","type":"address","indexed":false,"internalType":"address"}],"anonymous":false},{"type":"event","name":"EIP712DomainChanged","inputs":[],"anonymous":false},{"type":"event","name":"GeneratedProofOfDeployment","inputs":[{"name":"projectID","type":"bytes32","indexed":true,"internalType":"bytes32"},{"name":"requestID","type":"bytes32","indexed":true,"internalType":"bytes32"},{"name":"base64DeploymentProof","type":"string","indexed":false,"internalType":"string"}],"anonymous":false},{"type":"event","name":"Initialized","inputs":[{"name":"version","type":"uint64","indexed":false,"internalType":"uint64"}],"anonymous":false},{"type":"event","name":"OwnershipTransferred","inputs":[{"name":"previousOwner","type":"address","indexed":true,"internalType":"address"},{"name":"newOwner","type":"address","indexed":true,"internalType":"address"}],"anonymous":false},{"type":"event","name":"RequestDeployment","inputs":[{"name":"projectID","type":"bytes32","indexed":true,"internalType":"bytes32"},{"name":"walletAddress","type":"address","indexed":false,"internalType":"address"},{"name":"solverAddress","type":"address","indexed":false,"internalType":"address"},{"name":"requestID","type":"bytes32","indexed":true,"internalType":"bytes32"},{"name":"base64Proposal","type":"string","indexed":false,"internalType":"string"},{"name":"serverURL","type":"string","indexed":false,"internalType":"string"}],"anonymous":false},{"type":"event","name":"RequestPrivateDeployment","inputs":[{"name":"projectID","type":"bytes32","indexed":true,"internalType":"bytes32"},{"name":"walletAddress","type":"address","indexed":false,"internalType":"address"},{"name":"privateWorkerAddress","type":"address","indexed":false,"internalType":"address"},{"name":"solverAddress","type":"address","indexed":false,"internalType":"address"},{"name":"requestID","type":"bytes32","indexed":true,"internalType":"bytes32"},{"name":"base64Proposal","type":"string","indexed":false,"internalType":"string"},{"name":"serverURL","type":"string","indexed":false,"internalType":"string"}],"anonymous":false},{"type":"event","name":"RequestPrivateProposal","inputs":[{"name":"projectID","type":"bytes32","indexed":true,"internalType":"bytes32"},{"name":"walletAddress","type":"address","indexed":false,"internalType":"address"},{"name":"privateSolverAddress","type":"address","indexed":false,"internalType":"address"},{"name":"requestID","type":"bytes32","indexed":true,"internalType":"bytes32"},{"name":"base64RecParam","type":"string","indexed":false,"internalType":"string"},{"name":"serverURL","type":"string","indexed":false,"internalType":"string"}],"anonymous":false},{"type":"event","name":"RequestProposal","inputs":[{"name":"projectID","type":"bytes32","indexed":true,"internalType":"bytes32"},{"name":"walletAddress","type":"address","indexed":false,"internalType":"address"},{"name":"requestID","type":"bytes32","indexed":true,"internalType":"bytes32"},{"name":"base64RecParam","type":"string","indexed":false,"internalType":"string"},{"name":"serverURL","type":"string","indexed":false,"internalType":"string"}],"anonymous":false},{"type":"event","name":"UpdateDeploymentConfig","inputs":[{"name":"projectID","type":"bytes32","indexed":true,"internalType":"bytes32"},{"name":"requestID","type":"bytes32","indexed":true,"internalType":"bytes32"},{"name":"workerAddress","type":"address","indexed":false,"internalType":"address"},{"name":"base64Config","type":"string","indexed":false,"internalType":"string"}],"anonymous":false},{"type":"event","name":"Upgraded","inputs":[{"name":"implementation","type":"address","indexed":true,"internalType":"address"}],"anonymous":false},{"type":"error","name":"AddressEmptyCode","inputs":[{"name":"target","type":"address","internalType":"address"}]},{"type":"error","name":"ECDSAInvalidSignature","inputs":[]},{"type":"error","name":"ECDSAInvalidSignatureLength","inputs":[{"name":"length","type":"uint256","internalType":"uint256"}]},{"type":"error","name":"ECDSAInvalidSignatureS","inputs":[{"name":"s","type":"bytes32","internalType":"bytes32"}]},{"type":"error","name":"ERC1967InvalidImplementation","inputs":[{"name":"implementation","type":"address","internalType":"address"}]},{"type":"error","name":"ERC1967NonPayable","inputs":[]},{"type":"error","name":"FailedCall","inputs":[]},{"type":"error","name":"InvalidInitialization","inputs":[]},{"type":"error","name":"NotInitializing","inputs":[]},{"type":"error","name":"OwnableInvalidOwner","inputs":[{"name":"owner","type":"address","internalType":"address"}]},{"type":"error","name":"OwnableUnauthorizedAccount","inputs":[{"name":"account","type":"address","internalType":"address"}]},{"type":"error","name":"UUPSUnauthorizedCallContext","inputs":[]},{"type":"error","name":"UUPSUnsupportedProxiableUUID","inputs":[{"name":"slot","type":"bytes32","internalType":"bytes32"}]}],"bytecode":{"object":"0x60a0604052306080523480156012575f5ffd5b50608051614e6e6100395f395f8181612ad501528181612afe0152612c3d0152614e6e5ff3fe60806040526004361061042c575f3560e01c80637ce53f491161022b578063b9bb713511610129578063d2a0c275116100b3578063ed3c95c011610078578063ed3c95c014610dda578063f11d367514610e05578063f2fde38b14610e39578063fcc8293914610e58578063ffa1ad7414610e96575f5ffd5b8063d2a0c27514610d11578063e056683314610d30578063e128fced14610d5e578063e2ec525c14610d7d578063e3faad9414610d9c575f5ffd5b8063c13c26eb116100f9578063c13c26eb14610c6c578063c3a1ae2714610c8b578063c4845f5f14610c9f578063c68a7e3214610cbe578063ce1b4ff514610cdd575f5ffd5b8063b9bb713514610bdb578063bae7e16c14610c0f578063be539d3f14610c2e578063c03044f314610c4d575f5ffd5b8063934e218c116101b5578063ad3cb1cc1161017a578063ad3cb1cc14610b2f578063ae53308714610b5f578063af63f49b14610b7e578063b83b431514610b9d578063b99bde3414610bbc575f5ffd5b8063934e218c14610a895780639a7d9ce214610aa85780639c89a0e214610ac7578063a6cda35114610afb578063a97bedfe14610b1a575f5ffd5b8063845fc21a116101fb578063845fc21a146109c957806384717e90146109e857806384b0196e14610a075780638da5cb5b14610a2e578063924b2a2a14610a6a575f5ffd5b80637ce53f49146109565780638129fc1c14610975578063822c737a1461098957806383c49efa146109b4575f5ffd5b806343da75c41161033857806356ed8752116102c25780636aa220e6116102875780636aa220e6146108a3578063715018a6146108c25780637371498c146108d657806376c6062f146108f55780637b31d6f614610923575f5ffd5b806356ed8752146107fc57806359617ef7146108275780635a5edc3814610846578063614190441461086557806362bd459c14610884575f5ffd5b80634ce354f0116103085780634ce354f0146107825780634f1ef286146107a157806352d1902d146107b457806354f703f8146107c85780635516fe1d146107dd575f5ffd5b806343da75c4146106e95780634b6680de146107185780634bcaa626146107445780634caafee214610763575f5ffd5b806323949cd1116103b95780633153796111610389578063315379611461062757806331f4f12d146106625780633550753c1461069557806338cc4831146106b457806339c12636146106c8575f5ffd5b806323949cd1146105b65780632943f3eb146105d557806329c8d938146105f45780632ae189d814610613575f5ffd5b806309470536116103ff57806309470536146104e35780630f7d8e3914610530578063158499ce1461054f578063198583411461057057806319cd16011461058f575f5ffd5b806305b38312146104305780630653433414610460578063078ebeae1461048d57806308a101b8146104b8575b5f5ffd5b34801561043b575f5ffd5b506104435f81565b6040516001600160a01b0390911681526020015b60405180910390f35b34801561046b575f5ffd5b5061047f61047a366004613de0565b610eaa565b604051908152602001610457565b348015610498575f5ffd5b5061047f6104a7366004613e65565b60056020525f908152604090205481565b3480156104c3575f5ffd5b5061047f6104d2366004613e65565b60086020525f908152604090205481565b3480156104ee575f5ffd5b506105226104fd366004613e80565b5f9081526009602052604090205460ff8116916101009091046001600160a01b031690565b604051610457929190613ecb565b34801561053b575f5ffd5b5061044361054a366004613ef1565b610fbf565b34801561055a575f5ffd5b5061056e610569366004613f34565b611020565b005b34801561057b575f5ffd5b5061047f61058a366004613fa3565b6110a2565b34801561059a575f5ffd5b50610443737d8be0dd8915e3511ffddabdd631812be824f57881565b3480156105c1575f5ffd5b5061056e6105d0366004613e65565b6111ec565b3480156105e0575f5ffd5b5061047f6105ef366004614052565b611216565b3480156105ff575f5ffd5b50601354610443906001600160a01b031681565b34801561061e575f5ffd5b5061047f611249565b348015610632575f5ffd5b50610655610641366004613e65565b60156020525f908152604090205460ff1681565b60405161045791906140e7565b34801561066d575f5ffd5b5061047f7f60a8eecec858932ab2ff591a4ad5829a185228029a1c74d3dfb34bf17b42561681565b3480156106a0575f5ffd5b5061056e6106af366004613e80565b61129d565b3480156106bf575f5ffd5b5061044361131b565b3480156106d3575f5ffd5b506106dc611332565b60405161045791906140f5565b3480156106f4575f5ffd5b50610708610703366004614140565b611392565b6040519015158152602001610457565b348015610723575f5ffd5b50610737610732366004613e80565b611417565b60405161045791906141ad565b34801561074f575f5ffd5b5061056e61075e3660046141bf565b6114b6565b34801561076e575f5ffd5b5061073761077d366004613e65565b611532565b34801561078d575f5ffd5b5061047f61079c366004614052565b611558565b61056e6107af36600461421b565b611581565b3480156107bf575f5ffd5b5061047f6115a0565b3480156107d3575f5ffd5b5061047f60015481565b3480156107e8575f5ffd5b5061047f6107f7366004614052565b6115bb565b348015610807575f5ffd5b5061047f610816366004613e65565b60066020525f908152604090205481565b348015610832575f5ffd5b5061047f610841366004614251565b6115ed565b348015610851575f5ffd5b5061056e610860366004614290565b611644565b348015610870575f5ffd5b5061047f61087f3660046142c6565b61168f565b34801561088f575f5ffd5b5061047f61089e366004614377565b6116c6565b3480156108ae575f5ffd5b5061056e6108bd366004613e65565b61174d565b3480156108cd575f5ffd5b5061056e611777565b3480156108e1575f5ffd5b5061047f6108f0366004614251565b61178a565b348015610900575f5ffd5b5061065561090f366004613e80565b60126020525f908152604090205460ff1681565b34801561092e575f5ffd5b5061047f7fe5726589ac93743b6d2436bf498a0c2b0f4c8e021b2693576ae35457620d338d81565b348015610961575f5ffd5b5061047f6109703660046143e2565b611799565b348015610980575f5ffd5b5061056e6117a7565b348015610994575f5ffd5b5061047f6109a3366004613e65565b60046020525f908152604090205481565b3480156109bf575f5ffd5b5061047f60035481565b3480156109d4575f5ffd5b5061056e6109e3366004614448565b61199b565b3480156109f3575f5ffd5b5061047f610a02366004614377565b6119e0565b348015610a12575f5ffd5b50610a1b6119f5565b6040516104579796959493929190614472565b348015610a39575f5ffd5b507f9016d09d72d40fdae2fd8ceac6b6234c7706214fd39c1cd1e609a0528c199300546001600160a01b0316610443565b348015610a75575f5ffd5b5061047f610a84366004614377565b611a9e565b348015610a94575f5ffd5b5061047f610aa3366004614508565b611ab5565b348015610ab3575f5ffd5b5061047f610ac23660046145af565b611aeb565b348015610ad2575f5ffd5b5061047f610ae1366004613e65565b6001600160a01b03165f9081526007602052604090205490565b348015610b06575f5ffd5b5061047f610b15366004614616565b611b14565b348015610b25575f5ffd5b5061047f60025481565b348015610b3a575f5ffd5b50610737604051806040016040528060058152602001640352e302e360dc1b81525081565b348015610b6a575f5ffd5b5061056e610b7936600461471e565b611d6e565b348015610b89575f5ffd5b50610708610b98366004613e65565b611ee2565b348015610ba8575f5ffd5b5061047f610bb73660046143e2565b611f18565b348015610bc7575f5ffd5b50601454610443906001600160a01b031681565b348015610be6575f5ffd5b5061047f610bf5366004613e65565b6001600160a01b03165f9081526005602052604090205490565b348015610c1a575f5ffd5b5061047f610c2936600461476e565b611fb0565b348015610c39575f5ffd5b50610708610c483660046147a4565b611fc9565b348015610c58575f5ffd5b5061047f610c67366004614377565b6121d5565b348015610c77575f5ffd5b5061047f610c86366004613de0565b612232565b348015610c96575f5ffd5b50610443612241565b348015610caa575f5ffd5b5061047f610cb9366004614377565b61224f565b348015610cc9575f5ffd5b5061056e610cd83660046147c4565b61225d565b348015610ce8575f5ffd5b5061047f610cf7366004613e65565b6001600160a01b03165f9081526006602052604090205490565b348015610d1c575f5ffd5b5061047f610d2b3660046147a4565b612269565b348015610d3b575f5ffd5b50610d4f610d4a366004613e80565b612294565b604051610457939291906147f9565b348015610d69575f5ffd5b5061056e610d783660046147c4565b61235c565b348015610d88575f5ffd5b5061047f610d97366004614848565b612527565b348015610da7575f5ffd5b50610737604051806040016040528060138152602001726170702e6372657374616c2e6e6574776f726b60681b81525081565b348015610de5575f5ffd5b5061047f610df4366004613e65565b60076020525f908152604090205481565b348015610e10575f5ffd5b5061047f610e1f366004613e65565b6001600160a01b03165f9081526004602052604090205490565b348015610e44575f5ffd5b5061056e610e53366004613e65565b612551565b348015610e63575f5ffd5b50610522610e72366004613e80565b60096020525f908152604090205460ff81169061010090046001600160a01b031682565b348015610ea1575f5ffd5b5061073761258e565b5f80335f9081526015602052604090205460ff166005811115610ecf57610ecf613e97565b03610f1c5760405162461bcd60e51b81526020600482015260186024820152771d5cd95c881a5cc81b9bdd081a5b881dda1a5d195b1a5cdd60421b60448201526064015b60405180910390fd5b6002335f9081526015602052604090205460ff166005811115610f4157610f41613e97565b03610f8e5760405162461bcd60e51b815260206004820152601a60248201527f7573657220616c72656164792063726561746564206167656e740000000000006044820152606401610f13565b610f9c338787878787612619565b335f908152601560205260409020805460ff191660021790559695505050505050565b5f5f610fcb848461278c565b90506001600160a01b0381166110175760405162461bcd60e51b8152602060048201526011602482015270496e76616c6964207369676e617475726560781b6044820152606401610f13565b90505b92915050565b6110286127b4565b5f5b8181101561109d57600160155f858585818110611049576110496148e7565b905060200201602081019061105e9190613e65565b6001600160a01b0316815260208101919091526040015f20805460ff1916600183600581111561109057611090613e97565b021790555060010161102a565b505050565b5f5f6110af8888876116c6565b90505f6110bc8285610fbf565b90505f6001600160a01b0382165f9081526015602052604090205460ff1660058111156110eb576110eb613e97565b036111335760405162461bcd60e51b81526020600482015260186024820152771d5cd95c881a5cc81b9bdd081a5b881dda1a5d195b1a5cdd60421b6044820152606401610f13565b60026001600160a01b0382165f9081526015602052604090205460ff16600581111561116157611161613e97565b036111ae5760405162461bcd60e51b815260206004820152601a60248201527f7573657220616c72656164792063726561746564206167656e740000000000006044820152606401610f13565b6111bc818a8a8a8a8a612619565b6001600160a01b03919091165f908152601560205260409020805460ff1916600217905598975050505050505050565b6111f46127b4565b601380546001600160a01b0319166001600160a01b0392909216919091179055565b5f5f6112238686866121d5565b90505f6112308285610fbf565b905061123e8188888861280f565b979650505050505050565b604080514260208201526bffffffffffffffffffffffff193360601b16918101919091524660548201525f9060740160405160208183030381529060405280519060200120905061129a8133612854565b90565b5f818152600e602052604090205481901515806112cf57505f818152600d60205260409020546001600160a01b031615155b6112eb5760405162461bcd60e51b8152600401610f13906148fb565b505f908152600e6020526040812060018101829055600281019190915560030180546001600160a01b0319169055565b5f5f6113256119f5565b5090979650505050505050565b6060601080548060200260200160405190810160405280929190818152602001828054801561138857602002820191905f5260205f20905b81546001600160a01b0316815260019091019060200180831161136a575b5050505050905090565b6040516331a9108f60e11b8152600481018390525f9084906001600160a01b038481169190831690636352211e90602401602060405180830381865afa1580156113de573d5f5f3e3d5ffd5b505050506040513d601f19601f820116820180604052508101906114029190614932565b6001600160a01b0316149150505b9392505050565b5f818152600a602052604090208054606091906114339061494d565b80601f016020809104026020016040519081016040528092919081815260200182805461145f9061494d565b80156114aa5780601f10611481576101008083540402835291602001916114aa565b820191905f5260205f20905b81548152906001019060200180831161148d57829003601f168201915b50505050509050919050565b335f90815260116020526040902080546114cf9061494d565b90505f0361151957601080546001810182555f919091527f1b6847dc741a1b0cd08d278845f9d819d87b734759afb55fe2de5cb82a9ae6720180546001600160a01b031916331790555b335f90815260116020526040902061109d8284836149c9565b6001600160a01b0381165f9081526011602052604090208054606091906114339061494d565b5f5f6115658686866116c6565b90505f6115728285610fbf565b905061123e8188885f896129a3565b611589612aca565b61159282612b6e565b61159c8282612b76565b5050565b5f6115a9612c32565b505f516020614df95f395f51905f5290565b5f5f6115c88686866121d5565b90505f6115d58285610fbf565b90506115e18782612854565b61123e8188888861280f565b5f6115fb3386868686612c7b565b905080857f1eb4ec68b7c7cf7850d18fd32bdd1cb9e2c9b7e1de32211eef093af3cf262aee338787876040516116349493929190614a82565b60405180910390a3949350505050565b5f61166c8560405180602001604052805f81525060405180602001604052805f8152506116c6565b90505f6116798284610fbf565b905061168781878787612e77565b505050505050565b5f5f61169c8888876116c6565b90505f6116a98286610fbf565b90506116b9818a8a8a8a89612619565b9998505050505050505050565b5f5f7f60a8eecec858932ab2ff591a4ad5829a185228029a1c74d3dfb34bf17b4256168585805190602001208580519060200120604051602001611723949392919093845260208401929092526040830152606082015260800190565b604051602081830303815290604052805190602001209050611744816130f2565b95945050505050565b6117556127b4565b601480546001600160a01b0319166001600160a01b0392909216919091179055565b61177f6127b4565b6117885f61311e565b565b5f6117443386865f878761318e565b5f61174433868686866129a3565b7ff0c57e16840df040f15088dc2f81fe391c3923bec73e23a9662efc9c229c6a00805460069190600160401b900460ff16806117f0575080546001600160401b03808416911610155b1561180e5760405163f92ee8a960e01b815260040160405180910390fd5b805468ffffffffffffffffff19166001600160401b03831617600160401b17815561183833613302565b6040805180820190915260058152640362e302e360dc1b60208201525f906118609082614abf565b5061191d604051806040016040528060138152602001726170702e6372657374616c2e6e6574776f726b60681b8152505f805461189c9061494d565b80601f01602080910402602001604051908101604052809291908181526020018280546118c89061494d565b80156119135780601f106118ea57610100808354040283529160200191611913565b820191905f5260205f20905b8154815290600101906020018083116118f657829003601f168201915b5050505050613313565b611925613325565b601380546001600160a01b031916737d8be0dd8915e3511ffddabdd631812be824f578179055805468ff0000000000000000191681556040516001600160401b03831681527fc7f505b2f371ae2175ee4913f4499e1f2633a7b5936321eed1cdaeb6115181d29060200160405180910390a15050565b6119a36127b4565b6001600160a01b03919091165f908152601560209081526040808320805460ff199081166001179091559383526012909152902080549091169055565b5f6119ed3385858561280f565b949350505050565b5f60608082808083815f516020614dd95f395f51905f528054909150158015611a2057506001810154155b611a645760405162461bcd60e51b81526020600482015260156024820152741152540dcc4c8e88155b9a5b9a5d1a585b1a5e9959605a1b6044820152606401610f13565b611a6c61332d565b611a746133ed565b604080515f80825260208201909252600f60f81b9c939b5091995046985030975095509350915050565b5f611aa98433612854565b6119ed3385858561280f565b5f5f611ac28786866116c6565b90505f611acf8285610fbf565b9050611adf8189895f8a8a61318e565b98975050505050505050565b5f5f611af88787866116c6565b90505f611b058285610fbf565b9050611adf81898989896129a3565b5f6001600160a01b038516611b6b5760405162461bcd60e51b815260206004820152601a60248201527f736f6c76657241646472657373206973206e6f742076616c69640000000000006044820152606401610f13565b82515f03611bbb5760405162461bcd60e51b815260206004820152601e60248201527f62617365363450726f706f73616c7320617272617920697320656d70747900006044820152606401610f13565b5f5b8351811015611d39575f5f611bf0338a8a8a8a8881518110611be157611be16148e7565b60200260200101518a8961342b565b90925090508315611c20575f848152600f6020908152604082208054600181018255908352912001829055611c44565b5f818152600f60209081526040822080546001810182559083529120018290559250825b6001600160a01b038716611caf5781897fcdde0392731ff1ddcc3295ee84db8db4a9ad3d8f34056867af8c9f3b2920d44e338b8a8881518110611c8957611c896148e7565b60200260200101518a604051611ca29493929190614a82565b60405180910390a3611d2f565b81897f26e5b75b543be1cdad2907ba50a99eeb5c3a05381eee18d5b6a565b2bbccd1ba338a8c8b8981518110611ce757611ce76148e7565b60200260200101518b604051611d01959493929190614b79565b60405180910390a3866001600160a01b0316828a5f516020614e195f395f51905f5260405160405180910390a45b5050600101611bbd565b50825160035f828254611d4c9190614bd2565b90915550505f958652600e602052604090952060020185905550929392505050565b6040516370a0823160e01b81526001600160a01b038381166004830152859185918316906370a0823190602401602060405180830381865afa158015611db6573d5f5f3e3d5ffd5b505050506040513d601f19601f82011682018060405250810190611dda9190614be5565b1015611e1f5760405162461bcd60e51b8152602060048201526014602482015273496e73756666696369656e742062616c616e636560601b6044820152606401610f13565b6040516323b872dd60e01b81526001600160a01b0384811660048301528381166024830152604482018690528216906323b872dd906064016020604051808303815f875af1158015611e73573d5f5f3e3d5ffd5b505050506040513d601f19601f82011682018060405250810190611e979190614bfc565b611edb5760405162461bcd60e51b8152602060048201526015602482015274115490cc8c081d1c985b9cd9995c8819985a5b1959605a1b6044820152606401610f13565b5050505050565b5f60016001600160a01b0383165f9081526015602052604090205460ff166005811115611f1157611f11613e97565b1492915050565b5f611f2585858585611799565b5f818152600960209081526040918290205482516101009091046001600160a01b03168152908101829052601f918101919091527f456e6372797074656420636f6e66696720666f72206465706c6f796d656e74006060820152909150819086907fce8f8849a89ebf447425479c86ccdc17f11697958b4bca671fcdf65bc3012c2190608001611634565b5f611fbf33878787878761318e565b9695505050505050565b5f828152600e60205260408120548390151580611ffb57505f818152600d60205260409020546001600160a01b031615155b6120175760405162461bcd60e51b8152600401610f13906148fb565b5f8381526009602052604081205460ff16600581111561203957612039613e97565b036120565760405162461bcd60e51b8152600401610f1390614c1b565b60025f8481526009602052604090205460ff16600581111561207a5761207a613e97565b036120fb5760405162461bcd60e51b815260206004820152604560248201527f72657175657374494420616c7265616479207069636b656420627920616e6f7460448201527f68657220776f726b65722c20747279206120646966666572656e742072657175606482015264195cdd125160da1b608482015260a401610f13565b60055f8481526009602052604090205460ff16600581111561211f5761211f613e97565b0361217a5760405162461bcd60e51b815260206004820152602560248201527f7265717565737449442068617320616c7265616479207375626d697474656420604482015264383937b7b360d91b6064820152608401610f13565b5f83815260096020526040808220805460026101003381026001600160a81b03199093169290921717918290559151600195509190046001600160a01b031691859187915f516020614e195f395f51905f5291a45092915050565b5f5f7fe5726589ac93743b6d2436bf498a0c2b0f4c8e021b2693576ae35457620d338d8585805190602001208580519060200120604051602001611723949392919093845260208401929092526040830152606082015260800190565b5f611fbf338787878787612619565b5f61224a61131b565b905090565b5f6119ed3385855f866129a3565b61109d33848484612e77565b600f602052815f5260405f208181548110612282575f80fd5b905f5260205f20015f91509150505481565b5f818152600e60205260408120548190606090849083036122c75760405162461bcd60e51b8152600401610f13906148fb565b5f858152600e60209081526040808320600201548352600f82528083208054825181850281018501909352808352919290919083018282801561232757602002820191905f5260205f20905b815481526020019060010190808311612313575b5050505f9889525050600e602052604090962060038101546001909101546001600160a01b0390911697909695509350505050565b5f838152600e6020526040902054839015158061238e57505f818152600d60205260409020546001600160a01b031615155b6123aa5760405162461bcd60e51b8152600401610f13906148fb565b5f8381526009602052604081205460ff1660058111156123cc576123cc613e97565b036123e95760405162461bcd60e51b8152600401610f1390614c1b565b5f8381526009602052604090205461010090046001600160a01b0316331461244a5760405162461bcd60e51b815260206004820152601460248201527357726f6e6720776f726b6572206164647265737360601b6044820152606401610f13565b60055f8481526009602052604090205460ff16600581111561246e5761246e613e97565b036124bb5760405162461bcd60e51b815260206004820152601760248201527f416c7265616479207375626d69747465642070726f6f660000000000000000006044820152606401610f13565b5f838152600960209081526040808320805460ff19166005179055600a90915290206124e78382614abf565b5082847fddb29833db778500c94a5880f1a8ad549d91ec7c80faee2b3735bda881fa6d988460405161251991906141ad565b60405180910390a350505050565b5f5f6125348886866116c6565b90505f6125418285610fbf565b90506116b9818a8a8a8a8a61318e565b6125596127b4565b6001600160a01b03811661258257604051631e4fbdf760e01b81525f6004820152602401610f13565b61258b8161311e565b50565b5f805461259a9061494d565b80601f01602080910402602001604051908101604052809291908181526020018280546125c69061494d565b80156126115780601f106125e857610100808354040283529160200191612611565b820191905f5260205f20905b8154815290600101906020018083116125f457829003601f168201915b505050505081565b5f60025f8381526012602052604090205460ff16600581111561263e5761263e613e97565b0361268b5760405162461bcd60e51b815260206004820152601960248201527f4e465420746f6b656e20696420616c72656164792075736564000000000000006044820152606401610f13565b6013546126a2906001600160a01b03168389611392565b6126ee5760405162461bcd60e51b815260206004820152601b60248201527f4e465420746f6b656e206e6f74206f776e6564206279207573657200000000006044820152606401610f13565b6126fb87878787876129a3565b5f838152601260209081526040808320805460ff191660021790558383526016825280832080546001600160a01b038d166001600160a01b031990911681179091558151908152918201869052810191909152909150819087907fb8794b41e90d812be6b26b66850fef1e55c60c6fb622f8d02df1dc0adec6c38c9060600160405180910390a39695505050505050565b5f5f5f5f61279a86866136e6565b9250925092506127aa828261372f565b5090949350505050565b336127e67f9016d09d72d40fdae2fd8ceac6b6234c7706214fd39c1cd1e609a0528c199300546001600160a01b031690565b6001600160a01b0316146117885760405163118cdaa760e01b8152336004820152602401610f13565b5f61281d85855f8686612c7b565b905080847f660f0cd9ab48b3916970cca5763925f3b8f0e0e158fb9f0f4ae5f71e9605d76787868660405161163493929190614c52565b5f828152600e60205260409020548290156128b15760405162461bcd60e51b815260206004820152601860248201527f70726f6a656374496420616c72656164792065786973747300000000000000006044820152606401610f13565b6001600160a01b0382166128fa5760405162461bcd60e51b815260206004820152601060248201526f24b73b30b634b2103ab9b2b920b2323960811b6044820152606401610f13565b604080516080810182528481525f602080830182815283850183815260608501848152898552600e845286852086518155925160018401559051600283015551600390910180546001600160a01b0319166001600160a01b03928316179055861680835260068252918490208790559251908152909185917f988dde20b788b20d2f8188ab37bc9419a99761fc4ec19356dc30cfa49b4601dc910160405180910390a250505050565b5f6129ae8587612854565b5f6129be87875f8789885f61342b565b600380549294509092505f6129d283614c87565b90915550505f868152600e60209081526040808320600201849055838352600f8252822080546001810182559083529120018290556001600160a01b038416612a595781867fcdde0392731ff1ddcc3295ee84db8db4a9ad3d8f34056867af8c9f3b2920d44e895f8988604051612a4c9493929190614a82565b60405180910390a3612ac0565b81867f26e5b75b543be1cdad2907ba50a99eeb5c3a05381eee18d5b6a565b2bbccd1ba89875f8a89604051612a92959493929190614b79565b60405180910390a3836001600160a01b031682875f516020614e195f395f51905f5260405160405180910390a45b5095945050505050565b306001600160a01b037f0000000000000000000000000000000000000000000000000000000000000000161480612b5057507f00000000000000000000000000000000000000000000000000000000000000006001600160a01b0316612b445f516020614df95f395f51905f52546001600160a01b031690565b6001600160a01b031614155b156117885760405163703e46dd60e11b815260040160405180910390fd5b61258b6127b4565b816001600160a01b03166352d1902d6040518163ffffffff1660e01b8152600401602060405180830381865afa925050508015612bd0575060408051601f3d908101601f19168201909252612bcd91810190614be5565b60015b612bf857604051634c9c8ce360e01b81526001600160a01b0383166004820152602401610f13565b5f516020614df95f395f51905f528114612c2857604051632a87526960e21b815260048101829052602401610f13565b61109d83836137e7565b306001600160a01b037f000000000000000000000000000000000000000000000000000000000000000016146117885760405163703e46dd60e11b815260040160405180910390fd5b5f848152600e60205260408120548590151580612cad57505f818152600d60205260409020546001600160a01b031615155b612cc95760405162461bcd60e51b8152600401610f13906148fb565b5f835111612d0e5760405162461bcd60e51b815260206004820152601260248201527173657276657255524c20697320656d70747960701b6044820152606401610f13565b5f845111612d5e5760405162461bcd60e51b815260206004820152601760248201527f626173653634526563506172616d20697320656d7074790000000000000000006044820152606401610f13565b42878546604051602001612d759493929190614cb6565b60408051601f1981840301815291815281516020928301205f898152600e90935291206001015490925015612df65760405162461bcd60e51b815260206004820152602160248201527f70726f706f73616c2072657175657374494420616c72656164792065786973746044820152607360f81b6064820152608401610f13565b6001600160a01b0387165f908152600460209081526040808320859055888352600e90915281206001018390556002805491612e3183614c87565b90915550506001600160a01b03851615612ac0575f828152600b6020526040902080546001600160a01b0387166001600160a01b03199091161790555095945050505050565b5f838152600e60205260409020548390151580612ea957505f818152600d60205260409020546001600160a01b031615155b612ec55760405162461bcd60e51b8152600401610f13906148fb565b5f8381526009602052604081205460ff166005811115612ee757612ee7613e97565b03612f045760405162461bcd60e51b8152600401610f1390614c1b565b5f825111612f545760405162461bcd60e51b815260206004820152601c60248201527f75706461746564426173653634436f6e66696720697320656d707479000000006044820152606401610f13565b60015f8481526009602052604090205460ff166005811115612f7857612f78613e97565b03612fd65760405162461bcd60e51b815260206004820152602860248201527f726571756573744944206973206e6f74207069636b656420757020627920616e6044820152673c903bb7b935b2b960c11b6064820152608401610f13565b5f838152601660205260409020546001600160a01b0386811691161461304e5760405162461bcd60e51b815260206004820152602760248201527f6f6e6c79206465706c6f796d656e74206f776e65722063616e2075706461746560448201526620636f6e66696760c81b6064820152608401610f13565b60055f8481526009602052604090205460ff16600581111561307257613072613e97565b03613090575f838152600960205260409020805460ff191660021790555b5f8381526009602052604090819020549051849186917fce8f8849a89ebf447425479c86ccdc17f11697958b4bca671fcdf65bc3012c21916130e3916101009091046001600160a01b0316908790614ce9565b60405180910390a35050505050565b5f61101a6130fe61383c565b8360405161190160f01b8152600281019290925260228201526042902090565b7f9016d09d72d40fdae2fd8ceac6b6234c7706214fd39c1cd1e609a0528c19930080546001600160a01b031981166001600160a01b03848116918217845560405192169182907f8be0079c531659141344cd1fd0a4f28419497f9722a3daafe3b4186f6b6457e0905f90a3505050565b5f6001600160a01b0385166131e55760405162461bcd60e51b815260206004820152601a60248201527f736f6c76657241646472657373206973206e6f742076616c69640000000000006044820152606401610f13565b5f6131f58888888888885f61342b565b600380549294509092505f61320983614c87565b90915550505f878152600e60209081526040808320600201849055838352600f8252822080546001810182559083529120018290556001600160a01b0385166132905781877fcdde0392731ff1ddcc3295ee84db8db4a9ad3d8f34056867af8c9f3b2920d44e8a8988886040516132839493929190614a82565b60405180910390a36132f7565b81877f26e5b75b543be1cdad2907ba50a99eeb5c3a05381eee18d5b6a565b2bbccd1ba8a888a89896040516132c9959493929190614b79565b60405180910390a3846001600160a01b031682885f516020614e195f395f51905f5260405160405180910390a45b509695505050505050565b61330a613845565b61258b8161388e565b61331b613845565b61159c8282613896565b611788613845565b7fa16a46d94261c7517cc8ff89f61c0ce93598e3c849801011dee649a6a557d10280546060915f516020614dd95f395f51905f529161336b9061494d565b80601f01602080910402602001604051908101604052809291908181526020018280546133979061494d565b80156133e25780601f106133b9576101008083540402835291602001916133e2565b820191905f5260205f20905b8154815290600101906020018083116133c557829003601f168201915b505050505091505090565b7fa16a46d94261c7517cc8ff89f61c0ce93598e3c849801011dee649a6a557d10380546060915f516020614dd95f395f51905f529161336b9061494d565b5f868152600e60205260408120548190889015158061345f57505f818152600d60205260409020546001600160a01b031615155b61347b5760405162461bcd60e51b8152600401610f13906148fb565b5f8551116134c05760405162461bcd60e51b815260206004820152601260248201527173657276657255524c20697320656d70747960701b6044820152606401610f13565b5f8651116135105760405162461bcd60e51b815260206004820152601760248201527f62617365363450726f706f73616c20697320656d7074790000000000000000006044820152606401610f13565b428a87468c604051602001613529959493929190614d0c565b60408051601f1981840301815291815281516020928301205f8c8152600e909352912060020154909250156135ac5760405162461bcd60e51b815260206004820152602360248201527f6465706c6f796d656e742072657175657374494420616c72656164792065786960448201526273747360e81b6064820152608401610f13565b428a87468c886040516020016135c796959493929190614d44565b60408051601f1981840301815291815281516020928301206001600160a01b038d165f908152600590935291208190559250613602886138f5565b505f60405180604001604052805f6001600160a01b03168a6001600160a01b03161461362f576002613632565b60015b600581111561364357613643613e97565b81526001600160a01b038a166020918201525f868152600990915260409020815181549293508392829060ff1916600183600581111561368557613685613e97565b02179055506020918201518154610100600160a81b0319166101006001600160a01b0392831602179091555f9b8c52600e9091526040909a2060030180546001600160a01b03191699909a1698909817909855909890975095505050505050565b5f5f5f835160410361371d576020840151604085015160608601515f1a61370f888285856139c2565b955095509550505050613728565b505081515f91506002905b9250925092565b5f82600381111561374257613742613e97565b0361374b575050565b600182600381111561375f5761375f613e97565b0361377d5760405163f645eedf60e01b815260040160405180910390fd5b600282600381111561379157613791613e97565b036137b25760405163fce698f760e01b815260048101829052602401610f13565b60038260038111156137c6576137c6613e97565b0361159c576040516335e2f38360e21b815260048101829052602401610f13565b6137f082613a8a565b6040516001600160a01b038316907fbc7cd75a20ee27fd9adebab32041f755214dbc6bffa90cc0225b39da2e5c2d3b905f90a28051156138345761109d8282613aed565b61159c613b56565b5f61224a613b75565b7ff0c57e16840df040f15088dc2f81fe391c3923bec73e23a9662efc9c229c6a0054600160401b900460ff1661178857604051631afcd79f60e31b815260040160405180910390fd5b612559613845565b61389e613845565b5f516020614dd95f395f51905f527fa16a46d94261c7517cc8ff89f61c0ce93598e3c849801011dee649a6a557d1026138d78482614abf565b50600381016138e68382614abf565b505f8082556001909101555050565b6001600160a01b0381165f9081526007602052604090205460015461391b906006614d84565b8110156139365760015461392f9082614bd2565b90506139a4565b6103e8600254111561397157600254600154613953906006614d84565b61395d9083614d9b565b6139679190614dae565b61392f9082614bd2565b6103e860015460066139839190614d84565b61398d9083614d9b565b6139979190614dae565b6139a19082614bd2565b90505b6001600160a01b039091165f90815260076020526040902081905590565b5f80807f7fffffffffffffffffffffffffffffff5d576e7357a4501ddfe92f46681b20a08411156139fb57505f91506003905082613a80565b604080515f808252602082018084528a905260ff891692820192909252606081018790526080810186905260019060a0016020604051602081039080840390855afa158015613a4c573d5f5f3e3d5ffd5b5050604051601f1901519150506001600160a01b038116613a7757505f925060019150829050613a80565b92505f91508190505b9450945094915050565b806001600160a01b03163b5f03613abf57604051634c9c8ce360e01b81526001600160a01b0382166004820152602401610f13565b5f516020614df95f395f51905f5280546001600160a01b0319166001600160a01b0392909216919091179055565b60605f5f846001600160a01b031684604051613b099190614dcd565b5f60405180830381855af49150503d805f8114613b41576040519150601f19603f3d011682016040523d82523d5f602084013e613b46565b606091505b5091509150611744858383613be8565b34156117885760405163b398979f60e01b815260040160405180910390fd5b5f7f8b73c3c69bb8fe3d512ecc4cf759cc79239f7b179b0ffacaa9a75d522b39400f613b9f613c44565b613ba7613cac565b60408051602081019490945283019190915260608201524660808201523060a082015260c00160405160208183030381529060405280519060200120905090565b606082613bfd57613bf882613cee565b611410565b8151158015613c1457506001600160a01b0384163b155b15613c3d57604051639996b31560e01b81526001600160a01b0385166004820152602401610f13565b5080611410565b5f5f516020614dd95f395f51905f5281613c5c61332d565b805190915015613c7457805160209091012092915050565b81548015613c83579392505050565b7fc5d2460186f7233c927e7db2dcc703c0e500b653ca82273b7bfad8045d85a470935050505090565b5f5f516020614dd95f395f51905f5281613cc46133ed565b805190915015613cdc57805160209091012092915050565b60018201548015613c83579392505050565b805115613cfe5780518082602001fd5b60405163d6bda27560e01b815260040160405180910390fd5b634e487b7160e01b5f52604160045260245ffd5b604051601f8201601f191681016001600160401b0381118282101715613d5357613d53613d17565b604052919050565b5f82601f830112613d6a575f5ffd5b8135602083015f5f6001600160401b03841115613d8957613d89613d17565b50601f8301601f1916602001613d9e81613d2b565b915050828152858383011115613db2575f5ffd5b828260208301375f92810160200192909252509392505050565b6001600160a01b038116811461258b575f5ffd5b5f5f5f5f5f60a08688031215613df4575f5ffd5b8535945060208601356001600160401b03811115613e10575f5ffd5b613e1c88828901613d5b565b9450506040860135613e2d81613dcc565b925060608601356001600160401b03811115613e47575f5ffd5b613e5388828901613d5b565b95989497509295608001359392505050565b5f60208284031215613e75575f5ffd5b813561101781613dcc565b5f60208284031215613e90575f5ffd5b5035919050565b634e487b7160e01b5f52602160045260245ffd5b60068110613ec757634e487b7160e01b5f52602160045260245ffd5b9052565b60408101613ed98285613eab565b6001600160a01b039290921660209190910152919050565b5f5f60408385031215613f02575f5ffd5b8235915060208301356001600160401b03811115613f1e575f5ffd5b613f2a85828601613d5b565b9150509250929050565b5f5f60208385031215613f45575f5ffd5b82356001600160401b03811115613f5a575f5ffd5b8301601f81018513613f6a575f5ffd5b80356001600160401b03811115613f7f575f5ffd5b8560208260051b8401011115613f93575f5ffd5b6020919091019590945092505050565b5f5f5f5f5f5f60c08789031215613fb8575f5ffd5b8635955060208701356001600160401b03811115613fd4575f5ffd5b613fe089828a01613d5b565b9550506040870135613ff181613dcc565b935060608701356001600160401b0381111561400b575f5ffd5b61401789828a01613d5b565b9350506080870135915060a08701356001600160401b03811115614039575f5ffd5b61404589828a01613d5b565b9150509295509295509295565b5f5f5f5f60808587031215614065575f5ffd5b8435935060208501356001600160401b03811115614081575f5ffd5b61408d87828801613d5b565b93505060408501356001600160401b038111156140a8575f5ffd5b6140b487828801613d5b565b92505060608501356001600160401b038111156140cf575f5ffd5b6140db87828801613d5b565b91505092959194509250565b6020810161101a8284613eab565b602080825282518282018190525f918401906040840190835b818110156141355783516001600160a01b031683526020938401939092019160010161410e565b509095945050505050565b5f5f5f60608486031215614152575f5ffd5b833561415d81613dcc565b925060208401359150604084013561417481613dcc565b809150509250925092565b5f81518084528060208401602086015e5f602082860101526020601f19601f83011685010191505092915050565b602081525f611410602083018461417f565b5f5f602083850312156141d0575f5ffd5b82356001600160401b038111156141e5575f5ffd5b8301601f810185136141f5575f5ffd5b80356001600160401b0381111561420a575f5ffd5b856020828401011115613f93575f5ffd5b5f5f6040838503121561422c575f5ffd5b823561423781613dcc565b915060208301356001600160401b03811115613f1e575f5ffd5b5f5f5f5f60808587031215614264575f5ffd5b84359350602085013561427681613dcc565b925060408501356001600160401b038111156140a8575f5ffd5b5f5f5f5f608085870312156142a3575f5ffd5b843593506020850135925060408501356001600160401b038111156140a8575f5ffd5b5f5f5f5f5f5f60c087890312156142db575f5ffd5b8635955060208701356001600160401b038111156142f7575f5ffd5b61430389828a01613d5b565b955050604087013561431481613dcc565b935060608701356001600160401b0381111561432e575f5ffd5b61433a89828a01613d5b565b93505060808701356001600160401b03811115614355575f5ffd5b61436189828a01613d5b565b9699959850939692959460a09093013593505050565b5f5f5f60608486031215614389575f5ffd5b8335925060208401356001600160401b038111156143a5575f5ffd5b6143b186828701613d5b565b92505060408401356001600160401b038111156143cc575f5ffd5b6143d886828701613d5b565b9150509250925092565b5f5f5f5f608085870312156143f5575f5ffd5b8435935060208501356001600160401b03811115614411575f5ffd5b61441d87828801613d5b565b935050604085013561442e81613dcc565b915060608501356001600160401b038111156140cf575f5ffd5b5f5f60408385031215614459575f5ffd5b823561446481613dcc565b946020939093013593505050565b60ff60f81b8816815260e060208201525f61449060e083018961417f565b82810360408401526144a2818961417f565b606084018890526001600160a01b038716608085015260a0840186905283810360c0850152845180825260208087019350909101905f5b818110156144f75783518352602093840193909201916001016144d9565b50909b9a5050505050505050505050565b5f5f5f5f5f60a0868803121561451c575f5ffd5b85359450602086013561452e81613dcc565b935060408601356001600160401b03811115614548575f5ffd5b61455488828901613d5b565b93505060608601356001600160401b0381111561456f575f5ffd5b61457b88828901613d5b565b92505060808601356001600160401b03811115614596575f5ffd5b6145a288828901613d5b565b9150509295509295909350565b5f5f5f5f5f60a086880312156145c3575f5ffd5b8535945060208601356001600160401b038111156145df575f5ffd5b6145eb88828901613d5b565b94505060408601356145fc81613dcc565b925060608601356001600160401b0381111561456f575f5ffd5b5f5f5f5f5f60a0868803121561462a575f5ffd5b85359450602086013561463c81613dcc565b9350604086013561464c81613dcc565b925060608601356001600160401b03811115614666575f5ffd5b8601601f81018813614676575f5ffd5b80356001600160401b0381111561468f5761468f613d17565b8060051b61469f60208201613d2b565b9182526020818401810192908101908b8411156146ba575f5ffd5b6020850192505b838310156146ff5782356001600160401b038111156146de575f5ffd5b6146ed8d602083890101613d5b565b835250602092830192909101906146c1565b9550505050608087013590506001600160401b03811115614596575f5ffd5b5f5f5f5f60808587031215614731575f5ffd5b843561473c81613dcc565b935060208501359250604085013561475381613dcc565b9150606085013561476381613dcc565b939692955090935050565b5f5f5f5f5f60a08688031215614782575f5ffd5b85359450602086013561479481613dcc565b935060408601356145fc81613dcc565b5f5f604083850312156147b5575f5ffd5b50508035926020909101359150565b5f5f5f606084860312156147d6575f5ffd5b833592506020840135915060408401356001600160401b038111156143cc575f5ffd5b6001600160a01b0384168152602080820184905260606040830181905283519083018190525f918401906080840190835b8181101561132557835183526020938401939092019160010161482a565b5f5f5f5f5f5f60c0878903121561485d575f5ffd5b86359550602087013561486f81613dcc565b9450604087013561487f81613dcc565b935060608701356001600160401b03811115614899575f5ffd5b6148a589828a01613d5b565b93505060808701356001600160401b038111156148c0575f5ffd5b6148cc89828a01613d5b565b92505060a08701356001600160401b03811115614039575f5ffd5b634e487b7160e01b5f52603260045260245ffd5b60208082526018908201527f70726f6a656374496420646f6573206e6f742065786973740000000000000000604082015260600190565b5f60208284031215614942575f5ffd5b815161101781613dcc565b600181811c9082168061496157607f821691505b60208210810361497f57634e487b7160e01b5f52602260045260245ffd5b50919050565b601f82111561109d57805f5260205f20601f840160051c810160208510156149aa5750805b601f840160051c820191505b81811015611edb575f81556001016149b6565b6001600160401b038311156149e0576149e0613d17565b6149f4836149ee835461494d565b83614985565b5f601f841160018114614a25575f8515614a0e5750838201355b5f19600387901b1c1916600186901b178355611edb565b5f83815260208120601f198716915b82811015614a545786850135825560209485019460019092019101614a34565b5086821015614a70575f1960f88860031b161c19848701351681555b505060018560011b0183555050505050565b6001600160a01b038581168252841660208201526080604082018190525f90614aad9083018561417f565b828103606084015261123e818561417f565b81516001600160401b03811115614ad857614ad8613d17565b614aec81614ae6845461494d565b84614985565b6020601f821160018114614b1e575f8315614b075750848201515b5f19600385901b1c1916600184901b178455611edb565b5f84815260208120601f198516915b82811015614b4d5787850151825560209485019460019092019101614b2d565b5084821015614b6a57868401515f19600387901b60f8161c191681555b50505050600190811b01905550565b6001600160a01b03868116825285811660208301528416604082015260a0606082018190525f90614bac9083018561417f565b8281036080840152611adf818561417f565b634e487b7160e01b5f52601160045260245ffd5b8082018082111561101a5761101a614bbe565b5f60208284031215614bf5575f5ffd5b5051919050565b5f60208284031215614c0c575f5ffd5b81518015158114611017575f5ffd5b60208082526018908201527f72657175657374494420646f6573206e6f742065786973740000000000000000604082015260600190565b6001600160a01b03841681526060602082018190525f90614c759083018561417f565b8281036040840152611fbf818561417f565b5f60018201614c9857614c98614bbe565b5060010190565b5f81518060208401855e5f93019283525090919050565b8481526001600160601b03198460601b1660208201525f614cda6034830185614c9f565b92835250506020019392505050565b6001600160a01b03831681526040602082018190525f906119ed9083018461417f565b8581526001600160601b03198560601b1660208201525f614d306034830186614c9f565b938452505060208201526040019392505050565b8681526001600160601b03198660601b1660208201525f614d686034830187614c9f565b9485525050602083019190915260408201526060019392505050565b808202811582820484141761101a5761101a614bbe565b8181038181111561101a5761101a614bbe565b5f82614dc857634e487b7160e01b5f52601260045260245ffd5b500490565b5f6114108284614c9f56fea16a46d94261c7517cc8ff89f61c0ce93598e3c849801011dee649a6a557d100360894a13ba1a3210667c828492db98dca3e2076cc3735a920a3ca505d382bbc065b3b95166dc6cadb255ba57b9623fa09d0519437b43d13dbd0d7f7a5ee9b76a26469706673582212203afc6bd8269de2b66fae6d2da742f6158dcc9d9be6e4b1c28dcfce1df8f637a664736f6c634300081c0033","linkReferences":{}},"methodIdentifiers":{"CrestalTokenAddress()":"b99bde34","DEPLOYMENT_REQUEST_TYPEHASH()":"31f4f12d","NFTContractAddress()":"29c8d938","NFT_Contract_Address()":"19cd1601","PROPOSAL_REQUEST_TYPEHASH()":"7b31d6f6","SIGNING_DOMAIN()":"e3faad94","UPGRADE_INTERFACE_VERSION()":"ad3cb1cc","VERSION()":"ffa1ad74","WhitelistUsers(address)":"31537961","checkNFTOwnership(address,uint256,address)":"43da75c4","createAgentWithNFT(bytes32,string,address,string,uint256)":"c13c26eb","createAgentWithSigWithNFT(bytes32,string,address,string,bytes,uint256)":"61419044","createAgentWithWhitelistUsers(bytes32,string,address,string,uint256)":"06534334","createAgentWithWhitelistUsersWithSig(bytes32,string,address,string,uint256,bytes)":"19858341","createDeploymentRequest(bytes32,address,string,string)":"7371498c","createDeploymentRequestWithSig(bytes32,address,string,string,bytes)":"934e218c","createMultipleDeploymentRequest(bytes32,address,address,string[],string)":"a6cda351","createPrivateDeploymentRequest(bytes32,address,address,string,string)":"bae7e16c","createPrivateDeploymentRequestWithSig(bytes32,address,address,string,string,bytes)":"e2ec525c","createPrivateProposalRequest(bytes32,address,string,string)":"59617ef7","createProjectID()":"2ae189d8","createProjectIDAndDeploymentRequest(bytes32,string,string)":"c4845f5f","createProjectIDAndDeploymentRequestWithSig(bytes32,string,string,bytes)":"4ce354f0","createProjectIDAndPrivateDeploymentRequest(bytes32,string,address,string)":"7ce53f49","createProjectIDAndPrivateDeploymentRequestWithSig(bytes32,string,address,string,bytes)":"9a7d9ce2","createProjectIDAndProposalRequest(bytes32,string,string)":"924b2a2a","createProjectIDAndProposalRequestWithSig(bytes32,string,string,bytes)":"5516fe1d","createProjectIdAndPrivateDeploymentWithConfig(bytes32,string,address,string)":"b83b4315","createProposalRequest(bytes32,string,string)":"84717e90","createProposalRequestWithSig(bytes32,string,string,bytes)":"2943f3eb","deploymentIdList(bytes32,uint256)":"d2a0c275","dummyAddress()":"05b38312","eip712Domain()":"84b0196e","factor()":"54f703f8","getAddress()":"38cc4831","getDeploymentProof(bytes32)":"4b6680de","getDeploymentStatus(bytes32)":"09470536","getEIP712ContractAddress()":"c3a1ae27","getLatestDeploymentRequestID(address)":"b9bb7135","getLatestProposalRequestID(address)":"f11d3675","getLatestUserProjectID(address)":"ce1b4ff5","getProjectInfo(bytes32)":"e0566833","getReputation(address)":"9c89a0e2","getRequestDeploymentDigest(bytes32,string,string)":"62bd459c","getRequestProposalDigest(bytes32,string,string)":"c03044f3","getSignerAddress(bytes32,bytes)":"0f7d8e39","getWorkerAddresses()":"39c12636","getWorkerPublicKey(address)":"4caafee2","initialize()":"8129fc1c","isWhitelistUser(address)":"af63f49b","latestDeploymentRequestID(address)":"078ebeae","latestProjectID(address)":"56ed8752","latestProposalRequestID(address)":"822c737a","nftTokenIdMap(uint256)":"76c6062f","owner()":"8da5cb5b","payWithERC20(address,uint256,address,address)":"ae533087","proxiableUUID()":"52d1902d","renounceOwnership()":"715018a6","requestDeploymentStatus(bytes32)":"fcc82939","resetAgentCreationStatus(address,uint256)":"845fc21a","setCrestalTokenAddress(address)":"6aa220e6","setNFTContractAddress(address)":"23949cd1","setWhitelistAddress(address[])":"158499ce","setWorkerPublicKey(bytes)":"4bcaa626","solverReputation(address)":"ed3c95c0","submitDeploymentRequest(bytes32,bytes32)":"be539d3f","submitProofOfDeployment(bytes32,bytes32,string)":"e128fced","totalDeploymentRequest()":"83c49efa","totalProposalRequest()":"a97bedfe","transferOwnership(address)":"f2fde38b","updateWorkerDeploymentConfig(bytes32,bytes32,string)":"c68a7e32","updateWorkerDeploymentConfigWithSig(bytes32,bytes32,string,bytes)":"5a5edc38","upgradeProject(bytes32)":"3550753c","upgradeToAndCall(address,bytes)":"4f1ef286","workerReputation(address)":"08a101b8"},"storageLayout":{"storage":[{"astId":54704,"contract":"src/BlueprintV4.sol:BlueprintV4","label":"VERSION","offset":0,"slot":"0","type":"t_string_storage"},{"astId":54706,"contract":"src/BlueprintV4.sol:BlueprintV4","label":"factor","offset":0,"slot":"1","type":"t_uint256"},{"astId":54708,"contract":"src/BlueprintV4.sol:BlueprintV4","label":"totalProposalRequest","offset":0,"slot":"2","type":"t_uint256"},{"astId":54710,"contract":"src/BlueprintV4.sol:BlueprintV4","label":"totalDeploymentRequest","offset":0,"slot":"3","type":"t_uint256"},{"astId":54714,"contract":"src/BlueprintV4.sol:BlueprintV4","label":"latestProposalRequestID","offset":0,"slot":"4","type":"t_mapping(t_address,t_bytes32)"},{"astId":54718,"contract":"src/BlueprintV4.sol:BlueprintV4","label":"latestDeploymentRequestID","offset":0,"slot":"5","type":"t_mapping(t_address,t_bytes32)"},{"astId":54722,"contract":"src/BlueprintV4.sol:BlueprintV4","label":"latestProjectID","offset":0,"slot":"6","type":"t_mapping(t_address,t_bytes32)"},{"astId":54726,"contract":"src/BlueprintV4.sol:BlueprintV4","label":"solverReputation","offset":0,"slot":"7","type":"t_mapping(t_address,t_uint256)"},{"astId":54730,"contract":"src/BlueprintV4.sol:BlueprintV4","label":"workerReputation","offset":0,"slot":"8","type":"t_mapping(t_address,t_uint256)"},{"astId":54735,"contract":"src/BlueprintV4.sol:BlueprintV4","label":"requestDeploymentStatus","offset":0,"slot":"9","type":"t_mapping(t_bytes32,t_struct(DeploymentStatus)54702_storage)"},{"astId":54739,"contract":"src/BlueprintV4.sol:BlueprintV4","label":"deploymentProof","offset":0,"slot":"10","type":"t_mapping(t_bytes32,t_string_storage)"},{"astId":54743,"contract":"src/BlueprintV4.sol:BlueprintV4","label":"requestSolver","offset":0,"slot":"11","type":"t_mapping(t_bytes32,t_address)"},{"astId":54747,"contract":"src/BlueprintV4.sol:BlueprintV4","label":"requestWorker","offset":0,"slot":"12","type":"t_mapping(t_bytes32,t_address)"},{"astId":54751,"contract":"src/BlueprintV4.sol:BlueprintV4","label":"projectIDs","offset":0,"slot":"13","type":"t_mapping(t_bytes32,t_address)"},{"astId":54771,"contract":"src/BlueprintV4.sol:BlueprintV4","label":"projects","offset":0,"slot":"14","type":"t_mapping(t_bytes32,t_struct(Project)54760_storage)"},{"astId":54776,"contract":"src/BlueprintV4.sol:BlueprintV4","label":"deploymentIdList","offset":0,"slot":"15","type":"t_mapping(t_bytes32,t_array(t_bytes32)dyn_storage)"},{"astId":54779,"contract":"src/BlueprintV4.sol:BlueprintV4","label":"workerAddresses","offset":0,"slot":"16","type":"t_array(t_address)dyn_storage"},{"astId":54783,"contract":"src/BlueprintV4.sol:BlueprintV4","label":"workersPublicKey","offset":0,"slot":"17","type":"t_mapping(t_address,t_bytes_storage)"},{"astId":54788,"contract":"src/BlueprintV4.sol:BlueprintV4","label":"nftTokenIdMap","offset":0,"slot":"18","type":"t_mapping(t_uint256,t_enum(Status)54696)"},{"astId":54790,"contract":"src/BlueprintV4.sol:BlueprintV4","label":"NFTContractAddress","offset":0,"slot":"19","type":"t_address"},{"astId":54792,"contract":"src/BlueprintV4.sol:BlueprintV4","label":"CrestalTokenAddress","offset":0,"slot":"20","type":"t_address"},{"astId":54797,"contract":"src/BlueprintV4.sol:BlueprintV4","label":"WhitelistUsers","offset":0,"slot":"21","type":"t_mapping(t_address,t_enum(Status)54696)"},{"astId":54801,"contract":"src/BlueprintV4.sol:BlueprintV4","label":"deploymentOwner","offset":0,"slot":"22","type":"t_mapping(t_bytes32,t_address)"}],"types":{"t_address":{"encoding":"inplace","label":"address","numberOfBytes":"20"},"t_array(t_address)dyn_storage":{"encoding":"dynamic_array","label":"address[]","numberOfBytes":"32","base":"t_address"},"t_array(t_bytes32)dyn_storage":{"encoding":"dynamic_array","label":"bytes32[]","numberOfBytes":"32","base":"t_bytes32"},"t_bytes32":{"encoding":"inplace","label":"bytes32","numberOfBytes":"32"},"t_bytes_storage":{"encoding":"bytes","label":"bytes","numberOfBytes":"32"},"t_enum(Status)54696":{"encoding":"inplace","label":"enum Blueprint.Status","numberOfBytes":"1"},"t_mapping(t_address,t_bytes32)":{"encoding":"mapping","key":"t_address","label":"mapping(address => bytes32)","numberOfBytes":"32","value":"t_bytes32"},"t_mapping(t_address,t_bytes_storage)":{"encoding":"mapping","key":"t_address","label":"mapping(address => bytes)","numberOfBytes":"32","value":"t_bytes_storage"},"t_mapping(t_address,t_enum(Status)54696)":{"encoding":"mapping","key":"t_address","label":"mapping(address => enum Blueprint.Status)","numberOfBytes":"32","value":"t_enum(Status)54696"},"t_mapping(t_address,t_uint256)":{"encoding":"mapping","key":"t_address","label":"mapping(address => uint256)","numberOfBytes":"32","value":"t_uint256"},"t_mapping(t_bytes32,t_address)":{"encoding":"mapping","key":"t_bytes32","label":"mapping(bytes32 => address)","numberOfBytes":"32","value":"t_address"},"t_mapping(t_bytes32,t_array(t_bytes32)dyn_storage)":{"encoding":"mapping","key":"t_bytes32","label":"mapping(bytes32 => bytes32[])","numberOfBytes":"32","value":"t_array(t_bytes32)dyn_storage"},"t_mapping(t_bytes32,t_string_storage)":{"encoding":"mapping","key":"t_bytes32","label":"mapping(bytes32 => string)","numberOfBytes":"32","value":"t_string_storage"},"t_mapping(t_bytes32,t_struct(DeploymentStatus)54702_storage)":{"encoding":"mapping","key":"t_bytes32","label":"mapping(bytes32 => struct Blueprint.DeploymentStatus)","numberOfBytes":"32","value":"t_struct(DeploymentStatus)54702_storage"},"t_mapping(t_bytes32,t_struct(Project)54760_storage)":{"encoding":"mapping","key":"t_bytes32","label":"mapping(bytes32 => struct Blueprint.Project)","numberOfBytes":"32","value":"t_struct(Project)54760_storage"},"t_mapping(t_uint256,t_enum(Status)54696)":{"encoding":"mapping","key":"t_uint256","label":"mapping(uint256 => enum Blueprint.Status)","numberOfBytes":"32","value":"t_enum(Status)54696"},"t_string_storage":{"encoding":"bytes","label":"string","numberOfBytes":"32"},"t_struct(DeploymentStatus)54702_storage":{"encoding":"inplace","label":"struct Blueprint.DeploymentStatus","numberOfBytes":"32","members":[{"astId":54699,"contract":"src/BlueprintV4.sol:BlueprintV4","label":"status","offset":0,"slot":"0","type":"t_enum(Status)54696"},{"astId":54701,"contract":"src/BlueprintV4.sol:BlueprintV4","label":"deployWorkerAddr","offset":1,"slot":"0","type":"t_address"}]},"t_struct(Project)54760_storage":{"encoding":"inplace","label":"struct Blueprint.Project","numberOfBytes":"128","members":[{"astId":54753,"contract":"src/BlueprintV4.sol:BlueprintV4","label":"id","offset":0,"slot":"0","type":"t_bytes32"},{"astId":54755,"contract":"src/BlueprintV4.sol:BlueprintV4","label":"requestProposalID","offset":0,"slot":"1","type":"t_bytes32"},{"astId":54757,"contract":"src/BlueprintV4.sol:BlueprintV4","label":"requestDeploymentID","offset":0,"slot":"2","type":"t_bytes32"},{"astId":54759,"contract":"src/BlueprintV4.sol:BlueprintV4","label":"proposedSolverAddr","offset":0,"slot":"3","type":"t_address"}]},"t_uint256":{"encoding":"inplace","label":"uint256","numberOfBytes":"32"}}},"id":76}