{"abi":[{"type":"function","name":"CREATE_AGENT_OP","inputs":[],"outputs":[{"name":"","type":"string","internalType":"string"}],"stateMutability":"view"},{"type":"function","name":"CREATE_AGENT_WITH_NFT_TYPEHASH","inputs":[],"outputs":[{"name":"","type":"bytes32","internalType":"bytes32"}],"stateMutability":"view"},{"type":"function","name":"CREATE_AGENT_WITH_TOKEN_TYPEHASH","inputs":[],"outputs":[{"name":"","type":"bytes32","internalType":"bytes32"}],"stateMutability":"view"},{"type":"function","name":"DEPLOYMENT_REQUEST_TYPEHASH","inputs":[],"outputs":[{"name":"","type":"bytes32","internalType":"bytes32"}],"stateMutability":"view"},{"type":"function","name":"NFT_CONTRACT_ADDRESS","inputs":[],"outputs":[{"name":"","type":"address","internalType":"address"}],"stateMutability":"view"},{"type":"function","name":"PAYMENT_KEY","inputs":[],"outputs":[{"name":"","type":"string","internalType":"string"}],"stateMutability":"view"},{"type":"function","name":"PROPOSAL_REQUEST_TYPEHASH","inputs":[],"outputs":[{"name":"","type":"bytes32","internalType":"bytes32"}],"stateMutability":"view"},{"type":"function","name":"RESET_DEPLOYMENT_REQUEST_TYPEHASH","inputs":[],"outputs":[{"name":"","type":"bytes32","internalType":"bytes32"}],"stateMutability":"view"},{"type":"function","name":"SIGNING_DOMAIN","inputs":[],"outputs":[{"name":"","type":"string","internalType":"string"}],"stateMutability":"view"},{"type":"function","name":"UPDATE_AGENT_OP","inputs":[],"outputs":[{"name":"","type":"string","internalType":"string"}],"stateMutability":"view"},{"type":"function","name":"UPDATE_WORKER_CONFIG_TYPEHASH","inputs":[],"outputs":[{"name":"","type":"bytes32","internalType":"bytes32"}],"stateMutability":"view"},{"type":"function","name":"UPGRADE_INTERFACE_VERSION","inputs":[],"outputs":[{"name":"","type":"string","internalType":"string"}],"stateMutability":"view"},{"type":"function","name":"VERSION","inputs":[],"outputs":[{"name":"","type":"string","internalType":"string"}],"stateMutability":"view"},{"type":"function","name":"addPaymentAddress","inputs":[{"name":"paymentAddress","type":"address","internalType":"address"}],"outputs":[],"stateMutability":"nonpayable"},{"type":"function","name":"addWhitelistAddress","inputs":[{"name":"whitelistAddress","type":"address","internalType":"address"}],"outputs":[],"stateMutability":"nonpayable"},{"type":"function","name":"checkNFTOwnership","inputs":[{"name":"nftTokenAddress","type":"address","internalType":"address"},{"name":"nftId","type":"uint256","internalType":"uint256"},{"name":"userAddress","type":"address","internalType":"address"}],"outputs":[{"name":"","type":"bool","internalType":"bool"}],"stateMutability":"view"},{"type":"function","name":"createAgentWithNFT","inputs":[{"name":"projectId","type":"bytes32","internalType":"bytes32"},{"name":"base64Proposal","type":"string","internalType":"string"},{"name":"privateWorkerAddress","type":"address","internalType":"address"},{"name":"serverURL","type":"string","internalType":"string"},{"name":"tokenId","type":"uint256","internalType":"uint256"}],"outputs":[{"name":"requestID","type":"bytes32","internalType":"bytes32"}],"stateMutability":"nonpayable"},{"type":"function","name":"createAgentWithSigWithNFT","inputs":[{"name":"projectId","type":"bytes32","internalType":"bytes32"},{"name":"base64Proposal","type":"string","internalType":"string"},{"name":"privateWorkerAddress","type":"address","internalType":"address"},{"name":"serverURL","type":"string","internalType":"string"},{"name":"signature","type":"bytes","internalType":"bytes"},{"name":"tokenId","type":"uint256","internalType":"uint256"}],"outputs":[{"name":"requestID","type":"bytes32","internalType":"bytes32"}],"stateMutability":"nonpayable"},{"type":"function","name":"createAgentWithToken","inputs":[{"name":"projectId","type":"bytes32","internalType":"bytes32"},{"name":"base64Proposal","type":"string","internalType":"string"},{"name":"privateWorkerAddress","type":"address","internalType":"address"},{"name":"serverURL","type":"string","internalType":"string"},{"name":"tokenAddress","type":"address","internalType":"address"}],"outputs":[{"name":"requestID","type":"bytes32","internalType":"bytes32"}],"stateMutability":"payable"},{"type":"function","name":"createAgentWithTokenWithSig","inputs":[{"name":"projectId","type":"bytes32","internalType":"bytes32"},{"name":"base64Proposal","type":"string","internalType":"string"},{"name":"privateWorkerAddress","type":"address","internalType":"address"},{"name":"serverURL","type":"string","internalType":"string"},{"name":"tokenAddress","type":"address","internalType":"address"},{"name":"signature","type":"bytes","internalType":"bytes"}],"outputs":[{"name":"requestID","type":"bytes32","internalType":"bytes32"}],"stateMutability":"payable"},{"type":"function","name":"createProjectID","inputs":[],"outputs":[{"name":"projectId","type":"bytes32","internalType":"bytes32"}],"stateMutability":"nonpayable"},{"type":"function","name":"createProjectIDAndDeploymentRequest","inputs":[{"name":"projectId","type":"bytes32","internalType":"bytes32"},{"name":"base64Proposal","type":"string","internalType":"string"},{"name":"serverURL","type":"string","internalType":"string"}],"outputs":[{"name":"requestID","type":"bytes32","internalType":"bytes32"}],"stateMutability":"nonpayable"},{"type":"function","name":"createProjectIDAndDeploymentRequestWithSig","inputs":[{"name":"projectId","type":"bytes32","internalType":"bytes32"},{"name":"base64Proposal","type":"string","internalType":"string"},{"name":"serverURL","type":"string","internalType":"string"},{"name":"signature","type":"bytes","internalType":"bytes"}],"outputs":[{"name":"requestID","type":"bytes32","internalType":"bytes32"}],"stateMutability":"nonpayable"},{"type":"function","name":"createProjectIDAndPrivateDeploymentRequest","inputs":[{"name":"projectId","type":"bytes32","internalType":"bytes32"},{"name":"base64Proposal","type":"string","internalType":"string"},{"name":"privateWorkerAddress","type":"address","internalType":"address"},{"name":"serverURL","type":"string","internalType":"string"}],"outputs":[{"name":"requestID","type":"bytes32","internalType":"bytes32"}],"stateMutability":"nonpayable"},{"type":"function","name":"deleteWhitelistAddress","inputs":[{"name":"whitelistAddress","type":"address","internalType":"address"}],"outputs":[],"stateMutability":"nonpayable"},{"type":"function","name":"deploymentIdList","inputs":[{"name":"","type":"bytes32","internalType":"bytes32"},{"name":"","type":"uint256","internalType":"uint256"}],"outputs":[{"name":"","type":"bytes32","internalType":"bytes32"}],"stateMutability":"view"},{"type":"function","name":"dummyAddress","inputs":[],"outputs":[{"name":"","type":"address","internalType":"address"}],"stateMutability":"view"},{"type":"function","name":"eip712Domain","inputs":[],"outputs":[{"name":"fields","type":"bytes1","internalType":"bytes1"},{"name":"name","type":"string","internalType":"string"},{"name":"version","type":"string","internalType":"string"},{"name":"chainId","type":"uint256","internalType":"uint256"},{"name":"verifyingContract","type":"address","internalType":"address"},{"name":"salt","type":"bytes32","internalType":"bytes32"},{"name":"extensions","type":"uint256[]","internalType":"uint256[]"}],"stateMutability":"view"},{"type":"function","name":"factor","inputs":[],"outputs":[{"name":"","type":"uint256","internalType":"uint256"}],"stateMutability":"view"},{"type":"function","name":"feeCollectionWalletAddress","inputs":[],"outputs":[{"name":"","type":"address","internalType":"address"}],"stateMutability":"view"},{"type":"function","name":"getAddress","inputs":[],"outputs":[{"name":"","type":"address","internalType":"address"}],"stateMutability":"view"},{"type":"function","name":"getCreateAgentWithNFTDigest","inputs":[{"name":"projectId","type":"bytes32","internalType":"bytes32"},{"name":"base64RecParam","type":"string","internalType":"string"},{"name":"serverURL","type":"string","internalType":"string"},{"name":"privateWorkerAddress","type":"address","internalType":"address"},{"name":"tokenId","type":"uint256","internalType":"uint256"}],"outputs":[{"name":"","type":"bytes32","internalType":"bytes32"}],"stateMutability":"view"},{"type":"function","name":"getCreateAgentWithTokenDigest","inputs":[{"name":"projectId","type":"bytes32","internalType":"bytes32"},{"name":"base64RecParam","type":"string","internalType":"string"},{"name":"serverURL","type":"string","internalType":"string"},{"name":"privateWorkerAddress","type":"address","internalType":"address"},{"name":"tokenAddress","type":"address","internalType":"address"}],"outputs":[{"name":"","type":"bytes32","internalType":"bytes32"}],"stateMutability":"view"},{"type":"function","name":"getDeploymentProof","inputs":[{"name":"requestID","type":"bytes32","internalType":"bytes32"}],"outputs":[{"name":"","type":"string","internalType":"string"}],"stateMutability":"view"},{"type":"function","name":"getDeploymentStatus","inputs":[{"name":"requestID","type":"bytes32","internalType":"bytes32"}],"outputs":[{"name":"","type":"uint8","internalType":"enum BlueprintCore.Status"},{"name":"","type":"address","internalType":"address"}],"stateMutability":"view"},{"type":"function","name":"getEIP712ContractAddress","inputs":[],"outputs":[{"name":"","type":"address","internalType":"address"}],"stateMutability":"view"},{"type":"function","name":"getLatestDeploymentRequestID","inputs":[{"name":"addr","type":"address","internalType":"address"}],"outputs":[{"name":"","type":"bytes32","internalType":"bytes32"}],"stateMutability":"view"},{"type":"function","name":"getLatestProposalRequestID","inputs":[{"name":"addr","type":"address","internalType":"address"}],"outputs":[{"name":"","type":"bytes32","internalType":"bytes32"}],"stateMutability":"view"},{"type":"function","name":"getLatestUserProjectID","inputs":[{"name":"addr","type":"address","internalType":"address"}],"outputs":[{"name":"","type":"bytes32","internalType":"bytes32"}],"stateMutability":"view"},{"type":"function","name":"getPaymentAddresses","inputs":[],"outputs":[{"name":"","type":"address[]","internalType":"address[]"}],"stateMutability":"view"},{"type":"function","name":"getProjectInfo","inputs":[{"name":"projectId","type":"bytes32","internalType":"bytes32"}],"outputs":[{"name":"","type":"address","internalType":"address"},{"name":"","type":"bytes32","internalType":"bytes32"},{"name":"","type":"bytes32[]","internalType":"bytes32[]"}],"stateMutability":"view"},{"type":"function","name":"getRequestDeploymentDigest","inputs":[{"name":"projectId","type":"bytes32","internalType":"bytes32"},{"name":"base64RecParam","type":"string","internalType":"string"},{"name":"serverURL","type":"string","internalType":"string"}],"outputs":[{"name":"","type":"bytes32","internalType":"bytes32"}],"stateMutability":"view"},{"type":"function","name":"getRequestProposalDigest","inputs":[{"name":"projectId","type":"bytes32","internalType":"bytes32"},{"name":"base64RecParam","type":"string","internalType":"string"},{"name":"serverURL","type":"string","internalType":"string"}],"outputs":[{"name":"","type":"bytes32","internalType":"bytes32"}],"stateMutability":"view"},{"type":"function","name":"getRequestResetDeploymentDigest","inputs":[{"name":"projectId","type":"bytes32","internalType":"bytes32"},{"name":"requestID","type":"bytes32","internalType":"bytes32"},{"name":"workerAddress","type":"address","internalType":"address"},{"name":"updatedBase64Config","type":"string","internalType":"string"},{"name":"nonce","type":"uint256","internalType":"uint256"}],"outputs":[{"name":"","type":"bytes32","internalType":"bytes32"}],"stateMutability":"view"},{"type":"function","name":"getSignerAddress","inputs":[{"name":"hash","type":"bytes32","internalType":"bytes32"},{"name":"signature","type":"bytes","internalType":"bytes"}],"outputs":[{"name":"","type":"address","internalType":"address"}],"stateMutability":"pure"},{"type":"function","name":"getUpdateWorkerConfigDigest","inputs":[{"name":"tokenAddress","type":"address","internalType":"address"},{"name":"projectId","type":"bytes32","internalType":"bytes32"},{"name":"requestID","type":"bytes32","internalType":"bytes32"},{"name":"updatedBase64Config","type":"string","internalType":"string"},{"name":"nonce","type":"uint256","internalType":"uint256"}],"outputs":[{"name":"","type":"bytes32","internalType":"bytes32"}],"stateMutability":"view"},{"type":"function","name":"getUserNonce","inputs":[{"name":"userAddress","type":"address","internalType":"address"}],"outputs":[{"name":"","type":"uint256","internalType":"uint256"}],"stateMutability":"view"},{"type":"function","name":"getWorkerAddresses","inputs":[],"outputs":[{"name":"","type":"address[]","internalType":"address[]"}],"stateMutability":"view"},{"type":"function","name":"getWorkerPublicKey","inputs":[{"name":"workerAddress","type":"address","internalType":"address"}],"outputs":[{"name":"publicKey","type":"bytes","internalType":"bytes"}],"stateMutability":"view"},{"type":"function","name":"initialize","inputs":[],"outputs":[],"stateMutability":"nonpayable"},{"type":"function","name":"isWhitelistUser","inputs":[{"name":"userAddress","type":"address","internalType":"address"}],"outputs":[{"name":"","type":"bool","internalType":"bool"}],"stateMutability":"view"},{"type":"function","name":"latestDeploymentRequestID","inputs":[{"name":"","type":"address","internalType":"address"}],"outputs":[{"name":"","type":"bytes32","internalType":"bytes32"}],"stateMutability":"view"},{"type":"function","name":"latestProjectID","inputs":[{"name":"","type":"address","internalType":"address"}],"outputs":[{"name":"","type":"bytes32","internalType":"bytes32"}],"stateMutability":"view"},{"type":"function","name":"latestProposalRequestID","inputs":[{"name":"","type":"address","internalType":"address"}],"outputs":[{"name":"","type":"bytes32","internalType":"bytes32"}],"stateMutability":"view"},{"type":"function","name":"nftContractAddress","inputs":[],"outputs":[{"name":"","type":"address","internalType":"address"}],"stateMutability":"view"},{"type":"function","name":"nftTokenIdMap","inputs":[{"name":"","type":"uint256","internalType":"uint256"}],"outputs":[{"name":"","type":"uint8","internalType":"enum BlueprintCore.Status"}],"stateMutability":"view"},{"type":"function","name":"owner","inputs":[],"outputs":[{"name":"","type":"address","internalType":"address"}],"stateMutability":"view"},{"type":"function","name":"paymentAddressEnableMp","inputs":[{"name":"","type":"address","internalType":"address"}],"outputs":[{"name":"","type":"bool","internalType":"bool"}],"stateMutability":"view"},{"type":"function","name":"paymentAddressesMp","inputs":[{"name":"","type":"string","internalType":"string"},{"name":"","type":"uint256","internalType":"uint256"}],"outputs":[{"name":"","type":"address","internalType":"address"}],"stateMutability":"view"},{"type":"function","name":"paymentOpCostMp","inputs":[{"name":"","type":"address","internalType":"address"},{"name":"","type":"string","internalType":"string"}],"outputs":[{"name":"","type":"uint256","internalType":"uint256"}],"stateMutability":"view"},{"type":"function","name":"proxiableUUID","inputs":[],"outputs":[{"name":"","type":"bytes32","internalType":"bytes32"}],"stateMutability":"view"},{"type":"function","name":"removePaymentAddress","inputs":[{"name":"paymentAddress","type":"address","internalType":"address"}],"outputs":[],"stateMutability":"nonpayable"},{"type":"function","name":"removeWhitelistAddresses","inputs":[{"name":"removedAddress","type":"address[]","internalType":"address[]"}],"outputs":[],"stateMutability":"nonpayable"},{"type":"function","name":"renounceOwnership","inputs":[],"outputs":[],"stateMutability":"nonpayable"},{"type":"function","name":"requestDeploymentStatus","inputs":[{"name":"","type":"bytes32","internalType":"bytes32"}],"outputs":[{"name":"status","type":"uint8","internalType":"enum BlueprintCore.Status"},{"name":"deployWorkerAddr","type":"address","internalType":"address"}],"stateMutability":"view"},{"type":"function","name":"requestIDToProjectID","inputs":[{"name":"","type":"bytes32","internalType":"bytes32"}],"outputs":[{"name":"","type":"bytes32","internalType":"bytes32"}],"stateMutability":"view"},{"type":"function","name":"resetAgentCreationStatus","inputs":[{"name":"userAddress","type":"address","internalType":"address"},{"name":"tokenId","type":"uint256","internalType":"uint256"}],"outputs":[],"stateMutability":"nonpayable"},{"type":"function","name":"resetDeploymentRequest","inputs":[{"name":"projectId","type":"bytes32","internalType":"bytes32"},{"name":"requestID","type":"bytes32","internalType":"bytes32"},{"name":"workerAddress","type":"address","internalType":"address"},{"name":"base64Proposal","type":"string","internalType":"string"},{"name":"serverURL","type":"string","internalType":"string"}],"outputs":[],"stateMutability":"nonpayable"},{"type":"function","name":"resetDeploymentRequestWithSig","inputs":[{"name":"projectId","type":"bytes32","internalType":"bytes32"},{"name":"requestID","type":"bytes32","internalType":"bytes32"},{"name":"workerAddress","type":"address","internalType":"address"},{"name":"base64Proposal","type":"string","internalType":"string"},{"name":"serverURL","type":"string","internalType":"string"},{"name":"signature","type":"bytes","internalType":"bytes"}],"outputs":[],"stateMutability":"nonpayable"},{"type":"function","name":"resetWorkers","inputs":[],"outputs":[],"stateMutability":"nonpayable"},{"type":"function","name":"setCreateAgentTokenCost","inputs":[{"name":"paymentAddress","type":"address","internalType":"address"},{"name":"cost","type":"uint256","internalType":"uint256"}],"outputs":[],"stateMutability":"nonpayable"},{"type":"function","name":"setFeeCollectionWalletAddress","inputs":[{"name":"_feeCollectionWalletAddress","type":"address","internalType":"address"}],"outputs":[],"stateMutability":"nonpayable"},{"type":"function","name":"setNFTContractAddress","inputs":[{"name":"_nftContractAddress","type":"address","internalType":"address"}],"outputs":[],"stateMutability":"nonpayable"},{"type":"function","name":"setUpdateCreateAgentTokenCost","inputs":[{"name":"paymentAddress","type":"address","internalType":"address"},{"name":"cost","type":"uint256","internalType":"uint256"}],"outputs":[],"stateMutability":"nonpayable"},{"type":"function","name":"setWhitelistAddresses","inputs":[{"name":"whitelistAddress","type":"address[]","internalType":"address[]"}],"outputs":[],"stateMutability":"nonpayable"},{"type":"function","name":"setWorkerAdmin","inputs":[{"name":"_workerAdmin","type":"address","internalType":"address"}],"outputs":[],"stateMutability":"nonpayable"},{"type":"function","name":"setWorkerPublicKey","inputs":[{"name":"publicKey","type":"bytes","internalType":"bytes"}],"outputs":[],"stateMutability":"nonpayable"},{"type":"function","name":"solverReputation","inputs":[{"name":"","type":"address","internalType":"address"}],"outputs":[{"name":"","type":"uint256","internalType":"uint256"}],"stateMutability":"view"},{"type":"function","name":"submitDeploymentRequest","inputs":[{"name":"projectId","type":"bytes32","internalType":"bytes32"},{"name":"requestID","type":"bytes32","internalType":"bytes32"}],"outputs":[{"name":"isAccepted","type":"bool","internalType":"bool"}],"stateMutability":"nonpayable"},{"type":"function","name":"submitProofOfDeployment","inputs":[{"name":"projectId","type":"bytes32","internalType":"bytes32"},{"name":"requestID","type":"bytes32","internalType":"bytes32"},{"name":"proofBase64","type":"string","internalType":"string"}],"outputs":[],"stateMutability":"nonpayable"},{"type":"function","name":"totalDeploymentRequest","inputs":[],"outputs":[{"name":"","type":"uint256","internalType":"uint256"}],"stateMutability":"view"},{"type":"function","name":"totalProposalRequest","inputs":[],"outputs":[{"name":"","type":"uint256","internalType":"uint256"}],"stateMutability":"view"},{"type":"function","name":"transferOwnership","inputs":[{"name":"newOwner","type":"address","internalType":"address"}],"outputs":[],"stateMutability":"nonpayable"},{"type":"function","name":"trustWorkerMp","inputs":[{"name":"","type":"address","internalType":"address"}],"outputs":[{"name":"","type":"bool","internalType":"bool"}],"stateMutability":"view"},{"type":"function","name":"updateWorker","inputs":[{"name":"workerAddress","type":"address","internalType":"address"},{"name":"isTrusted","type":"bool","internalType":"bool"}],"outputs":[],"stateMutability":"nonpayable"},{"type":"function","name":"updateWorkerDeploymentConfig","inputs":[{"name":"tokenAddress","type":"address","internalType":"address"},{"name":"projectId","type":"bytes32","internalType":"bytes32"},{"name":"requestID","type":"bytes32","internalType":"bytes32"},{"name":"updatedBase64Config","type":"string","internalType":"string"}],"outputs":[],"stateMutability":"payable"},{"type":"function","name":"updateWorkerDeploymentConfigWithSig","inputs":[{"name":"tokenAddress","type":"address","internalType":"address"},{"name":"projectId","type":"bytes32","internalType":"bytes32"},{"name":"requestID","type":"bytes32","internalType":"bytes32"},{"name":"updatedBase64Config","type":"string","internalType":"string"},{"name":"signature","type":"bytes","internalType":"bytes"}],"outputs":[],"stateMutability":"payable"},{"type":"function","name":"upgradeToAndCall","inputs":[{"name":"newImplementation","type":"address","internalType":"address"},{"name":"data","type":"bytes","internalType":"bytes"}],"outputs":[],"stateMutability":"payable"},{"type":"function","name":"userTopUp","inputs":[{"name":"tokenAddress","type":"address","internalType":"address"},{"name":"amount","type":"uint256","internalType":"uint256"}],"outputs":[],"stateMutability":"payable"},{"type":"function","name":"userTopUpMp","inputs":[{"name":"","type":"address","internalType":"address"},{"name":"","type":"address","internalType":"address"}],"outputs":[{"name":"","type":"uint256","internalType":"uint256"}],"stateMutability":"view"},{"type":"function","name":"whitelistUsers","inputs":[{"name":"","type":"address","internalType":"address"}],"outputs":[{"name":"","type":"uint8","internalType":"enum BlueprintCore.Status"}],"stateMutability":"view"},{"type":"function","name":"workerAdmin","inputs":[],"outputs":[{"name":"","type":"address","internalType":"address"}],"stateMutability":"view"},{"type":"function","name":"workerReputation","inputs":[{"name":"","type":"address","internalType":"address"}],"outputs":[{"name":"","type":"uint256","internalType":"uint256"}],"stateMutability":"view"},{"type":"event","name":"AcceptDeployment","inputs":[{"name":"projectID","type":"bytes32","indexed":true,"internalType":"bytes32"},{"name":"requestID","type":"bytes32","indexed":true,"internalType":"bytes32"},{"name":"workerAddress","type":"address","indexed":true,"internalType":"address"}],"anonymous":false},{"type":"event","name":"CreateAgent","inputs":[{"name":"projectID","type":"bytes32","indexed":true,"internalType":"bytes32"},{"name":"requestID","type":"bytes32","indexed":true,"internalType":"bytes32"},{"name":"walletAddress","type":"address","indexed":false,"internalType":"address"},{"name":"nftTokenId","type":"uint256","indexed":false,"internalType":"uint256"},{"name":"amount","type":"uint256","indexed":false,"internalType":"uint256"}],"anonymous":false},{"type":"event","name":"CreateAgentTokenCost","inputs":[{"name":"paymentAddress","type":"address","indexed":false,"internalType":"address"},{"name":"cost","type":"uint256","indexed":false,"internalType":"uint256"}],"anonymous":false},{"type":"event","name":"CreateProjectID","inputs":[{"name":"projectID","type":"bytes32","indexed":true,"internalType":"bytes32"},{"name":"walletAddress","type":"address","indexed":false,"internalType":"address"}],"anonymous":false},{"type":"event","name":"EIP712DomainChanged","inputs":[],"anonymous":false},{"type":"event","name":"FeeCollectionWalletAddress","inputs":[{"name":"feeCollectionWalletAddress","type":"address","indexed":false,"internalType":"address"}],"anonymous":false},{"type":"event","name":"GeneratedProofOfDeployment","inputs":[{"name":"projectID","type":"bytes32","indexed":true,"internalType":"bytes32"},{"name":"requestID","type":"bytes32","indexed":true,"internalType":"bytes32"},{"name":"base64DeploymentProof","type":"string","indexed":false,"internalType":"string"}],"anonymous":false},{"type":"event","name":"Initialized","inputs":[{"name":"version","type":"uint64","indexed":false,"internalType":"uint64"}],"anonymous":false},{"type":"event","name":"OwnershipTransferred","inputs":[{"name":"previousOwner","type":"address","indexed":true,"internalType":"address"},{"name":"newOwner","type":"address","indexed":true,"internalType":"address"}],"anonymous":false},{"type":"event","name":"PaymentAddressAdded","inputs":[{"name":"paymentAddress","type":"address","indexed":false,"internalType":"address"}],"anonymous":false},{"type":"event","name":"RemovePaymentAddress","inputs":[{"name":"paymentAddress","type":"address","indexed":false,"internalType":"address"}],"anonymous":false},{"type":"event","name":"RequestDeployment","inputs":[{"name":"projectID","type":"bytes32","indexed":true,"internalType":"bytes32"},{"name":"walletAddress","type":"address","indexed":false,"internalType":"address"},{"name":"solverAddress","type":"address","indexed":false,"internalType":"address"},{"name":"requestID","type":"bytes32","indexed":true,"internalType":"bytes32"},{"name":"base64Proposal","type":"string","indexed":false,"internalType":"string"},{"name":"serverURL","type":"string","indexed":false,"internalType":"string"}],"anonymous":false},{"type":"event","name":"RequestPrivateDeployment","inputs":[{"name":"projectID","type":"bytes32","indexed":true,"internalType":"bytes32"},{"name":"walletAddress","type":"address","indexed":false,"internalType":"address"},{"name":"privateWorkerAddress","type":"address","indexed":false,"internalType":"address"},{"name":"solverAddress","type":"address","indexed":false,"internalType":"address"},{"name":"requestID","type":"bytes32","indexed":true,"internalType":"bytes32"},{"name":"base64Proposal","type":"string","indexed":false,"internalType":"string"},{"name":"serverURL","type":"string","indexed":false,"internalType":"string"}],"anonymous":false},{"type":"event","name":"RequestPrivateProposal","inputs":[{"name":"projectID","type":"bytes32","indexed":true,"internalType":"bytes32"},{"name":"walletAddress","type":"address","indexed":false,"internalType":"address"},{"name":"privateSolverAddress","type":"address","indexed":false,"internalType":"address"},{"name":"requestID","type":"bytes32","indexed":true,"internalType":"bytes32"},{"name":"base64RecParam","type":"string","indexed":false,"internalType":"string"},{"name":"serverURL","type":"string","indexed":false,"internalType":"string"}],"anonymous":false},{"type":"event","name":"RequestProposal","inputs":[{"name":"projectID","type":"bytes32","indexed":true,"internalType":"bytes32"},{"name":"walletAddress","type":"address","indexed":false,"internalType":"address"},{"name":"requestID","type":"bytes32","indexed":true,"internalType":"bytes32"},{"name":"base64RecParam","type":"string","indexed":false,"internalType":"string"},{"name":"serverURL","type":"string","indexed":false,"internalType":"string"}],"anonymous":false},{"type":"event","name":"SetWorkerAdmin","inputs":[{"name":"workerAdmin","type":"address","indexed":false,"internalType":"address"}],"anonymous":false},{"type":"event","name":"UpdateAgentTokenCost","inputs":[{"name":"paymentAddress","type":"address","indexed":false,"internalType":"address"},{"name":"cost","type":"uint256","indexed":false,"internalType":"uint256"}],"anonymous":false},{"type":"event","name":"UpdateDeploymentConfig","inputs":[{"name":"projectID","type":"bytes32","indexed":true,"internalType":"bytes32"},{"name":"requestID","type":"bytes32","indexed":true,"internalType":"bytes32"},{"name":"workerAddress","type":"address","indexed":false,"internalType":"address"},{"name":"base64Config","type":"string","indexed":false,"internalType":"string"}],"anonymous":false},{"type":"event","name":"UpdateWorker","inputs":[{"name":"workerAddress","type":"address","indexed":false,"internalType":"address"},{"name":"isTrusted","type":"bool","indexed":false,"internalType":"bool"}],"anonymous":false},{"type":"event","name":"Upgraded","inputs":[{"name":"implementation","type":"address","indexed":true,"internalType":"address"}],"anonymous":false},{"type":"event","name":"UserTopUp","inputs":[{"name":"walletAddress","type":"address","indexed":true,"internalType":"address"},{"name":"feeCollectionWalletAddress","type":"address","indexed":false,"internalType":"address"},{"name":"tokenAddress","type":"address","indexed":false,"internalType":"address"},{"name":"amount","type":"uint256","indexed":false,"internalType":"uint256"}],"anonymous":false},{"type":"error","name":"AddressEmptyCode","inputs":[{"name":"target","type":"address","internalType":"address"}]},{"type":"error","name":"ECDSAInvalidSignature","inputs":[]},{"type":"error","name":"ECDSAInvalidSignatureLength","inputs":[{"name":"length","type":"uint256","internalType":"uint256"}]},{"type":"error","name":"ECDSAInvalidSignatureS","inputs":[{"name":"s","type":"bytes32","internalType":"bytes32"}]},{"type":"error","name":"ERC1967InvalidImplementation","inputs":[{"name":"implementation","type":"address","internalType":"address"}]},{"type":"error","name":"ERC1967NonPayable","inputs":[]},{"type":"error","name":"FailedCall","inputs":[]},{"type":"error","name":"InvalidInitialization","inputs":[]},{"type":"error","name":"NotInitializing","inputs":[]},{"type":"error","name":"OwnableInvalidOwner","inputs":[{"name":"owner","type":"address","internalType":"address"}]},{"type":"error","name":"OwnableUnauthorizedAccount","inputs":[{"name":"account","type":"address","internalType":"address"}]},{"type":"error","name":"SafeERC20FailedOperation","inputs":[{"name":"token","type":"address","internalType":"address"}]},{"type":"error","name":"UUPSUnauthorizedCallContext","inputs":[]},{"type":"error","name":"UUPSUnsupportedProxiableUUID","inputs":[{"name":"slot","type":"bytes32","internalType":"bytes32"}]}],"bytecode":{"object":"0x60a0604052306080523480156012575f5ffd5b50608051615f096100395f395f8181613c5801528181613c810152613dc00152615f095ff3fe6080604052600436106104f2575f3560e01c8063821c8ba11161028e578063c13c26eb11610160578063e128fced116100c9578063f2bbea3f11610083578063f2bbea3f14611142578063f2fde38b14611175578063f52ccc2d14611194578063fa2b3cf9146111b3578063fcc82939146111d2578063ffa1ad7414611210575f5ffd5b8063e128fced14611048578063e3faad9414611067578063e5e24e82146110a5578063e63dee48146110c4578063ed3c95c0146110e3578063f11d36751461110e575f5ffd5b8063ce1b4ff51161011a578063ce1b4ff514610f47578063d0d31cc514610f7b578063d2a0c27514610fa6578063d800d46b14610fc5578063de601e4c14610fe4578063e05668331461101a575f5ffd5b8063c13c26eb14610e98578063c347c7e314610eb7578063c39dee4614610ed6578063c3a1ae2714610ef5578063c4845f5f14610f09578063cdb4c7f714610f28575f5ffd5b806394a7ef1511610202578063af63f49b116101bc578063af63f49b14610db2578063b660f9ff14610dd1578063b83921a614610e07578063b9bb713514610e26578063be539d3f14610e5a578063c03044f314610e79575f5ffd5b806394a7ef1514610cdd578063984e85f514610cfc5780639acd2a1a14610d1b578063a97bedfe14610d4e578063aae282e114610d63578063ad3cb1cc14610d82575f5ffd5b8063845fc21a11610253578063845fc21a14610c3257806384b0196e14610c515780638935e54514610c78578063896b4be914610c975780638da5cb5b14610cb6578063938e8f5014610cca575f5ffd5b8063821c8ba114610b6d578063822c737a14610b8c5780638333f55f14610bb75780638347104514610bd657806383c49efa14610c1d575f5ffd5b806343da75c4116103c757806362bd459c1161033b57806379964547116102f55780637996454714610aae5780637a529f4814610ac15780637b31d6f614610ae85780637ce53f4914610b1b5780638031be4614610b3a5780638129fc1c14610b59575f5ffd5b806362bd459c146109a7578063644a44fb146109c65780636834e3a8146109fd5780636ec55dbc14610a31578063715018a614610a6c57806376c6062f14610a80575f5ffd5b80634f1ef2861161038c5780634f1ef2861461090d578063516add261461092057806352d1902d1461093457806354f703f81461094857806356ed87521461095d5780636141904414610988575f5ffd5b806343da75c4146108725780634b6680de146108915780634bcaa626146108b05780634caafee2146108cf5780634ce354f0146108ee575f5ffd5b806313f2fcd11161046957806332157c921161042357806332157c92146107d057806332aceb73146107e4578063356c9a83146107f757806338cc48311461082a57806339c126361461083e5780633b1085681461085f575f5ffd5b806313f2fcd1146106f957806319ea61c41461071857806323949cd1146107375780632ae189d8146107565780632cfde3781461076a57806331f4f12d1461079d575f5ffd5b806309470536116104ba57806309470536146105db578063094e03bc146106285780630e5390c51461066c5780630f7d8e391461068d578063128634e4146106ac57806313d32741146106da575f5ffd5b80630442bb85146104f657806305b383121461053957806305d10b8f14610564578063078ebeae1461058557806308a101b8146105b0575b5f5ffd5b348015610501575f5ffd5b50610524610510366004614c5f565b601e6020525f908152604090205460ff1681565b60405190151581526020015b60405180910390f35b348015610544575f5ffd5b5061054c5f81565b6040516001600160a01b039091168152602001610530565b610577610572366004614d1d565b611224565b604051908152602001610530565b348015610590575f5ffd5b5061057761059f366004614c5f565b60056020525f908152604090205481565b3480156105bb575f5ffd5b506105776105ca366004614c5f565b60086020525f908152604090205481565b3480156105e6575f5ffd5b5061061a6105f5366004614daf565b5f9081526009602052604090205460ff8116916101009091046001600160a01b031690565b604051610530929190614dfa565b348015610633575f5ffd5b5061065f6040518060400160405280600c81526020016b1d5c19185d1957d859d95b9d60a21b81525081565b6040516105309190614e4e565b348015610677575f5ffd5b5061068b610686366004614c5f565b61123e565b005b348015610698575f5ffd5b5061054c6106a7366004614e60565b6112dc565b3480156106b7575f5ffd5b506105246106c6366004614c5f565b60196020525f908152604090205460ff1681565b3480156106e5575f5ffd5b5060175461054c906001600160a01b031681565b348015610704575f5ffd5b5061068b610713366004614c5f565b611319565b348015610723575f5ffd5b5061068b610732366004614ea3565b6113c5565b348015610742575f5ffd5b5061068b610751366004614c5f565b6114b1565b348015610761575f5ffd5b50610577611531565b348015610775575f5ffd5b506105777fb2c0b4a611993f012a6c8e188688ec3ed0b9410894ae736354158fc513874c7081565b3480156107a8575f5ffd5b506105777f60a8eecec858932ab2ff591a4ad5829a185228029a1c74d3dfb34bf17b42561681565b3480156107db575f5ffd5b5061068b611585565b61068b6107f2366004614ea3565b611604565b348015610802575f5ffd5b506105777f91d24a6bbb50acead05809c28075759bcc90320e198f6f880116b2aa6b9463f181565b348015610835575f5ffd5b5061054c611778565b348015610849575f5ffd5b5061085261178f565b6040516105309190614ecd565b61068b61086d366004614f18565b61182f565b34801561087d575f5ffd5b5061052461088c366004614f9f565b61192f565b34801561089c575f5ffd5b5061065f6108ab366004614daf565b611a56565b3480156108bb575f5ffd5b5061068b6108ca366004614fde565b611af5565b3480156108da575f5ffd5b5061065f6108e9366004614c5f565b611c17565b3480156108f9575f5ffd5b5061057761090836600461504a565b611c3d565b61068b61091b3660046150df565b611c71565b34801561092b575f5ffd5b50610852611c90565b34801561093f575f5ffd5b50610577611cc5565b348015610953575f5ffd5b5061057760015481565b348015610968575f5ffd5b50610577610977366004614c5f565b60066020525f908152604090205481565b348015610993575f5ffd5b506105776109a2366004615115565b611ce0565b3480156109b2575f5ffd5b506105776109c13660046151c6565b611d1a565b3480156109d1575f5ffd5b5061065f6040518060400160405280600c81526020016b18dc99585d1957d859d95b9d60a21b81525081565b348015610a08575f5ffd5b50610577610a17366004614c5f565b6001600160a01b03165f908152601c602052604090205490565b348015610a3c575f5ffd5b50610a5f610a4b366004614c5f565b60156020525f908152604090205460ff1681565b6040516105309190615231565b348015610a77575f5ffd5b5061068b611da1565b348015610a8b575f5ffd5b50610a5f610a9a366004614daf565b60136020525f908152604090205460ff1681565b61068b610abc36600461523f565b611db2565b348015610acc575f5ffd5b5061054c737d8be0dd8915e3511ffddabdd631812be824f57881565b348015610af3575f5ffd5b506105777fe5726589ac93743b6d2436bf498a0c2b0f4c8e021b2693576ae35457620d338d81565b348015610b26575f5ffd5b50610577610b35366004615285565b611dc5565b348015610b45575f5ffd5b5061068b610b543660046152eb565b611dd3565b348015610b64575f5ffd5b5061068b611de8565b348015610b78575f5ffd5b5061068b610b87366004614ea3565b611f98565b348015610b97575f5ffd5b50610577610ba6366004614c5f565b60046020525f908152604090205481565b348015610bc2575f5ffd5b5061068b610bd1366004615332565b61207c565b348015610be1575f5ffd5b50610577610bf03660046150df565b601a60209081525f9283526040909220815180830184018051928152908401929093019190912091525481565b348015610c28575f5ffd5b5061057760035481565b348015610c3d575f5ffd5b5061068b610c4c366004614ea3565b61217e565b348015610c5c575f5ffd5b50610c656121c3565b60405161053097969594939291906153e1565b348015610c83575f5ffd5b50610577610c92366004615477565b61226c565b348015610ca2575f5ffd5b5061068b610cb13660046154fc565b6122fa565b348015610cc1575f5ffd5b5061054c612420565b610577610cd8366004615537565b61244e565b348015610ce8575f5ffd5b5061068b610cf7366004614c5f565b61247b565b348015610d07575f5ffd5b50601d5461054c906001600160a01b031681565b348015610d26575f5ffd5b506105777f7dd9d78712d3918d485330c827089074d149b81c91be857e49976819346f0c4481565b348015610d59575f5ffd5b5061057760025481565b348015610d6e575f5ffd5b5060145461054c906001600160a01b031681565b348015610d8d575f5ffd5b5061065f604051806040016040528060058152602001640352e302e360dc1b81525081565b348015610dbd575f5ffd5b50610524610dcc366004614c5f565b6124a6565b348015610ddc575f5ffd5b50610577610deb3660046155d6565b601b60209081525f928352604080842090915290825290205481565b348015610e12575f5ffd5b5061068b610e21366004615602565b612511565b348015610e31575f5ffd5b50610577610e40366004614c5f565b6001600160a01b03165f9081526005602052604090205490565b348015610e65575f5ffd5b50610524610e74366004615661565b612575565b348015610e84575f5ffd5b50610577610e933660046151c6565b6127da565b348015610ea3575f5ffd5b50610577610eb2366004615681565b612837565b348015610ec2575f5ffd5b50610577610ed1366004615706565b612847565b348015610ee1575f5ffd5b5061068b610ef0366004614c5f565b6128b9565b348015610f00575f5ffd5b5061054c6128e1565b348015610f14575f5ffd5b50610577610f233660046151c6565b6128ef565b348015610f33575f5ffd5b5061054c610f4236600461578a565b612905565b348015610f52575f5ffd5b50610577610f61366004614c5f565b6001600160a01b03165f9081526006602052604090205490565b348015610f86575f5ffd5b50610577610f95366004614daf565b601f6020525f908152604090205481565b348015610fb1575f5ffd5b50610577610fc0366004615661565b61294a565b348015610fd0575f5ffd5b5061068b610fdf366004614c5f565b612975565b348015610fef575f5ffd5b5061065f6040518060400160405280600b81526020016a7061796d656e745f6b657960a81b81525081565b348015611025575f5ffd5b50611039611034366004614daf565b612a32565b604051610530939291906157cb565b348015611053575f5ffd5b5061068b61106236600461581a565b612afa565b348015611072575f5ffd5b5061065f604051806040016040528060138152602001726170702e6372657374616c2e6e6574776f726b60681b81525081565b3480156110b0575f5ffd5b506105776110bf36600461584f565b612d49565b3480156110cf575f5ffd5b5061068b6110de366004614c5f565b612db4565b3480156110ee575f5ffd5b506105776110fd366004614c5f565b60076020525f908152604090205481565b348015611119575f5ffd5b50610577611128366004614c5f565b6001600160a01b03165f9081526004602052604090205490565b34801561114d575f5ffd5b506105777f5bc68fd156aade2069ca23fbe8b2b86836f7029d3ed7cf6bd299a45ee514650f81565b348015611180575f5ffd5b5061068b61118f366004614c5f565b612e6c565b34801561119f575f5ffd5b5061068b6111ae366004615602565b612ea9565b3480156111be575f5ffd5b506105776111cd366004615896565b612f26565b3480156111dd575f5ffd5b5061061a6111ec366004614daf565b60096020525f908152604090205460ff81169061010090046001600160a01b031682565b34801561121b575f5ffd5b5061065f612f90565b5f61123433878787875f8861301b565b9695505050505050565b61124661335d565b6001600160a01b0381165f9081526019602052604090205460ff166112865760405162461bcd60e51b815260040161127d906158c3565b60405180910390fd5b6001600160a01b0381165f81815260196020908152604091829020805460ff1916905590519182527ef489bd08ff674a36860f917326106701d524e8f0c616fcd04b09fbfd993d5e91015b60405180910390a150565b5f5f6112e8848461338f565b90506001600160a01b0381166113105760405162461bcd60e51b815260040161127d906158fa565b90505b92915050565b61132161335d565b6001600160a01b0381166113775760405162461bcd60e51b815260206004820152601760248201527f576f726b65722041646d696e20697320696e76616c6964000000000000000000604482015260640161127d565b601d80546001600160a01b0319166001600160a01b0383169081179091556040519081527f445c5fd747f65908f1d11311ef3be63b67e2664b330f1007e084031391e17730906020016112d1565b6113cd61335d565b6001600160a01b0382165f9081526019602052604090205460ff166114045760405162461bcd60e51b815260040161127d906158c3565b80601a5f846001600160a01b03166001600160a01b031681526020019081526020015f206040518060400160405280600c81526020016b18dc99585d1957d859d95b9d60a21b81525060405161145a919061593c565b9081526040805160209281900383018120939093556001600160a01b03851683529082018390527f694aa63d946094ce1aeccef5c17db0a23a409eddfb68793b3c29fea103d1208691015b60405180910390a15050565b6114b961335d565b6001600160a01b03811661150f5760405162461bcd60e51b815260206004820152601760248201527f4e465420436f6e747261637420697320696e76616c6964000000000000000000604482015260640161127d565b601480546001600160a01b0319166001600160a01b0392909216919091179055565b604080514260208201526bffffffffffffffffffffffff193360601b16918101919091524660548201525f9060740160405160208183030381529060405280519060200120905061158281336133b7565b90565b601d546001600160a01b03163314806115b657506115a1612420565b6001600160a01b0316336001600160a01b0316145b6115fa5760405162461bcd60e51b81526020600482015260156024820152742737ba1030b71030b236b4b71037b91037bbb732b960591b604482015260640161127d565b611602613506565b565b5f81116116235760405162461bcd60e51b815260040161127d90615947565b6001600160a01b0382165f9081526019602052604090205460ff1661168a5760405162461bcd60e51b815260206004820152601c60248201527f5061796d656e742061646472657373206973206e6f742076616c696400000000604482015260640161127d565b335f908152601b602090815260408083206001600160a01b0386168452909152812080548392906116bc908490615992565b90915550506001600160a01b038216611709578034146116ee5760405162461bcd60e51b815260040161127d906159a5565b601754611704906001600160a01b0316826135ba565b611724565b601754611724908390839033906001600160a01b03166136c3565b601754604080516001600160a01b0392831681529184166020830152810182905233907fd77471b428858ecbd2b80887a3bfc71662a54ef7fcc856a76b5df84051ff76dc9060600160405180910390a25050565b5f5f6117826121c3565b5090979650505050505050565b6060601260405180604001604052806012815260200171776f726b65725f616464726573735f6b657960701b8152506040516117cb919061593c565b908152604080519182900360209081018320805480830285018301909352828452919083018282801561182557602002820191905f5260205f20905b81546001600160a01b03168152600190910190602001808311611807575b5050505050905090565b5f838152601660205260409020546001600160a01b0316806118875760405162461bcd60e51b8152602060048201526011602482015270125b9d985b1a59081c995c5d595cdd1251607a1b604482015260640161127d565b6001600160a01b0381165f908152601c60205260408120546118b0908890889088908890612d49565b90505f6118bd82856112dc565b9050826001600160a01b0316816001600160a01b0316146118f05760405162461bcd60e51b815260040161127d906158fa565b6118fd88828989896137a4565b6001600160a01b0383165f908152601c60205260408120805491611920836159dc565b91905055505050505050505050565b5f6001600160a01b0384166119865760405162461bcd60e51b815260206004820152601960248201527f496e76616c6964204e465420746f6b656e206164647265737300000000000000604482015260640161127d565b6001600160a01b0382166119d35760405162461bcd60e51b8152602060048201526014602482015273496e76616c69642075736572206164647265737360601b604482015260640161127d565b6040516331a9108f60e11b81526004810184905284906001600160a01b038481169190831690636352211e90602401602060405180830381865afa158015611a1d573d5f5f3e3d5ffd5b505050506040513d601f19601f82011682018060405250810190611a4191906159f4565b6001600160a01b0316149150505b9392505050565b5f818152600a60205260409020805460609190611a7290615a0f565b80601f0160208091040260200160405190810160405280929190818152602001828054611a9e90615a0f565b8015611ae95780601f10611ac057610100808354040283529160200191611ae9565b820191905f5260205f20905b815481529060010190602001808311611acc57829003601f168201915b50505050509050919050565b335f908152601e602052604090205460ff16611b235760405162461bcd60e51b815260040161127d90615a47565b80611b705760405162461bcd60e51b815260206004820152601a60248201527f5075626c6963206b65792063616e6e6f7420626520656d707479000000000000604482015260640161127d565b335f9081526011602052604090208054611b8990615a0f565b90505f03611bf957604080518082018252601280825271776f726b65725f616464726573735f6b657960701b60208301529151611bc6919061593c565b90815260405190819003602090810190912080546001810182555f9182529190200180546001600160a01b031916331790555b335f908152601160205260409020611c12828483615aba565b505050565b6001600160a01b0381165f908152601160205260409020805460609190611a7290615a0f565b5f5f611c4a868686611d1a565b90505f611c5782856112dc565b9050611c668188885f89613b04565b979650505050505050565b611c79613c4d565b611c8282613cf1565b611c8c8282613cf9565b5050565b606060186040518060400160405280600b81526020016a7061796d656e745f6b657960a81b8152506040516117cb919061593c565b5f611cce613db5565b505f516020615eb45f395f51905f5290565b5f5f611cef888887898761226c565b90505f611cfc82866112dc565b9050611d0d818a8a8a8a895f61301b565b9998505050505050505050565b5f5f7f60a8eecec858932ab2ff591a4ad5829a185228029a1c74d3dfb34bf17b4256168585805190602001208580519060200120604051602001611d77949392919093845260208401929092526040830152606082015260800190565b604051602081830303815290604052805190602001209050611d9881613dfe565b95945050505050565b611da961335d565b6116025f613e2a565b611dbf84338585856137a4565b50505050565b5f611d983386868686613b04565b611de1338686868686613e9a565b5050505050565b60055f611df361414d565b8054909150600160401b900460ff1680611e1a575080546001600160401b03808416911610155b15611e385760405163f92ee8a960e01b815260040160405180910390fd5b805468ffffffffffffffffff19166001600160401b03831617600160401b178155611e6233614175565b6040805180820190915260058152640352e302e360dc1b60208201525f90611e8a9082615b73565b50611f47604051806040016040528060138152602001726170702e6372657374616c2e6e6574776f726b60681b8152505f8054611ec690615a0f565b80601f0160208091040260200160405190810160405280929190818152602001828054611ef290615a0f565b8015611f3d5780601f10611f1457610100808354040283529160200191611f3d565b820191905f5260205f20905b815481529060010190602001808311611f2057829003601f168201915b5050505050614186565b611f4f614198565b805468ff0000000000000000191681556040516001600160401b03831681527fc7f505b2f371ae2175ee4913f4499e1f2633a7b5936321eed1cdaeb6115181d2906020016114a5565b611fa061335d565b6001600160a01b0382165f9081526019602052604090205460ff16611fd75760405162461bcd60e51b815260040161127d906158c3565b80601a5f846001600160a01b03166001600160a01b031681526020019081526020015f206040518060400160405280600c81526020016b1d5c19185d1957d859d95b9d60a21b81525060405161202d919061593c565b9081526040805160209281900383018120939093556001600160a01b03851683529082018390527fb74c378f83cb6eb186d519c74f0def054cc246ca81bccd2c53b5d0d69950132491016114a5565b5f858152601660205260409020546001600160a01b0316806120d45760405162461bcd60e51b8152602060048201526011602482015270125b9d985b1a59081c995c5d595cdd1251607a1b604482015260640161127d565b6001600160a01b0381165f908152601c60205260408120546120fd908990899089908990612f26565b90505f61210a82856112dc565b9050826001600160a01b0316816001600160a01b03161461213d5760405162461bcd60e51b815260040161127d906158fa565b61214b818a8a8a8a8a613e9a565b6001600160a01b0383165f908152601c6020526040812080549161216e836159dc565b9190505550505050505050505050565b61218661335d565b6001600160a01b03919091165f908152601560209081526040808320805460ff199081166001179091559383526013909152902080549091169055565b5f60608082808083815f516020615e945f395f51905f5280549091501580156121ee57506001810154155b6122325760405162461bcd60e51b81526020600482015260156024820152741152540dcc4c8e88155b9a5b9a5d1a585b1a5e9959605a1b604482015260640161127d565b61223a6141a0565b612242614260565b604080515f80825260208201909252600f60f81b9c939b5091995046985030975095509350915050565b8351602080860191909120845185830120604080517f91d24a6bbb50acead05809c28075759bcc90320e198f6f880116b2aa6b9463f1948101949094528301889052606083019190915260808201526001600160a01b03831660a082015260c081018290525f90819060e0015b604051602081830303815290604052805190602001209050611c6681613dfe565b601d546001600160a01b031633148061232b5750612316612420565b6001600160a01b0316336001600160a01b0316145b61236f5760405162461bcd60e51b81526020600482015260156024820152742737ba1030b71030b236b4b71037b91037bbb732b960591b604482015260640161127d565b6001600160a01b0382166123c55760405162461bcd60e51b815260206004820152601960248201527f576f726b6572206164647265737320697320696e76616c696400000000000000604482015260640161127d565b6001600160a01b0382165f818152601e6020908152604091829020805460ff19168515159081179091558251938452908301527f988d040d21ebfc430db6cf3c20bc0a6f4ff9d36f2cb7c6dea70424a70974673491016114a5565b7f9016d09d72d40fdae2fd8ceac6b6234c7706214fd39c1cd1e609a0528c199300546001600160a01b031690565b5f5f61245d8888878988612847565b90505f61246a82856112dc565b9050611d0d818a8a8a8a5f8b61301b565b61248361335d565b6001600160a01b03165f908152601560205260409020805460ff19166001179055565b5f60016001600160a01b0383165f9081526015602052604090205460ff1660058111156124d5576124d5614dc6565b1480611313575060026001600160a01b0383165f9081526015602052604090205460ff16600581111561250a5761250a614dc6565b1492915050565b61251961335d565b5f5b81811015611c125760155f84848481811061253857612538615c2d565b905060200201602081019061254d9190614c5f565b6001600160a01b0316815260208101919091526040015f20805460ff1916905560010161251b565b5f828152600e602052604081205483901515806125a757505f818152600d60205260409020546001600160a01b031615155b6125c35760405162461bcd60e51b815260040161127d90615c41565b335f908152601e602052604090205460ff166125f15760405162461bcd60e51b815260040161127d90615a47565b5f8381526009602052604081205460ff16600581111561261357612613614dc6565b036126305760405162461bcd60e51b815260040161127d90615c78565b60025f8481526009602052604090205460ff16600581111561265457612654614dc6565b036126d55760405162461bcd60e51b815260206004820152604560248201527f72657175657374494420616c7265616479207069636b656420627920616e6f7460448201527f68657220776f726b65722c20747279206120646966666572656e742072657175606482015264195cdd125160da1b608482015260a40161127d565b60055f8481526009602052604090205460ff1660058111156126f9576126f9614dc6565b036127165760405162461bcd60e51b815260040161127d90615caf565b612720848461429e565b61276c5760405162461bcd60e51b815260206004820181905260248201527f50726f6a656374494420616e6420726571756573744944206d69736d61746368604482015260640161127d565b5f83815260096020526040808220805460026101003381026001600160a81b03199093169290921717918290559151600195509190046001600160a01b031691859187917f065b3b95166dc6cadb255ba57b9623fa09d0519437b43d13dbd0d7f7a5ee9b7691a45092915050565b5f5f7fe5726589ac93743b6d2436bf498a0c2b0f4c8e021b2693576ae35457620d338d8585805190602001208580519060200120604051602001611d77949392919093845260208401929092526040830152606082015260800190565b5f6112343387878787875f61301b565b8351602080860191909120845185830120604080517f7dd9d78712d3918d485330c827089074d149b81c91be857e49976819346f0c44948101949094528301889052606083019190915260808201526001600160a01b0380841660a0830152821660c08201525f90819060e0016122d9565b6128c161335d565b6001600160a01b03165f908152601560205260409020805460ff19169055565b5f6128ea611778565b905090565b5f6128fd3385855f86613b04565b949350505050565b8151602081840181018051601882529282019185019190912091905280548290811061292f575f80fd5b5f918252602090912001546001600160a01b03169150829050565b600f602052815f5260405f208181548110612963575f80fd5b905f5260205f20015f91509150505481565b61297d61335d565b6001600160a01b0381166129e45760405162461bcd60e51b815260206004820152602860248201527f46656520636f6c6c656374696f6e2057616c6c65742041646472657373206973604482015267081a5b9d985b1a5960c21b606482015260840161127d565b601780546001600160a01b0319166001600160a01b0383169081179091556040519081527f800db016c595c6b1bb59fbfb195091f579d1abc9828b4660b0836fa635e90df8906020016112d1565b5f818152600e6020526040812054819060609084908303612a655760405162461bcd60e51b815260040161127d90615c41565b5f858152600e60209081526040808320600201548352600f825280832080548251818502810185019093528083529192909190830182828015612ac557602002820191905f5260205f20905b815481526020019060010190808311612ab1575b5050505f9889525050600e602052604090962060038101546001909101546001600160a01b0390911697909695509350505050565b5f838152600e60205260409020548390151580612b2c57505f818152600d60205260409020546001600160a01b031615155b612b485760405162461bcd60e51b815260040161127d90615c41565b335f908152601e602052604090205460ff16612b765760405162461bcd60e51b815260040161127d90615a47565b5f8381526009602052604081205460ff166005811115612b9857612b98614dc6565b03612bb55760405162461bcd60e51b815260040161127d90615c78565b5f8381526009602052604090205461010090046001600160a01b03163314612c165760405162461bcd60e51b815260206004820152601460248201527357726f6e6720776f726b6572206164647265737360601b604482015260640161127d565b60055f8481526009602052604090205460ff166005811115612c3a57612c3a614dc6565b03612c875760405162461bcd60e51b815260206004820152601760248201527f416c7265616479207375626d69747465642070726f6f66000000000000000000604482015260640161127d565b612c91848461429e565b612cdd5760405162461bcd60e51b815260206004820181905260248201527f50726f6a656374494420616e6420726571756573744944206d69736d61746368604482015260640161127d565b5f838152600960209081526040808320805460ff19166005179055600a9091529020612d098382615b73565b5082847fddb29833db778500c94a5880f1a8ad549d91ec7c80faee2b3735bda881fa6d9884604051612d3b9190614e4e565b60405180910390a350505050565b8151602080840191909120604080517f5bc68fd156aade2069ca23fbe8b2b86836f7029d3ed7cf6bd299a45ee514650f938101939093526001600160a01b03881690830152606082018690526080820185905260a082015260c081018290525f90819060e0016122d9565b612dbc61335d565b604080518082018252600b81526a7061796d656e745f6b657960a81b60208201529051601891612deb9161593c565b90815260408051602092819003830181208054600180820183555f92835285832090910180546001600160a01b0319166001600160a01b0388169081179091558083526019865293909120805460ff191690911790559081527fa18d3ff16bc484e128eabcf244718e89aadc30bd9708fb720f3109b1415503f391016112d1565b612e7461335d565b6001600160a01b038116612e9d57604051631e4fbdf760e01b81525f600482015260240161127d565b612ea681613e2a565b50565b612eb161335d565b5f5b81811015611c1257600160155f858585818110612ed257612ed2615c2d565b9050602002016020810190612ee79190614c5f565b6001600160a01b0316815260208101919091526040015f20805460ff19166001836005811115612f1957612f19614dc6565b0217905550600101612eb3565b8151602080840191909120604080517fb2c0b4a611993f012a6c8e188688ec3ed0b9410894ae736354158fc513874c70938101939093528201879052606082018690526001600160a01b038516608083015260a082015260c081018290525f90819060e0016122d9565b5f8054612f9c90615a0f565b80601f0160208091040260200160405190810160405280929190818152602001828054612fc890615a0f565b80156130135780601f10612fea57610100808354040283529160200191613013565b820191905f5260205f20905b815481529060010190602001808311612ff657829003601f168201915b505050505081565b5f6001600160a01b03821615801561303257505f83115b156131a45760025f8481526013602052604090205460ff16600581111561305b5761305b614dc6565b036130a85760405162461bcd60e51b815260206004820152601960248201527f4e465420746f6b656e20696420616c7265616479207573656400000000000000604482015260640161127d565b6014546130bf906001600160a01b0316848a61192f565b61310b5760405162461bcd60e51b815260206004820152601b60248201527f4e465420746f6b656e206e6f74206f776e656420627920757365720000000000604482015260640161127d565b6131188888888888613b04565b5f848152601360209081526040808320805460ff191660021790558383526016825280832080546001600160a01b038e166001600160a01b031990911681179091558151908152918201879052810191909152909150819088907fb8794b41e90d812be6b26b66850fef1e55c60c6fb622f8d02df1dc0adec6c38c9060600160405180910390a3611c66565b6001600160a01b0382165f9081526019602052604090205460ff1661320b5760405162461bcd60e51b815260206004820152601860248201527f546f6b656e206164647265737320697320696e76616c69640000000000000000604482015260640161127d565b6001600160a01b0382165f908152601a6020908152604080832081518083018352600c81526b18dc99585d1957d859d95b9d60a21b93810193909352905190916132549161593c565b90815260200160405180910390205490506132728989898989613b04565b5f81815260166020526040902080546001600160a01b0319166001600160a01b038c1617905591508015613303576001600160a01b0383166132e8578034146132cd5760405162461bcd60e51b815260040161127d906159a5565b6017546132e3906001600160a01b0316826135ba565b613303565b60175461330390849083908c906001600160a01b03166136c3565b604080516001600160a01b038b16815260208101869052908101829052829089907fb8794b41e90d812be6b26b66850fef1e55c60c6fb622f8d02df1dc0adec6c38c9060600160405180910390a350979650505050505050565b33613366612420565b6001600160a01b0316146116025760405163118cdaa760e01b815233600482015260240161127d565b5f5f5f5f61339d8686614325565b9250925092506133ad828261436e565b5090949350505050565b5f828152600e60205260409020548290156134145760405162461bcd60e51b815260206004820152601860248201527f70726f6a656374496420616c7265616479206578697374730000000000000000604482015260640161127d565b6001600160a01b03821661345d5760405162461bcd60e51b815260206004820152601060248201526f24b73b30b634b2103ab9b2b920b2323960811b604482015260640161127d565b604080516080810182528481525f602080830182815283850183815260608501848152898552600e845286852086518155925160018401559051600283015551600390910180546001600160a01b0319166001600160a01b03928316179055861680835260068252918490208790559251908152909185917f988dde20b788b20d2f8188ab37bc9419a99761fc4ec19356dc30cfa49b4601dc910160405180910390a250505050565b5f61350f61178f565b90505f5b815181101561356b5760115f83838151811061353157613531615c2d565b60200260200101516001600160a01b03166001600160a01b031681526020019081526020015f205f6135639190614be5565b600101613513565b50604080518082018252601280825271776f726b65725f616464726573735f6b657960701b602083015291516135a1919061593c565b90815260200160405180910390205f612ea69190614c1c565b6001600160a01b0382166136055760405162461bcd60e51b8152602060048201526012602482015271496e76616c696420746f206164647265737360701b604482015260640161127d565b5f81116136245760405162461bcd60e51b815260040161127d90615947565b5f826001600160a01b0316826040515f6040518083038185875af1925050503d805f811461366d576040519150601f19603f3d011682016040523d82523d5f602084013e613672565b606091505b5050905080611c125760405162461bcd60e51b815260206004820152601c60248201527f4e617469766520746f6b656e207472616e73666572206661696c656400000000604482015260640161127d565b806001600160a01b0316826001600160a01b0316036137245760405162461bcd60e51b815260206004820152601f60248201527f43616e6e6f74207472616e7366657220746f2073656c66206164647265737300604482015260640161127d565b6001600160a01b03811661376f5760405162461bcd60e51b8152602060048201526012602482015271496e76616c696420746f206164647265737360701b604482015260640161127d565b5f831161378e5760405162461bcd60e51b815260040161127d90615947565b83611de16001600160a01b038216848487614426565b5f838152600e602052604090205483901515806137d657505f818152600d60205260409020546001600160a01b031615155b6137f25760405162461bcd60e51b815260040161127d90615c41565b5f8381526009602052604081205460ff16600581111561381457613814614dc6565b036138315760405162461bcd60e51b815260040161127d90615c78565b5f8251116138815760405162461bcd60e51b815260206004820152601c60248201527f75706461746564426173653634436f6e66696720697320656d70747900000000604482015260640161127d565b60015f8481526009602052604090205460ff1660058111156138a5576138a5614dc6565b036139035760405162461bcd60e51b815260206004820152602860248201527f726571756573744944206973206e6f74207069636b656420757020627920616e6044820152673c903bb7b935b2b960c11b606482015260840161127d565b5f838152601660205260409020546001600160a01b0386811691161461393b5760405162461bcd60e51b815260040161127d90615cf4565b6001600160a01b0386165f9081526019602052604090205460ff1661399a5760405162461bcd60e51b8152602060048201526015602482015274496e76616c696420746f6b656e206164647265737360581b604482015260640161127d565b60055f8481526009602052604090205460ff1660058111156139be576139be614dc6565b036139dc575f838152600960205260409020805460ff191660021790555b6001600160a01b0386165f908152601a6020908152604080832081518083018352600c81526b1d5c19185d1957d859d95b9d60a21b9381019390935290519091613a259161593c565b9081526040519081900360200190205490508015613aa0576001600160a01b038716613a8557803414613a6a5760405162461bcd60e51b815260040161127d906159a5565b601754613a80906001600160a01b0316826135ba565b613aa0565b601754613aa0908890839089906001600160a01b03166136c3565b5f8481526009602052604090819020549051859187917fce8f8849a89ebf447425479c86ccdc17f11697958b4bca671fcdf65bc3012c2191613af3916101009091046001600160a01b0316908890615d3b565b60405180910390a350505050505050565b5f613b0f85876133b7565b5f613b1f87875f8789885f614480565b600380549294509092505f613b33836159dc565b90915550505f868152600e60209081526040808320600201849055838352600f8252808320805460018101825590845282842001859055848352601f90915290208690556001600160a01b038416613bc95781867fcdde0392731ff1ddcc3295ee84db8db4a9ad3d8f34056867af8c9f3b2920d44e895f8988604051613bbc9493929190615d5e565b60405180910390a3613c43565b81867f26e5b75b543be1cdad2907ba50a99eeb5c3a05381eee18d5b6a565b2bbccd1ba89875f8a89604051613c02959493929190615d9b565b60405180910390a3836001600160a01b031682877f065b3b95166dc6cadb255ba57b9623fa09d0519437b43d13dbd0d7f7a5ee9b7660405160405180910390a45b5095945050505050565b306001600160a01b037f0000000000000000000000000000000000000000000000000000000000000000161480613cd357507f00000000000000000000000000000000000000000000000000000000000000006001600160a01b0316613cc75f516020615eb45f395f51905f52546001600160a01b031690565b6001600160a01b031614155b156116025760405163703e46dd60e11b815260040160405180910390fd5b612ea661335d565b816001600160a01b03166352d1902d6040518163ffffffff1660e01b8152600401602060405180830381865afa925050508015613d53575060408051601f3d908101601f19168201909252613d5091810190615dec565b60015b613d7b57604051634c9c8ce360e01b81526001600160a01b038316600482015260240161127d565b5f516020615eb45f395f51905f528114613dab57604051632a87526960e21b81526004810182905260240161127d565b611c128383614721565b306001600160a01b037f000000000000000000000000000000000000000000000000000000000000000016146116025760405163703e46dd60e11b815260040160405180910390fd5b5f611313613e0a614776565b8360405161190160f01b8152600281019290925260228201526042902090565b7f9016d09d72d40fdae2fd8ceac6b6234c7706214fd39c1cd1e609a0528c19930080546001600160a01b031981166001600160a01b03848116918217845560405192169182907f8be0079c531659141344cd1fd0a4f28419497f9722a3daafe3b4186f6b6457e0905f90a3505050565b5f858152600e60205260409020548590151580613ecc57505f818152600d60205260409020546001600160a01b031615155b613ee85760405162461bcd60e51b815260040161127d90615c41565b5f8581526009602052604081205460ff166005811115613f0a57613f0a614dc6565b03613f275760405162461bcd60e51b815260040161127d90615c78565b60055f8681526009602052604090205460ff166005811115613f4b57613f4b614dc6565b03613f685760405162461bcd60e51b815260040161127d90615caf565b5f858152601660205260409020546001600160a01b03888116911614613fa05760405162461bcd60e51b815260040161127d90615cf4565b5f60405180604001604052805f6001600160a01b0316876001600160a01b031614613fcc576002613fcf565b60015b6005811115613fe057613fe0614dc6565b81526001600160a01b0387166020918201525f888152600990915260409020815181549293508392829060ff1916600183600581111561402257614022614dc6565b0217905550602091909101518154610100600160a81b0319166101006001600160a01b03928316021790915585166140b1575f86815260096020526040808220805460ff1916600117905551879189917fcdde0392731ff1ddcc3295ee84db8db4a9ad3d8f34056867af8c9f3b2920d44e916140a4918d91908a908a90615d5e565b60405180910390a3614143565b5f86815260096020526040808220805460ff1916600217905551879189917f26e5b75b543be1cdad2907ba50a99eeb5c3a05381eee18d5b6a565b2bbccd1ba91614102918d918b918b908b90615d9b565b60405180910390a3846001600160a01b031686887f065b3b95166dc6cadb255ba57b9623fa09d0519437b43d13dbd0d7f7a5ee9b7660405160405180910390a45b5050505050505050565b5f807ff0c57e16840df040f15088dc2f81fe391c3923bec73e23a9662efc9c229c6a00611313565b61417d61477f565b612ea6816147a4565b61418e61477f565b611c8c82826147ac565b61160261477f565b7fa16a46d94261c7517cc8ff89f61c0ce93598e3c849801011dee649a6a557d10280546060915f516020615e945f395f51905f52916141de90615a0f565b80601f016020809104026020016040519081016040528092919081815260200182805461420a90615a0f565b80156142555780601f1061422c57610100808354040283529160200191614255565b820191905f5260205f20905b81548152906001019060200180831161423857829003601f168201915b505050505091505090565b7fa16a46d94261c7517cc8ff89f61c0ce93598e3c849801011dee649a6a557d10380546060915f516020615e945f395f51905f52916141de90615a0f565b5f818152601f60205260408120548314614315575f6142bc84612a32565b92505f9150505b815181101561430e57838282815181106142df576142df615c2d565b602002602001015103614306575050505f818152601f602052604090208290556001611313565b6001016142c3565b505061431d565b506001611313565b505f92915050565b5f5f5f835160410361435c576020840151604085015160608601515f1a61434e8882858561480b565b955095509550505050614367565b505081515f91506002905b9250925092565b5f82600381111561438157614381614dc6565b0361438a575050565b600182600381111561439e5761439e614dc6565b036143bc5760405163f645eedf60e01b815260040160405180910390fd5b60028260038111156143d0576143d0614dc6565b036143f15760405163fce698f760e01b81526004810182905260240161127d565b600382600381111561440557614405614dc6565b03611c8c576040516335e2f38360e21b81526004810182905260240161127d565b604080516001600160a01b0385811660248301528416604482015260648082018490528251808303909101815260849091019091526020810180516001600160e01b03166323b872dd60e01b179052611dbf9085906148d3565b5f868152600e6020526040812054819088901515806144b457505f818152600d60205260409020546001600160a01b031615155b6144d05760405162461bcd60e51b815260040161127d90615c41565b5f8551116145155760405162461bcd60e51b815260206004820152601260248201527173657276657255524c20697320656d70747960701b604482015260640161127d565b5f8651116145655760405162461bcd60e51b815260206004820152601760248201527f62617365363450726f706f73616c20697320656d707479000000000000000000604482015260640161127d565b428a87468c60405160200161457e959493929190615e03565b60408051601f1981840301815291815281516020928301205f8c8152600e909352912060020154909250156146015760405162461bcd60e51b815260206004820152602360248201527f6465706c6f796d656e742072657175657374494420616c72656164792065786960448201526273747360e81b606482015260840161127d565b428a87468c888a60405160200161461e9796959493929190615e40565b60408051601f1981840301815282825280516020918201206001600160a01b03808f165f90815260059093528383208290558484019093529550919081908a161561466a57600261466d565b60015b600581111561467e5761467e614dc6565b81526001600160a01b038a166020918201525f868152600990915260409020815181549293508392829060ff191660018360058111156146c0576146c0614dc6565b02179055506020918201518154610100600160a81b0319166101006001600160a01b0392831602179091555f9b8c52600e9091526040909a2060030180546001600160a01b03191699909a1698909817909855909890975095505050505050565b61472a8261493f565b6040516001600160a01b038316907fbc7cd75a20ee27fd9adebab32041f755214dbc6bffa90cc0225b39da2e5c2d3b905f90a280511561476e57611c1282826149a2565b611c8c614a0b565b5f6128ea614a2a565b614787614a9d565b61160257604051631afcd79f60e31b815260040160405180910390fd5b612e7461477f565b6147b461477f565b5f516020615e945f395f51905f527fa16a46d94261c7517cc8ff89f61c0ce93598e3c849801011dee649a6a557d1026147ed8482615b73565b50600381016147fc8382615b73565b505f8082556001909101555050565b5f80807f7fffffffffffffffffffffffffffffff5d576e7357a4501ddfe92f46681b20a084111561484457505f915060039050826148c9565b604080515f808252602082018084528a905260ff891692820192909252606081018790526080810186905260019060a0016020604051602081039080840390855afa158015614895573d5f5f3e3d5ffd5b5050604051601f1901519150506001600160a01b0381166148c057505f9250600191508290506148c9565b92505f91508190505b9450945094915050565b5f5f60205f8451602086015f885af1806148f2576040513d5f823e3d81fd5b50505f513d91508115614909578060011415614916565b6001600160a01b0384163b155b15611dbf57604051635274afe760e01b81526001600160a01b038516600482015260240161127d565b806001600160a01b03163b5f0361497457604051634c9c8ce360e01b81526001600160a01b038216600482015260240161127d565b5f516020615eb45f395f51905f5280546001600160a01b0319166001600160a01b0392909216919091179055565b60605f5f846001600160a01b0316846040516149be919061593c565b5f60405180830381855af49150503d805f81146149f6576040519150601f19603f3d011682016040523d82523d5f602084013e6149fb565b606091505b5091509150611d98858383614ab6565b34156116025760405163b398979f60e01b815260040160405180910390fd5b5f7f8b73c3c69bb8fe3d512ecc4cf759cc79239f7b179b0ffacaa9a75d522b39400f614a54614b12565b614a5c614b7a565b60408051602081019490945283019190915260608201524660808201523060a082015260c00160405160208183030381529060405280519060200120905090565b5f614aa661414d565b54600160401b900460ff16919050565b606082614acb57614ac682614bbc565b611a4f565b8151158015614ae257506001600160a01b0384163b155b15614b0b57604051639996b31560e01b81526001600160a01b038516600482015260240161127d565b5080611a4f565b5f5f516020615e945f395f51905f5281614b2a6141a0565b805190915015614b4257805160209091012092915050565b81548015614b51579392505050565b7fc5d2460186f7233c927e7db2dcc703c0e500b653ca82273b7bfad8045d85a470935050505090565b5f5f516020615e945f395f51905f5281614b92614260565b805190915015614baa57805160209091012092915050565b60018201548015614b51579392505050565b805115614bcc5780518082602001fd5b60405163d6bda27560e01b815260040160405180910390fd5b508054614bf190615a0f565b5f825580601f10614c00575050565b601f0160209004905f5260205f2090810190612ea69190614c33565b5080545f8255905f5260205f2090810190612ea691905b5b80821115614c47575f8155600101614c34565b5090565b6001600160a01b0381168114612ea6575f5ffd5b5f60208284031215614c6f575f5ffd5b813561131081614c4b565b634e487b7160e01b5f52604160045260245ffd5b5f82601f830112614c9d575f5ffd5b8135602083015f5f6001600160401b03841115614cbc57614cbc614c7a565b50604051601f19601f85018116603f011681018181106001600160401b0382111715614cea57614cea614c7a565b604052838152905080828401871015614d01575f5ffd5b838360208301375f602085830101528094505050505092915050565b5f5f5f5f5f60a08688031215614d31575f5ffd5b8535945060208601356001600160401b03811115614d4d575f5ffd5b614d5988828901614c8e565b9450506040860135614d6a81614c4b565b925060608601356001600160401b03811115614d84575f5ffd5b614d9088828901614c8e565b9250506080860135614da181614c4b565b809150509295509295909350565b5f60208284031215614dbf575f5ffd5b5035919050565b634e487b7160e01b5f52602160045260245ffd5b60068110614df657634e487b7160e01b5f52602160045260245ffd5b9052565b60408101614e088285614dda565b6001600160a01b039290921660209190910152919050565b5f81518084528060208401602086015e5f602082860101526020601f19601f83011685010191505092915050565b602081525f611a4f6020830184614e20565b5f5f60408385031215614e71575f5ffd5b8235915060208301356001600160401b03811115614e8d575f5ffd5b614e9985828601614c8e565b9150509250929050565b5f5f60408385031215614eb4575f5ffd5b8235614ebf81614c4b565b946020939093013593505050565b602080825282518282018190525f918401906040840190835b81811015614f0d5783516001600160a01b0316835260209384019390920191600101614ee6565b509095945050505050565b5f5f5f5f5f60a08688031215614f2c575f5ffd5b8535614f3781614c4b565b9450602086013593506040860135925060608601356001600160401b03811115614f5f575f5ffd5b614f6b88828901614c8e565b92505060808601356001600160401b03811115614f86575f5ffd5b614f9288828901614c8e565b9150509295509295909350565b5f5f5f60608486031215614fb1575f5ffd5b8335614fbc81614c4b565b9250602084013591506040840135614fd381614c4b565b809150509250925092565b5f5f60208385031215614fef575f5ffd5b82356001600160401b03811115615004575f5ffd5b8301601f81018513615014575f5ffd5b80356001600160401b03811115615029575f5ffd5b85602082840101111561503a575f5ffd5b6020919091019590945092505050565b5f5f5f5f6080858703121561505d575f5ffd5b8435935060208501356001600160401b03811115615079575f5ffd5b61508587828801614c8e565b93505060408501356001600160401b038111156150a0575f5ffd5b6150ac87828801614c8e565b92505060608501356001600160401b038111156150c7575f5ffd5b6150d387828801614c8e565b91505092959194509250565b5f5f604083850312156150f0575f5ffd5b82356150fb81614c4b565b915060208301356001600160401b03811115614e8d575f5ffd5b5f5f5f5f5f5f60c0878903121561512a575f5ffd5b8635955060208701356001600160401b03811115615146575f5ffd5b61515289828a01614c8e565b955050604087013561516381614c4b565b935060608701356001600160401b0381111561517d575f5ffd5b61518989828a01614c8e565b93505060808701356001600160401b038111156151a4575f5ffd5b6151b089828a01614c8e565b9699959850939692959460a09093013593505050565b5f5f5f606084860312156151d8575f5ffd5b8335925060208401356001600160401b038111156151f4575f5ffd5b61520086828701614c8e565b92505060408401356001600160401b0381111561521b575f5ffd5b61522786828701614c8e565b9150509250925092565b602081016113138284614dda565b5f5f5f5f60808587031215615252575f5ffd5b843561525d81614c4b565b9350602085013592506040850135915060608501356001600160401b038111156150c7575f5ffd5b5f5f5f5f60808587031215615298575f5ffd5b8435935060208501356001600160401b038111156152b4575f5ffd5b6152c087828801614c8e565b93505060408501356152d181614c4b565b915060608501356001600160401b038111156150c7575f5ffd5b5f5f5f5f5f60a086880312156152ff575f5ffd5b8535945060208601359350604086013561531881614c4b565b925060608601356001600160401b03811115614f5f575f5ffd5b5f5f5f5f5f5f60c08789031215615347575f5ffd5b8635955060208701359450604087013561536081614c4b565b935060608701356001600160401b0381111561537a575f5ffd5b61538689828a01614c8e565b93505060808701356001600160401b038111156153a1575f5ffd5b6153ad89828a01614c8e565b92505060a08701356001600160401b038111156153c8575f5ffd5b6153d489828a01614c8e565b9150509295509295509295565b60ff60f81b8816815260e060208201525f6153ff60e0830189614e20565b82810360408401526154118189614e20565b606084018890526001600160a01b038716608085015260a0840186905283810360c0850152845180825260208087019350909101905f5b81811015615466578351835260209384019390920191600101615448565b50909b9a5050505050505050505050565b5f5f5f5f5f60a0868803121561548b575f5ffd5b8535945060208601356001600160401b038111156154a7575f5ffd5b6154b388828901614c8e565b94505060408601356001600160401b038111156154ce575f5ffd5b6154da88828901614c8e565b93505060608601356154eb81614c4b565b949793965091946080013592915050565b5f5f6040838503121561550d575f5ffd5b823561551881614c4b565b91506020830135801515811461552c575f5ffd5b809150509250929050565b5f5f5f5f5f5f60c0878903121561554c575f5ffd5b8635955060208701356001600160401b03811115615568575f5ffd5b61557489828a01614c8e565b955050604087013561558581614c4b565b935060608701356001600160401b0381111561559f575f5ffd5b6155ab89828a01614c8e565b93505060808701356155bc81614c4b565b915060a08701356001600160401b038111156153c8575f5ffd5b5f5f604083850312156155e7575f5ffd5b82356155f281614c4b565b9150602083013561552c81614c4b565b5f5f60208385031215615613575f5ffd5b82356001600160401b03811115615628575f5ffd5b8301601f81018513615638575f5ffd5b80356001600160401b0381111561564d575f5ffd5b8560208260051b840101111561503a575f5ffd5b5f5f60408385031215615672575f5ffd5b50508035926020909101359150565b5f5f5f5f5f60a08688031215615695575f5ffd5b8535945060208601356001600160401b038111156156b1575f5ffd5b6156bd88828901614c8e565b94505060408601356156ce81614c4b565b925060608601356001600160401b038111156156e8575f5ffd5b6156f488828901614c8e565b95989497509295608001359392505050565b5f5f5f5f5f60a0868803121561571a575f5ffd5b8535945060208601356001600160401b03811115615736575f5ffd5b61574288828901614c8e565b94505060408601356001600160401b0381111561575d575f5ffd5b61576988828901614c8e565b935050606086013561577a81614c4b565b91506080860135614da181614c4b565b5f5f6040838503121561579b575f5ffd5b82356001600160401b038111156157b0575f5ffd5b6157bc85828601614c8e565b95602094909401359450505050565b6001600160a01b0384168152602080820184905260606040830181905283519083018190525f918401906080840190835b818110156117825783518352602093840193909201916001016157fc565b5f5f5f6060848603121561582c575f5ffd5b833592506020840135915060408401356001600160401b0381111561521b575f5ffd5b5f5f5f5f5f60a08688031215615863575f5ffd5b853561586e81614c4b565b9450602086013593506040860135925060608601356001600160401b038111156156e8575f5ffd5b5f5f5f5f5f60a086880312156158aa575f5ffd5b853594506020860135935060408601356156ce81614c4b565b6020808252601c908201527f5061796d656e742041646472657373206973206e6f7420616464656400000000604082015260600190565b602080825260119082015270496e76616c6964207369676e617475726560781b604082015260600190565b5f81518060208401855e5f93019283525090919050565b5f611a4f8284615925565b6020808252601d908201527f416d6f756e74206d7573742062652067726561746572207468616e2030000000604082015260600190565b634e487b7160e01b5f52601160045260245ffd5b808201808211156113135761131361597e565b6020808252601c908201527f4e617469766520746f6b656e20616d6f756e74206d69736d6174636800000000604082015260600190565b5f600182016159ed576159ed61597e565b5060010190565b5f60208284031215615a04575f5ffd5b815161131081614c4b565b600181811c90821680615a2357607f821691505b602082108103615a4157634e487b7160e01b5f52602260045260245ffd5b50919050565b60208082526015908201527415dbdc9ad95c881a5cc81b9bdd081d1c9d5cdd1959605a1b604082015260600190565b601f821115611c1257805f5260205f20601f840160051c81016020851015615a9b5750805b601f840160051c820191505b81811015611de1575f8155600101615aa7565b6001600160401b03831115615ad157615ad1614c7a565b615ae583615adf8354615a0f565b83615a76565b5f601f841160018114615b16575f8515615aff5750838201355b5f19600387901b1c1916600186901b178355611de1565b5f83815260208120601f198716915b82811015615b455786850135825560209485019460019092019101615b25565b5086821015615b61575f1960f88860031b161c19848701351681555b505060018560011b0183555050505050565b81516001600160401b03811115615b8c57615b8c614c7a565b615ba081615b9a8454615a0f565b84615a76565b6020601f821160018114615bd2575f8315615bbb5750848201515b5f19600385901b1c1916600184901b178455611de1565b5f84815260208120601f198516915b82811015615c015787850151825560209485019460019092019101615be1565b5084821015615c1e57868401515f19600387901b60f8161c191681555b50505050600190811b01905550565b634e487b7160e01b5f52603260045260245ffd5b60208082526018908201527f70726f6a656374496420646f6573206e6f742065786973740000000000000000604082015260600190565b60208082526018908201527f72657175657374494420646f6573206e6f742065786973740000000000000000604082015260600190565b60208082526025908201527f7265717565737449442068617320616c7265616479207375626d697474656420604082015264383937b7b360d91b606082015260800190565b60208082526027908201527f4f6e6c79206465706c6f796d656e74206f776e65722063616e2075706461746560408201526620636f6e66696760c81b606082015260800190565b6001600160a01b03831681526040602082018190525f906128fd90830184614e20565b6001600160a01b038581168252841660208201526080604082018190525f90615d8990830185614e20565b8281036060840152611c668185614e20565b6001600160a01b03868116825285811660208301528416604082015260a0606082018190525f90615dce90830185614e20565b8281036080840152615de08185614e20565b98975050505050505050565b5f60208284031215615dfc575f5ffd5b5051919050565b8581526bffffffffffffffffffffffff198560601b1660208201525f615e2c6034830186615925565b938452505060208201526040019392505050565b8781526bffffffffffffffffffffffff198760601b1660208201525f615e696034830188615925565b868152856020820152846040820152615e856060820185615925565b9a995050505050505050505056fea16a46d94261c7517cc8ff89f61c0ce93598e3c849801011dee649a6a557d100360894a13ba1a3210667c828492db98dca3e2076cc3735a920a3ca505d382bbca2646970667358221220963da193dcd0be94e47288453c233be92406033eb1ab0c8f03630d0bb314030464736f6c634300081d0033","linkReferences":{}},"methodIdentifiers":{"CREATE_AGENT_OP()":"644a44fb","CREATE_AGENT_WITH_NFT_TYPEHASH()":"356c9a83","CREATE_AGENT_WITH_TOKEN_TYPEHASH()":"9acd2a1a","DEPLOYMENT_REQUEST_TYPEHASH()":"31f4f12d","NFT_CONTRACT_ADDRESS()":"7a529f48","PAYMENT_KEY()":"de601e4c","PROPOSAL_REQUEST_TYPEHASH()":"7b31d6f6","RESET_DEPLOYMENT_REQUEST_TYPEHASH()":"2cfde378","SIGNING_DOMAIN()":"e3faad94","UPDATE_AGENT_OP()":"094e03bc","UPDATE_WORKER_CONFIG_TYPEHASH()":"f2bbea3f","UPGRADE_INTERFACE_VERSION()":"ad3cb1cc","VERSION()":"ffa1ad74","addPaymentAddress(address)":"e63dee48","addWhitelistAddress(address)":"94a7ef15","checkNFTOwnership(address,uint256,address)":"43da75c4","createAgentWithNFT(bytes32,string,address,string,uint256)":"c13c26eb","createAgentWithSigWithNFT(bytes32,string,address,string,bytes,uint256)":"61419044","createAgentWithToken(bytes32,string,address,string,address)":"05d10b8f","createAgentWithTokenWithSig(bytes32,string,address,string,address,bytes)":"938e8f50","createProjectID()":"2ae189d8","createProjectIDAndDeploymentRequest(bytes32,string,string)":"c4845f5f","createProjectIDAndDeploymentRequestWithSig(bytes32,string,string,bytes)":"4ce354f0","createProjectIDAndPrivateDeploymentRequest(bytes32,string,address,string)":"7ce53f49","deleteWhitelistAddress(address)":"c39dee46","deploymentIdList(bytes32,uint256)":"d2a0c275","dummyAddress()":"05b38312","eip712Domain()":"84b0196e","factor()":"54f703f8","feeCollectionWalletAddress()":"13d32741","getAddress()":"38cc4831","getCreateAgentWithNFTDigest(bytes32,string,string,address,uint256)":"8935e545","getCreateAgentWithTokenDigest(bytes32,string,string,address,address)":"c347c7e3","getDeploymentProof(bytes32)":"4b6680de","getDeploymentStatus(bytes32)":"09470536","getEIP712ContractAddress()":"c3a1ae27","getLatestDeploymentRequestID(address)":"b9bb7135","getLatestProposalRequestID(address)":"f11d3675","getLatestUserProjectID(address)":"ce1b4ff5","getPaymentAddresses()":"516add26","getProjectInfo(bytes32)":"e0566833","getRequestDeploymentDigest(bytes32,string,string)":"62bd459c","getRequestProposalDigest(bytes32,string,string)":"c03044f3","getRequestResetDeploymentDigest(bytes32,bytes32,address,string,uint256)":"fa2b3cf9","getSignerAddress(bytes32,bytes)":"0f7d8e39","getUpdateWorkerConfigDigest(address,bytes32,bytes32,string,uint256)":"e5e24e82","getUserNonce(address)":"6834e3a8","getWorkerAddresses()":"39c12636","getWorkerPublicKey(address)":"4caafee2","initialize()":"8129fc1c","isWhitelistUser(address)":"af63f49b","latestDeploymentRequestID(address)":"078ebeae","latestProjectID(address)":"56ed8752","latestProposalRequestID(address)":"822c737a","nftContractAddress()":"aae282e1","nftTokenIdMap(uint256)":"76c6062f","owner()":"8da5cb5b","paymentAddressEnableMp(address)":"128634e4","paymentAddressesMp(string,uint256)":"cdb4c7f7","paymentOpCostMp(address,string)":"83471045","proxiableUUID()":"52d1902d","removePaymentAddress(address)":"0e5390c5","removeWhitelistAddresses(address[])":"b83921a6","renounceOwnership()":"715018a6","requestDeploymentStatus(bytes32)":"fcc82939","requestIDToProjectID(bytes32)":"d0d31cc5","resetAgentCreationStatus(address,uint256)":"845fc21a","resetDeploymentRequest(bytes32,bytes32,address,string,string)":"8031be46","resetDeploymentRequestWithSig(bytes32,bytes32,address,string,string,bytes)":"8333f55f","resetWorkers()":"32157c92","setCreateAgentTokenCost(address,uint256)":"19ea61c4","setFeeCollectionWalletAddress(address)":"d800d46b","setNFTContractAddress(address)":"23949cd1","setUpdateCreateAgentTokenCost(address,uint256)":"821c8ba1","setWhitelistAddresses(address[])":"f52ccc2d","setWorkerAdmin(address)":"13f2fcd1","setWorkerPublicKey(bytes)":"4bcaa626","solverReputation(address)":"ed3c95c0","submitDeploymentRequest(bytes32,bytes32)":"be539d3f","submitProofOfDeployment(bytes32,bytes32,string)":"e128fced","totalDeploymentRequest()":"83c49efa","totalProposalRequest()":"a97bedfe","transferOwnership(address)":"f2fde38b","trustWorkerMp(address)":"0442bb85","updateWorker(address,bool)":"896b4be9","updateWorkerDeploymentConfig(address,bytes32,bytes32,string)":"79964547","updateWorkerDeploymentConfigWithSig(address,bytes32,bytes32,string,bytes)":"3b108568","upgradeToAndCall(address,bytes)":"4f1ef286","userTopUp(address,uint256)":"32aceb73","userTopUpMp(address,address)":"b660f9ff","whitelistUsers(address)":"6ec55dbc","workerAdmin()":"984e85f5","workerReputation(address)":"08a101b8"},"storageLayout":{"storage":[{"astId":53340,"contract":"src/BlueprintV5.sol:BlueprintV5","label":"VERSION","offset":0,"slot":"0","type":"t_string_storage"},{"astId":53342,"contract":"src/BlueprintV5.sol:BlueprintV5","label":"factor","offset":0,"slot":"1","type":"t_uint256"},{"astId":53344,"contract":"src/BlueprintV5.sol:BlueprintV5","label":"totalProposalRequest","offset":0,"slot":"2","type":"t_uint256"},{"astId":53346,"contract":"src/BlueprintV5.sol:BlueprintV5","label":"totalDeploymentRequest","offset":0,"slot":"3","type":"t_uint256"},{"astId":53350,"contract":"src/BlueprintV5.sol:BlueprintV5","label":"latestProposalRequestID","offset":0,"slot":"4","type":"t_mapping(t_address,t_bytes32)"},{"astId":53354,"contract":"src/BlueprintV5.sol:BlueprintV5","label":"latestDeploymentRequestID","offset":0,"slot":"5","type":"t_mapping(t_address,t_bytes32)"},{"astId":53358,"contract":"src/BlueprintV5.sol:BlueprintV5","label":"latestProjectID","offset":0,"slot":"6","type":"t_mapping(t_address,t_bytes32)"},{"astId":53362,"contract":"src/BlueprintV5.sol:BlueprintV5","label":"solverReputation","offset":0,"slot":"7","type":"t_mapping(t_address,t_uint256)"},{"astId":53366,"contract":"src/BlueprintV5.sol:BlueprintV5","label":"workerReputation","offset":0,"slot":"8","type":"t_mapping(t_address,t_uint256)"},{"astId":53371,"contract":"src/BlueprintV5.sol:BlueprintV5","label":"requestDeploymentStatus","offset":0,"slot":"9","type":"t_mapping(t_bytes32,t_struct(DeploymentStatus)53338_storage)"},{"astId":53375,"contract":"src/BlueprintV5.sol:BlueprintV5","label":"deploymentProof","offset":0,"slot":"10","type":"t_mapping(t_bytes32,t_string_storage)"},{"astId":53379,"contract":"src/BlueprintV5.sol:BlueprintV5","label":"requestSolver","offset":0,"slot":"11","type":"t_mapping(t_bytes32,t_address)"},{"astId":53383,"contract":"src/BlueprintV5.sol:BlueprintV5","label":"requestWorker","offset":0,"slot":"12","type":"t_mapping(t_bytes32,t_address)"},{"astId":53387,"contract":"src/BlueprintV5.sol:BlueprintV5","label":"projectIDs","offset":0,"slot":"13","type":"t_mapping(t_bytes32,t_address)"},{"astId":53407,"contract":"src/BlueprintV5.sol:BlueprintV5","label":"projects","offset":0,"slot":"14","type":"t_mapping(t_bytes32,t_struct(Project)53396_storage)"},{"astId":53412,"contract":"src/BlueprintV5.sol:BlueprintV5","label":"deploymentIdList","offset":0,"slot":"15","type":"t_mapping(t_bytes32,t_array(t_bytes32)dyn_storage)"},{"astId":53415,"contract":"src/BlueprintV5.sol:BlueprintV5","label":"workerAddresses","offset":0,"slot":"16","type":"t_array(t_address)dyn_storage"},{"astId":53419,"contract":"src/BlueprintV5.sol:BlueprintV5","label":"workersPublicKey","offset":0,"slot":"17","type":"t_mapping(t_address,t_bytes_storage)"},{"astId":53424,"contract":"src/BlueprintV5.sol:BlueprintV5","label":"workerAddressesMp","offset":0,"slot":"18","type":"t_mapping(t_string_memory_ptr,t_array(t_address)dyn_storage)"},{"astId":53432,"contract":"src/BlueprintV5.sol:BlueprintV5","label":"nftTokenIdMap","offset":0,"slot":"19","type":"t_mapping(t_uint256,t_enum(Status)53332)"},{"astId":53434,"contract":"src/BlueprintV5.sol:BlueprintV5","label":"nftContractAddress","offset":0,"slot":"20","type":"t_address"},{"astId":53439,"contract":"src/BlueprintV5.sol:BlueprintV5","label":"whitelistUsers","offset":0,"slot":"21","type":"t_mapping(t_address,t_enum(Status)53332)"},{"astId":53443,"contract":"src/BlueprintV5.sol:BlueprintV5","label":"deploymentOwners","offset":0,"slot":"22","type":"t_mapping(t_bytes32,t_address)"},{"astId":53454,"contract":"src/BlueprintV5.sol:BlueprintV5","label":"feeCollectionWalletAddress","offset":0,"slot":"23","type":"t_address"},{"astId":53459,"contract":"src/BlueprintV5.sol:BlueprintV5","label":"paymentAddressesMp","offset":0,"slot":"24","type":"t_mapping(t_string_memory_ptr,t_array(t_address)dyn_storage)"},{"astId":53463,"contract":"src/BlueprintV5.sol:BlueprintV5","label":"paymentAddressEnableMp","offset":0,"slot":"25","type":"t_mapping(t_address,t_bool)"},{"astId":53469,"contract":"src/BlueprintV5.sol:BlueprintV5","label":"paymentOpCostMp","offset":0,"slot":"26","type":"t_mapping(t_address,t_mapping(t_string_memory_ptr,t_uint256))"},{"astId":53475,"contract":"src/BlueprintV5.sol:BlueprintV5","label":"userTopUpMp","offset":0,"slot":"27","type":"t_mapping(t_address,t_mapping(t_address,t_uint256))"},{"astId":53479,"contract":"src/BlueprintV5.sol:BlueprintV5","label":"userNonceMp","offset":0,"slot":"28","type":"t_mapping(t_address,t_uint256)"},{"astId":53481,"contract":"src/BlueprintV5.sol:BlueprintV5","label":"workerAdmin","offset":0,"slot":"29","type":"t_address"},{"astId":53485,"contract":"src/BlueprintV5.sol:BlueprintV5","label":"trustWorkerMp","offset":0,"slot":"30","type":"t_mapping(t_address,t_bool)"},{"astId":53489,"contract":"src/BlueprintV5.sol:BlueprintV5","label":"requestIDToProjectID","offset":0,"slot":"31","type":"t_mapping(t_bytes32,t_bytes32)"}],"types":{"t_address":{"encoding":"inplace","label":"address","numberOfBytes":"20"},"t_array(t_address)dyn_storage":{"encoding":"dynamic_array","label":"address[]","numberOfBytes":"32","base":"t_address"},"t_array(t_bytes32)dyn_storage":{"encoding":"dynamic_array","label":"bytes32[]","numberOfBytes":"32","base":"t_bytes32"},"t_bool":{"encoding":"inplace","label":"bool","numberOfBytes":"1"},"t_bytes32":{"encoding":"inplace","label":"bytes32","numberOfBytes":"32"},"t_bytes_storage":{"encoding":"bytes","label":"bytes","numberOfBytes":"32"},"t_enum(Status)53332":{"encoding":"inplace","label":"enum BlueprintCore.Status","numberOfBytes":"1"},"t_mapping(t_address,t_bool)":{"encoding":"mapping","key":"t_address","label":"mapping(address => bool)","numberOfBytes":"32","value":"t_bool"},"t_mapping(t_address,t_bytes32)":{"encoding":"mapping","key":"t_address","label":"mapping(address => bytes32)","numberOfBytes":"32","value":"t_bytes32"},"t_mapping(t_address,t_bytes_storage)":{"encoding":"mapping","key":"t_address","label":"mapping(address => bytes)","numberOfBytes":"32","value":"t_bytes_storage"},"t_mapping(t_address,t_enum(Status)53332)":{"encoding":"mapping","key":"t_address","label":"mapping(address => enum BlueprintCore.Status)","numberOfBytes":"32","value":"t_enum(Status)53332"},"t_mapping(t_address,t_mapping(t_address,t_uint256))":{"encoding":"mapping","key":"t_address","label":"mapping(address => mapping(address => uint256))","numberOfBytes":"32","value":"t_mapping(t_address,t_uint256)"},"t_mapping(t_address,t_mapping(t_string_memory_ptr,t_uint256))":{"encoding":"mapping","key":"t_address","label":"mapping(address => mapping(string => uint256))","numberOfBytes":"32","value":"t_mapping(t_string_memory_ptr,t_uint256)"},"t_mapping(t_address,t_uint256)":{"encoding":"mapping","key":"t_address","label":"mapping(address => uint256)","numberOfBytes":"32","value":"t_uint256"},"t_mapping(t_bytes32,t_address)":{"encoding":"mapping","key":"t_bytes32","label":"mapping(bytes32 => address)","numberOfBytes":"32","value":"t_address"},"t_mapping(t_bytes32,t_array(t_bytes32)dyn_storage)":{"encoding":"mapping","key":"t_bytes32","label":"mapping(bytes32 => bytes32[])","numberOfBytes":"32","value":"t_array(t_bytes32)dyn_storage"},"t_mapping(t_bytes32,t_bytes32)":{"encoding":"mapping","key":"t_bytes32","label":"mapping(bytes32 => bytes32)","numberOfBytes":"32","value":"t_bytes32"},"t_mapping(t_bytes32,t_string_storage)":{"encoding":"mapping","key":"t_bytes32","label":"mapping(bytes32 => string)","numberOfBytes":"32","value":"t_string_storage"},"t_mapping(t_bytes32,t_struct(DeploymentStatus)53338_storage)":{"encoding":"mapping","key":"t_bytes32","label":"mapping(bytes32 => struct BlueprintCore.DeploymentStatus)","numberOfBytes":"32","value":"t_struct(DeploymentStatus)53338_storage"},"t_mapping(t_bytes32,t_struct(Project)53396_storage)":{"encoding":"mapping","key":"t_bytes32","label":"mapping(bytes32 => struct BlueprintCore.Project)","numberOfBytes":"32","value":"t_struct(Project)53396_storage"},"t_mapping(t_string_memory_ptr,t_array(t_address)dyn_storage)":{"encoding":"mapping","key":"t_string_memory_ptr","label":"mapping(string => address[])","numberOfBytes":"32","value":"t_array(t_address)dyn_storage"},"t_mapping(t_string_memory_ptr,t_uint256)":{"encoding":"mapping","key":"t_string_memory_ptr","label":"mapping(string => uint256)","numberOfBytes":"32","value":"t_uint256"},"t_mapping(t_uint256,t_enum(Status)53332)":{"encoding":"mapping","key":"t_uint256","label":"mapping(uint256 => enum BlueprintCore.Status)","numberOfBytes":"32","value":"t_enum(Status)53332"},"t_string_memory_ptr":{"encoding":"bytes","label":"string","numberOfBytes":"32"},"t_string_storage":{"encoding":"bytes","label":"string","numberOfBytes":"32"},"t_struct(DeploymentStatus)53338_storage":{"encoding":"inplace","label":"struct BlueprintCore.DeploymentStatus","numberOfBytes":"32","members":[{"astId":53335,"contract":"src/BlueprintV5.sol:BlueprintV5","label":"status","offset":0,"slot":"0","type":"t_enum(Status)53332"},{"astId":53337,"contract":"src/BlueprintV5.sol:BlueprintV5","label":"deployWorkerAddr","offset":1,"slot":"0","type":"t_address"}]},"t_struct(Project)53396_storage":{"encoding":"inplace","label":"struct BlueprintCore.Project","numberOfBytes":"128","members":[{"astId":53389,"contract":"src/BlueprintV5.sol:BlueprintV5","label":"id","offset":0,"slot":"0","type":"t_bytes32"},{"astId":53391,"contract":"src/BlueprintV5.sol:BlueprintV5","label":"requestProposalID","offset":0,"slot":"1","type":"t_bytes32"},{"astId":53393,"contract":"src/BlueprintV5.sol:BlueprintV5","label":"requestDeploymentID","offset":0,"slot":"2","type":"t_bytes32"},{"astId":53395,"contract":"src/BlueprintV5.sol:BlueprintV5","label":"proposedSolverAddr","offset":0,"slot":"3","type":"t_address"}]},"t_uint256":{"encoding":"inplace","label":"uint256","numberOfBytes":"32"}}},"id":79}