{"abi":[{"type":"function","name":"UPGRADE_INTERFACE_VERSION","inputs":[],"outputs":[{"name":"","type":"string","internalType":"string"}],"stateMutability":"view"},{"type":"function","name":"UpdateWorkerDeploymentConfig","inputs":[{"name":"projectId","type":"bytes32","internalType":"bytes32"},{"name":"requestID","type":"bytes32","internalType":"bytes32"},{"name":"updatedBase64Config","type":"string","internalType":"string"}],"outputs":[],"stateMutability":"nonpayable"},{"type":"function","name":"VERSION","inputs":[],"outputs":[{"name":"","type":"string","internalType":"string"}],"stateMutability":"view"},{"type":"function","name":"createDeploymentRequest","inputs":[{"name":"projectId","type":"bytes32","internalType":"bytes32"},{"name":"solverAddress","type":"address","internalType":"address"},{"name":"base64Proposal","type":"string","internalType":"string"},{"name":"serverURL","type":"string","internalType":"string"}],"outputs":[{"name":"","type":"bytes32","internalType":"bytes32"}],"stateMutability":"nonpayable"},{"type":"function","name":"createMultipleDeploymentRequest","inputs":[{"name":"projectId","type":"bytes32","internalType":"bytes32"},{"name":"solverAddress","type":"address","internalType":"address"},{"name":"base64Proposals","type":"string[]","internalType":"string[]"},{"name":"serverURL","type":"string","internalType":"string"}],"outputs":[{"name":"","type":"bytes32","internalType":"bytes32"}],"stateMutability":"nonpayable"},{"type":"function","name":"createMultiplePrivateDeploymentRequest","inputs":[{"name":"projectId","type":"bytes32","internalType":"bytes32"},{"name":"solverAddress","type":"address","internalType":"address"},{"name":"privateWorkerAddress","type":"address","internalType":"address"},{"name":"base64Proposals","type":"string[]","internalType":"string[]"},{"name":"serverURL","type":"string","internalType":"string"}],"outputs":[{"name":"","type":"bytes32","internalType":"bytes32"}],"stateMutability":"nonpayable"},{"type":"function","name":"createPrivateDeploymentRequest","inputs":[{"name":"projectId","type":"bytes32","internalType":"bytes32"},{"name":"solverAddress","type":"address","internalType":"address"},{"name":"privateWorkerAddress","type":"address","internalType":"address"},{"name":"base64Proposal","type":"string","internalType":"string"},{"name":"serverURL","type":"string","internalType":"string"}],"outputs":[{"name":"","type":"bytes32","internalType":"bytes32"}],"stateMutability":"nonpayable"},{"type":"function","name":"createPrivateProposalRequest","inputs":[{"name":"projectId","type":"bytes32","internalType":"bytes32"},{"name":"privateSolverAddress","type":"address","internalType":"address"},{"name":"base64RecParam","type":"string","internalType":"string"},{"name":"serverURL","type":"string","internalType":"string"}],"outputs":[{"name":"requestID","type":"bytes32","internalType":"bytes32"}],"stateMutability":"nonpayable"},{"type":"function","name":"createProjectID","inputs":[],"outputs":[{"name":"projectId","type":"bytes32","internalType":"bytes32"}],"stateMutability":"nonpayable"},{"type":"function","name":"createProjectIDAndDeploymentRequest","inputs":[{"name":"projectId","type":"bytes32","internalType":"bytes32"},{"name":"base64Proposal","type":"string","internalType":"string"},{"name":"serverURL","type":"string","internalType":"string"}],"outputs":[{"name":"","type":"bytes32","internalType":"bytes32"}],"stateMutability":"nonpayable"},{"type":"function","name":"createProjectIDAndPrivateDeploymentRequest","inputs":[{"name":"projectId","type":"bytes32","internalType":"bytes32"},{"name":"base64Proposal","type":"string","internalType":"string"},{"name":"privateWorkerAddress","type":"address","internalType":"address"},{"name":"serverURL","type":"string","internalType":"string"}],"outputs":[{"name":"","type":"bytes32","internalType":"bytes32"}],"stateMutability":"nonpayable"},{"type":"function","name":"createProjectIDAndProposalRequest","inputs":[{"name":"projectId","type":"bytes32","internalType":"bytes32"},{"name":"base64RecParam","type":"string","internalType":"string"},{"name":"serverURL","type":"string","internalType":"string"}],"outputs":[{"name":"requestID","type":"bytes32","internalType":"bytes32"}],"stateMutability":"nonpayable"},{"type":"function","name":"createProposalRequest","inputs":[{"name":"projectId","type":"bytes32","internalType":"bytes32"},{"name":"base64RecParam","type":"string","internalType":"string"},{"name":"serverURL","type":"string","internalType":"string"}],"outputs":[{"name":"requestID","type":"bytes32","internalType":"bytes32"}],"stateMutability":"nonpayable"},{"type":"function","name":"deploymentIdList","inputs":[{"name":"","type":"bytes32","internalType":"bytes32"},{"name":"","type":"uint256","internalType":"uint256"}],"outputs":[{"name":"","type":"bytes32","internalType":"bytes32"}],"stateMutability":"view"},{"type":"function","name":"dummyAddress","inputs":[],"outputs":[{"name":"","type":"address","internalType":"address"}],"stateMutability":"view"},{"type":"function","name":"factor","inputs":[],"outputs":[{"name":"","type":"uint256","internalType":"uint256"}],"stateMutability":"view"},{"type":"function","name":"getDeploymentProof","inputs":[{"name":"requestID","type":"bytes32","internalType":"bytes32"}],"outputs":[{"name":"","type":"string","internalType":"string"}],"stateMutability":"view"},{"type":"function","name":"getDeploymentStatus","inputs":[{"name":"requestID","type":"bytes32","internalType":"bytes32"}],"outputs":[{"name":"","type":"uint8","internalType":"enum Blueprint.Status"},{"name":"","type":"address","internalType":"address"}],"stateMutability":"view"},{"type":"function","name":"getLatestDeploymentRequestID","inputs":[{"name":"addr","type":"address","internalType":"address"}],"outputs":[{"name":"","type":"bytes32","internalType":"bytes32"}],"stateMutability":"view"},{"type":"function","name":"getLatestProposalRequestID","inputs":[{"name":"addr","type":"address","internalType":"address"}],"outputs":[{"name":"","type":"bytes32","internalType":"bytes32"}],"stateMutability":"view"},{"type":"function","name":"getLatestUserProjectID","inputs":[{"name":"addr","type":"address","internalType":"address"}],"outputs":[{"name":"","type":"bytes32","internalType":"bytes32"}],"stateMutability":"view"},{"type":"function","name":"getProjectInfo","inputs":[{"name":"projectId","type":"bytes32","internalType":"bytes32"}],"outputs":[{"name":"","type":"address","internalType":"address"},{"name":"","type":"bytes32","internalType":"bytes32"},{"name":"","type":"bytes32[]","internalType":"bytes32[]"}],"stateMutability":"view"},{"type":"function","name":"getReputation","inputs":[{"name":"addr","type":"address","internalType":"address"}],"outputs":[{"name":"","type":"uint256","internalType":"uint256"}],"stateMutability":"view"},{"type":"function","name":"initialize","inputs":[],"outputs":[],"stateMutability":"nonpayable"},{"type":"function","name":"latestDeploymentRequestID","inputs":[{"name":"","type":"address","internalType":"address"}],"outputs":[{"name":"","type":"bytes32","internalType":"bytes32"}],"stateMutability":"view"},{"type":"function","name":"latestProjectID","inputs":[{"name":"","type":"address","internalType":"address"}],"outputs":[{"name":"","type":"bytes32","internalType":"bytes32"}],"stateMutability":"view"},{"type":"function","name":"latestProposalRequestID","inputs":[{"name":"","type":"address","internalType":"address"}],"outputs":[{"name":"","type":"bytes32","internalType":"bytes32"}],"stateMutability":"view"},{"type":"function","name":"owner","inputs":[],"outputs":[{"name":"","type":"address","internalType":"address"}],"stateMutability":"view"},{"type":"function","name":"proxiableUUID","inputs":[],"outputs":[{"name":"","type":"bytes32","internalType":"bytes32"}],"stateMutability":"view"},{"type":"function","name":"renounceOwnership","inputs":[],"outputs":[],"stateMutability":"nonpayable"},{"type":"function","name":"requestDeploymentStatus","inputs":[{"name":"","type":"bytes32","internalType":"bytes32"}],"outputs":[{"name":"status","type":"uint8","internalType":"enum Blueprint.Status"},{"name":"deployWorkerAddr","type":"address","internalType":"address"}],"stateMutability":"view"},{"type":"function","name":"solverReputation","inputs":[{"name":"","type":"address","internalType":"address"}],"outputs":[{"name":"","type":"uint256","internalType":"uint256"}],"stateMutability":"view"},{"type":"function","name":"submitDeploymentRequest","inputs":[{"name":"projectId","type":"bytes32","internalType":"bytes32"},{"name":"requestID","type":"bytes32","internalType":"bytes32"}],"outputs":[{"name":"isAccepted","type":"bool","internalType":"bool"}],"stateMutability":"nonpayable"},{"type":"function","name":"submitProofOfDeployment","inputs":[{"name":"projectId","type":"bytes32","internalType":"bytes32"},{"name":"requestID","type":"bytes32","internalType":"bytes32"},{"name":"proofBase64","type":"string","internalType":"string"}],"outputs":[],"stateMutability":"nonpayable"},{"type":"function","name":"totalDeploymentRequest","inputs":[],"outputs":[{"name":"","type":"uint256","internalType":"uint256"}],"stateMutability":"view"},{"type":"function","name":"totalProposalRequest","inputs":[],"outputs":[{"name":"","type":"uint256","internalType":"uint256"}],"stateMutability":"view"},{"type":"function","name":"transferOwnership","inputs":[{"name":"newOwner","type":"address","internalType":"address"}],"outputs":[],"stateMutability":"nonpayable"},{"type":"function","name":"upgradeProject","inputs":[{"name":"projectId","type":"bytes32","internalType":"bytes32"}],"outputs":[],"stateMutability":"nonpayable"},{"type":"function","name":"upgradeToAndCall","inputs":[{"name":"newImplementation","type":"address","internalType":"address"},{"name":"data","type":"bytes","internalType":"bytes"}],"outputs":[],"stateMutability":"payable"},{"type":"function","name":"workerReputation","inputs":[{"name":"","type":"address","internalType":"address"}],"outputs":[{"name":"","type":"uint256","internalType":"uint256"}],"stateMutability":"view"},{"type":"event","name":"AcceptDeployment","inputs":[{"name":"projectID","type":"bytes32","indexed":true,"internalType":"bytes32"},{"name":"requestID","type":"bytes32","indexed":true,"internalType":"bytes32"},{"name":"workerAddress","type":"address","indexed":true,"internalType":"address"}],"anonymous":false},{"type":"event","name":"CreateProjectID","inputs":[{"name":"projectID","type":"bytes32","indexed":true,"internalType":"bytes32"},{"name":"walletAddress","type":"address","indexed":false,"internalType":"address"}],"anonymous":false},{"type":"event","name":"GeneratedProofOfDeployment","inputs":[{"name":"projectID","type":"bytes32","indexed":true,"internalType":"bytes32"},{"name":"requestID","type":"bytes32","indexed":true,"internalType":"bytes32"},{"name":"base64DeploymentProof","type":"string","indexed":false,"internalType":"string"}],"anonymous":false},{"type":"event","name":"Initialized","inputs":[{"name":"version","type":"uint64","indexed":false,"internalType":"uint64"}],"anonymous":false},{"type":"event","name":"OwnershipTransferred","inputs":[{"name":"previousOwner","type":"address","indexed":true,"internalType":"address"},{"name":"newOwner","type":"address","indexed":true,"internalType":"address"}],"anonymous":false},{"type":"event","name":"RequestDeployment","inputs":[{"name":"projectID","type":"bytes32","indexed":true,"internalType":"bytes32"},{"name":"walletAddress","type":"address","indexed":false,"internalType":"address"},{"name":"solverAddress","type":"address","indexed":false,"internalType":"address"},{"name":"requestID","type":"bytes32","indexed":true,"internalType":"bytes32"},{"name":"base64Proposal","type":"string","indexed":false,"internalType":"string"},{"name":"serverURL","type":"string","indexed":false,"internalType":"string"}],"anonymous":false},{"type":"event","name":"RequestPrivateDeployment","inputs":[{"name":"projectID","type":"bytes32","indexed":true,"internalType":"bytes32"},{"name":"walletAddress","type":"address","indexed":false,"internalType":"address"},{"name":"privateWorkerAddress","type":"address","indexed":false,"internalType":"address"},{"name":"solverAddress","type":"address","indexed":false,"internalType":"address"},{"name":"requestID","type":"bytes32","indexed":true,"internalType":"bytes32"},{"name":"base64Proposal","type":"string","indexed":false,"internalType":"string"},{"name":"serverURL","type":"string","indexed":false,"internalType":"string"}],"anonymous":false},{"type":"event","name":"RequestPrivateProposal","inputs":[{"name":"projectID","type":"bytes32","indexed":true,"internalType":"bytes32"},{"name":"walletAddress","type":"address","indexed":false,"internalType":"address"},{"name":"privateSolverAddress","type":"address","indexed":false,"internalType":"address"},{"name":"requestID","type":"bytes32","indexed":true,"internalType":"bytes32"},{"name":"base64RecParam","type":"string","indexed":false,"internalType":"string"},{"name":"serverURL","type":"string","indexed":false,"internalType":"string"}],"anonymous":false},{"type":"event","name":"RequestProposal","inputs":[{"name":"projectID","type":"bytes32","indexed":true,"internalType":"bytes32"},{"name":"walletAddress","type":"address","indexed":false,"internalType":"address"},{"name":"requestID","type":"bytes32","indexed":true,"internalType":"bytes32"},{"name":"base64RecParam","type":"string","indexed":false,"internalType":"string"},{"name":"serverURL","type":"string","indexed":false,"internalType":"string"}],"anonymous":false},{"type":"event","name":"UpdateDeploymentConfig","inputs":[{"name":"projectID","type":"bytes32","indexed":true,"internalType":"bytes32"},{"name":"requestID","type":"bytes32","indexed":true,"internalType":"bytes32"},{"name":"workerAddress","type":"address","indexed":false,"internalType":"address"},{"name":"base64Config","type":"string","indexed":false,"internalType":"string"}],"anonymous":false},{"type":"event","name":"Upgraded","inputs":[{"name":"implementation","type":"address","indexed":true,"internalType":"address"}],"anonymous":false},{"type":"error","name":"AddressEmptyCode","inputs":[{"name":"target","type":"address","internalType":"address"}]},{"type":"error","name":"ERC1967InvalidImplementation","inputs":[{"name":"implementation","type":"address","internalType":"address"}]},{"type":"error","name":"ERC1967NonPayable","inputs":[]},{"type":"error","name":"FailedCall","inputs":[]},{"type":"error","name":"InvalidInitialization","inputs":[]},{"type":"error","name":"NotInitializing","inputs":[]},{"type":"error","name":"OwnableInvalidOwner","inputs":[{"name":"owner","type":"address","internalType":"address"}]},{"type":"error","name":"OwnableUnauthorizedAccount","inputs":[{"name":"account","type":"address","internalType":"address"}]},{"type":"error","name":"UUPSUnauthorizedCallContext","inputs":[]},{"type":"error","name":"UUPSUnsupportedProxiableUUID","inputs":[{"name":"slot","type":"bytes32","internalType":"bytes32"}]}],"bytecode":{"object":"0x60a0604052306080523480156012575f5ffd5b50608051612f196100395f395f8181611a4b01528181611a740152611bb80152612f195ff3fe608060405260043610610233575f3560e01c80638da5cb5b11610129578063d2a0c275116100a8578063ed3c95c01161006d578063ed3c95c014610736578063f11d367514610761578063f2fde38b14610795578063fcc82939146107b4578063ffa1ad74146107f2575f5ffd5b8063d2a0c2751461068c578063d98f5877146106ab578063e0566833146106ca578063e128fced146106f8578063eb42bc8a14610717575f5ffd5b8063b9bb7135116100ee578063b9bb7135146105b7578063bae7e16c146105eb578063be539d3f1461060a578063c4845f5f14610639578063ce1b4ff514610658575f5ffd5b80638da5cb5b146104e3578063924b2a2a1461051f5780639c89a0e21461053e578063a97bedfe14610572578063ad3cb1cc14610587575f5ffd5b806354f703f8116101b55780637ce53f491161017a5780637ce53f49146104515780638129fc1c14610470578063822c737a1461048457806383c49efa146104af57806384717e90146104c4575f5ffd5b806354f703f8146103bf57806356ed8752146103d457806359617ef7146103ff578063715018a61461041e5780637371498c14610432575f5ffd5b80632ae189d8116101fb5780632ae189d8146103395780633550753c1461034d5780634b6680de1461036c5780634f1ef2861461039857806352d1902d146103ab575f5ffd5b806304887e2f1461023757806305b3831214610258578063078ebeae1461028857806308a101b8146102c157806309470536146102ec575b5f5ffd5b348015610242575f5ffd5b5061025661025136600461259e565b610806565b005b348015610263575f5ffd5b5061026b5f81565b6040516001600160a01b0390911681526020015b60405180910390f35b348015610293575f5ffd5b506102b36102a2366004612604565b60056020525f908152604090205481565b60405190815260200161027f565b3480156102cc575f5ffd5b506102b36102db366004612604565b60086020525f908152604090205481565b3480156102f7575f5ffd5b5061032b61030636600461261d565b5f9081526009602052604090205460ff8116916101009091046001600160a01b031690565b60405161027f929190612648565b348015610344575f5ffd5b506102b3610a33565b348015610358575f5ffd5b5061025661036736600461261d565b610a86565b348015610377575f5ffd5b5061038b61038636600461261d565b610b01565b60405161027f91906126ae565b6102566103a63660046126c0565b610ba0565b3480156103b6575f5ffd5b506102b3610bbf565b3480156103ca575f5ffd5b506102b360015481565b3480156103df575f5ffd5b506102b36103ee366004612604565b60066020525f908152604090205481565b34801561040a575f5ffd5b506102b361041936600461271d565b610bda565b348015610429575f5ffd5b50610256610c30565b34801561043d575f5ffd5b506102b361044c36600461271d565b610c43565b34801561045c575f5ffd5b506102b361046b366004612799565b610ceb565b34801561047b575f5ffd5b50610256610d99565b34801561048f575f5ffd5b506102b361049e366004612604565b60046020525f908152604090205481565b3480156104ba575f5ffd5b506102b360035481565b3480156104cf575f5ffd5b506102b36104de3660046127fd565b610e94565b3480156104ee575f5ffd5b507f9016d09d72d40fdae2fd8ceac6b6234c7706214fd39c1cd1e609a0528c199300546001600160a01b031661026b565b34801561052a575f5ffd5b506102b36105393660046127fd565b610ee7565b348015610549575f5ffd5b506102b3610558366004612604565b6001600160a01b03165f9081526007602052604090205490565b34801561057d575f5ffd5b506102b360025481565b348015610592575f5ffd5b5061038b604051806040016040528060058152602001640352e302e360dc1b81525081565b3480156105c2575f5ffd5b506102b36105d1366004612604565b6001600160a01b03165f9081526005602052604090205490565b3480156105f6575f5ffd5b506102b3610605366004612852565b610efc565b348015610615575f5ffd5b506106296106243660046128de565b610fdd565b604051901515815260200161027f565b348015610644575f5ffd5b506102b36106533660046127fd565b611217565b348015610663575f5ffd5b506102b3610672366004612604565b6001600160a01b03165f9081526006602052604090205490565b348015610697575f5ffd5b506102b36106a63660046128de565b6112a1565b3480156106b6575f5ffd5b506102b36106c53660046129a0565b6112cc565b3480156106d5575f5ffd5b506106e96106e436600461261d565b61145f565b60405161027f939291906129f8565b348015610703575f5ffd5b5061025661071236600461259e565b611524565b348015610722575f5ffd5b506102b3610731366004612a54565b6116fb565b348015610741575f5ffd5b506102b3610750366004612604565b60076020525f908152604090205481565b34801561076c575f5ffd5b506102b361077b366004612604565b6001600160a01b03165f9081526004602052604090205490565b3480156107a0575f5ffd5b506102566107af366004612604565b611859565b3480156107bf575f5ffd5b5061032b6107ce36600461261d565b60096020525f908152604090205460ff81169061010090046001600160a01b031682565b3480156107fd575f5ffd5b5061038b611896565b5f838152600e602052604090205415158061083657505f838152600d60205260409020546001600160a01b031615155b61085b5760405162461bcd60e51b815260040161085290612a9d565b60405180910390fd5b5f8281526009602052604081205460ff16600581111561087d5761087d612634565b036108bf5760405162461bcd60e51b81526020600482015260126024820152711c995c5d595cdd1251081b9bdd08195e1a5d60721b6044820152606401610852565b5f81511161090f5760405162461bcd60e51b815260206004820152601c60248201527f75706461746564426173653634436f6e66696720697320656d707479000000006044820152606401610852565b60015f8381526009602052604090205460ff16600581111561093357610933612634565b036109915760405162461bcd60e51b815260206004820152602860248201527f726571756573744944206973206e6f74207069636b656420757020627920616e6044820152673c903bb7b935b2b960c11b6064820152608401610852565b60055f8381526009602052604090205460ff1660058111156109b5576109b5612634565b036109d3575f828152600960205260409020805460ff191660021790555b5f8281526009602052604090819020549051839185917fce8f8849a89ebf447425479c86ccdc17f11697958b4bca671fcdf65bc3012c2191610a26916101009091046001600160a01b0316908690612ad4565b60405180910390a3505050565b604080514260208201526bffffffffffffffffffffffff193360601b16918101919091524660548201525f90607401604051602081830303815290604052805190602001209050610a8381611921565b90565b5f818152600e6020526040902054151580610ab657505f818152600d60205260409020546001600160a01b031615155b610ad25760405162461bcd60e51b815260040161085290612a9d565b5f908152600e6020526040812060018101829055600281019190915560030180546001600160a01b0319169055565b5f818152600a60205260409020805460609190610b1d90612af7565b80601f0160208091040260200160405190810160405280929190818152602001828054610b4990612af7565b8015610b945780601f10610b6b57610100808354040283529160200191610b94565b820191905f5260205f20905b815481529060010190602001808311610b7757829003601f168201915b50505050509050919050565b610ba8611a40565b610bb182611ae4565b610bbb8282611aec565b5050565b5f610bc8611bad565b505f516020612e845f395f51905f5290565b5f610be785858585611bf6565b905080857f1eb4ec68b7c7cf7850d18fd32bdd1cb9e2c9b7e1de32211eef093af3cf262aee33878787604051610c209493929190612b2f565b60405180910390a3949350505050565b610c38611de5565b610c415f611e40565b565b5f6001600160a01b038416610c6a5760405162461bcd60e51b815260040161085290612b77565b5f5f610c7a87875f88885f611eb0565b5f898152600e60209081526040808320600201849055838352600f825280832080546001810182559084529190922001839055519193509150829088905f516020612ea45f395f51905f5290610cd79033908b908b908b90612b2f565b60405180910390a35090505b949350505050565b5f610cf585611921565b5f5f610d05875f8789885f611eb0565b5f898152600e60209081526040808320600201849055838352600f8252808320805460018101825590845291832090910184905551929450909250839189915f516020612ea45f395f51905f5291610d629133918c908b90612b2f565b60405180910390a3846001600160a01b031682885f516020612ec45f395f51905f5260405160405180910390a45095945050505050565b60025f610da46121c0565b8054909150600160401b900460ff1680610dcb575080546001600160401b03808416911610155b15610de95760405163f92ee8a960e01b815260040160405180910390fd5b805468ffffffffffffffffff19166001600160401b03831617600160401b178155610e13336121ea565b610e1b6121fb565b6040805180820190915260058152640322e302e360dc1b60208201525f90610e439082612bf9565b50805468ff0000000000000000191681556040516001600160401b03831681527fc7f505b2f371ae2175ee4913f4499e1f2633a7b5936321eed1cdaeb6115181d29060200160405180910390a15050565b5f610ea1845f8585611bf6565b905080847f660f0cd9ab48b3916970cca5763925f3b8f0e0e158fb9f0f4ae5f71e9605d767338686604051610ed893929190612cb3565b60405180910390a39392505050565b5f610ef184611921565b610ce3848484610e94565b5f6001600160a01b038516610f235760405162461bcd60e51b815260040161085290612b77565b5f5f610f3388888888885f611eb0565b5f8a8152600e60209081526040808320600201849055838352600f825280832080546001810182559084529190922001839055519193509150829089907f26e5b75b543be1cdad2907ba50a99eeb5c3a05381eee18d5b6a565b2bbccd1ba90610fa59033908b908d908c908c90612ce8565b60405180910390a3856001600160a01b031682895f516020612ec45f395f51905f5260405160405180910390a4509695505050505050565b5f828152600e602052604081205415158061100d57505f838152600d60205260409020546001600160a01b031615155b6110295760405162461bcd60e51b815260040161085290612a9d565b5f8281526009602052604081205460ff16600581111561104b5761104b612634565b036110985760405162461bcd60e51b815260206004820152601860248201527f72657175657374494420646f6573206e6f7420657869737400000000000000006044820152606401610852565b60025f8381526009602052604090205460ff1660058111156110bc576110bc612634565b0361113d5760405162461bcd60e51b815260206004820152604560248201527f72657175657374494420616c7265616479207069636b656420627920616e6f7460448201527f68657220776f726b65722c20747279206120646966666572656e742072657175606482015264195cdd125160da1b608482015260a401610852565b60055f8381526009602052604090205460ff16600581111561116157611161612634565b036111bc5760405162461bcd60e51b815260206004820152602560248201527f7265717565737449442068617320616c7265616479207375626d697474656420604482015264383937b7b360d91b6064820152608401610852565b505f81815260096020526040808220805460026101003381026001600160a81b03199093169290921717918290559151600193929091046001600160a01b031691849186915f516020612ec45f395f51905f5291a492915050565b5f61122184611921565b5f5f611231865f5f88885f611eb0565b5f888152600e60209081526040808320600201849055838352600f8252808320805460018101825590845291832090910184905551929450909250839188915f516020612ea45f395f51905f529161128e9133918b908b90612b2f565b60405180910390a35090505b9392505050565b600f602052815f5260405f2081815481106112ba575f80fd5b905f5260205f20015f91509150505481565b5f6001600160a01b0385166112f35760405162461bcd60e51b815260040161085290612b77565b82515f036113435760405162461bcd60e51b815260206004820152601e60248201527f62617365363450726f706f73616c7320617272617920697320656d70747900006044820152606401610852565b5f805b8451811015611440575f5f6113788a8a8a8a878151811061136957611369612d39565b60200260200101518a88611eb0565b909250905083156113a8575f848152600f60209081526040822080546001810182559083529120018290556113cc565b5f818152600f60209081526040822080546001810182559083529120018290559250825b818a5f516020612ea45f395f51905f52338c8b88815181106113f0576113f0612d39565b60200260200101518b6040516114099493929190612b2f565b60405180910390a3876001600160a01b0316828b5f516020612ec45f395f51905f5260405160405180910390a45050600101611346565b505f878152600e60205260409020600201819055905095945050505050565b5f818152600e6020526040812054819060609082036114905760405162461bcd60e51b815260040161085290612a9d565b5f848152600e60209081526040808320600201548352600f8252808320805482518185028101850190935280835291929091908301828280156114f057602002820191905f5260205f20905b8154815260200190600101908083116114dc575b5050505f9788525050600e602052604090952060038101546001909101546001600160a01b03909116969095945092505050565b5f838152600e602052604090205415158061155457505f838152600d60205260409020546001600160a01b031615155b6115705760405162461bcd60e51b815260040161085290612a9d565b5f8281526009602052604081205460ff16600581111561159257611592612634565b036115d45760405162461bcd60e51b81526020600482015260126024820152711c995c5d595cdd1251081b9bdd08195e1a5d60721b6044820152606401610852565b5f8281526009602052604090205461010090046001600160a01b031633146116355760405162461bcd60e51b815260206004820152601460248201527377726f6e6720776f726b6572206164647265737360601b6044820152606401610852565b60055f8381526009602052604090205460ff16600581111561165957611659612634565b0361169d5760405162461bcd60e51b815260206004820152601460248201527330b63932b0b23c9039bab136b4ba10383937b7b360611b6044820152606401610852565b5f828152600960209081526040808320805460ff19166005179055600a90915290206116c98282612bf9565b5081837fddb29833db778500c94a5880f1a8ad549d91ec7c80faee2b3735bda881fa6d9883604051610a2691906126ae565b5f6001600160a01b0384166117225760405162461bcd60e51b815260040161085290612b77565b82515f036117725760405162461bcd60e51b815260206004820152601e60248201527f62617365363450726f706f73616c7320617272617920697320656d70747900006044820152606401610852565b5f805b845181101561183b575f5f61179889895f8a878151811061136957611369612d39565b909250905083156117c8575f848152600f60209081526040822080546001810182559083529120018290556117ec565b5f818152600f60209081526040822080546001810182559083529120018290559250825b81895f516020612ea45f395f51905f52338b8b888151811061181057611810612d39565b60200260200101518b6040516118299493929190612b2f565b60405180910390a35050600101611775565b505f868152600e602052604090206002018190559050949350505050565b611861611de5565b6001600160a01b03811661188a57604051631e4fbdf760e01b81525f6004820152602401610852565b61189381611e40565b50565b5f80546118a290612af7565b80601f01602080910402602001604051908101604052809291908181526020018280546118ce90612af7565b80156119195780601f106118f057610100808354040283529160200191611919565b820191905f5260205f20905b8154815290600101906020018083116118fc57829003601f168201915b505050505081565b5f818152600e60205260409020541561197c5760405162461bcd60e51b815260206004820152601860248201527f70726f6a656374496420616c72656164792065786973747300000000000000006044820152606401610852565b6119ac60405180608001604052805f81526020015f81526020015f81526020015f6001600160a01b031681525090565b8181525f828152600e60209081526040808320845181558285015160018201558185015160028201556060850151600390910180546001600160a01b0319166001600160a01b039092169190911790553380845260068352928190208590555191825283917f988dde20b788b20d2f8188ab37bc9419a99761fc4ec19356dc30cfa49b4601dc910160405180910390a25050565b306001600160a01b037f0000000000000000000000000000000000000000000000000000000000000000161480611ac657507f00000000000000000000000000000000000000000000000000000000000000006001600160a01b0316611aba5f516020612e845f395f51905f52546001600160a01b031690565b6001600160a01b031614155b15610c415760405163703e46dd60e11b815260040160405180910390fd5b611893611de5565b816001600160a01b03166352d1902d6040518163ffffffff1660e01b8152600401602060405180830381865afa925050508015611b46575060408051601f3d908101601f19168201909252611b4391810190612d4d565b60015b611b6e57604051634c9c8ce360e01b81526001600160a01b0383166004820152602401610852565b5f516020612e845f395f51905f528114611b9e57604051632a87526960e21b815260048101829052602401610852565b611ba88383612203565b505050565b306001600160a01b037f00000000000000000000000000000000000000000000000000000000000000001614610c415760405163703e46dd60e11b815260040160405180910390fd5b5f848152600e6020526040812054151580611c2657505f858152600d60205260409020546001600160a01b031615155b611c425760405162461bcd60e51b815260040161085290612a9d565b5f825111611c875760405162461bcd60e51b815260206004820152601260248201527173657276657255524c20697320656d70747960701b6044820152606401610852565b5f835111611cd75760405162461bcd60e51b815260206004820152601760248201527f626173653634526563506172616d20697320656d7074790000000000000000006044820152606401610852565b42338446604051602001611cee9493929190612d7b565b60408051601f1981840301815291815281516020928301205f888152600e90935291206001015490915015611d6f5760405162461bcd60e51b815260206004820152602160248201527f70726f706f73616c2072657175657374494420616c72656164792065786973746044820152607360f81b6064820152608401610852565b335f908152600460209081526040808320849055878352600e90915281206001018290556002805491611da183612dc7565b90915550506001600160a01b03841615610ce3575f818152600b6020526040902080546001600160a01b0386166001600160a01b0319909116179055949350505050565b33611e177f9016d09d72d40fdae2fd8ceac6b6234c7706214fd39c1cd1e609a0528c199300546001600160a01b031690565b6001600160a01b031614610c415760405163118cdaa760e01b8152336004820152602401610852565b7f9016d09d72d40fdae2fd8ceac6b6234c7706214fd39c1cd1e609a0528c19930080546001600160a01b031981166001600160a01b03848116918217845560405192169182907f8be0079c531659141344cd1fd0a4f28419497f9722a3daafe3b4186f6b6457e0905f90a3505050565b5f868152600e60205260408120548190151580611ee257505f888152600d60205260409020546001600160a01b031615155b611efe5760405162461bcd60e51b815260040161085290612a9d565b5f845111611f435760405162461bcd60e51b815260206004820152601260248201527173657276657255524c20697320656d70747960701b6044820152606401610852565b5f855111611f935760405162461bcd60e51b815260206004820152601760248201527f62617365363450726f706f73616c20697320656d7074790000000000000000006044820152606401610852565b423386468b604051602001611fac959493929190612ddf565b60408051601f1981840301815291815281516020928301205f8b8152600e9093529120600201549091501561202f5760405162461bcd60e51b815260206004820152602360248201527f6465706c6f796d656e742072657175657374494420616c72656164792065786960448201526273747360e81b6064820152608401610852565b4233864686604051602001612048959493929190612ddf565b60408051601f198184030181529181528151602092830120335f908152600590935290822081905560038054919450909161208283612dc7565b919050555061209087612258565b50604080518082019091525f80825260208201526001600160a01b0387166121155760018082525f848152600960205260409020825181548493839160ff1916908360058111156120e3576120e3612634565b02179055506020919091015181546001600160a01b0390911661010002610100600160a81b0319909116179055612189565b600281526001600160a01b0387166020808301919091525f8481526009909152604090208151815483929190829060ff1916600183600581111561215b5761215b612634565b02179055506020919091015181546001600160a01b0390911661010002610100600160a81b03199091161790555b505f888152600e6020526040902060030180546001600160a01b0389166001600160a01b0319909116179055965096945050505050565b5f807ff0c57e16840df040f15088dc2f81fe391c3923bec73e23a9662efc9c229c6a005b92915050565b6121f2612325565b6118938161234a565b610c41612325565b61220c82612352565b6040516001600160a01b038316907fbc7cd75a20ee27fd9adebab32041f755214dbc6bffa90cc0225b39da2e5c2d3b905f90a280511561225057611ba882826123b5565b610bbb612427565b6001600160a01b0381165f9081526007602052604090205460015461227e906006612e1c565b811015612299576001546122929082612e33565b9050612307565b6103e860025411156122d4576002546001546122b6906006612e1c565b6122c09083612e46565b6122ca9190612e59565b6122929082612e33565b6103e860015460066122e69190612e1c565b6122f09083612e46565b6122fa9190612e59565b6123049082612e33565b90505b6001600160a01b039091165f90815260076020526040902081905590565b61232d612446565b610c4157604051631afcd79f60e31b815260040160405180910390fd5b611861612325565b806001600160a01b03163b5f0361238757604051634c9c8ce360e01b81526001600160a01b0382166004820152602401610852565b5f516020612e845f395f51905f5280546001600160a01b0319166001600160a01b0392909216919091179055565b60605f5f846001600160a01b0316846040516123d19190612e78565b5f60405180830381855af49150503d805f8114612409576040519150601f19603f3d011682016040523d82523d5f602084013e61240e565b606091505b509150915061241e85838361245f565b95945050505050565b3415610c415760405163b398979f60e01b815260040160405180910390fd5b5f61244f6121c0565b54600160401b900460ff16919050565b6060826124745761246f826124bb565b61129a565b815115801561248b57506001600160a01b0384163b155b156124b457604051639996b31560e01b81526001600160a01b0385166004820152602401610852565b508061129a565b8051156124cb5780518082602001fd5b60405163d6bda27560e01b815260040160405180910390fd5b634e487b7160e01b5f52604160045260245ffd5b604051601f8201601f191681016001600160401b0381118282101715612520576125206124e4565b604052919050565b5f5f6001600160401b03841115612541576125416124e4565b50601f8301601f1916602001612556816124f8565b91505082815283838301111561256a575f5ffd5b828260208301375f602084830101529392505050565b5f82601f83011261258f575f5ffd5b61129a83833560208501612528565b5f5f5f606084860312156125b0575f5ffd5b833592506020840135915060408401356001600160401b038111156125d3575f5ffd5b6125df86828701612580565b9150509250925092565b80356001600160a01b03811681146125ff575f5ffd5b919050565b5f60208284031215612614575f5ffd5b61129a826125e9565b5f6020828403121561262d575f5ffd5b5035919050565b634e487b7160e01b5f52602160045260245ffd5b604081016006841061266857634e487b7160e01b5f52602160045260245ffd5b9281526001600160a01b039190911660209091015290565b5f81518084528060208401602086015e5f602082860101526020601f19601f83011685010191505092915050565b602081525f61129a6020830184612680565b5f5f604083850312156126d1575f5ffd5b6126da836125e9565b915060208301356001600160401b038111156126f4575f5ffd5b8301601f81018513612704575f5ffd5b61271385823560208401612528565b9150509250929050565b5f5f5f5f60808587031215612730575f5ffd5b84359350612740602086016125e9565b925060408501356001600160401b0381111561275a575f5ffd5b61276687828801612580565b92505060608501356001600160401b03811115612781575f5ffd5b61278d87828801612580565b91505092959194509250565b5f5f5f5f608085870312156127ac575f5ffd5b8435935060208501356001600160401b038111156127c8575f5ffd5b6127d487828801612580565b9350506127e3604086016125e9565b915060608501356001600160401b03811115612781575f5ffd5b5f5f5f6060848603121561280f575f5ffd5b8335925060208401356001600160401b0381111561282b575f5ffd5b61283786828701612580565b92505060408401356001600160401b038111156125d3575f5ffd5b5f5f5f5f5f60a08688031215612866575f5ffd5b85359450612876602087016125e9565b9350612884604087016125e9565b925060608601356001600160401b0381111561289e575f5ffd5b6128aa88828901612580565b92505060808601356001600160401b038111156128c5575f5ffd5b6128d188828901612580565b9150509295509295909350565b5f5f604083850312156128ef575f5ffd5b50508035926020909101359150565b5f82601f83011261290d575f5ffd5b81356001600160401b03811115612926576129266124e4565b8060051b612936602082016124f8565b91825260208185018101929081019086841115612951575f5ffd5b6020860192505b838310156129965782356001600160401b03811115612975575f5ffd5b612984886020838a0101612580565b83525060209283019290910190612958565b9695505050505050565b5f5f5f5f5f60a086880312156129b4575f5ffd5b853594506129c4602087016125e9565b93506129d2604087016125e9565b925060608601356001600160401b038111156129ec575f5ffd5b6128aa888289016128fe565b6001600160a01b0384168152602080820184905260606040830181905283519083018190525f918401906080840190835b81811015612a47578351835260209384019390920191600101612a29565b5090979650505050505050565b5f5f5f5f60808587031215612a67575f5ffd5b84359350612a77602086016125e9565b925060408501356001600160401b03811115612a91575f5ffd5b612766878288016128fe565b60208082526018908201527f70726f6a656374496420646f6573206e6f742065786973740000000000000000604082015260600190565b6001600160a01b03831681526040602082018190525f90610ce390830184612680565b600181811c90821680612b0b57607f821691505b602082108103612b2957634e487b7160e01b5f52602260045260245ffd5b50919050565b6001600160a01b038581168252841660208201526080604082018190525f90612b5a90830185612680565b8281036060840152612b6c8185612680565b979650505050505050565b6020808252601a908201527f736f6c76657241646472657373206973206e6f742076616c6964000000000000604082015260600190565b601f821115611ba857805f5260205f20601f840160051c81016020851015612bd35750805b601f840160051c820191505b81811015612bf2575f8155600101612bdf565b5050505050565b81516001600160401b03811115612c1257612c126124e4565b612c2681612c208454612af7565b84612bae565b6020601f821160018114612c58575f8315612c415750848201515b5f19600385901b1c1916600184901b178455612bf2565b5f84815260208120601f198516915b82811015612c875787850151825560209485019460019092019101612c67565b5084821015612ca457868401515f19600387901b60f8161c191681555b50505050600190811b01905550565b6001600160a01b03841681526060602082018190525f90612cd690830185612680565b82810360408401526129968185612680565b6001600160a01b03868116825285811660208301528416604082015260a0606082018190525f90612d1b90830185612680565b8281036080840152612d2d8185612680565b98975050505050505050565b634e487b7160e01b5f52603260045260245ffd5b5f60208284031215612d5d575f5ffd5b5051919050565b5f81518060208401855e5f93019283525090919050565b8481526bffffffffffffffffffffffff198460601b1660208201525f612da46034830185612d64565b92835250506020019392505050565b634e487b7160e01b5f52601160045260245ffd5b5f60018201612dd857612dd8612db3565b5060010190565b8581526bffffffffffffffffffffffff198560601b1660208201525f612e086034830186612d64565b938452505060208201526040019392505050565b80820281158282048414176121e4576121e4612db3565b808201808211156121e4576121e4612db3565b818103818111156121e4576121e4612db3565b5f82612e7357634e487b7160e01b5f52601260045260245ffd5b500490565b5f61129a8284612d6456fe360894a13ba1a3210667c828492db98dca3e2076cc3735a920a3ca505d382bbccdde0392731ff1ddcc3295ee84db8db4a9ad3d8f34056867af8c9f3b2920d44e065b3b95166dc6cadb255ba57b9623fa09d0519437b43d13dbd0d7f7a5ee9b76a2646970667358221220ff03218ce0fec28c418dcd5021c3f99c651100c750b9c42a136fe07ba355886064736f6c634300081c0033","linkReferences":{}},"methodIdentifiers":{"UPGRADE_INTERFACE_VERSION()":"ad3cb1cc","UpdateWorkerDeploymentConfig(bytes32,bytes32,string)":"04887e2f","VERSION()":"ffa1ad74","createDeploymentRequest(bytes32,address,string,string)":"7371498c","createMultipleDeploymentRequest(bytes32,address,string[],string)":"eb42bc8a","createMultiplePrivateDeploymentRequest(bytes32,address,address,string[],string)":"d98f5877","createPrivateDeploymentRequest(bytes32,address,address,string,string)":"bae7e16c","createPrivateProposalRequest(bytes32,address,string,string)":"59617ef7","createProjectID()":"2ae189d8","createProjectIDAndDeploymentRequest(bytes32,string,string)":"c4845f5f","createProjectIDAndPrivateDeploymentRequest(bytes32,string,address,string)":"7ce53f49","createProjectIDAndProposalRequest(bytes32,string,string)":"924b2a2a","createProposalRequest(bytes32,string,string)":"84717e90","deploymentIdList(bytes32,uint256)":"d2a0c275","dummyAddress()":"05b38312","factor()":"54f703f8","getDeploymentProof(bytes32)":"4b6680de","getDeploymentStatus(bytes32)":"09470536","getLatestDeploymentRequestID(address)":"b9bb7135","getLatestProposalRequestID(address)":"f11d3675","getLatestUserProjectID(address)":"ce1b4ff5","getProjectInfo(bytes32)":"e0566833","getReputation(address)":"9c89a0e2","initialize()":"8129fc1c","latestDeploymentRequestID(address)":"078ebeae","latestProjectID(address)":"56ed8752","latestProposalRequestID(address)":"822c737a","owner()":"8da5cb5b","proxiableUUID()":"52d1902d","renounceOwnership()":"715018a6","requestDeploymentStatus(bytes32)":"fcc82939","solverReputation(address)":"ed3c95c0","submitDeploymentRequest(bytes32,bytes32)":"be539d3f","submitProofOfDeployment(bytes32,bytes32,string)":"e128fced","totalDeploymentRequest()":"83c49efa","totalProposalRequest()":"a97bedfe","transferOwnership(address)":"f2fde38b","upgradeProject(bytes32)":"3550753c","upgradeToAndCall(address,bytes)":"4f1ef286","workerReputation(address)":"08a101b8"},"storageLayout":{"storage":[{"astId":51003,"contract":"src/BlueprintV2.sol:BlueprintV2","label":"VERSION","offset":0,"slot":"0","type":"t_string_storage"},{"astId":51005,"contract":"src/BlueprintV2.sol:BlueprintV2","label":"factor","offset":0,"slot":"1","type":"t_uint256"},{"astId":51007,"contract":"src/BlueprintV2.sol:BlueprintV2","label":"totalProposalRequest","offset":0,"slot":"2","type":"t_uint256"},{"astId":51009,"contract":"src/BlueprintV2.sol:BlueprintV2","label":"totalDeploymentRequest","offset":0,"slot":"3","type":"t_uint256"},{"astId":51013,"contract":"src/BlueprintV2.sol:BlueprintV2","label":"latestProposalRequestID","offset":0,"slot":"4","type":"t_mapping(t_address,t_bytes32)"},{"astId":51017,"contract":"src/BlueprintV2.sol:BlueprintV2","label":"latestDeploymentRequestID","offset":0,"slot":"5","type":"t_mapping(t_address,t_bytes32)"},{"astId":51021,"contract":"src/BlueprintV2.sol:BlueprintV2","label":"latestProjectID","offset":0,"slot":"6","type":"t_mapping(t_address,t_bytes32)"},{"astId":51025,"contract":"src/BlueprintV2.sol:BlueprintV2","label":"solverReputation","offset":0,"slot":"7","type":"t_mapping(t_address,t_uint256)"},{"astId":51029,"contract":"src/BlueprintV2.sol:BlueprintV2","label":"workerReputation","offset":0,"slot":"8","type":"t_mapping(t_address,t_uint256)"},{"astId":51034,"contract":"src/BlueprintV2.sol:BlueprintV2","label":"requestDeploymentStatus","offset":0,"slot":"9","type":"t_mapping(t_bytes32,t_struct(DeploymentStatus)51001_storage)"},{"astId":51038,"contract":"src/BlueprintV2.sol:BlueprintV2","label":"deploymentProof","offset":0,"slot":"10","type":"t_mapping(t_bytes32,t_string_storage)"},{"astId":51042,"contract":"src/BlueprintV2.sol:BlueprintV2","label":"requestSolver","offset":0,"slot":"11","type":"t_mapping(t_bytes32,t_address)"},{"astId":51046,"contract":"src/BlueprintV2.sol:BlueprintV2","label":"requestWorker","offset":0,"slot":"12","type":"t_mapping(t_bytes32,t_address)"},{"astId":51050,"contract":"src/BlueprintV2.sol:BlueprintV2","label":"projectIDs","offset":0,"slot":"13","type":"t_mapping(t_bytes32,t_address)"},{"astId":51070,"contract":"src/BlueprintV2.sol:BlueprintV2","label":"projects","offset":0,"slot":"14","type":"t_mapping(t_bytes32,t_struct(Project)51059_storage)"},{"astId":51075,"contract":"src/BlueprintV2.sol:BlueprintV2","label":"deploymentIdList","offset":0,"slot":"15","type":"t_mapping(t_bytes32,t_array(t_bytes32)dyn_storage)"}],"types":{"t_address":{"encoding":"inplace","label":"address","numberOfBytes":"20"},"t_array(t_bytes32)dyn_storage":{"encoding":"dynamic_array","label":"bytes32[]","numberOfBytes":"32","base":"t_bytes32"},"t_bytes32":{"encoding":"inplace","label":"bytes32","numberOfBytes":"32"},"t_enum(Status)50995":{"encoding":"inplace","label":"enum Blueprint.Status","numberOfBytes":"1"},"t_mapping(t_address,t_bytes32)":{"encoding":"mapping","key":"t_address","label":"mapping(address => bytes32)","numberOfBytes":"32","value":"t_bytes32"},"t_mapping(t_address,t_uint256)":{"encoding":"mapping","key":"t_address","label":"mapping(address => uint256)","numberOfBytes":"32","value":"t_uint256"},"t_mapping(t_bytes32,t_address)":{"encoding":"mapping","key":"t_bytes32","label":"mapping(bytes32 => address)","numberOfBytes":"32","value":"t_address"},"t_mapping(t_bytes32,t_array(t_bytes32)dyn_storage)":{"encoding":"mapping","key":"t_bytes32","label":"mapping(bytes32 => bytes32[])","numberOfBytes":"32","value":"t_array(t_bytes32)dyn_storage"},"t_mapping(t_bytes32,t_string_storage)":{"encoding":"mapping","key":"t_bytes32","label":"mapping(bytes32 => string)","numberOfBytes":"32","value":"t_string_storage"},"t_mapping(t_bytes32,t_struct(DeploymentStatus)51001_storage)":{"encoding":"mapping","key":"t_bytes32","label":"mapping(bytes32 => struct Blueprint.DeploymentStatus)","numberOfBytes":"32","value":"t_struct(DeploymentStatus)51001_storage"},"t_mapping(t_bytes32,t_struct(Project)51059_storage)":{"encoding":"mapping","key":"t_bytes32","label":"mapping(bytes32 => struct Blueprint.Project)","numberOfBytes":"32","value":"t_struct(Project)51059_storage"},"t_string_storage":{"encoding":"bytes","label":"string","numberOfBytes":"32"},"t_struct(DeploymentStatus)51001_storage":{"encoding":"inplace","label":"struct Blueprint.DeploymentStatus","numberOfBytes":"32","members":[{"astId":50998,"contract":"src/BlueprintV2.sol:BlueprintV2","label":"status","offset":0,"slot":"0","type":"t_enum(Status)50995"},{"astId":51000,"contract":"src/BlueprintV2.sol:BlueprintV2","label":"deployWorkerAddr","offset":1,"slot":"0","type":"t_address"}]},"t_struct(Project)51059_storage":{"encoding":"inplace","label":"struct Blueprint.Project","numberOfBytes":"128","members":[{"astId":51052,"contract":"src/BlueprintV2.sol:BlueprintV2","label":"id","offset":0,"slot":"0","type":"t_bytes32"},{"astId":51054,"contract":"src/BlueprintV2.sol:BlueprintV2","label":"requestProposalID","offset":0,"slot":"1","type":"t_bytes32"},{"astId":51056,"contract":"src/BlueprintV2.sol:BlueprintV2","label":"requestDeploymentID","offset":0,"slot":"2","type":"t_bytes32"},{"astId":51058,"contract":"src/BlueprintV2.sol:BlueprintV2","label":"proposedSolverAddr","offset":0,"slot":"3","type":"t_address"}]},"t_uint256":{"encoding":"inplace","label":"uint256","numberOfBytes":"32"}}},"id":61}