{"abi":[{"type":"function","name":"UPGRADE_INTERFACE_VERSION","inputs":[],"outputs":[{"name":"","type":"string","internalType":"string"}],"stateMutability":"view"},{"type":"function","name":"VERSION","inputs":[],"outputs":[{"name":"","type":"string","internalType":"string"}],"stateMutability":"view"},{"type":"function","name":"createDeploymentRequest","inputs":[{"name":"projectId","type":"bytes32","internalType":"bytes32"},{"name":"solverAddress","type":"address","internalType":"address"},{"name":"base64Proposal","type":"string","internalType":"string"},{"name":"serverURL","type":"string","internalType":"string"}],"outputs":[{"name":"requestID","type":"bytes32","internalType":"bytes32"}],"stateMutability":"nonpayable"},{"type":"function","name":"createPrivateDeploymentRequest","inputs":[{"name":"projectId","type":"bytes32","internalType":"bytes32"},{"name":"solverAddress","type":"address","internalType":"address"},{"name":"privateWorkerAddress","type":"address","internalType":"address"},{"name":"base64Proposal","type":"string","internalType":"string"},{"name":"serverURL","type":"string","internalType":"string"}],"outputs":[{"name":"requestID","type":"bytes32","internalType":"bytes32"}],"stateMutability":"nonpayable"},{"type":"function","name":"createPrivateProposalRequest","inputs":[{"name":"projectId","type":"bytes32","internalType":"bytes32"},{"name":"privateSolverAddress","type":"address","internalType":"address"},{"name":"base64RecParam","type":"string","internalType":"string"},{"name":"serverURL","type":"string","internalType":"string"}],"outputs":[{"name":"requestID","type":"bytes32","internalType":"bytes32"}],"stateMutability":"nonpayable"},{"type":"function","name":"createProjectID","inputs":[],"outputs":[{"name":"projectId","type":"bytes32","internalType":"bytes32"}],"stateMutability":"nonpayable"},{"type":"function","name":"createProposalRequest","inputs":[{"name":"projectId","type":"bytes32","internalType":"bytes32"},{"name":"base64RecParam","type":"string","internalType":"string"},{"name":"serverURL","type":"string","internalType":"string"}],"outputs":[{"name":"requestID","type":"bytes32","internalType":"bytes32"}],"stateMutability":"nonpayable"},{"type":"function","name":"factor","inputs":[],"outputs":[{"name":"","type":"uint256","internalType":"uint256"}],"stateMutability":"view"},{"type":"function","name":"getDeploymentStatus","inputs":[{"name":"requestID","type":"bytes32","internalType":"bytes32"}],"outputs":[{"name":"","type":"uint8","internalType":"enum Blueprint.Status"},{"name":"","type":"address","internalType":"address"}],"stateMutability":"view"},{"type":"function","name":"getLatestDeploymentRequestID","inputs":[{"name":"addr","type":"address","internalType":"address"}],"outputs":[{"name":"","type":"bytes32","internalType":"bytes32"}],"stateMutability":"view"},{"type":"function","name":"getLatestProposalRequestID","inputs":[{"name":"addr","type":"address","internalType":"address"}],"outputs":[{"name":"","type":"bytes32","internalType":"bytes32"}],"stateMutability":"view"},{"type":"function","name":"getLatestUserProjectID","inputs":[{"name":"addr","type":"address","internalType":"address"}],"outputs":[{"name":"","type":"bytes32","internalType":"bytes32"}],"stateMutability":"view"},{"type":"function","name":"getReputation","inputs":[{"name":"addr","type":"address","internalType":"address"}],"outputs":[{"name":"","type":"uint256","internalType":"uint256"}],"stateMutability":"view"},{"type":"function","name":"initialize","inputs":[],"outputs":[],"stateMutability":"nonpayable"},{"type":"function","name":"latestDeploymentRequestID","inputs":[{"name":"","type":"address","internalType":"address"}],"outputs":[{"name":"","type":"bytes32","internalType":"bytes32"}],"stateMutability":"view"},{"type":"function","name":"latestProjectID","inputs":[{"name":"","type":"address","internalType":"address"}],"outputs":[{"name":"","type":"bytes32","internalType":"bytes32"}],"stateMutability":"view"},{"type":"function","name":"latestProposalRequestID","inputs":[{"name":"","type":"address","internalType":"address"}],"outputs":[{"name":"","type":"bytes32","internalType":"bytes32"}],"stateMutability":"view"},{"type":"function","name":"owner","inputs":[],"outputs":[{"name":"","type":"address","internalType":"address"}],"stateMutability":"view"},{"type":"function","name":"proxiableUUID","inputs":[],"outputs":[{"name":"","type":"bytes32","internalType":"bytes32"}],"stateMutability":"view"},{"type":"function","name":"renounceOwnership","inputs":[],"outputs":[],"stateMutability":"nonpayable"},{"type":"function","name":"requestDeploymentStatus","inputs":[{"name":"","type":"bytes32","internalType":"bytes32"}],"outputs":[{"name":"status","type":"uint8","internalType":"enum Blueprint.Status"},{"name":"deployWorkerAddr","type":"address","internalType":"address"}],"stateMutability":"view"},{"type":"function","name":"solverReputation","inputs":[{"name":"","type":"address","internalType":"address"}],"outputs":[{"name":"","type":"uint256","internalType":"uint256"}],"stateMutability":"view"},{"type":"function","name":"submitDeploymentRequest","inputs":[{"name":"projectId","type":"bytes32","internalType":"bytes32"},{"name":"requestID","type":"bytes32","internalType":"bytes32"}],"outputs":[{"name":"isAccepted","type":"bool","internalType":"bool"}],"stateMutability":"nonpayable"},{"type":"function","name":"submitProofOfDeployment","inputs":[{"name":"projectId","type":"bytes32","internalType":"bytes32"},{"name":"requestID","type":"bytes32","internalType":"bytes32"},{"name":"proofBase64","type":"string","internalType":"string"}],"outputs":[],"stateMutability":"nonpayable"},{"type":"function","name":"totalDeploymentRequest","inputs":[],"outputs":[{"name":"","type":"uint256","internalType":"uint256"}],"stateMutability":"view"},{"type":"function","name":"totalProposalRequest","inputs":[],"outputs":[{"name":"","type":"uint256","internalType":"uint256"}],"stateMutability":"view"},{"type":"function","name":"transferOwnership","inputs":[{"name":"newOwner","type":"address","internalType":"address"}],"outputs":[],"stateMutability":"nonpayable"},{"type":"function","name":"upgradeToAndCall","inputs":[{"name":"newImplementation","type":"address","internalType":"address"},{"name":"data","type":"bytes","internalType":"bytes"}],"outputs":[],"stateMutability":"payable"},{"type":"function","name":"workerReputation","inputs":[{"name":"","type":"address","internalType":"address"}],"outputs":[{"name":"","type":"uint256","internalType":"uint256"}],"stateMutability":"view"},{"type":"event","name":"AcceptDeployment","inputs":[{"name":"projectID","type":"bytes32","indexed":true,"internalType":"bytes32"},{"name":"requestID","type":"bytes32","indexed":true,"internalType":"bytes32"},{"name":"workerAddress","type":"address","indexed":true,"internalType":"address"}],"anonymous":false},{"type":"event","name":"CreateProjectID","inputs":[{"name":"projectID","type":"bytes32","indexed":true,"internalType":"bytes32"},{"name":"walletAddress","type":"address","indexed":false,"internalType":"address"}],"anonymous":false},{"type":"event","name":"GeneratedProofOfDeployment","inputs":[{"name":"projectID","type":"bytes32","indexed":true,"internalType":"bytes32"},{"name":"requestID","type":"bytes32","indexed":true,"internalType":"bytes32"},{"name":"base64DeploymentProof","type":"string","indexed":false,"internalType":"string"}],"anonymous":false},{"type":"event","name":"Initialized","inputs":[{"name":"version","type":"uint64","indexed":false,"internalType":"uint64"}],"anonymous":false},{"type":"event","name":"OwnershipTransferred","inputs":[{"name":"previousOwner","type":"address","indexed":true,"internalType":"address"},{"name":"newOwner","type":"address","indexed":true,"internalType":"address"}],"anonymous":false},{"type":"event","name":"RequestDeployment","inputs":[{"name":"projectID","type":"bytes32","indexed":true,"internalType":"bytes32"},{"name":"walletAddress","type":"address","indexed":false,"internalType":"address"},{"name":"solverAddress","type":"address","indexed":false,"internalType":"address"},{"name":"requestID","type":"bytes32","indexed":true,"internalType":"bytes32"},{"name":"base64Proposal","type":"string","indexed":false,"internalType":"string"},{"name":"serverURL","type":"string","indexed":false,"internalType":"string"}],"anonymous":false},{"type":"event","name":"RequestPrivateDeployment","inputs":[{"name":"projectID","type":"bytes32","indexed":true,"internalType":"bytes32"},{"name":"walletAddress","type":"address","indexed":false,"internalType":"address"},{"name":"privateWorkerAddress","type":"address","indexed":false,"internalType":"address"},{"name":"solverAddress","type":"address","indexed":false,"internalType":"address"},{"name":"requestID","type":"bytes32","indexed":true,"internalType":"bytes32"},{"name":"base64Proposal","type":"string","indexed":false,"internalType":"string"},{"name":"serverURL","type":"string","indexed":false,"internalType":"string"}],"anonymous":false},{"type":"event","name":"RequestPrivateProposal","inputs":[{"name":"projectID","type":"bytes32","indexed":true,"internalType":"bytes32"},{"name":"walletAddress","type":"address","indexed":false,"internalType":"address"},{"name":"privateSolverAddress","type":"address","indexed":false,"internalType":"address"},{"name":"requestID","type":"bytes32","indexed":true,"internalType":"bytes32"},{"name":"base64RecParam","type":"string","indexed":false,"internalType":"string"},{"name":"serverURL","type":"string","indexed":false,"internalType":"string"}],"anonymous":false},{"type":"event","name":"RequestProposal","inputs":[{"name":"projectID","type":"bytes32","indexed":true,"internalType":"bytes32"},{"name":"walletAddress","type":"address","indexed":false,"internalType":"address"},{"name":"requestID","type":"bytes32","indexed":true,"internalType":"bytes32"},{"name":"base64RecParam","type":"string","indexed":false,"internalType":"string"},{"name":"serverURL","type":"string","indexed":false,"internalType":"string"}],"anonymous":false},{"type":"event","name":"Upgraded","inputs":[{"name":"implementation","type":"address","indexed":true,"internalType":"address"}],"anonymous":false},{"type":"error","name":"AddressEmptyCode","inputs":[{"name":"target","type":"address","internalType":"address"}]},{"type":"error","name":"ERC1967InvalidImplementation","inputs":[{"name":"implementation","type":"address","internalType":"address"}]},{"type":"error","name":"ERC1967NonPayable","inputs":[]},{"type":"error","name":"FailedInnerCall","inputs":[]},{"type":"error","name":"InvalidInitialization","inputs":[]},{"type":"error","name":"NotInitializing","inputs":[]},{"type":"error","name":"OwnableInvalidOwner","inputs":[{"name":"owner","type":"address","internalType":"address"}]},{"type":"error","name":"OwnableUnauthorizedAccount","inputs":[{"name":"account","type":"address","internalType":"address"}]},{"type":"error","name":"UUPSUnauthorizedCallContext","inputs":[]},{"type":"error","name":"UUPSUnsupportedProxiableUUID","inputs":[{"name":"slot","type":"bytes32","internalType":"bytes32"}]}],"bytecode":{"object":"0x3060805260e0604052600560a0908152640302e302e360dc1b60c05260009061002890826100ea565b506127106001556000600255600060035534801561004557600080fd5b506101a8565b634e487b7160e01b600052604160045260246000fd5b600181811c9082168061007557607f821691505b60208210810361009557634e487b7160e01b600052602260045260246000fd5b50919050565b601f8211156100e557806000526020600020601f840160051c810160208510156100c25750805b601f840160051c820191505b818110156100e257600081556001016100ce565b50505b505050565b81516001600160401b038111156101035761010361004b565b610117816101118454610061565b8461009b565b6020601f82116001811461014b57600083156101335750848201515b600019600385901b1c1916600184901b1784556100e2565b600084815260208120601f198516915b8281101561017b578785015182556020948501946001909201910161015b565b50848210156101995786840151600019600387901b60f8161c191681555b50505050600190811b01905550565b6080516121696101d16000396000818161141901528181611442015261158801526121696000f3fe6080604052600436106101c25760003560e01c806384717e90116100f7578063be539d3f11610095578063f11d367511610064578063f11d3675146105ac578063f2fde38b146105e2578063fcc8293914610602578063ffa1ad741461064257600080fd5b8063be539d3f146104f9578063ce1b4ff514610529578063e128fced1461055f578063ed3c95c01461057f57600080fd5b8063a97bedfe116100d1578063a97bedfe1461044f578063ad3cb1cc14610465578063b9bb7135146104a3578063bae7e16c146104d957600080fd5b806384717e90146103b25780638da5cb5b146103d25780639c89a0e21461041957600080fd5b806356ed8752116101645780637371498c1161013e5780637371498c1461033a5780638129fc1c1461035a578063822c737a1461036f57806383c49efa1461039c57600080fd5b806356ed8752146102d857806359617ef714610305578063715018a61461032557600080fd5b80632ae189d8116101a05780632ae189d8146102835780634f1ef2861461029857806352d1902d146102ad57806354f703f8146102c257600080fd5b8063078ebeae146101c757806308a101b8146102075780630947053614610234575b600080fd5b3480156101d357600080fd5b506101f46101e23660046119b9565b60056020526000908152604090205481565b6040519081526020015b60405180910390f35b34801561021357600080fd5b506101f46102223660046119b9565b60086020526000908152604090205481565b34801561024057600080fd5b5061027561024f3660046119d4565b60009081526009602052604090205460ff8116916101009091046001600160a01b031690565b6040516101fe929190611a03565b34801561028f57600080fd5b506101f4610657565b6102ab6102a6366004611acb565b610701565b005b3480156102b957600080fd5b506101f4610720565b3480156102ce57600080fd5b506101f460015481565b3480156102e457600080fd5b506101f46102f33660046119b9565b60066020526000908152604090205481565b34801561031157600080fd5b506101f4610320366004611b4c565b61073d565b34801561033157600080fd5b506102ab6108b4565b34801561034657600080fd5b506101f4610355366004611b4c565b6108c8565b34801561036657600080fd5b506102ab610ae0565b34801561037b57600080fd5b506101f461038a3660046119b9565b60046020526000908152604090205481565b3480156103a857600080fd5b506101f460035481565b3480156103be57600080fd5b506101f46103cd366004611bcd565b610c17565b3480156103de57600080fd5b507f9016d09d72d40fdae2fd8ceac6b6234c7706214fd39c1cd1e609a0528c199300546040516001600160a01b0390911681526020016101fe565b34801561042557600080fd5b506101f46104343660046119b9565b6001600160a01b031660009081526007602052604090205490565b34801561045b57600080fd5b506101f460025481565b34801561047157600080fd5b50610496604051806040016040528060058152602001640352e302e360dc1b81525081565b6040516101fe9190611c8d565b3480156104af57600080fd5b506101f46104be3660046119b9565b6001600160a01b031660009081526005602052604090205490565b3480156104e557600080fd5b506101f46104f4366004611ca0565b610d58565b34801561050557600080fd5b50610519610514366004611d32565b610fb8565b60405190151581526020016101fe565b34801561053557600080fd5b506101f46105443660046119b9565b6001600160a01b031660009081526006602052604090205490565b34801561056b57600080fd5b506102ab61057a366004611d54565b611171565b34801561058b57600080fd5b506101f461059a3660046119b9565b60076020526000908152604090205481565b3480156105b857600080fd5b506101f46105c73660046119b9565b6001600160a01b031660009081526004602052604090205490565b3480156105ee57600080fd5b506102ab6105fd3660046119b9565b611342565b34801561060e57600080fd5b5061027561061d3660046119d4565b60096020526000908152604090205460ff81169061010090046001600160a01b031682565b34801561064e57600080fd5b50610496611380565b604080514260208201526bffffffffffffffffffffffff193360601b169181019190915246605482015260009060740160408051601f1981840301815282825280516020918201206000818152600d835283812080546001600160a01b031916339081179091558082526006845293902081905591835290925082917f988dde20b788b20d2f8188ab37bc9419a99761fc4ec19356dc30cfa49b4601dc910160405180910390a290565b61070961140e565b610712826114b3565b61071c82826114bb565b5050565b600061072a61157d565b5060008051602061211483398151915290565b6000848152600d60205260408120546001600160a01b031661077a5760405162461bcd60e51b815260040161077190611d8d565b60405180910390fd5b600082511161079b5760405162461bcd60e51b815260040161077190611dc4565b60008351116107e65760405162461bcd60e51b8152602060048201526017602482015276626173653634526563506172616d20697320656d70747960481b6044820152606401610771565b6000423385466040516020016107ff9493929190611df0565b60408051601f198184030181529181528151602092830120336000908152600490935290822081905560028054919450849350909161083d83611e4c565b90915550506000828152600b60205260409081902080546001600160a01b0319166001600160a01b03881617905551819087907f1eb4ec68b7c7cf7850d18fd32bdd1cb9e2c9b7e1de32211eef093af3cf262aee906108a39033908a908a908a90611e65565b60405180910390a350949350505050565b6108bc6115c6565b6108c66000611621565b565b6000848152600d60205260408120546001600160a01b03166108fc5760405162461bcd60e51b815260040161077190611d8d565b600082511161091d5760405162461bcd60e51b815260040161077190611dc4565b60008351116109685760405162461bcd60e51b815260206004820152601760248201527662617365363450726f706f73616c20697320656d70747960481b6044820152606401610771565b6001600160a01b0384166109be5760405162461bcd60e51b815260206004820152601a60248201527f736f6c76657241646472657373206973206e6f742076616c69640000000000006044820152606401610771565b6000423385466040516020016109d79493929190611df0565b60408051601f1981840301815291815281516020928301203360009081526005909352908220819055600380549194508493509091610a1583611e4c565b9091555050604080518082019091526000808252602082015260018082526000848152600960205260409020825181548493839160ff191690836005811115610a6057610a606119ed565b02179055506020919091015181546001600160a01b0390911661010002610100600160a81b0319909116179055610a9686611692565b5081877fcdde0392731ff1ddcc3295ee84db8db4a9ad3d8f34056867af8c9f3b2920d44e33898989604051610ace9493929190611e65565b60405180910390a35050949350505050565b7ff0c57e16840df040f15088dc2f81fe391c3923bec73e23a9662efc9c229c6a008054600160401b810460ff1615906001600160401b0316600081158015610b255750825b90506000826001600160401b03166001148015610b415750303b155b905081158015610b4f575080155b15610b6d5760405163f92ee8a960e01b815260040160405180910390fd5b845467ffffffffffffffff191660011785558315610b9757845460ff60401b1916600160401b1785555b610ba033611761565b6040805180820190915260058152640312e302e360dc1b6020820152600090610bc99082611f2f565b508315610c1057845460ff60401b19168555604051600181527fc7f505b2f371ae2175ee4913f4499e1f2633a7b5936321eed1cdaeb6115181d29060200160405180910390a15b5050505050565b6000838152600d60205260408120546001600160a01b0316610c4b5760405162461bcd60e51b815260040161077190611d8d565b6000825111610c6c5760405162461bcd60e51b815260040161077190611dc4565b6000835111610cb75760405162461bcd60e51b8152602060048201526017602482015276626173653634526563506172616d20697320656d70747960481b6044820152606401610771565b600042338546604051602001610cd09493929190611df0565b60408051601f1981840301815291815281516020928301203360009081526004909352908220819055600280549194508493509091610d0e83611e4c565b919050555080857f660f0cd9ab48b3916970cca5763925f3b8f0e0e158fb9f0f4ae5f71e9605d767338787604051610d4893929190611fed565b60405180910390a3509392505050565b6000858152600d60205260408120546001600160a01b0316610d8c5760405162461bcd60e51b815260040161077190611d8d565b6000825111610dad5760405162461bcd60e51b815260040161077190611dc4565b6000835111610df85760405162461bcd60e51b815260206004820152601760248201527662617365363450726f706f73616c20697320656d70747960481b6044820152606401610771565b6001600160a01b038516610e4e5760405162461bcd60e51b815260206004820152601a60248201527f736f6c76657241646472657373206973206e6f742076616c69640000000000006044820152606401610771565b600042338546604051602001610e679493929190611df0565b60408051601f1981840301815291815281516020928301203360009081526005909352908220819055600380549194508493509091610ea583611e4c565b9190505550610eb386611692565b50604080518082018252600281526001600160a01b03871660208083019190915260008581526009909152919091208151815483929190829060ff19166001836005811115610f0457610f046119ed565b02179055506020919091015181546001600160a01b0390911661010002610100600160a81b0319909116179055604051829089907f26e5b75b543be1cdad2907ba50a99eeb5c3a05381eee18d5b6a565b2bbccd1ba90610f6d9033908b908d908c908c9061202d565b60405180910390a3856001600160a01b031683897f065b3b95166dc6cadb255ba57b9623fa09d0519437b43d13dbd0d7f7a5ee9b7660405160405180910390a4505095945050505050565b6000828152600d60205260408120546001600160a01b0316610fec5760405162461bcd60e51b815260040161077190611d8d565b60008281526009602052604081205460ff16600581111561100f5761100f6119ed565b0361105c5760405162461bcd60e51b815260206004820152601860248201527f72657175657374494420646f6573206e6f7420657869737400000000000000006044820152606401610771565b600260008381526009602052604090205460ff166005811115611081576110816119ed565b036111025760405162461bcd60e51b815260206004820152604560248201527f72657175657374494420616c7265616479207069636b656420627920616e6f7460448201527f68657220776f726b65722c20747279206120646966666572656e742072657175606482015264195cdd125160da1b608482015260a401610771565b50600081815260096020526040808220805460026101003381026001600160a81b03199093169290921717918290559151600193929091046001600160a01b031691849186917f065b3b95166dc6cadb255ba57b9623fa09d0519437b43d13dbd0d7f7a5ee9b7691a492915050565b6000838152600d60205260409020546001600160a01b03166111a55760405162461bcd60e51b815260040161077190611d8d565b60008281526009602052604081205460ff1660058111156111c8576111c86119ed565b0361120b5760405162461bcd60e51b81526020600482015260136024820152721c995c5d595cdd081251081b9bdd08195e1a5d606a1b6044820152606401610771565b60008281526009602052604090205461010090046001600160a01b0316331461126d5760405162461bcd60e51b815260206004820152601460248201527377726f6e6720776f726b6572206164647265737360601b6044820152606401610771565b600560008381526009602052604090205460ff166005811115611292576112926119ed565b036112d65760405162461bcd60e51b815260206004820152601460248201527330b63932b0b23c9039bab136b4ba10383937b7b360611b6044820152606401610771565b6000828152600960209081526040808320805460ff19166005179055600a90915290206113038282611f2f565b5081837fddb29833db778500c94a5880f1a8ad549d91ec7c80faee2b3735bda881fa6d98836040516113359190611c8d565b60405180910390a3505050565b61134a6115c6565b6001600160a01b03811661137457604051631e4fbdf760e01b815260006004820152602401610771565b61137d81611621565b50565b6000805461138d90611eae565b80601f01602080910402602001604051908101604052809291908181526020018280546113b990611eae565b80156114065780601f106113db57610100808354040283529160200191611406565b820191906000526020600020905b8154815290600101906020018083116113e957829003601f168201915b505050505081565b306001600160a01b037f000000000000000000000000000000000000000000000000000000000000000016148061149557507f00000000000000000000000000000000000000000000000000000000000000006001600160a01b0316611489600080516020612114833981519152546001600160a01b031690565b6001600160a01b031614155b156108c65760405163703e46dd60e11b815260040160405180910390fd5b61137d6115c6565b816001600160a01b03166352d1902d6040518163ffffffff1660e01b8152600401602060405180830381865afa925050508015611515575060408051601f3d908101601f191682019092526115129181019061207f565b60015b61153d57604051634c9c8ce360e01b81526001600160a01b0383166004820152602401610771565b600080516020612114833981519152811461156e57604051632a87526960e21b815260048101829052602401610771565b6115788383611772565b505050565b306001600160a01b037f000000000000000000000000000000000000000000000000000000000000000016146108c65760405163703e46dd60e11b815260040160405180910390fd5b336115f87f9016d09d72d40fdae2fd8ceac6b6234c7706214fd39c1cd1e609a0528c199300546001600160a01b031690565b6001600160a01b0316146108c65760405163118cdaa760e01b8152336004820152602401610771565b7f9016d09d72d40fdae2fd8ceac6b6234c7706214fd39c1cd1e609a0528c19930080546001600160a01b031981166001600160a01b03848116918217845560405192169182907f8be0079c531659141344cd1fd0a4f28419497f9722a3daafe3b4186f6b6457e090600090a3505050565b6001600160a01b0381166000908152600760205260409020546001546116b9906006612098565b8110156116d4576001546116cd90826120af565b9050611742565b6103e8600254111561170f576002546001546116f1906006612098565b6116fb90836120c2565b61170591906120d5565b6116cd90826120af565b6103e860015460066117219190612098565b61172b90836120c2565b61173591906120d5565b61173f90826120af565b90505b6001600160a01b03909116600090815260076020526040902081905590565b6117696117c8565b61137d81611811565b61177b82611819565b6040516001600160a01b038316907fbc7cd75a20ee27fd9adebab32041f755214dbc6bffa90cc0225b39da2e5c2d3b90600090a28051156117c057611578828261187e565b61071c6118f6565b7ff0c57e16840df040f15088dc2f81fe391c3923bec73e23a9662efc9c229c6a0054600160401b900460ff166108c657604051631afcd79f60e31b815260040160405180910390fd5b61134a6117c8565b806001600160a01b03163b60000361184f57604051634c9c8ce360e01b81526001600160a01b0382166004820152602401610771565b60008051602061211483398151915280546001600160a01b0319166001600160a01b0392909216919091179055565b6060600080846001600160a01b03168460405161189b91906120f7565b600060405180830381855af49150503d80600081146118d6576040519150601f19603f3d011682016040523d82523d6000602084013e6118db565b606091505b50915091506118eb858383611915565b925050505b92915050565b34156108c65760405163b398979f60e01b815260040160405180910390fd5b60608261192a5761192582611974565b61196d565b815115801561194157506001600160a01b0384163b155b1561196a57604051639996b31560e01b81526001600160a01b0385166004820152602401610771565b50805b9392505050565b8051156119845780518082602001fd5b604051630a12f52160e11b815260040160405180910390fd5b80356001600160a01b03811681146119b457600080fd5b919050565b6000602082840312156119cb57600080fd5b61196d8261199d565b6000602082840312156119e657600080fd5b5035919050565b634e487b7160e01b600052602160045260246000fd5b6040810160068410611a2557634e487b7160e01b600052602160045260246000fd5b9281526001600160a01b039190911660209091015290565b634e487b7160e01b600052604160045260246000fd5b6000806001600160401b03841115611a6d57611a6d611a3d565b50604051601f19601f85018116603f011681018181106001600160401b0382111715611a9b57611a9b611a3d565b604052838152905080828401851015611ab357600080fd5b83836020830137600060208583010152509392505050565b60008060408385031215611ade57600080fd5b611ae78361199d565b915060208301356001600160401b03811115611b0257600080fd5b8301601f81018513611b1357600080fd5b611b2285823560208401611a53565b9150509250929050565b600082601f830112611b3d57600080fd5b61196d83833560208501611a53565b60008060008060808587031215611b6257600080fd5b84359350611b726020860161199d565b925060408501356001600160401b03811115611b8d57600080fd5b611b9987828801611b2c565b92505060608501356001600160401b03811115611bb557600080fd5b611bc187828801611b2c565b91505092959194509250565b600080600060608486031215611be257600080fd5b8335925060208401356001600160401b03811115611bff57600080fd5b611c0b86828701611b2c565b92505060408401356001600160401b03811115611c2757600080fd5b611c3386828701611b2c565b9150509250925092565b60005b83811015611c58578181015183820152602001611c40565b50506000910152565b60008151808452611c79816020860160208601611c3d565b601f01601f19169290920160200192915050565b60208152600061196d6020830184611c61565b600080600080600060a08688031215611cb857600080fd5b85359450611cc86020870161199d565b9350611cd66040870161199d565b925060608601356001600160401b03811115611cf157600080fd5b611cfd88828901611b2c565b92505060808601356001600160401b03811115611d1957600080fd5b611d2588828901611b2c565b9150509295509295909350565b60008060408385031215611d4557600080fd5b50508035926020909101359150565b600080600060608486031215611d6957600080fd5b833592506020840135915060408401356001600160401b03811115611c2757600080fd5b60208082526018908201527f70726f6a656374496420646f6573206e6f742065786973740000000000000000604082015260600190565b60208082526012908201527173657276657255524c20697320656d70747960701b604082015260600190565b8481526bffffffffffffffffffffffff198460601b16602082015260008351611e20816034850160208801611c3d565b6034920191820192909252605401949350505050565b634e487b7160e01b600052601160045260246000fd5b600060018201611e5e57611e5e611e36565b5060010190565b6001600160a01b03858116825284166020820152608060408201819052600090611e9190830185611c61565b8281036060840152611ea38185611c61565b979650505050505050565b600181811c90821680611ec257607f821691505b602082108103611ee257634e487b7160e01b600052602260045260246000fd5b50919050565b601f82111561157857806000526020600020601f840160051c81016020851015611f0f5750805b601f840160051c820191505b81811015610c105760008155600101611f1b565b81516001600160401b03811115611f4857611f48611a3d565b611f5c81611f568454611eae565b84611ee8565b6020601f821160018114611f905760008315611f785750848201515b600019600385901b1c1916600184901b178455610c10565b600084815260208120601f198516915b82811015611fc05787850151825560209485019460019092019101611fa0565b5084821015611fde5786840151600019600387901b60f8161c191681555b50505050600190811b01905550565b6001600160a01b038416815260606020820181905260009061201190830185611c61565b82810360408401526120238185611c61565b9695505050505050565b6001600160a01b03868116825285811660208301528416604082015260a06060820181905260009061206190830185611c61565b82810360808401526120738185611c61565b98975050505050505050565b60006020828403121561209157600080fd5b5051919050565b80820281158282048414176118f0576118f0611e36565b808201808211156118f0576118f0611e36565b818103818111156118f0576118f0611e36565b6000826120f257634e487b7160e01b600052601260045260246000fd5b500490565b60008251612109818460208701611c3d565b919091019291505056fe360894a13ba1a3210667c828492db98dca3e2076cc3735a920a3ca505d382bbca2646970667358221220081e68f6b97eef05faeea4e0cfb13f0496b476455e565e1c60176a733b51345a64736f6c634300081a0033","linkReferences":{}},"methodIdentifiers":{"UPGRADE_INTERFACE_VERSION()":"ad3cb1cc","VERSION()":"ffa1ad74","createDeploymentRequest(bytes32,address,string,string)":"7371498c","createPrivateDeploymentRequest(bytes32,address,address,string,string)":"bae7e16c","createPrivateProposalRequest(bytes32,address,string,string)":"59617ef7","createProjectID()":"2ae189d8","createProposalRequest(bytes32,string,string)":"84717e90","factor()":"54f703f8","getDeploymentStatus(bytes32)":"09470536","getLatestDeploymentRequestID(address)":"b9bb7135","getLatestProposalRequestID(address)":"f11d3675","getLatestUserProjectID(address)":"ce1b4ff5","getReputation(address)":"9c89a0e2","initialize()":"8129fc1c","latestDeploymentRequestID(address)":"078ebeae","latestProjectID(address)":"56ed8752","latestProposalRequestID(address)":"822c737a","owner()":"8da5cb5b","proxiableUUID()":"52d1902d","renounceOwnership()":"715018a6","requestDeploymentStatus(bytes32)":"fcc82939","solverReputation(address)":"ed3c95c0","submitDeploymentRequest(bytes32,bytes32)":"be539d3f","submitProofOfDeployment(bytes32,bytes32,string)":"e128fced","totalDeploymentRequest()":"83c49efa","totalProposalRequest()":"a97bedfe","transferOwnership(address)":"f2fde38b","upgradeToAndCall(address,bytes)":"4f1ef286","workerReputation(address)":"08a101b8"},"id":26}